{
  "contractName": "ERC20PresetMinterPauserUpgradeable",
  "abi": [
    {
      "anonymous": false,
      "inputs": [
        {
          "indexed": true,
          "internalType": "address",
          "name": "owner",
          "type": "address"
        },
        {
          "indexed": true,
          "internalType": "address",
          "name": "spender",
          "type": "address"
        },
        {
          "indexed": false,
          "internalType": "uint256",
          "name": "value",
          "type": "uint256"
        }
      ],
      "name": "Approval",
      "type": "event"
    },
    {
      "anonymous": false,
      "inputs": [
        {
          "indexed": false,
          "internalType": "uint8",
          "name": "version",
          "type": "uint8"
        }
      ],
      "name": "Initialized",
      "type": "event"
    },
    {
      "anonymous": false,
      "inputs": [
        {
          "indexed": false,
          "internalType": "address",
          "name": "account",
          "type": "address"
        }
      ],
      "name": "Paused",
      "type": "event"
    },
    {
      "anonymous": false,
      "inputs": [
        {
          "indexed": true,
          "internalType": "bytes32",
          "name": "role",
          "type": "bytes32"
        },
        {
          "indexed": true,
          "internalType": "bytes32",
          "name": "previousAdminRole",
          "type": "bytes32"
        },
        {
          "indexed": true,
          "internalType": "bytes32",
          "name": "newAdminRole",
          "type": "bytes32"
        }
      ],
      "name": "RoleAdminChanged",
      "type": "event"
    },
    {
      "anonymous": false,
      "inputs": [
        {
          "indexed": true,
          "internalType": "bytes32",
          "name": "role",
          "type": "bytes32"
        },
        {
          "indexed": true,
          "internalType": "address",
          "name": "account",
          "type": "address"
        },
        {
          "indexed": true,
          "internalType": "address",
          "name": "sender",
          "type": "address"
        }
      ],
      "name": "RoleGranted",
      "type": "event"
    },
    {
      "anonymous": false,
      "inputs": [
        {
          "indexed": true,
          "internalType": "bytes32",
          "name": "role",
          "type": "bytes32"
        },
        {
          "indexed": true,
          "internalType": "address",
          "name": "account",
          "type": "address"
        },
        {
          "indexed": true,
          "internalType": "address",
          "name": "sender",
          "type": "address"
        }
      ],
      "name": "RoleRevoked",
      "type": "event"
    },
    {
      "anonymous": false,
      "inputs": [
        {
          "indexed": true,
          "internalType": "address",
          "name": "from",
          "type": "address"
        },
        {
          "indexed": true,
          "internalType": "address",
          "name": "to",
          "type": "address"
        },
        {
          "indexed": false,
          "internalType": "uint256",
          "name": "value",
          "type": "uint256"
        }
      ],
      "name": "Transfer",
      "type": "event"
    },
    {
      "anonymous": false,
      "inputs": [
        {
          "indexed": false,
          "internalType": "address",
          "name": "account",
          "type": "address"
        }
      ],
      "name": "Unpaused",
      "type": "event"
    },
    {
      "inputs": [],
      "name": "DEFAULT_ADMIN_ROLE",
      "outputs": [
        {
          "internalType": "bytes32",
          "name": "",
          "type": "bytes32"
        }
      ],
      "stateMutability": "view",
      "type": "function"
    },
    {
      "inputs": [],
      "name": "MINTER_ROLE",
      "outputs": [
        {
          "internalType": "bytes32",
          "name": "",
          "type": "bytes32"
        }
      ],
      "stateMutability": "view",
      "type": "function"
    },
    {
      "inputs": [],
      "name": "PAUSER_ROLE",
      "outputs": [
        {
          "internalType": "bytes32",
          "name": "",
          "type": "bytes32"
        }
      ],
      "stateMutability": "view",
      "type": "function"
    },
    {
      "inputs": [
        {
          "internalType": "address",
          "name": "owner",
          "type": "address"
        },
        {
          "internalType": "address",
          "name": "spender",
          "type": "address"
        }
      ],
      "name": "allowance",
      "outputs": [
        {
          "internalType": "uint256",
          "name": "",
          "type": "uint256"
        }
      ],
      "stateMutability": "view",
      "type": "function"
    },
    {
      "inputs": [
        {
          "internalType": "address",
          "name": "spender",
          "type": "address"
        },
        {
          "internalType": "uint256",
          "name": "amount",
          "type": "uint256"
        }
      ],
      "name": "approve",
      "outputs": [
        {
          "internalType": "bool",
          "name": "",
          "type": "bool"
        }
      ],
      "stateMutability": "nonpayable",
      "type": "function"
    },
    {
      "inputs": [
        {
          "internalType": "address",
          "name": "account",
          "type": "address"
        }
      ],
      "name": "balanceOf",
      "outputs": [
        {
          "internalType": "uint256",
          "name": "",
          "type": "uint256"
        }
      ],
      "stateMutability": "view",
      "type": "function"
    },
    {
      "inputs": [
        {
          "internalType": "uint256",
          "name": "amount",
          "type": "uint256"
        }
      ],
      "name": "burn",
      "outputs": [],
      "stateMutability": "nonpayable",
      "type": "function"
    },
    {
      "inputs": [
        {
          "internalType": "address",
          "name": "account",
          "type": "address"
        },
        {
          "internalType": "uint256",
          "name": "amount",
          "type": "uint256"
        }
      ],
      "name": "burnFrom",
      "outputs": [],
      "stateMutability": "nonpayable",
      "type": "function"
    },
    {
      "inputs": [],
      "name": "decimals",
      "outputs": [
        {
          "internalType": "uint8",
          "name": "",
          "type": "uint8"
        }
      ],
      "stateMutability": "view",
      "type": "function"
    },
    {
      "inputs": [
        {
          "internalType": "address",
          "name": "spender",
          "type": "address"
        },
        {
          "internalType": "uint256",
          "name": "subtractedValue",
          "type": "uint256"
        }
      ],
      "name": "decreaseAllowance",
      "outputs": [
        {
          "internalType": "bool",
          "name": "",
          "type": "bool"
        }
      ],
      "stateMutability": "nonpayable",
      "type": "function"
    },
    {
      "inputs": [
        {
          "internalType": "bytes32",
          "name": "role",
          "type": "bytes32"
        }
      ],
      "name": "getRoleAdmin",
      "outputs": [
        {
          "internalType": "bytes32",
          "name": "",
          "type": "bytes32"
        }
      ],
      "stateMutability": "view",
      "type": "function"
    },
    {
      "inputs": [
        {
          "internalType": "bytes32",
          "name": "role",
          "type": "bytes32"
        },
        {
          "internalType": "uint256",
          "name": "index",
          "type": "uint256"
        }
      ],
      "name": "getRoleMember",
      "outputs": [
        {
          "internalType": "address",
          "name": "",
          "type": "address"
        }
      ],
      "stateMutability": "view",
      "type": "function"
    },
    {
      "inputs": [
        {
          "internalType": "bytes32",
          "name": "role",
          "type": "bytes32"
        }
      ],
      "name": "getRoleMemberCount",
      "outputs": [
        {
          "internalType": "uint256",
          "name": "",
          "type": "uint256"
        }
      ],
      "stateMutability": "view",
      "type": "function"
    },
    {
      "inputs": [
        {
          "internalType": "bytes32",
          "name": "role",
          "type": "bytes32"
        },
        {
          "internalType": "address",
          "name": "account",
          "type": "address"
        }
      ],
      "name": "grantRole",
      "outputs": [],
      "stateMutability": "nonpayable",
      "type": "function"
    },
    {
      "inputs": [
        {
          "internalType": "bytes32",
          "name": "role",
          "type": "bytes32"
        },
        {
          "internalType": "address",
          "name": "account",
          "type": "address"
        }
      ],
      "name": "hasRole",
      "outputs": [
        {
          "internalType": "bool",
          "name": "",
          "type": "bool"
        }
      ],
      "stateMutability": "view",
      "type": "function"
    },
    {
      "inputs": [
        {
          "internalType": "address",
          "name": "spender",
          "type": "address"
        },
        {
          "internalType": "uint256",
          "name": "addedValue",
          "type": "uint256"
        }
      ],
      "name": "increaseAllowance",
      "outputs": [
        {
          "internalType": "bool",
          "name": "",
          "type": "bool"
        }
      ],
      "stateMutability": "nonpayable",
      "type": "function"
    },
    {
      "inputs": [],
      "name": "name",
      "outputs": [
        {
          "internalType": "string",
          "name": "",
          "type": "string"
        }
      ],
      "stateMutability": "view",
      "type": "function"
    },
    {
      "inputs": [],
      "name": "paused",
      "outputs": [
        {
          "internalType": "bool",
          "name": "",
          "type": "bool"
        }
      ],
      "stateMutability": "view",
      "type": "function"
    },
    {
      "inputs": [
        {
          "internalType": "bytes32",
          "name": "role",
          "type": "bytes32"
        },
        {
          "internalType": "address",
          "name": "account",
          "type": "address"
        }
      ],
      "name": "renounceRole",
      "outputs": [],
      "stateMutability": "nonpayable",
      "type": "function"
    },
    {
      "inputs": [
        {
          "internalType": "bytes32",
          "name": "role",
          "type": "bytes32"
        },
        {
          "internalType": "address",
          "name": "account",
          "type": "address"
        }
      ],
      "name": "revokeRole",
      "outputs": [],
      "stateMutability": "nonpayable",
      "type": "function"
    },
    {
      "inputs": [
        {
          "internalType": "bytes4",
          "name": "interfaceId",
          "type": "bytes4"
        }
      ],
      "name": "supportsInterface",
      "outputs": [
        {
          "internalType": "bool",
          "name": "",
          "type": "bool"
        }
      ],
      "stateMutability": "view",
      "type": "function"
    },
    {
      "inputs": [],
      "name": "symbol",
      "outputs": [
        {
          "internalType": "string",
          "name": "",
          "type": "string"
        }
      ],
      "stateMutability": "view",
      "type": "function"
    },
    {
      "inputs": [],
      "name": "totalSupply",
      "outputs": [
        {
          "internalType": "uint256",
          "name": "",
          "type": "uint256"
        }
      ],
      "stateMutability": "view",
      "type": "function"
    },
    {
      "inputs": [
        {
          "internalType": "address",
          "name": "to",
          "type": "address"
        },
        {
          "internalType": "uint256",
          "name": "amount",
          "type": "uint256"
        }
      ],
      "name": "transfer",
      "outputs": [
        {
          "internalType": "bool",
          "name": "",
          "type": "bool"
        }
      ],
      "stateMutability": "nonpayable",
      "type": "function"
    },
    {
      "inputs": [
        {
          "internalType": "address",
          "name": "from",
          "type": "address"
        },
        {
          "internalType": "address",
          "name": "to",
          "type": "address"
        },
        {
          "internalType": "uint256",
          "name": "amount",
          "type": "uint256"
        }
      ],
      "name": "transferFrom",
      "outputs": [
        {
          "internalType": "bool",
          "name": "",
          "type": "bool"
        }
      ],
      "stateMutability": "nonpayable",
      "type": "function"
    },
    {
      "inputs": [
        {
          "internalType": "string",
          "name": "name",
          "type": "string"
        },
        {
          "internalType": "string",
          "name": "symbol",
          "type": "string"
        }
      ],
      "name": "initialize",
      "outputs": [],
      "stateMutability": "nonpayable",
      "type": "function"
    },
    {
      "inputs": [
        {
          "internalType": "address",
          "name": "to",
          "type": "address"
        },
        {
          "internalType": "uint256",
          "name": "amount",
          "type": "uint256"
        }
      ],
      "name": "mint",
      "outputs": [],
      "stateMutability": "nonpayable",
      "type": "function"
    },
    {
      "inputs": [],
      "name": "pause",
      "outputs": [],
      "stateMutability": "nonpayable",
      "type": "function"
    },
    {
      "inputs": [],
      "name": "unpause",
      "outputs": [],
      "stateMutability": "nonpayable",
      "type": "function"
    }
  ],
  "bytecode": "0x608060405234801561001057600080fd5b50613958806100206000396000f3fe608060405234801561001057600080fd5b50600436106101cf5760003560e01c80635c975abb11610104578063a217fddf116100a2578063d539139311610071578063d539139314610554578063d547741f14610572578063dd62ed3e1461058e578063e63ab1e9146105be576101cf565b8063a217fddf146104a6578063a457c2d7146104c4578063a9059cbb146104f4578063ca15c87314610524576101cf565b80638456cb59116100de5780638456cb591461041e5780639010d07c1461042857806391d148541461045857806395d89b4114610488576101cf565b80635c975abb146103b457806370a08231146103d257806379cc679014610402576101cf565b8063313ce567116101715780633f4ba83a1161014b5780633f4ba83a1461035657806340c10f191461036057806342966c681461037c5780634cd88b7614610398576101cf565b8063313ce567146102ec57806336568abe1461030a5780633950935114610326576101cf565b806318160ddd116101ad57806318160ddd1461025257806323b872dd14610270578063248a9ca3146102a05780632f2ff15d146102d0576101cf565b806301ffc9a7146101d457806306fdde0314610204578063095ea7b314610222575b600080fd5b6101ee60048036038101906101e99190612799565b6105dc565b6040516101fb9190612c72565b60405180910390f35b61020c610656565b6040516102199190612cc3565b60405180910390f35b61023c600480360381019061023791906126bc565b6106e8565b6040516102499190612c72565b60405180910390f35b61025a61070b565b6040516102679190612f65565b60405180910390f35b61028a6004803603810190610285919061266d565b610715565b6040516102979190612c72565b60405180910390f35b6102ba60048036038101906102b591906126f8565b610744565b6040516102c79190612c8d565b60405180910390f35b6102ea60048036038101906102e59190612721565b610764565b005b6102f4610785565b6040516103019190612f80565b60405180910390f35b610324600480360381019061031f9190612721565b61078e565b005b610340600480360381019061033b91906126bc565b610811565b60405161034d9190612c72565b60405180910390f35b61035e610848565b005b61037a600480360381019061037591906126bc565b6108c2565b005b6103966004803603810190610391919061282e565b610940565b005b6103b260048036038101906103ad91906127c2565b610954565b005b6103bc6109ec565b6040516103c99190612c72565b60405180910390f35b6103ec60048036038101906103e79190612608565b610a04565b6040516103f99190612f65565b60405180910390f35b61041c600480360381019061041791906126bc565b610a4d565b005b610426610a6d565b005b610442600480360381019061043d919061275d565b610ae7565b60405161044f9190612c57565b60405180910390f35b610472600480360381019061046d9190612721565b610b16565b60405161047f9190612c72565b60405180910390f35b610490610b81565b60405161049d9190612cc3565b60405180910390f35b6104ae610c13565b6040516104bb9190612c8d565b60405180910390f35b6104de60048036038101906104d991906126bc565b610c1a565b6040516104eb9190612c72565b60405180910390f35b61050e600480360381019061050991906126bc565b610c91565b60405161051b9190612c72565b60405180910390f35b61053e600480360381019061053991906126f8565b610cb4565b60405161054b9190612f65565b60405180910390f35b61055c610cd8565b6040516105699190612c8d565b60405180910390f35b61058c60048036038101906105879190612721565b610cfc565b005b6105a860048036038101906105a39190612631565b610d1d565b6040516105b59190612f65565b60405180910390f35b6105c6610da4565b6040516105d39190612c8d565b60405180910390f35b60007f5a05180f000000000000000000000000000000000000000000000000000000007bffffffffffffffffffffffffffffffffffffffffffffffffffffffff1916827bffffffffffffffffffffffffffffffffffffffffffffffffffffffff1916148061064f575061064e82610dc8565b5b9050919050565b606060cc805461066590613205565b80601f016020809104026020016040519081016040528092919081815260200182805461069190613205565b80156106de5780601f106106b3576101008083540402835291602001916106de565b820191906000526020600020905b8154815290600101906020018083116106c157829003601f168201915b5050505050905090565b6000806106f3610e42565b9050610700818585610e4a565b600191505092915050565b600060cb54905090565b600080610720610e42565b905061072d858285611015565b6107388585856110a1565b60019150509392505050565b600060656000838152602001908152602001600020600101549050919050565b61076d82610744565b61077681611325565b6107808383611339565b505050565b60006012905090565b610796610e42565b73ffffffffffffffffffffffffffffffffffffffff168173ffffffffffffffffffffffffffffffffffffffff1614610803576040517f08c379a00000000000000000000000000000000000000000000000000000000081526004016107fa90612f05565b60405180910390fd5b61080d828261136d565b5050565b60008061081c610e42565b905061083d81858561082e8589610d1d565b6108389190613018565b610e4a565b600191505092915050565b6108797f65d7a28e3265b37a6474929f336521b332c1681b933f6cb9f3376673440d862a610874610e42565b610b16565b6108b8576040517f08c379a00000000000000000000000000000000000000000000000000000000081526004016108af90612d65565b60405180910390fd5b6108c06113a1565b565b6108f37f9f2df0fed2c77648de5860a4cc508cd0818c85b8b8a1ab4ceeef8d981c8956a66108ee610e42565b610b16565b610932576040517f08c379a000000000000000000000000000000000000000000000000000000000815260040161092990612e25565b60405180910390fd5b61093c8282611444565b5050565b61095161094b610e42565b826115a5565b50565b6000610960600161177e565b90508015610984576001600060016101000a81548160ff0219169083151502179055505b61098e838361186e565b80156109e75760008060016101000a81548160ff0219169083151502179055507f7f26b83ff96e1f2b6a682f133852f6798a09c465da95921460cefb384740249860016040516109de9190612ca8565b60405180910390a15b505050565b600061012d60009054906101000a900460ff16905090565b600060c960008373ffffffffffffffffffffffffffffffffffffffff1673ffffffffffffffffffffffffffffffffffffffff168152602001908152602001600020549050919050565b610a5f82610a59610e42565b83611015565b610a6982826115a5565b5050565b610a9e7f65d7a28e3265b37a6474929f336521b332c1681b933f6cb9f3376673440d862a610a99610e42565b610b16565b610add576040517f08c379a0000000000000000000000000000000000000000000000000000000008152600401610ad490612ea5565b60405180910390fd5b610ae56118dd565b565b6000610b0e826097600086815260200190815260200160002061198190919063ffffffff16565b905092915050565b60006065600084815260200190815260200160002060000160008373ffffffffffffffffffffffffffffffffffffffff1673ffffffffffffffffffffffffffffffffffffffff16815260200190815260200160002060009054906101000a900460ff16905092915050565b606060cd8054610b9090613205565b80601f0160208091040260200160405190810160405280929190818152602001828054610bbc90613205565b8015610c095780601f10610bde57610100808354040283529160200191610c09565b820191906000526020600020905b815481529060010190602001808311610bec57829003601f168201915b5050505050905090565b6000801b81565b600080610c25610e42565b90506000610c338286610d1d565b905083811015610c78576040517f08c379a0000000000000000000000000000000000000000000000000000000008152600401610c6f90612ee5565b60405180910390fd5b610c858286868403610e4a565b60019250505092915050565b600080610c9c610e42565b9050610ca98185856110a1565b600191505092915050565b6000610cd16097600084815260200190815260200160002061199b565b9050919050565b7f9f2df0fed2c77648de5860a4cc508cd0818c85b8b8a1ab4ceeef8d981c8956a681565b610d0582610744565b610d0e81611325565b610d18838361136d565b505050565b600060ca60008473ffffffffffffffffffffffffffffffffffffffff1673ffffffffffffffffffffffffffffffffffffffff16815260200190815260200160002060008373ffffffffffffffffffffffffffffffffffffffff1673ffffffffffffffffffffffffffffffffffffffff16815260200190815260200160002054905092915050565b7f65d7a28e3265b37a6474929f336521b332c1681b933f6cb9f3376673440d862a81565b60007f7965db0b000000000000000000000000000000000000000000000000000000007bffffffffffffffffffffffffffffffffffffffffffffffffffffffff1916827bffffffffffffffffffffffffffffffffffffffffffffffffffffffff19161480610e3b5750610e3a826119b0565b5b9050919050565b600033905090565b600073ffffffffffffffffffffffffffffffffffffffff168373ffffffffffffffffffffffffffffffffffffffff161415610eba576040517f08c379a0000000000000000000000000000000000000000000000000000000008152600401610eb190612e85565b60405180910390fd5b600073ffffffffffffffffffffffffffffffffffffffff168273ffffffffffffffffffffffffffffffffffffffff161415610f2a576040517f08c379a0000000000000000000000000000000000000000000000000000000008152600401610f2190612d85565b60405180910390fd5b8060ca60008573ffffffffffffffffffffffffffffffffffffffff1673ffffffffffffffffffffffffffffffffffffffff16815260200190815260200160002060008473ffffffffffffffffffffffffffffffffffffffff1673ffffffffffffffffffffffffffffffffffffffff168152602001908152602001600020819055508173ffffffffffffffffffffffffffffffffffffffff168373ffffffffffffffffffffffffffffffffffffffff167f8c5be1e5ebec7d5bd14f71427d1e84f3dd0314c0f7b2291e5b200ac8c7c3b925836040516110089190612f65565b60405180910390a3505050565b60006110218484610d1d565b90507fffffffffffffffffffffffffffffffffffffffffffffffffffffffffffffffff811461109b578181101561108d576040517f08c379a000000000000000000000000000000000000000000000000000000000815260040161108490612da5565b60405180910390fd5b61109a8484848403610e4a565b5b50505050565b600073ffffffffffffffffffffffffffffffffffffffff168373ffffffffffffffffffffffffffffffffffffffff161415611111576040517f08c379a000000000000000000000000000000000000000000000000000000000815260040161110890612e65565b60405180910390fd5b600073ffffffffffffffffffffffffffffffffffffffff168273ffffffffffffffffffffffffffffffffffffffff161415611181576040517f08c379a000000000000000000000000000000000000000000000000000000000815260040161117890612d05565b60405180910390fd5b61118c838383611a1a565b600060c960008573ffffffffffffffffffffffffffffffffffffffff1673ffffffffffffffffffffffffffffffffffffffff16815260200190815260200160002054905081811015611213576040517f08c379a000000000000000000000000000000000000000000000000000000000815260040161120a90612dc5565b60405180910390fd5b81810360c960008673ffffffffffffffffffffffffffffffffffffffff1673ffffffffffffffffffffffffffffffffffffffff168152602001908152602001600020819055508160c960008573ffffffffffffffffffffffffffffffffffffffff1673ffffffffffffffffffffffffffffffffffffffff16815260200190815260200160002060008282546112a89190613018565b925050819055508273ffffffffffffffffffffffffffffffffffffffff168473ffffffffffffffffffffffffffffffffffffffff167fddf252ad1be2c89b69c2b068fc378daa952ba7f163c4a11628f55a4df523b3ef8460405161130c9190612f65565b60405180910390a361131f848484611a2a565b50505050565b61133681611331610e42565b611a2f565b50565b6113438282611acc565b6113688160976000858152602001908152602001600020611bad90919063ffffffff16565b505050565b6113778282611bdd565b61139c8160976000858152602001908152602001600020611cbf90919063ffffffff16565b505050565b6113a96109ec565b6113e8576040517f08c379a00000000000000000000000000000000000000000000000000000000081526004016113df90612d25565b60405180910390fd5b600061012d60006101000a81548160ff0219169083151502179055507f5db9ee0a495bf2e6ff9c91a7834c1ba4fdd244a5e8aa4e537bd38aeae4b073aa61142d610e42565b60405161143a9190612c57565b60405180910390a1565b600073ffffffffffffffffffffffffffffffffffffffff168273ffffffffffffffffffffffffffffffffffffffff1614156114b4576040517f08c379a00000000000000000000000000000000000000000000000000000000081526004016114ab90612f25565b60405180910390fd5b6114c060008383611a1a565b8060cb60008282546114d29190613018565b925050819055508060c960008473ffffffffffffffffffffffffffffffffffffffff1673ffffffffffffffffffffffffffffffffffffffff16815260200190815260200160002060008282546115289190613018565b925050819055508173ffffffffffffffffffffffffffffffffffffffff16600073ffffffffffffffffffffffffffffffffffffffff167fddf252ad1be2c89b69c2b068fc378daa952ba7f163c4a11628f55a4df523b3ef8360405161158d9190612f65565b60405180910390a36115a160008383611a2a565b5050565b600073ffffffffffffffffffffffffffffffffffffffff168273ffffffffffffffffffffffffffffffffffffffff161415611615576040517f08c379a000000000000000000000000000000000000000000000000000000000815260040161160c90612e45565b60405180910390fd5b61162182600083611a1a565b600060c960008473ffffffffffffffffffffffffffffffffffffffff1673ffffffffffffffffffffffffffffffffffffffff168152602001908152602001600020549050818110156116a8576040517f08c379a000000000000000000000000000000000000000000000000000000000815260040161169f90612d45565b60405180910390fd5b81810360c960008573ffffffffffffffffffffffffffffffffffffffff1673ffffffffffffffffffffffffffffffffffffffff168152602001908152602001600020819055508160cb600082825461170091906130c8565b92505081905550600073ffffffffffffffffffffffffffffffffffffffff168373ffffffffffffffffffffffffffffffffffffffff167fddf252ad1be2c89b69c2b068fc378daa952ba7f163c4a11628f55a4df523b3ef846040516117659190612f65565b60405180910390a361177983600084611a2a565b505050565b60008060019054906101000a900460ff16156117f55760018260ff161480156117ad57506117ab30611cef565b155b6117ec576040517f08c379a00000000000000000000000000000000000000000000000000000000081526004016117e390612e05565b60405180910390fd5b60009050611869565b8160ff1660008054906101000a900460ff1660ff161061184a576040517f08c379a000000000000000000000000000000000000000000000000000000000815260040161184190612e05565b60405180910390fd5b816000806101000a81548160ff021916908360ff160217905550600190505b919050565b600060019054906101000a900460ff166118bd576040517f08c379a00000000000000000000000000000000000000000000000000000000081526004016118b490612ec5565b60405180910390fd5b6118c78282611d12565b6118cf611d93565b6118d98282611e00565b5050565b6118e56109ec565b15611925576040517f08c379a000000000000000000000000000000000000000000000000000000000815260040161191c90612de5565b60405180910390fd5b600161012d60006101000a81548160ff0219169083151502179055507f62e78cea01bee320cd4e420270b5ea74000d11b0c9f74754ebdbfc544b05a25861196a610e42565b6040516119779190612c57565b60405180910390a1565b60006119908360000183611ec9565b60001c905092915050565b60006119a982600001611f1a565b9050919050565b60007f01ffc9a7000000000000000000000000000000000000000000000000000000007bffffffffffffffffffffffffffffffffffffffffffffffffffffffff1916827bffffffffffffffffffffffffffffffffffffffffffffffffffffffff1916149050919050565b611a25838383611f2b565b505050565b505050565b611a398282610b16565b611ac857611a5e8173ffffffffffffffffffffffffffffffffffffffff166014611f83565b611a6c8360001c6020611f83565b604051602001611a7d929190612c1d565b6040516020818303038152906040526040517f08c379a0000000000000000000000000000000000000000000000000000000008152600401611abf9190612cc3565b60405180910390fd5b5050565b611ad68282610b16565b611ba95760016065600084815260200190815260200160002060000160008373ffffffffffffffffffffffffffffffffffffffff1673ffffffffffffffffffffffffffffffffffffffff16815260200190815260200160002060006101000a81548160ff021916908315150217905550611b4e610e42565b73ffffffffffffffffffffffffffffffffffffffff168173ffffffffffffffffffffffffffffffffffffffff16837f2f8788117e7eff1d82e926ec794901d17c78024a50270940304540a733656f0d60405160405180910390a45b5050565b6000611bd5836000018373ffffffffffffffffffffffffffffffffffffffff1660001b61227d565b905092915050565b611be78282610b16565b15611cbb5760006065600084815260200190815260200160002060000160008373ffffffffffffffffffffffffffffffffffffffff1673ffffffffffffffffffffffffffffffffffffffff16815260200190815260200160002060006101000a81548160ff021916908315150217905550611c60610e42565b73ffffffffffffffffffffffffffffffffffffffff168173ffffffffffffffffffffffffffffffffffffffff16837ff6391f5c32d9c69d2a47ea670b442974b53935d1edc7fd64eb21e047a839171b60405160405180910390a45b5050565b6000611ce7836000018373ffffffffffffffffffffffffffffffffffffffff1660001b6122ed565b905092915050565b6000808273ffffffffffffffffffffffffffffffffffffffff163b119050919050565b600060019054906101000a900460ff16611d61576040517f08c379a0000000000000000000000000000000000000000000000000000000008152600401611d5890612ec5565b60405180910390fd5b8160cc9080519060200190611d779291906124a9565b508060cd9080519060200190611d8e9291906124a9565b505050565b600060019054906101000a900460ff16611de2576040517f08c379a0000000000000000000000000000000000000000000000000000000008152600401611dd990612ec5565b60405180910390fd5b600061012d60006101000a81548160ff021916908315150217905550565b600060019054906101000a900460ff16611e4f576040517f08c379a0000000000000000000000000000000000000000000000000000000008152600401611e4690612ec5565b60405180910390fd5b611e636000801b611e5e610e42565b612473565b611e947f9f2df0fed2c77648de5860a4cc508cd0818c85b8b8a1ab4ceeef8d981c8956a6611e8f610e42565b612473565b611ec57f65d7a28e3265b37a6474929f336521b332c1681b933f6cb9f3376673440d862a611ec0610e42565b612473565b5050565b6000826000018281548110611f07577f4e487b7100000000000000000000000000000000000000000000000000000000600052603260045260246000fd5b9060005260206000200154905092915050565b600081600001805490509050919050565b611f36838383612481565b611f3e6109ec565b15611f7e576040517f08c379a0000000000000000000000000000000000000000000000000000000008152600401611f7590612f45565b60405180910390fd5b505050565b606060006002836002611f96919061306e565b611fa09190613018565b67ffffffffffffffff811115611fdf577f4e487b7100000000000000000000000000000000000000000000000000000000600052604160045260246000fd5b6040519080825280601f01601f1916602001820160405280156120115781602001600182028036833780820191505090505b5090507f30000000000000000000000000000000000000000000000000000000000000008160008151811061206f577f4e487b7100000000000000000000000000000000000000000000000000000000600052603260045260246000fd5b60200101907effffffffffffffffffffffffffffffffffffffffffffffffffffffffffffff1916908160001a9053507f7800000000000000000000000000000000000000000000000000000000000000816001815181106120f9577f4e487b7100000000000000000000000000000000000000000000000000000000600052603260045260246000fd5b60200101907effffffffffffffffffffffffffffffffffffffffffffffffffffffffffffff1916908160001a90535060006001846002612139919061306e565b6121439190613018565b90505b600181111561222f577f3031323334353637383961626364656600000000000000000000000000000000600f8616601081106121ab577f4e487b7100000000000000000000000000000000000000000000000000000000600052603260045260246000fd5b1a60f81b8282815181106121e8577f4e487b7100000000000000000000000000000000000000000000000000000000600052603260045260246000fd5b60200101907effffffffffffffffffffffffffffffffffffffffffffffffffffffffffffff1916908160001a905350600485901c945080612228906131db565b9050612146565b5060008414612273576040517f08c379a000000000000000000000000000000000000000000000000000000000815260040161226a90612ce5565b60405180910390fd5b8091505092915050565b60006122898383612486565b6122e25782600001829080600181540180825580915050600190039060005260206000200160009091909190915055826000018054905083600101600084815260200190815260200160002081905550600190506122e7565b600090505b92915050565b6000808360010160008481526020019081526020016000205490506000811461246757600060018261231f91906130c8565b905060006001866000018054905061233791906130c8565b90508181146123f257600086600001828154811061237e577f4e487b7100000000000000000000000000000000000000000000000000000000600052603260045260246000fd5b90600052602060002001549050808760000184815481106123c8577f4e487b7100000000000000000000000000000000000000000000000000000000600052603260045260246000fd5b90600052602060002001819055508387600101600083815260200190815260200160002081905550505b8560000180548061242c577f4e487b7100000000000000000000000000000000000000000000000000000000600052603160045260246000fd5b60019003818190600052602060002001600090559055856001016000868152602001908152602001600020600090556001935050505061246d565b60009150505b92915050565b61247d8282611339565b5050565b505050565b600080836001016000848152602001908152602001600020541415905092915050565b8280546124b590613205565b90600052602060002090601f0160209004810192826124d7576000855561251e565b82601f106124f057805160ff191683800117855561251e565b8280016001018555821561251e579182015b8281111561251d578251825591602001919060010190612502565b5b50905061252b919061252f565b5090565b5b80821115612548576000816000905550600101612530565b5090565b600061255f61255a84612fc0565b612f9b565b90508281526020810184848401111561257757600080fd5b612582848285613199565b509392505050565b600081359050612599816138c6565b92915050565b6000813590506125ae816138dd565b92915050565b6000813590506125c3816138f4565b92915050565b600082601f8301126125da57600080fd5b81356125ea84826020860161254c565b91505092915050565b6000813590506126028161390b565b92915050565b60006020828403121561261a57600080fd5b60006126288482850161258a565b91505092915050565b6000806040838503121561264457600080fd5b60006126528582860161258a565b92505060206126638582860161258a565b9150509250929050565b60008060006060848603121561268257600080fd5b60006126908682870161258a565b93505060206126a18682870161258a565b92505060406126b2868287016125f3565b9150509250925092565b600080604083850312156126cf57600080fd5b60006126dd8582860161258a565b92505060206126ee858286016125f3565b9150509250929050565b60006020828403121561270a57600080fd5b60006127188482850161259f565b91505092915050565b6000806040838503121561273457600080fd5b60006127428582860161259f565b92505060206127538582860161258a565b9150509250929050565b6000806040838503121561277057600080fd5b600061277e8582860161259f565b925050602061278f858286016125f3565b9150509250929050565b6000602082840312156127ab57600080fd5b60006127b9848285016125b4565b91505092915050565b600080604083850312156127d557600080fd5b600083013567ffffffffffffffff8111156127ef57600080fd5b6127fb858286016125c9565b925050602083013567ffffffffffffffff81111561281857600080fd5b612824858286016125c9565b9150509250929050565b60006020828403121561284057600080fd5b600061284e848285016125f3565b91505092915050565b612860816130fc565b82525050565b61286f8161310e565b82525050565b61287e8161311a565b82525050565b61288d81613187565b82525050565b600061289e82612ff1565b6128a88185612ffc565b93506128b88185602086016131a8565b6128c1816132f5565b840191505092915050565b60006128d782612ff1565b6128e1818561300d565b93506128f18185602086016131a8565b80840191505092915050565b600061290a602083612ffc565b915061291582613306565b602082019050919050565b600061292d602383612ffc565b91506129388261332f565b604082019050919050565b6000612950601483612ffc565b915061295b8261337e565b602082019050919050565b6000612973602283612ffc565b915061297e826133a7565b604082019050919050565b6000612996603983612ffc565b91506129a1826133f6565b604082019050919050565b60006129b9602283612ffc565b91506129c482613445565b604082019050919050565b60006129dc601d83612ffc565b91506129e782613494565b602082019050919050565b60006129ff602683612ffc565b9150612a0a826134bd565b604082019050919050565b6000612a22601083612ffc565b9150612a2d8261350c565b602082019050919050565b6000612a45602e83612ffc565b9150612a5082613535565b604082019050919050565b6000612a68603683612ffc565b9150612a7382613584565b604082019050919050565b6000612a8b602183612ffc565b9150612a96826135d3565b604082019050919050565b6000612aae602583612ffc565b9150612ab982613622565b604082019050919050565b6000612ad1602483612ffc565b9150612adc82613671565b604082019050919050565b6000612af4603783612ffc565b9150612aff826136c0565b604082019050919050565b6000612b17602b83612ffc565b9150612b228261370f565b604082019050919050565b6000612b3a60178361300d565b9150612b458261375e565b601782019050919050565b6000612b5d602583612ffc565b9150612b6882613787565b604082019050919050565b6000612b8060118361300d565b9150612b8b826137d6565b601182019050919050565b6000612ba3602f83612ffc565b9150612bae826137ff565b604082019050919050565b6000612bc6601f83612ffc565b9150612bd18261384e565b602082019050919050565b6000612be9602a83612ffc565b9150612bf482613877565b604082019050919050565b612c0881613170565b82525050565b612c178161317a565b82525050565b6000612c2882612b2d565b9150612c3482856128cc565b9150612c3f82612b73565b9150612c4b82846128cc565b91508190509392505050565b6000602082019050612c6c6000830184612857565b92915050565b6000602082019050612c876000830184612866565b92915050565b6000602082019050612ca26000830184612875565b92915050565b6000602082019050612cbd6000830184612884565b92915050565b60006020820190508181036000830152612cdd8184612893565b905092915050565b60006020820190508181036000830152612cfe816128fd565b9050919050565b60006020820190508181036000830152612d1e81612920565b9050919050565b60006020820190508181036000830152612d3e81612943565b9050919050565b60006020820190508181036000830152612d5e81612966565b9050919050565b60006020820190508181036000830152612d7e81612989565b9050919050565b60006020820190508181036000830152612d9e816129ac565b9050919050565b60006020820190508181036000830152612dbe816129cf565b9050919050565b60006020820190508181036000830152612dde816129f2565b9050919050565b60006020820190508181036000830152612dfe81612a15565b9050919050565b60006020820190508181036000830152612e1e81612a38565b9050919050565b60006020820190508181036000830152612e3e81612a5b565b9050919050565b60006020820190508181036000830152612e5e81612a7e565b9050919050565b60006020820190508181036000830152612e7e81612aa1565b9050919050565b60006020820190508181036000830152612e9e81612ac4565b9050919050565b60006020820190508181036000830152612ebe81612ae7565b9050919050565b60006020820190508181036000830152612ede81612b0a565b9050919050565b60006020820190508181036000830152612efe81612b50565b9050919050565b60006020820190508181036000830152612f1e81612b96565b9050919050565b60006020820190508181036000830152612f3e81612bb9565b9050919050565b60006020820190508181036000830152612f5e81612bdc565b9050919050565b6000602082019050612f7a6000830184612bff565b92915050565b6000602082019050612f956000830184612c0e565b92915050565b6000612fa5612fb6565b9050612fb18282613237565b919050565b6000604051905090565b600067ffffffffffffffff821115612fdb57612fda6132c6565b5b612fe4826132f5565b9050602081019050919050565b600081519050919050565b600082825260208201905092915050565b600081905092915050565b600061302382613170565b915061302e83613170565b9250827fffffffffffffffffffffffffffffffffffffffffffffffffffffffffffffffff0382111561306357613062613268565b5b828201905092915050565b600061307982613170565b915061308483613170565b9250817fffffffffffffffffffffffffffffffffffffffffffffffffffffffffffffffff04831182151516156130bd576130bc613268565b5b828202905092915050565b60006130d382613170565b91506130de83613170565b9250828210156130f1576130f0613268565b5b828203905092915050565b600061310782613150565b9050919050565b60008115159050919050565b6000819050919050565b60007fffffffff0000000000000000000000000000000000000000000000000000000082169050919050565b600073ffffffffffffffffffffffffffffffffffffffff82169050919050565b6000819050919050565b600060ff82169050919050565b60006131928261317a565b9050919050565b82818337600083830152505050565b60005b838110156131c65780820151818401526020810190506131ab565b838111156131d5576000848401525b50505050565b60006131e682613170565b915060008214156131fa576131f9613268565b5b600182039050919050565b6000600282049050600182168061321d57607f821691505b6020821081141561323157613230613297565b5b50919050565b613240826132f5565b810181811067ffffffffffffffff8211171561325f5761325e6132c6565b5b80604052505050565b7f4e487b7100000000000000000000000000000000000000000000000000000000600052601160045260246000fd5b7f4e487b7100000000000000000000000000000000000000000000000000000000600052602260045260246000fd5b7f4e487b7100000000000000000000000000000000000000000000000000000000600052604160045260246000fd5b6000601f19601f8301169050919050565b7f537472696e67733a20686578206c656e67746820696e73756666696369656e74600082015250565b7f45524332303a207472616e7366657220746f20746865207a65726f206164647260008201527f6573730000000000000000000000000000000000000000000000000000000000602082015250565b7f5061757361626c653a206e6f7420706175736564000000000000000000000000600082015250565b7f45524332303a206275726e20616d6f756e7420657863656564732062616c616e60008201527f6365000000000000000000000000000000000000000000000000000000000000602082015250565b7f45524332305072657365744d696e7465725061757365723a206d75737420686160008201527f76652070617573657220726f6c6520746f20756e706175736500000000000000602082015250565b7f45524332303a20617070726f766520746f20746865207a65726f20616464726560008201527f7373000000000000000000000000000000000000000000000000000000000000602082015250565b7f45524332303a20696e73756666696369656e7420616c6c6f77616e6365000000600082015250565b7f45524332303a207472616e7366657220616d6f756e742065786365656473206260008201527f616c616e63650000000000000000000000000000000000000000000000000000602082015250565b7f5061757361626c653a2070617573656400000000000000000000000000000000600082015250565b7f496e697469616c697a61626c653a20636f6e747261637420697320616c72656160008201527f647920696e697469616c697a6564000000000000000000000000000000000000602082015250565b7f45524332305072657365744d696e7465725061757365723a206d75737420686160008201527f7665206d696e74657220726f6c6520746f206d696e7400000000000000000000602082015250565b7f45524332303a206275726e2066726f6d20746865207a65726f2061646472657360008201527f7300000000000000000000000000000000000000000000000000000000000000602082015250565b7f45524332303a207472616e736665722066726f6d20746865207a65726f20616460008201527f6472657373000000000000000000000000000000000000000000000000000000602082015250565b7f45524332303a20617070726f76652066726f6d20746865207a65726f2061646460008201527f7265737300000000000000000000000000000000000000000000000000000000602082015250565b7f45524332305072657365744d696e7465725061757365723a206d75737420686160008201527f76652070617573657220726f6c6520746f207061757365000000000000000000602082015250565b7f496e697469616c697a61626c653a20636f6e7472616374206973206e6f74206960008201527f6e697469616c697a696e67000000000000000000000000000000000000000000602082015250565b7f416363657373436f6e74726f6c3a206163636f756e7420000000000000000000600082015250565b7f45524332303a2064656372656173656420616c6c6f77616e63652062656c6f7760008201527f207a65726f000000000000000000000000000000000000000000000000000000602082015250565b7f206973206d697373696e6720726f6c6520000000000000000000000000000000600082015250565b7f416363657373436f6e74726f6c3a2063616e206f6e6c792072656e6f756e636560008201527f20726f6c657320666f722073656c660000000000000000000000000000000000602082015250565b7f45524332303a206d696e7420746f20746865207a65726f206164647265737300600082015250565b7f45524332305061757361626c653a20746f6b656e207472616e7366657220776860008201527f696c652070617573656400000000000000000000000000000000000000000000602082015250565b6138cf816130fc565b81146138da57600080fd5b50565b6138e68161311a565b81146138f157600080fd5b50565b6138fd81613124565b811461390857600080fd5b50565b61391481613170565b811461391f57600080fd5b5056fea2646970667358221220314e9e0f270e10b94b17a4568755787c58cb5df9e023f595ce9ca9a394dbf62164736f6c63430008020033",
  "immutableReferences": {},
  "source": "// SPDX-License-Identifier: MIT\n// OpenZeppelin Contracts (last updated v4.5.0) (token/ERC20/presets/ERC20PresetMinterPauser.sol)\n\npragma solidity ^0.8.0;\n\nimport \"../ERC20Upgradeable.sol\";\nimport \"../extensions/ERC20BurnableUpgradeable.sol\";\nimport \"../extensions/ERC20PausableUpgradeable.sol\";\nimport \"../../../access/AccessControlEnumerableUpgradeable.sol\";\nimport \"../../../utils/ContextUpgradeable.sol\";\nimport \"../../../proxy/utils/Initializable.sol\";\n\n/**\n * @dev {ERC20} token, including:\n *\n *  - ability for holders to burn (destroy) their tokens\n *  - a minter role that allows for token minting (creation)\n *  - a pauser role that allows to stop all token transfers\n *\n * This contract uses {AccessControl} to lock permissioned functions using the\n * different roles - head to its documentation for details.\n *\n * The account that deploys the contract will be granted the minter and pauser\n * roles, as well as the default admin role, which will let it grant both minter\n * and pauser roles to other accounts.\n *\n * _Deprecated in favor of https://wizard.openzeppelin.com/[Contracts Wizard]._\n */\ncontract ERC20PresetMinterPauserUpgradeable is Initializable, ContextUpgradeable, AccessControlEnumerableUpgradeable, ERC20BurnableUpgradeable, ERC20PausableUpgradeable {\n    function initialize(string memory name, string memory symbol) public virtual initializer {\n        __ERC20PresetMinterPauser_init(name, symbol);\n    }\n    bytes32 public constant MINTER_ROLE = keccak256(\"MINTER_ROLE\");\n    bytes32 public constant PAUSER_ROLE = keccak256(\"PAUSER_ROLE\");\n\n    /**\n     * @dev Grants `DEFAULT_ADMIN_ROLE`, `MINTER_ROLE` and `PAUSER_ROLE` to the\n     * account that deploys the contract.\n     *\n     * See {ERC20-constructor}.\n     */\n    function __ERC20PresetMinterPauser_init(string memory name, string memory symbol) internal onlyInitializing {\n        __ERC20_init_unchained(name, symbol);\n        __Pausable_init_unchained();\n        __ERC20PresetMinterPauser_init_unchained(name, symbol);\n    }\n\n    function __ERC20PresetMinterPauser_init_unchained(string memory, string memory) internal onlyInitializing {\n        _setupRole(DEFAULT_ADMIN_ROLE, _msgSender());\n\n        _setupRole(MINTER_ROLE, _msgSender());\n        _setupRole(PAUSER_ROLE, _msgSender());\n    }\n\n    /**\n     * @dev Creates `amount` new tokens for `to`.\n     *\n     * See {ERC20-_mint}.\n     *\n     * Requirements:\n     *\n     * - the caller must have the `MINTER_ROLE`.\n     */\n    function mint(address to, uint256 amount) public virtual {\n        require(hasRole(MINTER_ROLE, _msgSender()), \"ERC20PresetMinterPauser: must have minter role to mint\");\n        _mint(to, amount);\n    }\n\n    /**\n     * @dev Pauses all token transfers.\n     *\n     * See {ERC20Pausable} and {Pausable-_pause}.\n     *\n     * Requirements:\n     *\n     * - the caller must have the `PAUSER_ROLE`.\n     */\n    function pause() public virtual {\n        require(hasRole(PAUSER_ROLE, _msgSender()), \"ERC20PresetMinterPauser: must have pauser role to pause\");\n        _pause();\n    }\n\n    /**\n     * @dev Unpauses all token transfers.\n     *\n     * See {ERC20Pausable} and {Pausable-_unpause}.\n     *\n     * Requirements:\n     *\n     * - the caller must have the `PAUSER_ROLE`.\n     */\n    function unpause() public virtual {\n        require(hasRole(PAUSER_ROLE, _msgSender()), \"ERC20PresetMinterPauser: must have pauser role to unpause\");\n        _unpause();\n    }\n\n    function _beforeTokenTransfer(\n        address from,\n        address to,\n        uint256 amount\n    ) internal virtual override(ERC20Upgradeable, ERC20PausableUpgradeable) {\n        super._beforeTokenTransfer(from, to, amount);\n    }\n\n    /**\n     * @dev This empty reserved space is put in place to allow future versions to add new\n     * variables without shifting down storage in the inheritance chain.\n     * See https://docs.openzeppelin.com/contracts/4.x/upgradeable#storage_gaps\n     */\n    uint256[50] private __gap;\n}\n",
  "sourcePath": "@openzeppelin\\contracts-upgradeable\\token\\ERC20\\presets\\ERC20PresetMinterPauserUpgradeable.sol",
  "compiler": {
    "name": "solc",
    "version": "0.8.2+commit.661d1103.Emscripten.clang"
  },
  "schemaVersion": "3.4.7",
  "updatedAt": "2022-06-28T04:59:11.195Z",
  "devdoc": {
    "details": "{ERC20} token, including:  - ability for holders to burn (destroy) their tokens  - a minter role that allows for token minting (creation)  - a pauser role that allows to stop all token transfers This contract uses {AccessControl} to lock permissioned functions using the different roles - head to its documentation for details. The account that deploys the contract will be granted the minter and pauser roles, as well as the default admin role, which will let it grant both minter and pauser roles to other accounts. _Deprecated in favor of https://wizard.openzeppelin.com/[Contracts Wizard]._",
    "kind": "dev",
    "methods": {
      "allowance(address,address)": {
        "details": "See {IERC20-allowance}."
      },
      "approve(address,uint256)": {
        "details": "See {IERC20-approve}. NOTE: If `amount` is the maximum `uint256`, the allowance is not updated on `transferFrom`. This is semantically equivalent to an infinite approval. Requirements: - `spender` cannot be the zero address."
      },
      "balanceOf(address)": {
        "details": "See {IERC20-balanceOf}."
      },
      "burn(uint256)": {
        "details": "Destroys `amount` tokens from the caller. See {ERC20-_burn}."
      },
      "burnFrom(address,uint256)": {
        "details": "Destroys `amount` tokens from `account`, deducting from the caller's allowance. See {ERC20-_burn} and {ERC20-allowance}. Requirements: - the caller must have allowance for ``accounts``'s tokens of at least `amount`."
      },
      "decimals()": {
        "details": "Returns the number of decimals used to get its user representation. For example, if `decimals` equals `2`, a balance of `505` tokens should be displayed to a user as `5.05` (`505 / 10 ** 2`). Tokens usually opt for a value of 18, imitating the relationship between Ether and Wei. This is the value {ERC20} uses, unless this function is overridden; NOTE: This information is only used for _display_ purposes: it in no way affects any of the arithmetic of the contract, including {IERC20-balanceOf} and {IERC20-transfer}."
      },
      "decreaseAllowance(address,uint256)": {
        "details": "Atomically decreases the allowance granted to `spender` by the caller. This is an alternative to {approve} that can be used as a mitigation for problems described in {IERC20-approve}. Emits an {Approval} event indicating the updated allowance. Requirements: - `spender` cannot be the zero address. - `spender` must have allowance for the caller of at least `subtractedValue`."
      },
      "getRoleAdmin(bytes32)": {
        "details": "Returns the admin role that controls `role`. See {grantRole} and {revokeRole}. To change a role's admin, use {_setRoleAdmin}."
      },
      "getRoleMember(bytes32,uint256)": {
        "details": "Returns one of the accounts that have `role`. `index` must be a value between 0 and {getRoleMemberCount}, non-inclusive. Role bearers are not sorted in any particular way, and their ordering may change at any point. WARNING: When using {getRoleMember} and {getRoleMemberCount}, make sure you perform all queries on the same block. See the following https://forum.openzeppelin.com/t/iterating-over-elements-on-enumerableset-in-openzeppelin-contracts/2296[forum post] for more information."
      },
      "getRoleMemberCount(bytes32)": {
        "details": "Returns the number of accounts that have `role`. Can be used together with {getRoleMember} to enumerate all bearers of a role."
      },
      "grantRole(bytes32,address)": {
        "details": "Grants `role` to `account`. If `account` had not been already granted `role`, emits a {RoleGranted} event. Requirements: - the caller must have ``role``'s admin role."
      },
      "hasRole(bytes32,address)": {
        "details": "Returns `true` if `account` has been granted `role`."
      },
      "increaseAllowance(address,uint256)": {
        "details": "Atomically increases the allowance granted to `spender` by the caller. This is an alternative to {approve} that can be used as a mitigation for problems described in {IERC20-approve}. Emits an {Approval} event indicating the updated allowance. Requirements: - `spender` cannot be the zero address."
      },
      "mint(address,uint256)": {
        "details": "Creates `amount` new tokens for `to`. See {ERC20-_mint}. Requirements: - the caller must have the `MINTER_ROLE`."
      },
      "name()": {
        "details": "Returns the name of the token."
      },
      "pause()": {
        "details": "Pauses all token transfers. See {ERC20Pausable} and {Pausable-_pause}. Requirements: - the caller must have the `PAUSER_ROLE`."
      },
      "paused()": {
        "details": "Returns true if the contract is paused, and false otherwise."
      },
      "renounceRole(bytes32,address)": {
        "details": "Revokes `role` from the calling account. Roles are often managed via {grantRole} and {revokeRole}: this function's purpose is to provide a mechanism for accounts to lose their privileges if they are compromised (such as when a trusted device is misplaced). If the calling account had been revoked `role`, emits a {RoleRevoked} event. Requirements: - the caller must be `account`."
      },
      "revokeRole(bytes32,address)": {
        "details": "Revokes `role` from `account`. If `account` had been granted `role`, emits a {RoleRevoked} event. Requirements: - the caller must have ``role``'s admin role."
      },
      "supportsInterface(bytes4)": {
        "details": "See {IERC165-supportsInterface}."
      },
      "symbol()": {
        "details": "Returns the symbol of the token, usually a shorter version of the name."
      },
      "totalSupply()": {
        "details": "See {IERC20-totalSupply}."
      },
      "transfer(address,uint256)": {
        "details": "See {IERC20-transfer}. Requirements: - `to` cannot be the zero address. - the caller must have a balance of at least `amount`."
      },
      "transferFrom(address,address,uint256)": {
        "details": "See {IERC20-transferFrom}. Emits an {Approval} event indicating the updated allowance. This is not required by the EIP. See the note at the beginning of {ERC20}. NOTE: Does not update the allowance if the current allowance is the maximum `uint256`. Requirements: - `from` and `to` cannot be the zero address. - `from` must have a balance of at least `amount`. - the caller must have allowance for ``from``'s tokens of at least `amount`."
      },
      "unpause()": {
        "details": "Unpauses all token transfers. See {ERC20Pausable} and {Pausable-_unpause}. Requirements: - the caller must have the `PAUSER_ROLE`."
      }
    },
    "stateVariables": {
      "__gap": {
        "details": "This empty reserved space is put in place to allow future versions to add new variables without shifting down storage in the inheritance chain. See https://docs.openzeppelin.com/contracts/4.x/upgradeable#storage_gaps"
      }
    },
    "version": 1
  },
  "userdoc": {
    "kind": "user",
    "methods": {},
    "version": 1
  }
}