{
  "contractName": "ERC20PresetMinterPauser",
  "abi": [
    {
      "inputs": [
        {
          "internalType": "string",
          "name": "name",
          "type": "string"
        },
        {
          "internalType": "string",
          "name": "symbol",
          "type": "string"
        }
      ],
      "stateMutability": "nonpayable",
      "type": "constructor"
    },
    {
      "anonymous": false,
      "inputs": [
        {
          "indexed": true,
          "internalType": "address",
          "name": "owner",
          "type": "address"
        },
        {
          "indexed": true,
          "internalType": "address",
          "name": "spender",
          "type": "address"
        },
        {
          "indexed": false,
          "internalType": "uint256",
          "name": "value",
          "type": "uint256"
        }
      ],
      "name": "Approval",
      "type": "event"
    },
    {
      "anonymous": false,
      "inputs": [
        {
          "indexed": false,
          "internalType": "address",
          "name": "account",
          "type": "address"
        }
      ],
      "name": "Paused",
      "type": "event"
    },
    {
      "anonymous": false,
      "inputs": [
        {
          "indexed": true,
          "internalType": "bytes32",
          "name": "role",
          "type": "bytes32"
        },
        {
          "indexed": true,
          "internalType": "bytes32",
          "name": "previousAdminRole",
          "type": "bytes32"
        },
        {
          "indexed": true,
          "internalType": "bytes32",
          "name": "newAdminRole",
          "type": "bytes32"
        }
      ],
      "name": "RoleAdminChanged",
      "type": "event"
    },
    {
      "anonymous": false,
      "inputs": [
        {
          "indexed": true,
          "internalType": "bytes32",
          "name": "role",
          "type": "bytes32"
        },
        {
          "indexed": true,
          "internalType": "address",
          "name": "account",
          "type": "address"
        },
        {
          "indexed": true,
          "internalType": "address",
          "name": "sender",
          "type": "address"
        }
      ],
      "name": "RoleGranted",
      "type": "event"
    },
    {
      "anonymous": false,
      "inputs": [
        {
          "indexed": true,
          "internalType": "bytes32",
          "name": "role",
          "type": "bytes32"
        },
        {
          "indexed": true,
          "internalType": "address",
          "name": "account",
          "type": "address"
        },
        {
          "indexed": true,
          "internalType": "address",
          "name": "sender",
          "type": "address"
        }
      ],
      "name": "RoleRevoked",
      "type": "event"
    },
    {
      "anonymous": false,
      "inputs": [
        {
          "indexed": true,
          "internalType": "address",
          "name": "from",
          "type": "address"
        },
        {
          "indexed": true,
          "internalType": "address",
          "name": "to",
          "type": "address"
        },
        {
          "indexed": false,
          "internalType": "uint256",
          "name": "value",
          "type": "uint256"
        }
      ],
      "name": "Transfer",
      "type": "event"
    },
    {
      "anonymous": false,
      "inputs": [
        {
          "indexed": false,
          "internalType": "address",
          "name": "account",
          "type": "address"
        }
      ],
      "name": "Unpaused",
      "type": "event"
    },
    {
      "inputs": [],
      "name": "DEFAULT_ADMIN_ROLE",
      "outputs": [
        {
          "internalType": "bytes32",
          "name": "",
          "type": "bytes32"
        }
      ],
      "stateMutability": "view",
      "type": "function"
    },
    {
      "inputs": [],
      "name": "MINTER_ROLE",
      "outputs": [
        {
          "internalType": "bytes32",
          "name": "",
          "type": "bytes32"
        }
      ],
      "stateMutability": "view",
      "type": "function"
    },
    {
      "inputs": [],
      "name": "PAUSER_ROLE",
      "outputs": [
        {
          "internalType": "bytes32",
          "name": "",
          "type": "bytes32"
        }
      ],
      "stateMutability": "view",
      "type": "function"
    },
    {
      "inputs": [
        {
          "internalType": "address",
          "name": "owner",
          "type": "address"
        },
        {
          "internalType": "address",
          "name": "spender",
          "type": "address"
        }
      ],
      "name": "allowance",
      "outputs": [
        {
          "internalType": "uint256",
          "name": "",
          "type": "uint256"
        }
      ],
      "stateMutability": "view",
      "type": "function"
    },
    {
      "inputs": [
        {
          "internalType": "address",
          "name": "spender",
          "type": "address"
        },
        {
          "internalType": "uint256",
          "name": "amount",
          "type": "uint256"
        }
      ],
      "name": "approve",
      "outputs": [
        {
          "internalType": "bool",
          "name": "",
          "type": "bool"
        }
      ],
      "stateMutability": "nonpayable",
      "type": "function"
    },
    {
      "inputs": [
        {
          "internalType": "address",
          "name": "account",
          "type": "address"
        }
      ],
      "name": "balanceOf",
      "outputs": [
        {
          "internalType": "uint256",
          "name": "",
          "type": "uint256"
        }
      ],
      "stateMutability": "view",
      "type": "function"
    },
    {
      "inputs": [
        {
          "internalType": "uint256",
          "name": "amount",
          "type": "uint256"
        }
      ],
      "name": "burn",
      "outputs": [],
      "stateMutability": "nonpayable",
      "type": "function"
    },
    {
      "inputs": [
        {
          "internalType": "address",
          "name": "account",
          "type": "address"
        },
        {
          "internalType": "uint256",
          "name": "amount",
          "type": "uint256"
        }
      ],
      "name": "burnFrom",
      "outputs": [],
      "stateMutability": "nonpayable",
      "type": "function"
    },
    {
      "inputs": [],
      "name": "decimals",
      "outputs": [
        {
          "internalType": "uint8",
          "name": "",
          "type": "uint8"
        }
      ],
      "stateMutability": "view",
      "type": "function"
    },
    {
      "inputs": [
        {
          "internalType": "address",
          "name": "spender",
          "type": "address"
        },
        {
          "internalType": "uint256",
          "name": "subtractedValue",
          "type": "uint256"
        }
      ],
      "name": "decreaseAllowance",
      "outputs": [
        {
          "internalType": "bool",
          "name": "",
          "type": "bool"
        }
      ],
      "stateMutability": "nonpayable",
      "type": "function"
    },
    {
      "inputs": [
        {
          "internalType": "bytes32",
          "name": "role",
          "type": "bytes32"
        }
      ],
      "name": "getRoleAdmin",
      "outputs": [
        {
          "internalType": "bytes32",
          "name": "",
          "type": "bytes32"
        }
      ],
      "stateMutability": "view",
      "type": "function"
    },
    {
      "inputs": [
        {
          "internalType": "bytes32",
          "name": "role",
          "type": "bytes32"
        },
        {
          "internalType": "uint256",
          "name": "index",
          "type": "uint256"
        }
      ],
      "name": "getRoleMember",
      "outputs": [
        {
          "internalType": "address",
          "name": "",
          "type": "address"
        }
      ],
      "stateMutability": "view",
      "type": "function"
    },
    {
      "inputs": [
        {
          "internalType": "bytes32",
          "name": "role",
          "type": "bytes32"
        }
      ],
      "name": "getRoleMemberCount",
      "outputs": [
        {
          "internalType": "uint256",
          "name": "",
          "type": "uint256"
        }
      ],
      "stateMutability": "view",
      "type": "function"
    },
    {
      "inputs": [
        {
          "internalType": "bytes32",
          "name": "role",
          "type": "bytes32"
        },
        {
          "internalType": "address",
          "name": "account",
          "type": "address"
        }
      ],
      "name": "grantRole",
      "outputs": [],
      "stateMutability": "nonpayable",
      "type": "function"
    },
    {
      "inputs": [
        {
          "internalType": "bytes32",
          "name": "role",
          "type": "bytes32"
        },
        {
          "internalType": "address",
          "name": "account",
          "type": "address"
        }
      ],
      "name": "hasRole",
      "outputs": [
        {
          "internalType": "bool",
          "name": "",
          "type": "bool"
        }
      ],
      "stateMutability": "view",
      "type": "function"
    },
    {
      "inputs": [
        {
          "internalType": "address",
          "name": "spender",
          "type": "address"
        },
        {
          "internalType": "uint256",
          "name": "addedValue",
          "type": "uint256"
        }
      ],
      "name": "increaseAllowance",
      "outputs": [
        {
          "internalType": "bool",
          "name": "",
          "type": "bool"
        }
      ],
      "stateMutability": "nonpayable",
      "type": "function"
    },
    {
      "inputs": [],
      "name": "name",
      "outputs": [
        {
          "internalType": "string",
          "name": "",
          "type": "string"
        }
      ],
      "stateMutability": "view",
      "type": "function"
    },
    {
      "inputs": [],
      "name": "paused",
      "outputs": [
        {
          "internalType": "bool",
          "name": "",
          "type": "bool"
        }
      ],
      "stateMutability": "view",
      "type": "function"
    },
    {
      "inputs": [
        {
          "internalType": "bytes32",
          "name": "role",
          "type": "bytes32"
        },
        {
          "internalType": "address",
          "name": "account",
          "type": "address"
        }
      ],
      "name": "renounceRole",
      "outputs": [],
      "stateMutability": "nonpayable",
      "type": "function"
    },
    {
      "inputs": [
        {
          "internalType": "bytes32",
          "name": "role",
          "type": "bytes32"
        },
        {
          "internalType": "address",
          "name": "account",
          "type": "address"
        }
      ],
      "name": "revokeRole",
      "outputs": [],
      "stateMutability": "nonpayable",
      "type": "function"
    },
    {
      "inputs": [
        {
          "internalType": "bytes4",
          "name": "interfaceId",
          "type": "bytes4"
        }
      ],
      "name": "supportsInterface",
      "outputs": [
        {
          "internalType": "bool",
          "name": "",
          "type": "bool"
        }
      ],
      "stateMutability": "view",
      "type": "function"
    },
    {
      "inputs": [],
      "name": "symbol",
      "outputs": [
        {
          "internalType": "string",
          "name": "",
          "type": "string"
        }
      ],
      "stateMutability": "view",
      "type": "function"
    },
    {
      "inputs": [],
      "name": "totalSupply",
      "outputs": [
        {
          "internalType": "uint256",
          "name": "",
          "type": "uint256"
        }
      ],
      "stateMutability": "view",
      "type": "function"
    },
    {
      "inputs": [
        {
          "internalType": "address",
          "name": "recipient",
          "type": "address"
        },
        {
          "internalType": "uint256",
          "name": "amount",
          "type": "uint256"
        }
      ],
      "name": "transfer",
      "outputs": [
        {
          "internalType": "bool",
          "name": "",
          "type": "bool"
        }
      ],
      "stateMutability": "nonpayable",
      "type": "function"
    },
    {
      "inputs": [
        {
          "internalType": "address",
          "name": "sender",
          "type": "address"
        },
        {
          "internalType": "address",
          "name": "recipient",
          "type": "address"
        },
        {
          "internalType": "uint256",
          "name": "amount",
          "type": "uint256"
        }
      ],
      "name": "transferFrom",
      "outputs": [
        {
          "internalType": "bool",
          "name": "",
          "type": "bool"
        }
      ],
      "stateMutability": "nonpayable",
      "type": "function"
    },
    {
      "inputs": [
        {
          "internalType": "address",
          "name": "to",
          "type": "address"
        },
        {
          "internalType": "uint256",
          "name": "amount",
          "type": "uint256"
        }
      ],
      "name": "mint",
      "outputs": [],
      "stateMutability": "nonpayable",
      "type": "function"
    },
    {
      "inputs": [],
      "name": "pause",
      "outputs": [],
      "stateMutability": "nonpayable",
      "type": "function"
    },
    {
      "inputs": [],
      "name": "unpause",
      "outputs": [],
      "stateMutability": "nonpayable",
      "type": "function"
    }
  ],
  "bytecode": "0x60806040523480156200001157600080fd5b5060405162003b9938038062003b998339818101604052810190620000379190620004ee565b8181816005908051906020019062000051929190620003cc565b5080600690805190602001906200006a929190620003cc565b5050506000600760006101000a81548160ff021916908315150217905550620000ac6000801b620000a06200013660201b60201c565b6200013e60201b60201c565b620000ed7f9f2df0fed2c77648de5860a4cc508cd0818c85b8b8a1ab4ceeef8d981c8956a6620000e16200013660201b60201c565b6200013e60201b60201c565b6200012e7f65d7a28e3265b37a6474929f336521b332c1681b933f6cb9f3376673440d862a620001226200013660201b60201c565b6200013e60201b60201c565b5050620006d1565b600033905090565b6200015082826200015460201b60201c565b5050565b6200016b82826200019c60201b62000f651760201c565b6200019781600160008581526020019081526020016000206200028d60201b620010451790919060201c565b505050565b620001ae8282620002c560201b60201c565b6200028957600160008084815260200190815260200160002060000160008373ffffffffffffffffffffffffffffffffffffffff1673ffffffffffffffffffffffffffffffffffffffff16815260200190815260200160002060006101000a81548160ff0219169083151502179055506200022e6200013660201b60201c565b73ffffffffffffffffffffffffffffffffffffffff168173ffffffffffffffffffffffffffffffffffffffff16837f2f8788117e7eff1d82e926ec794901d17c78024a50270940304540a733656f0d60405160405180910390a45b5050565b6000620002bd836000018373ffffffffffffffffffffffffffffffffffffffff1660001b6200032f60201b60201c565b905092915050565b600080600084815260200190815260200160002060000160008373ffffffffffffffffffffffffffffffffffffffff1673ffffffffffffffffffffffffffffffffffffffff16815260200190815260200160002060009054906101000a900460ff16905092915050565b6000620003438383620003a960201b60201c565b6200039e578260000182908060018154018082558091505060019003906000526020600020016000909190919091505582600001805490508360010160008481526020019081526020016000208190555060019050620003a3565b600090505b92915050565b600080836001016000848152602001908152602001600020541415905092915050565b828054620003da90620005f6565b90600052602060002090601f016020900481019282620003fe57600085556200044a565b82601f106200041957805160ff19168380011785556200044a565b828001600101855582156200044a579182015b82811115620004495782518255916020019190600101906200042c565b5b5090506200045991906200045d565b5090565b5b80821115620004785760008160009055506001016200045e565b5090565b6000620004936200048d846200058a565b62000561565b905082815260208101848484011115620004ac57600080fd5b620004b9848285620005c0565b509392505050565b600082601f830112620004d357600080fd5b8151620004e58482602086016200047c565b91505092915050565b600080604083850312156200050257600080fd5b600083015167ffffffffffffffff8111156200051d57600080fd5b6200052b85828601620004c1565b925050602083015167ffffffffffffffff8111156200054957600080fd5b6200055785828601620004c1565b9150509250929050565b60006200056d62000580565b90506200057b82826200062c565b919050565b6000604051905090565b600067ffffffffffffffff821115620005a857620005a762000691565b5b620005b382620006c0565b9050602081019050919050565b60005b83811015620005e0578082015181840152602081019050620005c3565b83811115620005f0576000848401525b50505050565b600060028204905060018216806200060f57607f821691505b6020821081141562000626576200062562000662565b5b50919050565b6200063782620006c0565b810181811067ffffffffffffffff8211171562000659576200065862000691565b5b80604052505050565b7f4e487b7100000000000000000000000000000000000000000000000000000000600052602260045260246000fd5b7f4e487b7100000000000000000000000000000000000000000000000000000000600052604160045260246000fd5b6000601f19601f8301169050919050565b6134b880620006e16000396000f3fe608060405234801561001057600080fd5b50600436106101c45760003560e01c806370a08231116100f9578063a457c2d711610097578063d539139311610071578063d53913931461052d578063d547741f1461054b578063dd62ed3e14610567578063e63ab1e914610597576101c4565b8063a457c2d71461049d578063a9059cbb146104cd578063ca15c873146104fd576101c4565b80639010d07c116100d35780639010d07c1461040157806391d148541461043157806395d89b4114610461578063a217fddf1461047f576101c4565b806370a08231146103ab57806379cc6790146103db5780638456cb59146103f7576101c4565b8063313ce567116101665780633f4ba83a116101405780633f4ba83a1461034b57806340c10f191461035557806342966c68146103715780635c975abb1461038d576101c4565b8063313ce567146102e157806336568abe146102ff578063395093511461031b576101c4565b806318160ddd116101a257806318160ddd1461024757806323b872dd14610265578063248a9ca3146102955780632f2ff15d146102c5576101c4565b806301ffc9a7146101c957806306fdde03146101f9578063095ea7b314610217575b600080fd5b6101e360048036038101906101de9190612440565b6105b5565b6040516101f0919061289e565b60405180910390f35b61020161062f565b60405161020e91906128d4565b60405180910390f35b610231600480360381019061022c9190612363565b6106c1565b60405161023e919061289e565b60405180910390f35b61024f6106df565b60405161025c9190612b76565b60405180910390f35b61027f600480360381019061027a9190612314565b6106e9565b60405161028c919061289e565b60405180910390f35b6102af60048036038101906102aa919061239f565b6107e1565b6040516102bc91906128b9565b60405180910390f35b6102df60048036038101906102da91906123c8565b610800565b005b6102e9610829565b6040516102f69190612b91565b60405180910390f35b610319600480360381019061031491906123c8565b610832565b005b61033560048036038101906103309190612363565b6108b5565b604051610342919061289e565b60405180910390f35b610353610961565b005b61036f600480360381019061036a9190612363565b6109db565b005b61038b60048036038101906103869190612469565b610aa5565b005b610395610ab9565b6040516103a2919061289e565b60405180910390f35b6103c560048036038101906103c091906122af565b610ad0565b6040516103d29190612b76565b60405180910390f35b6103f560048036038101906103f09190612363565b610b19565b005b6103ff610b94565b005b61041b60048036038101906104169190612404565b610c0e565b6040516104289190612883565b60405180910390f35b61044b600480360381019061044691906123c8565b610c3d565b604051610458919061289e565b60405180910390f35b610469610ca7565b60405161047691906128d4565b60405180910390f35b610487610d39565b60405161049491906128b9565b60405180910390f35b6104b760048036038101906104b29190612363565b610d40565b6040516104c4919061289e565b60405180910390f35b6104e760048036038101906104e29190612363565b610e2b565b6040516104f4919061289e565b60405180910390f35b6105176004803603810190610512919061239f565b610e49565b6040516105249190612b76565b60405180910390f35b610535610e6d565b60405161054291906128b9565b60405180910390f35b610565600480360381019061056091906123c8565b610e91565b005b610581600480360381019061057c91906122d8565b610eba565b60405161058e9190612b76565b60405180910390f35b61059f610f41565b6040516105ac91906128b9565b60405180910390f35b60007f5a05180f000000000000000000000000000000000000000000000000000000007bffffffffffffffffffffffffffffffffffffffffffffffffffffffff1916827bffffffffffffffffffffffffffffffffffffffffffffffffffffffff19161480610628575061062782611075565b5b9050919050565b60606005805461063e90612d9f565b80601f016020809104026020016040519081016040528092919081815260200182805461066a90612d9f565b80156106b75780601f1061068c576101008083540402835291602001916106b7565b820191906000526020600020905b81548152906001019060200180831161069a57829003601f168201915b5050505050905090565b60006106d56106ce6110ef565b84846110f7565b6001905092915050565b6000600454905090565b60006106f68484846112c2565b6000600360008673ffffffffffffffffffffffffffffffffffffffff1673ffffffffffffffffffffffffffffffffffffffff16815260200190815260200160002060006107416110ef565b73ffffffffffffffffffffffffffffffffffffffff1673ffffffffffffffffffffffffffffffffffffffff168152602001908152602001600020549050828110156107c1576040517f08c379a00000000000000000000000000000000000000000000000000000000081526004016107b8906129f6565b60405180910390fd5b6107d5856107cd6110ef565b8584036110f7565b60019150509392505050565b6000806000838152602001908152602001600020600101549050919050565b610809826107e1565b61081a816108156110ef565b611546565b61082483836115e3565b505050565b60006012905090565b61083a6110ef565b73ffffffffffffffffffffffffffffffffffffffff168173ffffffffffffffffffffffffffffffffffffffff16146108a7576040517f08c379a000000000000000000000000000000000000000000000000000000000815260040161089e90612b16565b60405180910390fd5b6108b18282611617565b5050565b60006109576108c26110ef565b8484600360006108d06110ef565b73ffffffffffffffffffffffffffffffffffffffff1673ffffffffffffffffffffffffffffffffffffffff16815260200190815260200160002060008873ffffffffffffffffffffffffffffffffffffffff1673ffffffffffffffffffffffffffffffffffffffff168152602001908152602001600020546109529190612bd3565b6110f7565b6001905092915050565b6109927f65d7a28e3265b37a6474929f336521b332c1681b933f6cb9f3376673440d862a61098d6110ef565b610c3d565b6109d1576040517f08c379a00000000000000000000000000000000000000000000000000000000081526004016109c890612976565b60405180910390fd5b6109d961164b565b565b610a0c7f9f2df0fed2c77648de5860a4cc508cd0818c85b8b8a1ab4ceeef8d981c8956a6610a076110ef565b610c3d565b610a4b576040517f08c379a0000000000000000000000000000000000000000000000000000000008152600401610a4290612a16565b60405180910390fd5b69d3c21bcecceda10000008110610a97576040517f08c379a0000000000000000000000000000000000000000000000000000000008152600401610a8e90612a76565b60405180910390fd5b610aa182826116ed565b5050565b610ab6610ab06110ef565b8261184e565b50565b6000600760009054906101000a900460ff16905090565b6000600260008373ffffffffffffffffffffffffffffffffffffffff1673ffffffffffffffffffffffffffffffffffffffff168152602001908152602001600020549050919050565b6000610b2c83610b276110ef565b610eba565b905081811015610b71576040517f08c379a0000000000000000000000000000000000000000000000000000000008152600401610b6890612a36565b60405180910390fd5b610b8583610b7d6110ef565b8484036110f7565b610b8f838361184e565b505050565b610bc57f65d7a28e3265b37a6474929f336521b332c1681b933f6cb9f3376673440d862a610bc06110ef565b610c3d565b610c04576040517f08c379a0000000000000000000000000000000000000000000000000000000008152600401610bfb90612ad6565b60405180910390fd5b610c0c611a27565b565b6000610c358260016000868152602001908152602001600020611aca90919063ffffffff16565b905092915050565b600080600084815260200190815260200160002060000160008373ffffffffffffffffffffffffffffffffffffffff1673ffffffffffffffffffffffffffffffffffffffff16815260200190815260200160002060009054906101000a900460ff16905092915050565b606060068054610cb690612d9f565b80601f0160208091040260200160405190810160405280929190818152602001828054610ce290612d9f565b8015610d2f5780601f10610d0457610100808354040283529160200191610d2f565b820191906000526020600020905b815481529060010190602001808311610d1257829003601f168201915b5050505050905090565b6000801b81565b60008060036000610d4f6110ef565b73ffffffffffffffffffffffffffffffffffffffff1673ffffffffffffffffffffffffffffffffffffffff16815260200190815260200160002060008573ffffffffffffffffffffffffffffffffffffffff1673ffffffffffffffffffffffffffffffffffffffff16815260200190815260200160002054905082811015610e0c576040517f08c379a0000000000000000000000000000000000000000000000000000000008152600401610e0390612af6565b60405180910390fd5b610e20610e176110ef565b858584036110f7565b600191505092915050565b6000610e3f610e386110ef565b84846112c2565b6001905092915050565b6000610e6660016000848152602001908152602001600020611ae4565b9050919050565b7f9f2df0fed2c77648de5860a4cc508cd0818c85b8b8a1ab4ceeef8d981c8956a681565b610e9a826107e1565b610eab81610ea66110ef565b611546565b610eb58383611617565b505050565b6000600360008473ffffffffffffffffffffffffffffffffffffffff1673ffffffffffffffffffffffffffffffffffffffff16815260200190815260200160002060008373ffffffffffffffffffffffffffffffffffffffff1673ffffffffffffffffffffffffffffffffffffffff16815260200190815260200160002054905092915050565b7f65d7a28e3265b37a6474929f336521b332c1681b933f6cb9f3376673440d862a81565b610f6f8282610c3d565b61104157600160008084815260200190815260200160002060000160008373ffffffffffffffffffffffffffffffffffffffff1673ffffffffffffffffffffffffffffffffffffffff16815260200190815260200160002060006101000a81548160ff021916908315150217905550610fe66110ef565b73ffffffffffffffffffffffffffffffffffffffff168173ffffffffffffffffffffffffffffffffffffffff16837f2f8788117e7eff1d82e926ec794901d17c78024a50270940304540a733656f0d60405160405180910390a45b5050565b600061106d836000018373ffffffffffffffffffffffffffffffffffffffff1660001b611af9565b905092915050565b60007f7965db0b000000000000000000000000000000000000000000000000000000007bffffffffffffffffffffffffffffffffffffffffffffffffffffffff1916827bffffffffffffffffffffffffffffffffffffffffffffffffffffffff191614806110e857506110e782611b69565b5b9050919050565b600033905090565b600073ffffffffffffffffffffffffffffffffffffffff168373ffffffffffffffffffffffffffffffffffffffff161415611167576040517f08c379a000000000000000000000000000000000000000000000000000000000815260040161115e90612ab6565b60405180910390fd5b600073ffffffffffffffffffffffffffffffffffffffff168273ffffffffffffffffffffffffffffffffffffffff1614156111d7576040517f08c379a00000000000000000000000000000000000000000000000000000000081526004016111ce90612996565b60405180910390fd5b80600360008573ffffffffffffffffffffffffffffffffffffffff1673ffffffffffffffffffffffffffffffffffffffff16815260200190815260200160002060008473ffffffffffffffffffffffffffffffffffffffff1673ffffffffffffffffffffffffffffffffffffffff168152602001908152602001600020819055508173ffffffffffffffffffffffffffffffffffffffff168373ffffffffffffffffffffffffffffffffffffffff167f8c5be1e5ebec7d5bd14f71427d1e84f3dd0314c0f7b2291e5b200ac8c7c3b925836040516112b59190612b76565b60405180910390a3505050565b600073ffffffffffffffffffffffffffffffffffffffff168373ffffffffffffffffffffffffffffffffffffffff161415611332576040517f08c379a000000000000000000000000000000000000000000000000000000000815260040161132990612a96565b60405180910390fd5b600073ffffffffffffffffffffffffffffffffffffffff168273ffffffffffffffffffffffffffffffffffffffff1614156113a2576040517f08c379a000000000000000000000000000000000000000000000000000000000815260040161139990612916565b60405180910390fd5b6113ad838383611bd3565b6000600260008573ffffffffffffffffffffffffffffffffffffffff1673ffffffffffffffffffffffffffffffffffffffff16815260200190815260200160002054905081811015611434576040517f08c379a000000000000000000000000000000000000000000000000000000000815260040161142b906129b6565b60405180910390fd5b818103600260008673ffffffffffffffffffffffffffffffffffffffff1673ffffffffffffffffffffffffffffffffffffffff1681526020019081526020016000208190555081600260008573ffffffffffffffffffffffffffffffffffffffff1673ffffffffffffffffffffffffffffffffffffffff16815260200190815260200160002060008282546114c99190612bd3565b925050819055508273ffffffffffffffffffffffffffffffffffffffff168473ffffffffffffffffffffffffffffffffffffffff167fddf252ad1be2c89b69c2b068fc378daa952ba7f163c4a11628f55a4df523b3ef8460405161152d9190612b76565b60405180910390a3611540848484611be3565b50505050565b6115508282610c3d565b6115df576115758173ffffffffffffffffffffffffffffffffffffffff166014611be8565b6115838360001c6020611be8565b604051602001611594929190612849565b6040516020818303038152906040526040517f08c379a00000000000000000000000000000000000000000000000000000000081526004016115d691906128d4565b60405180910390fd5b5050565b6115ed8282610f65565b611612816001600085815260200190815260200160002061104590919063ffffffff16565b505050565b6116218282611ee2565b6116468160016000858152602001908152602001600020611fc390919063ffffffff16565b505050565b611653610ab9565b611692576040517f08c379a000000000000000000000000000000000000000000000000000000000815260040161168990612936565b60405180910390fd5b6000600760006101000a81548160ff0219169083151502179055507f5db9ee0a495bf2e6ff9c91a7834c1ba4fdd244a5e8aa4e537bd38aeae4b073aa6116d66110ef565b6040516116e39190612883565b60405180910390a1565b600073ffffffffffffffffffffffffffffffffffffffff168273ffffffffffffffffffffffffffffffffffffffff16141561175d576040517f08c379a000000000000000000000000000000000000000000000000000000000815260040161175490612b36565b60405180910390fd5b61176960008383611bd3565b806004600082825461177b9190612bd3565b9250508190555080600260008473ffffffffffffffffffffffffffffffffffffffff1673ffffffffffffffffffffffffffffffffffffffff16815260200190815260200160002060008282546117d19190612bd3565b925050819055508173ffffffffffffffffffffffffffffffffffffffff16600073ffffffffffffffffffffffffffffffffffffffff167fddf252ad1be2c89b69c2b068fc378daa952ba7f163c4a11628f55a4df523b3ef836040516118369190612b76565b60405180910390a361184a60008383611be3565b5050565b600073ffffffffffffffffffffffffffffffffffffffff168273ffffffffffffffffffffffffffffffffffffffff1614156118be576040517f08c379a00000000000000000000000000000000000000000000000000000000081526004016118b590612a56565b60405180910390fd5b6118ca82600083611bd3565b6000600260008473ffffffffffffffffffffffffffffffffffffffff1673ffffffffffffffffffffffffffffffffffffffff16815260200190815260200160002054905081811015611951576040517f08c379a000000000000000000000000000000000000000000000000000000000815260040161194890612956565b60405180910390fd5b818103600260008573ffffffffffffffffffffffffffffffffffffffff1673ffffffffffffffffffffffffffffffffffffffff1681526020019081526020016000208190555081600460008282546119a99190612c83565b92505081905550600073ffffffffffffffffffffffffffffffffffffffff168373ffffffffffffffffffffffffffffffffffffffff167fddf252ad1be2c89b69c2b068fc378daa952ba7f163c4a11628f55a4df523b3ef84604051611a0e9190612b76565b60405180910390a3611a2283600084611be3565b505050565b611a2f610ab9565b15611a6f576040517f08c379a0000000000000000000000000000000000000000000000000000000008152600401611a66906129d6565b60405180910390fd5b6001600760006101000a81548160ff0219169083151502179055507f62e78cea01bee320cd4e420270b5ea74000d11b0c9f74754ebdbfc544b05a258611ab36110ef565b604051611ac09190612883565b60405180910390a1565b6000611ad98360000183611ff3565b60001c905092915050565b6000611af282600001612044565b9050919050565b6000611b058383612055565b611b5e578260000182908060018154018082558091505060019003906000526020600020016000909190919091505582600001805490508360010160008481526020019081526020016000208190555060019050611b63565b600090505b92915050565b60007f01ffc9a7000000000000000000000000000000000000000000000000000000007bffffffffffffffffffffffffffffffffffffffffffffffffffffffff1916827bffffffffffffffffffffffffffffffffffffffffffffffffffffffff1916149050919050565b611bde838383612078565b505050565b505050565b606060006002836002611bfb9190612c29565b611c059190612bd3565b67ffffffffffffffff811115611c44577f4e487b7100000000000000000000000000000000000000000000000000000000600052604160045260246000fd5b6040519080825280601f01601f191660200182016040528015611c765781602001600182028036833780820191505090505b5090507f300000000000000000000000000000000000000000000000000000000000000081600081518110611cd4577f4e487b7100000000000000000000000000000000000000000000000000000000600052603260045260246000fd5b60200101907effffffffffffffffffffffffffffffffffffffffffffffffffffffffffffff1916908160001a9053507f780000000000000000000000000000000000000000000000000000000000000081600181518110611d5e577f4e487b7100000000000000000000000000000000000000000000000000000000600052603260045260246000fd5b60200101907effffffffffffffffffffffffffffffffffffffffffffffffffffffffffffff1916908160001a90535060006001846002611d9e9190612c29565b611da89190612bd3565b90505b6001811115611e94577f3031323334353637383961626364656600000000000000000000000000000000600f861660108110611e10577f4e487b7100000000000000000000000000000000000000000000000000000000600052603260045260246000fd5b1a60f81b828281518110611e4d577f4e487b7100000000000000000000000000000000000000000000000000000000600052603260045260246000fd5b60200101907effffffffffffffffffffffffffffffffffffffffffffffffffffffffffffff1916908160001a905350600485901c945080611e8d90612d75565b9050611dab565b5060008414611ed8576040517f08c379a0000000000000000000000000000000000000000000000000000000008152600401611ecf906128f6565b60405180910390fd5b8091505092915050565b611eec8282610c3d565b15611fbf57600080600084815260200190815260200160002060000160008373ffffffffffffffffffffffffffffffffffffffff1673ffffffffffffffffffffffffffffffffffffffff16815260200190815260200160002060006101000a81548160ff021916908315150217905550611f646110ef565b73ffffffffffffffffffffffffffffffffffffffff168173ffffffffffffffffffffffffffffffffffffffff16837ff6391f5c32d9c69d2a47ea670b442974b53935d1edc7fd64eb21e047a839171b60405160405180910390a45b5050565b6000611feb836000018373ffffffffffffffffffffffffffffffffffffffff1660001b6120d0565b905092915050565b6000826000018281548110612031577f4e487b7100000000000000000000000000000000000000000000000000000000600052603260045260246000fd5b9060005260206000200154905092915050565b600081600001805490509050919050565b600080836001016000848152602001908152602001600020541415905092915050565b612083838383612256565b61208b610ab9565b156120cb576040517f08c379a00000000000000000000000000000000000000000000000000000000081526004016120c290612b56565b60405180910390fd5b505050565b6000808360010160008481526020019081526020016000205490506000811461224a5760006001826121029190612c83565b905060006001866000018054905061211a9190612c83565b90508181146121d5576000866000018281548110612161577f4e487b7100000000000000000000000000000000000000000000000000000000600052603260045260246000fd5b90600052602060002001549050808760000184815481106121ab577f4e487b7100000000000000000000000000000000000000000000000000000000600052603260045260246000fd5b90600052602060002001819055508387600101600083815260200190815260200160002081905550505b8560000180548061220f577f4e487b7100000000000000000000000000000000000000000000000000000000600052603160045260246000fd5b600190038181906000526020600020016000905590558560010160008681526020019081526020016000206000905560019350505050612250565b60009150505b92915050565b505050565b60008135905061226a81613426565b92915050565b60008135905061227f8161343d565b92915050565b60008135905061229481613454565b92915050565b6000813590506122a98161346b565b92915050565b6000602082840312156122c157600080fd5b60006122cf8482850161225b565b91505092915050565b600080604083850312156122eb57600080fd5b60006122f98582860161225b565b925050602061230a8582860161225b565b9150509250929050565b60008060006060848603121561232957600080fd5b60006123378682870161225b565b93505060206123488682870161225b565b92505060406123598682870161229a565b9150509250925092565b6000806040838503121561237657600080fd5b60006123848582860161225b565b92505060206123958582860161229a565b9150509250929050565b6000602082840312156123b157600080fd5b60006123bf84828501612270565b91505092915050565b600080604083850312156123db57600080fd5b60006123e985828601612270565b92505060206123fa8582860161225b565b9150509250929050565b6000806040838503121561241757600080fd5b600061242585828601612270565b92505060206124368582860161229a565b9150509250929050565b60006020828403121561245257600080fd5b600061246084828501612285565b91505092915050565b60006020828403121561247b57600080fd5b60006124898482850161229a565b91505092915050565b61249b81612cb7565b82525050565b6124aa81612cc9565b82525050565b6124b981612cd5565b82525050565b60006124ca82612bac565b6124d48185612bb7565b93506124e4818560208601612d42565b6124ed81612e2f565b840191505092915050565b600061250382612bac565b61250d8185612bc8565b935061251d818560208601612d42565b80840191505092915050565b6000612536602083612bb7565b915061254182612e40565b602082019050919050565b6000612559602383612bb7565b915061256482612e69565b604082019050919050565b600061257c601483612bb7565b915061258782612eb8565b602082019050919050565b600061259f602283612bb7565b91506125aa82612ee1565b604082019050919050565b60006125c2603983612bb7565b91506125cd82612f30565b604082019050919050565b60006125e5602283612bb7565b91506125f082612f7f565b604082019050919050565b6000612608602683612bb7565b915061261382612fce565b604082019050919050565b600061262b601083612bb7565b91506126368261301d565b602082019050919050565b600061264e602883612bb7565b915061265982613046565b604082019050919050565b6000612671603683612bb7565b915061267c82613095565b604082019050919050565b6000612694602483612bb7565b915061269f826130e4565b604082019050919050565b60006126b7602183612bb7565b91506126c282613133565b604082019050919050565b60006126da602383612bb7565b91506126e582613182565b604082019050919050565b60006126fd602583612bb7565b9150612708826131d1565b604082019050919050565b6000612720602483612bb7565b915061272b82613220565b604082019050919050565b6000612743603783612bb7565b915061274e8261326f565b604082019050919050565b6000612766601783612bc8565b9150612771826132be565b601782019050919050565b6000612789602583612bb7565b9150612794826132e7565b604082019050919050565b60006127ac601183612bc8565b91506127b782613336565b601182019050919050565b60006127cf602f83612bb7565b91506127da8261335f565b604082019050919050565b60006127f2601f83612bb7565b91506127fd826133ae565b602082019050919050565b6000612815602a83612bb7565b9150612820826133d7565b604082019050919050565b61283481612d2b565b82525050565b61284381612d35565b82525050565b600061285482612759565b915061286082856124f8565b915061286b8261279f565b915061287782846124f8565b91508190509392505050565b60006020820190506128986000830184612492565b92915050565b60006020820190506128b360008301846124a1565b92915050565b60006020820190506128ce60008301846124b0565b92915050565b600060208201905081810360008301526128ee81846124bf565b905092915050565b6000602082019050818103600083015261290f81612529565b9050919050565b6000602082019050818103600083015261292f8161254c565b9050919050565b6000602082019050818103600083015261294f8161256f565b9050919050565b6000602082019050818103600083015261296f81612592565b9050919050565b6000602082019050818103600083015261298f816125b5565b9050919050565b600060208201905081810360008301526129af816125d8565b9050919050565b600060208201905081810360008301526129cf816125fb565b9050919050565b600060208201905081810360008301526129ef8161261e565b9050919050565b60006020820190508181036000830152612a0f81612641565b9050919050565b60006020820190508181036000830152612a2f81612664565b9050919050565b60006020820190508181036000830152612a4f81612687565b9050919050565b60006020820190508181036000830152612a6f816126aa565b9050919050565b60006020820190508181036000830152612a8f816126cd565b9050919050565b60006020820190508181036000830152612aaf816126f0565b9050919050565b60006020820190508181036000830152612acf81612713565b9050919050565b60006020820190508181036000830152612aef81612736565b9050919050565b60006020820190508181036000830152612b0f8161277c565b9050919050565b60006020820190508181036000830152612b2f816127c2565b9050919050565b60006020820190508181036000830152612b4f816127e5565b9050919050565b60006020820190508181036000830152612b6f81612808565b9050919050565b6000602082019050612b8b600083018461282b565b92915050565b6000602082019050612ba6600083018461283a565b92915050565b600081519050919050565b600082825260208201905092915050565b600081905092915050565b6000612bde82612d2b565b9150612be983612d2b565b9250827fffffffffffffffffffffffffffffffffffffffffffffffffffffffffffffffff03821115612c1e57612c1d612dd1565b5b828201905092915050565b6000612c3482612d2b565b9150612c3f83612d2b565b9250817fffffffffffffffffffffffffffffffffffffffffffffffffffffffffffffffff0483118215151615612c7857612c77612dd1565b5b828202905092915050565b6000612c8e82612d2b565b9150612c9983612d2b565b925082821015612cac57612cab612dd1565b5b828203905092915050565b6000612cc282612d0b565b9050919050565b60008115159050919050565b6000819050919050565b60007fffffffff0000000000000000000000000000000000000000000000000000000082169050919050565b600073ffffffffffffffffffffffffffffffffffffffff82169050919050565b6000819050919050565b600060ff82169050919050565b60005b83811015612d60578082015181840152602081019050612d45565b83811115612d6f576000848401525b50505050565b6000612d8082612d2b565b91506000821415612d9457612d93612dd1565b5b600182039050919050565b60006002820490506001821680612db757607f821691505b60208210811415612dcb57612dca612e00565b5b50919050565b7f4e487b7100000000000000000000000000000000000000000000000000000000600052601160045260246000fd5b7f4e487b7100000000000000000000000000000000000000000000000000000000600052602260045260246000fd5b6000601f19601f8301169050919050565b7f537472696e67733a20686578206c656e67746820696e73756666696369656e74600082015250565b7f45524332303a207472616e7366657220746f20746865207a65726f206164647260008201527f6573730000000000000000000000000000000000000000000000000000000000602082015250565b7f5061757361626c653a206e6f7420706175736564000000000000000000000000600082015250565b7f45524332303a206275726e20616d6f756e7420657863656564732062616c616e60008201527f6365000000000000000000000000000000000000000000000000000000000000602082015250565b7f45524332305072657365744d696e7465725061757365723a206d75737420686160008201527f76652070617573657220726f6c6520746f20756e706175736500000000000000602082015250565b7f45524332303a20617070726f766520746f20746865207a65726f20616464726560008201527f7373000000000000000000000000000000000000000000000000000000000000602082015250565b7f45524332303a207472616e7366657220616d6f756e742065786365656473206260008201527f616c616e63650000000000000000000000000000000000000000000000000000602082015250565b7f5061757361626c653a2070617573656400000000000000000000000000000000600082015250565b7f45524332303a207472616e7366657220616d6f756e742065786365656473206160008201527f6c6c6f77616e6365000000000000000000000000000000000000000000000000602082015250565b7f45524332305072657365744d696e7465725061757365723a206d75737420686160008201527f7665206d696e74657220726f6c6520746f206d696e7400000000000000000000602082015250565b7f45524332303a206275726e20616d6f756e74206578636565647320616c6c6f7760008201527f616e636500000000000000000000000000000000000000000000000000000000602082015250565b7f45524332303a206275726e2066726f6d20746865207a65726f2061646472657360008201527f7300000000000000000000000000000000000000000000000000000000000000602082015250565b7f55736520746865207375626d6974207472616e73616374696f6e2066756e637460008201527f696f6e0000000000000000000000000000000000000000000000000000000000602082015250565b7f45524332303a207472616e736665722066726f6d20746865207a65726f20616460008201527f6472657373000000000000000000000000000000000000000000000000000000602082015250565b7f45524332303a20617070726f76652066726f6d20746865207a65726f2061646460008201527f7265737300000000000000000000000000000000000000000000000000000000602082015250565b7f45524332305072657365744d696e7465725061757365723a206d75737420686160008201527f76652070617573657220726f6c6520746f207061757365000000000000000000602082015250565b7f416363657373436f6e74726f6c3a206163636f756e7420000000000000000000600082015250565b7f45524332303a2064656372656173656420616c6c6f77616e63652062656c6f7760008201527f207a65726f000000000000000000000000000000000000000000000000000000602082015250565b7f206973206d697373696e6720726f6c6520000000000000000000000000000000600082015250565b7f416363657373436f6e74726f6c3a2063616e206f6e6c792072656e6f756e636560008201527f20726f6c657320666f722073656c660000000000000000000000000000000000602082015250565b7f45524332303a206d696e7420746f20746865207a65726f206164647265737300600082015250565b7f45524332305061757361626c653a20746f6b656e207472616e7366657220776860008201527f696c652070617573656400000000000000000000000000000000000000000000602082015250565b61342f81612cb7565b811461343a57600080fd5b50565b61344681612cd5565b811461345157600080fd5b50565b61345d81612cdf565b811461346857600080fd5b50565b61347481612d2b565b811461347f57600080fd5b5056fea2646970667358221220dd46dbbd967c6f8b9a2e129f01415b02e186f59e6f45b6d522b2734584d8e25464736f6c63430008020033",
  "immutableReferences": {},
  "source": "// SPDX-License-Identifier: MIT\r\n\r\npragma solidity ^0.8.0;\r\n\r\n// OpenZeppelin Contracts v4.4.1 (token/ERC20/IERC20.sol)\r\n\r\n/**\r\n * @dev Interface of the ERC20 standard as defined in the EIP.\r\n */\r\ninterface IERC20 {\r\n    /**\r\n     * @dev Returns the amount of tokens in existence.\r\n     */\r\n    function totalSupply() external view returns (uint256);\r\n\r\n    /**\r\n     * @dev Returns the amount of tokens owned by `account`.\r\n     */\r\n    function balanceOf(address account) external view returns (uint256);\r\n\r\n    /**\r\n     * @dev Moves `amount` tokens from the caller's account to `recipient`.\r\n     *\r\n     * Returns a boolean value indicating whether the operation succeeded.\r\n     *\r\n     * Emits a {Transfer} event.\r\n     */\r\n    function transfer(address recipient, uint256 amount) external returns (bool);\r\n\r\n    /**\r\n     * @dev Returns the remaining number of tokens that `spender` will be\r\n     * allowed to spend on behalf of `owner` through {transferFrom}. This is\r\n     * zero by default.\r\n     *\r\n     * This value changes when {approve} or {transferFrom} are called.\r\n     */\r\n    function allowance(address owner, address spender) external view returns (uint256);\r\n\r\n    /**\r\n     * @dev Sets `amount` as the allowance of `spender` over the caller's tokens.\r\n     *\r\n     * Returns a boolean value indicating whether the operation succeeded.\r\n     *\r\n     * IMPORTANT: Beware that changing an allowance with this method brings the risk\r\n     * that someone may use both the old and the new allowance by unfortunate\r\n     * transaction ordering. One possible solution to mitigate this race\r\n     * condition is to first reduce the spender's allowance to 0 and set the\r\n     * desired value afterwards:\r\n     * https://github.com/ethereum/EIPs/issues/20#issuecomment-263524729\r\n     *\r\n     * Emits an {Approval} event.\r\n     */\r\n    function approve(address spender, uint256 amount) external returns (bool);\r\n\r\n    /**\r\n     * @dev Moves `amount` tokens from `sender` to `recipient` using the\r\n     * allowance mechanism. `amount` is then deducted from the caller's\r\n     * allowance.\r\n     *\r\n     * Returns a boolean value indicating whether the operation succeeded.\r\n     *\r\n     * Emits a {Transfer} event.\r\n     */\r\n    function transferFrom(\r\n        address sender,\r\n        address recipient,\r\n        uint256 amount\r\n    ) external returns (bool);\r\n\r\n    /**\r\n     * @dev Emitted when `value` tokens are moved from one account (`from`) to\r\n     * another (`to`).\r\n     *\r\n     * Note that `value` may be zero.\r\n     */\r\n    event Transfer(address indexed from, address indexed to, uint256 value);\r\n\r\n    /**\r\n     * @dev Emitted when the allowance of a `spender` for an `owner` is set by\r\n     * a call to {approve}. `value` is the new allowance.\r\n     */\r\n    event Approval(address indexed owner, address indexed spender, uint256 value);\r\n}\r\n\r\n// OpenZeppelin Contracts v4.4.1 (token/ERC20/extensions/IERC20Metadata.sol)\r\n\r\n/**\r\n * @dev Interface for the optional metadata functions from the ERC20 standard.\r\n *\r\n * _Available since v4.1._\r\n */\r\ninterface IERC20Metadata is IERC20 {\r\n    /**\r\n     * @dev Returns the name of the token.\r\n     */\r\n    function name() external view returns (string memory);\r\n\r\n    /**\r\n     * @dev Returns the symbol of the token.\r\n     */\r\n    function symbol() external view returns (string memory);\r\n\r\n    /**\r\n     * @dev Returns the decimals places of the token.\r\n     */\r\n    function decimals() external view returns (uint8);\r\n}\r\n\r\n// OpenZeppelin Contracts v4.4.1 (utils/Context.sol)\r\n\r\n/**\r\n * @dev Provides information about the current execution context, including the\r\n * sender of the transaction and its data. While these are generally available\r\n * via msg.sender and msg.data, they should not be accessed in such a direct\r\n * manner, since when dealing with meta-transactions the account sending and\r\n * paying for execution may not be the actual sender (as far as an application\r\n * is concerned).\r\n *\r\n * This contract is only required for intermediate, library-like contracts.\r\n */\r\nabstract contract Context {\r\n    function _msgSender() internal view virtual returns (address) {\r\n        return msg.sender;\r\n    }\r\n\r\n    function _msgData() internal view virtual returns (bytes calldata) {\r\n        return msg.data;\r\n    }\r\n}\r\n\r\n// OpenZeppelin Contracts v4.4.1 (token/ERC20/ERC20.sol)\r\n\r\n/**\r\n * @dev Implementation of the {IERC20} interface.\r\n *\r\n * This implementation is agnostic to the way tokens are created. This means\r\n * that a supply mechanism has to be added in a derived contract using {_mint}.\r\n * For a generic mechanism see {ERC20PresetMinterPauser}.\r\n *\r\n * TIP: For a detailed writeup see our guide\r\n * https://forum.zeppelin.solutions/t/how-to-implement-erc20-supply-mechanisms/226[How\r\n * to implement supply mechanisms].\r\n *\r\n * We have followed general OpenZeppelin Contracts guidelines: functions revert\r\n * instead returning `false` on failure. This behavior is nonetheless\r\n * conventional and does not conflict with the expectations of ERC20\r\n * applications.\r\n *\r\n * Additionally, an {Approval} event is emitted on calls to {transferFrom}.\r\n * This allows applications to reconstruct the allowance for all accounts just\r\n * by listening to said events. Other implementations of the EIP may not emit\r\n * these events, as it isn't required by the specification.\r\n *\r\n * Finally, the non-standard {decreaseAllowance} and {increaseAllowance}\r\n * functions have been added to mitigate the well-known issues around setting\r\n * allowances. See {IERC20-approve}.\r\n */\r\ncontract ERC20 is Context, IERC20, IERC20Metadata {\r\n    mapping(address => uint256) private _balances;\r\n\r\n    mapping(address => mapping(address => uint256)) private _allowances;\r\n\r\n    uint256 private _totalSupply;\r\n\r\n    string private _name;\r\n    string private _symbol;\r\n\r\n    /**\r\n     * @dev Sets the values for {name} and {symbol}.\r\n     *\r\n     * The default value of {decimals} is 18. To select a different value for\r\n     * {decimals} you should overload it.\r\n     *\r\n     * All two of these values are immutable: they can only be set once during\r\n     * construction.\r\n     */\r\n    constructor(string memory name_, string memory symbol_) {\r\n        _name = name_;\r\n        _symbol = symbol_;\r\n    }\r\n\r\n    /**\r\n     * @dev Returns the name of the token.\r\n     */\r\n    function name() public view virtual override returns (string memory) {\r\n        return _name;\r\n    }\r\n\r\n    /**\r\n     * @dev Returns the symbol of the token, usually a shorter version of the\r\n     * name.\r\n     */\r\n    function symbol() public view virtual override returns (string memory) {\r\n        return _symbol;\r\n    }\r\n\r\n    /**\r\n     * @dev Returns the number of decimals used to get its user representation.\r\n     * For example, if `decimals` equals `2`, a balance of `505` tokens should\r\n     * be displayed to a user as `5.05` (`505 / 10 ** 2`).\r\n     *\r\n     * Tokens usually opt for a value of 18, imitating the relationship between\r\n     * Ether and Wei. This is the value {ERC20} uses, unless this function is\r\n     * overridden;\r\n     *\r\n     * NOTE: This information is only used for _display_ purposes: it in\r\n     * no way affects any of the arithmetic of the contract, including\r\n     * {IERC20-balanceOf} and {IERC20-transfer}.\r\n     */\r\n    function decimals() public view virtual override returns (uint8) {\r\n        return 18;\r\n    }\r\n\r\n    /**\r\n     * @dev See {IERC20-totalSupply}.\r\n     */\r\n    function totalSupply() public view virtual override returns (uint256) {\r\n        return _totalSupply;\r\n    }\r\n\r\n    /**\r\n     * @dev See {IERC20-balanceOf}.\r\n     */\r\n    function balanceOf(address account) public view virtual override returns (uint256) {\r\n        return _balances[account];\r\n    }\r\n\r\n    /**\r\n     * @dev See {IERC20-transfer}.\r\n     *\r\n     * Requirements:\r\n     *\r\n     * - `recipient` cannot be the zero address.\r\n     * - the caller must have a balance of at least `amount`.\r\n     */\r\n    function transfer(address recipient, uint256 amount) public virtual override returns (bool) {\r\n        _transfer(_msgSender(), recipient, amount);\r\n        return true;\r\n    }\r\n\r\n    /**\r\n     * @dev See {IERC20-allowance}.\r\n     */\r\n    function allowance(address owner, address spender) public view virtual override returns (uint256) {\r\n        return _allowances[owner][spender];\r\n    }\r\n\r\n    /**\r\n     * @dev See {IERC20-approve}.\r\n     *\r\n     * Requirements:\r\n     *\r\n     * - `spender` cannot be the zero address.\r\n     */\r\n    function approve(address spender, uint256 amount) public virtual override returns (bool) {\r\n        _approve(_msgSender(), spender, amount);\r\n        return true;\r\n    }\r\n\r\n    /**\r\n     * @dev See {IERC20-transferFrom}.\r\n     *\r\n     * Emits an {Approval} event indicating the updated allowance. This is not\r\n     * required by the EIP. See the note at the beginning of {ERC20}.\r\n     *\r\n     * Requirements:\r\n     *\r\n     * - `sender` and `recipient` cannot be the zero address.\r\n     * - `sender` must have a balance of at least `amount`.\r\n     * - the caller must have allowance for ``sender``'s tokens of at least\r\n     * `amount`.\r\n     */\r\n    function transferFrom(\r\n        address sender,\r\n        address recipient,\r\n        uint256 amount\r\n    ) public virtual override returns (bool) {\r\n        _transfer(sender, recipient, amount);\r\n\r\n        uint256 currentAllowance = _allowances[sender][_msgSender()];\r\n        require(currentAllowance >= amount, \"ERC20: transfer amount exceeds allowance\");\r\n        unchecked {\r\n            _approve(sender, _msgSender(), currentAllowance - amount);\r\n        }\r\n\r\n        return true;\r\n    }\r\n\r\n    /**\r\n     * @dev Atomically increases the allowance granted to `spender` by the caller.\r\n     *\r\n     * This is an alternative to {approve} that can be used as a mitigation for\r\n     * problems described in {IERC20-approve}.\r\n     *\r\n     * Emits an {Approval} event indicating the updated allowance.\r\n     *\r\n     * Requirements:\r\n     *\r\n     * - `spender` cannot be the zero address.\r\n     */\r\n    function increaseAllowance(address spender, uint256 addedValue) public virtual returns (bool) {\r\n        _approve(_msgSender(), spender, _allowances[_msgSender()][spender] + addedValue);\r\n        return true;\r\n    }\r\n\r\n    /**\r\n     * @dev Atomically decreases the allowance granted to `spender` by the caller.\r\n     *\r\n     * This is an alternative to {approve} that can be used as a mitigation for\r\n     * problems described in {IERC20-approve}.\r\n     *\r\n     * Emits an {Approval} event indicating the updated allowance.\r\n     *\r\n     * Requirements:\r\n     *\r\n     * - `spender` cannot be the zero address.\r\n     * - `spender` must have allowance for the caller of at least\r\n     * `subtractedValue`.\r\n     */\r\n    function decreaseAllowance(address spender, uint256 subtractedValue) public virtual returns (bool) {\r\n        uint256 currentAllowance = _allowances[_msgSender()][spender];\r\n        require(currentAllowance >= subtractedValue, \"ERC20: decreased allowance below zero\");\r\n        unchecked {\r\n            _approve(_msgSender(), spender, currentAllowance - subtractedValue);\r\n        }\r\n\r\n        return true;\r\n    }\r\n\r\n    /**\r\n     * @dev Moves `amount` of tokens from `sender` to `recipient`.\r\n     *\r\n     * This internal function is equivalent to {transfer}, and can be used to\r\n     * e.g. implement automatic token fees, slashing mechanisms, etc.\r\n     *\r\n     * Emits a {Transfer} event.\r\n     *\r\n     * Requirements:\r\n     *\r\n     * - `sender` cannot be the zero address.\r\n     * - `recipient` cannot be the zero address.\r\n     * - `sender` must have a balance of at least `amount`.\r\n     */\r\n    function _transfer(\r\n        address sender,\r\n        address recipient,\r\n        uint256 amount\r\n    ) internal virtual {\r\n        require(sender != address(0), \"ERC20: transfer from the zero address\");\r\n        require(recipient != address(0), \"ERC20: transfer to the zero address\");\r\n\r\n        _beforeTokenTransfer(sender, recipient, amount);\r\n\r\n        uint256 senderBalance = _balances[sender];\r\n        require(senderBalance >= amount, \"ERC20: transfer amount exceeds balance\");\r\n        unchecked {\r\n            _balances[sender] = senderBalance - amount;\r\n        }\r\n        _balances[recipient] += amount;\r\n\r\n        emit Transfer(sender, recipient, amount);\r\n\r\n        _afterTokenTransfer(sender, recipient, amount);\r\n    }\r\n\r\n    /** @dev Creates `amount` tokens and assigns them to `account`, increasing\r\n     * the total supply.\r\n     *\r\n     * Emits a {Transfer} event with `from` set to the zero address.\r\n     *\r\n     * Requirements:\r\n     *\r\n     * - `account` cannot be the zero address.\r\n     */\r\n    function _mint(address account, uint256 amount) internal virtual {\r\n        require(account != address(0), \"ERC20: mint to the zero address\");\r\n\r\n        _beforeTokenTransfer(address(0), account, amount);\r\n\r\n        _totalSupply += amount;\r\n        _balances[account] += amount;\r\n        emit Transfer(address(0), account, amount);\r\n\r\n        _afterTokenTransfer(address(0), account, amount);\r\n    }\r\n\r\n    /**\r\n     * @dev Destroys `amount` tokens from `account`, reducing the\r\n     * total supply.\r\n     *\r\n     * Emits a {Transfer} event with `to` set to the zero address.\r\n     *\r\n     * Requirements:\r\n     *\r\n     * - `account` cannot be the zero address.\r\n     * - `account` must have at least `amount` tokens.\r\n     */\r\n    function _burn(address account, uint256 amount) internal virtual {\r\n        require(account != address(0), \"ERC20: burn from the zero address\");\r\n\r\n        _beforeTokenTransfer(account, address(0), amount);\r\n\r\n        uint256 accountBalance = _balances[account];\r\n        require(accountBalance >= amount, \"ERC20: burn amount exceeds balance\");\r\n        unchecked {\r\n            _balances[account] = accountBalance - amount;\r\n        }\r\n        _totalSupply -= amount;\r\n\r\n        emit Transfer(account, address(0), amount);\r\n\r\n        _afterTokenTransfer(account, address(0), amount);\r\n    }\r\n\r\n    /**\r\n     * @dev Sets `amount` as the allowance of `spender` over the `owner` s tokens.\r\n     *\r\n     * This internal function is equivalent to `approve`, and can be used to\r\n     * e.g. set automatic allowances for certain subsystems, etc.\r\n     *\r\n     * Emits an {Approval} event.\r\n     *\r\n     * Requirements:\r\n     *\r\n     * - `owner` cannot be the zero address.\r\n     * - `spender` cannot be the zero address.\r\n     */\r\n    function _approve(\r\n        address owner,\r\n        address spender,\r\n        uint256 amount\r\n    ) internal virtual {\r\n        require(owner != address(0), \"ERC20: approve from the zero address\");\r\n        require(spender != address(0), \"ERC20: approve to the zero address\");\r\n\r\n        _allowances[owner][spender] = amount;\r\n        emit Approval(owner, spender, amount);\r\n    }\r\n\r\n    /**\r\n     * @dev Hook that is called before any transfer of tokens. This includes\r\n     * minting and burning.\r\n     *\r\n     * Calling conditions:\r\n     *\r\n     * - when `from` and `to` are both non-zero, `amount` of ``from``'s tokens\r\n     * will be transferred to `to`.\r\n     * - when `from` is zero, `amount` tokens will be minted for `to`.\r\n     * - when `to` is zero, `amount` of ``from``'s tokens will be burned.\r\n     * - `from` and `to` are never both zero.\r\n     *\r\n     * To learn more about hooks, head to xref:ROOT:extending-contracts.adoc#using-hooks[Using Hooks].\r\n     */\r\n    function _beforeTokenTransfer(\r\n        address from,\r\n        address to,\r\n        uint256 amount\r\n    ) internal virtual {}\r\n\r\n    /**\r\n     * @dev Hook that is called after any transfer of tokens. This includes\r\n     * minting and burning.\r\n     *\r\n     * Calling conditions:\r\n     *\r\n     * - when `from` and `to` are both non-zero, `amount` of ``from``'s tokens\r\n     * has been transferred to `to`.\r\n     * - when `from` is zero, `amount` tokens have been minted for `to`.\r\n     * - when `to` is zero, `amount` of ``from``'s tokens have been burned.\r\n     * - `from` and `to` are never both zero.\r\n     *\r\n     * To learn more about hooks, head to xref:ROOT:extending-contracts.adoc#using-hooks[Using Hooks].\r\n     */\r\n    function _afterTokenTransfer(\r\n        address from,\r\n        address to,\r\n        uint256 amount\r\n    ) internal virtual {}\r\n}\r\n\r\n// OpenZeppelin Contracts v4.4.1 (token/ERC20/extensions/ERC20Burnable.sol)\r\n\r\n/**\r\n * @dev Extension of {ERC20} that allows token holders to destroy both their own\r\n * tokens and those that they have an allowance for, in a way that can be\r\n * recognized off-chain (via event analysis).\r\n */\r\nabstract contract ERC20Burnable is Context, ERC20 {\r\n    /**\r\n     * @dev Destroys `amount` tokens from the caller.\r\n     *\r\n     * See {ERC20-_burn}.\r\n     */\r\n    function burn(uint256 amount) public virtual {\r\n        _burn(_msgSender(), amount);\r\n    }\r\n\r\n    /**\r\n     * @dev Destroys `amount` tokens from `account`, deducting from the caller's\r\n     * allowance.\r\n     *\r\n     * See {ERC20-_burn} and {ERC20-allowance}.\r\n     *\r\n     * Requirements:\r\n     *\r\n     * - the caller must have allowance for ``accounts``'s tokens of at least\r\n     * `amount`.\r\n     */\r\n    function burnFrom(address account, uint256 amount) public virtual {\r\n        uint256 currentAllowance = allowance(account, _msgSender());\r\n        require(currentAllowance >= amount, \"ERC20: burn amount exceeds allowance\");\r\n        unchecked {\r\n            _approve(account, _msgSender(), currentAllowance - amount);\r\n        }\r\n        _burn(account, amount);\r\n    }\r\n}\r\n\r\n// OpenZeppelin Contracts v4.4.1 (security/Pausable.sol)\r\n\r\n/**\r\n * @dev Contract module which allows children to implement an emergency stop\r\n * mechanism that can be triggered by an authorized account.\r\n *\r\n * This module is used through inheritance. It will make available the\r\n * modifiers `whenNotPaused` and `whenPaused`, which can be applied to\r\n * the functions of your contract. Note that they will not be pausable by\r\n * simply including this module, only once the modifiers are put in place.\r\n */\r\nabstract contract Pausable is Context {\r\n    /**\r\n     * @dev Emitted when the pause is triggered by `account`.\r\n     */\r\n    event Paused(address account);\r\n\r\n    /**\r\n     * @dev Emitted when the pause is lifted by `account`.\r\n     */\r\n    event Unpaused(address account);\r\n\r\n    bool private _paused;\r\n\r\n    /**\r\n     * @dev Initializes the contract in unpaused state.\r\n     */\r\n    constructor() {\r\n        _paused = false;\r\n    }\r\n\r\n    /**\r\n     * @dev Returns true if the contract is paused, and false otherwise.\r\n     */\r\n    function paused() public view virtual returns (bool) {\r\n        return _paused;\r\n    }\r\n\r\n    /**\r\n     * @dev Modifier to make a function callable only when the contract is not paused.\r\n     *\r\n     * Requirements:\r\n     *\r\n     * - The contract must not be paused.\r\n     */\r\n    modifier whenNotPaused() {\r\n        require(!paused(), \"Pausable: paused\");\r\n        _;\r\n    }\r\n\r\n    /**\r\n     * @dev Modifier to make a function callable only when the contract is paused.\r\n     *\r\n     * Requirements:\r\n     *\r\n     * - The contract must be paused.\r\n     */\r\n    modifier whenPaused() {\r\n        require(paused(), \"Pausable: not paused\");\r\n        _;\r\n    }\r\n\r\n    /**\r\n     * @dev Triggers stopped state.\r\n     *\r\n     * Requirements:\r\n     *\r\n     * - The contract must not be paused.\r\n     */\r\n    function _pause() internal virtual whenNotPaused {\r\n        _paused = true;\r\n        emit Paused(_msgSender());\r\n    }\r\n\r\n    /**\r\n     * @dev Returns to normal state.\r\n     *\r\n     * Requirements:\r\n     *\r\n     * - The contract must be paused.\r\n     */\r\n    function _unpause() internal virtual whenPaused {\r\n        _paused = false;\r\n        emit Unpaused(_msgSender());\r\n    }\r\n}\r\n\r\n// OpenZeppelin Contracts v4.4.1 (token/ERC20/extensions/ERC20Pausable.sol)\r\n\r\n/**\r\n * @dev ERC20 token with pausable token transfers, minting and burning.\r\n *\r\n * Useful for scenarios such as preventing trades until the end of an evaluation\r\n * period, or having an emergency switch for freezing all token transfers in the\r\n * event of a large bug.\r\n */\r\nabstract contract ERC20Pausable is ERC20, Pausable {\r\n    /**\r\n     * @dev See {ERC20-_beforeTokenTransfer}.\r\n     *\r\n     * Requirements:\r\n     *\r\n     * - the contract must not be paused.\r\n     */\r\n    function _beforeTokenTransfer(\r\n        address from,\r\n        address to,\r\n        uint256 amount\r\n    ) internal virtual override {\r\n        super._beforeTokenTransfer(from, to, amount);\r\n\r\n        require(!paused(), \"ERC20Pausable: token transfer while paused\");\r\n    }\r\n}\r\n\r\n// OpenZeppelin Contracts v4.4.1 (access/IAccessControl.sol)\r\n\r\n\r\n/**\r\n * @dev External interface of AccessControl declared to support ERC165 detection.\r\n */\r\ninterface IAccessControl {\r\n    /**\r\n     * @dev Emitted when `newAdminRole` is set as ``role``'s admin role, replacing `previousAdminRole`\r\n     *\r\n     * `DEFAULT_ADMIN_ROLE` is the starting admin for all roles, despite\r\n     * {RoleAdminChanged} not being emitted signaling this.\r\n     *\r\n     * _Available since v3.1._\r\n     */\r\n    event RoleAdminChanged(bytes32 indexed role, bytes32 indexed previousAdminRole, bytes32 indexed newAdminRole);\r\n\r\n    /**\r\n     * @dev Emitted when `account` is granted `role`.\r\n     *\r\n     * `sender` is the account that originated the contract call, an admin role\r\n     * bearer except when using {AccessControl-_setupRole}.\r\n     */\r\n    event RoleGranted(bytes32 indexed role, address indexed account, address indexed sender);\r\n\r\n    /**\r\n     * @dev Emitted when `account` is revoked `role`.\r\n     *\r\n     * `sender` is the account that originated the contract call:\r\n     *   - if using `revokeRole`, it is the admin role bearer\r\n     *   - if using `renounceRole`, it is the role bearer (i.e. `account`)\r\n     */\r\n    event RoleRevoked(bytes32 indexed role, address indexed account, address indexed sender);\r\n\r\n    /**\r\n     * @dev Returns `true` if `account` has been granted `role`.\r\n     */\r\n    function hasRole(bytes32 role, address account) external view returns (bool);\r\n\r\n    /**\r\n     * @dev Returns the admin role that controls `role`. See {grantRole} and\r\n     * {revokeRole}.\r\n     *\r\n     * To change a role's admin, use {AccessControl-_setRoleAdmin}.\r\n     */\r\n    function getRoleAdmin(bytes32 role) external view returns (bytes32);\r\n\r\n    /**\r\n     * @dev Grants `role` to `account`.\r\n     *\r\n     * If `account` had not been already granted `role`, emits a {RoleGranted}\r\n     * event.\r\n     *\r\n     * Requirements:\r\n     *\r\n     * - the caller must have ``role``'s admin role.\r\n     */\r\n    function grantRole(bytes32 role, address account) external;\r\n\r\n    /**\r\n     * @dev Revokes `role` from `account`.\r\n     *\r\n     * If `account` had been granted `role`, emits a {RoleRevoked} event.\r\n     *\r\n     * Requirements:\r\n     *\r\n     * - the caller must have ``role``'s admin role.\r\n     */\r\n    function revokeRole(bytes32 role, address account) external;\r\n\r\n    /**\r\n     * @dev Revokes `role` from the calling account.\r\n     *\r\n     * Roles are often managed via {grantRole} and {revokeRole}: this function's\r\n     * purpose is to provide a mechanism for accounts to lose their privileges\r\n     * if they are compromised (such as when a trusted device is misplaced).\r\n     *\r\n     * If the calling account had been granted `role`, emits a {RoleRevoked}\r\n     * event.\r\n     *\r\n     * Requirements:\r\n     *\r\n     * - the caller must be `account`.\r\n     */\r\n    function renounceRole(bytes32 role, address account) external;\r\n}\r\n\r\n// OpenZeppelin Contracts v4.4.1 (access/IAccessControlEnumerable.sol)\r\n\r\n/**\r\n * @dev External interface of AccessControlEnumerable declared to support ERC165 detection.\r\n */\r\ninterface IAccessControlEnumerable is IAccessControl {\r\n    /**\r\n     * @dev Returns one of the accounts that have `role`. `index` must be a\r\n     * value between 0 and {getRoleMemberCount}, non-inclusive.\r\n     *\r\n     * Role bearers are not sorted in any particular way, and their ordering may\r\n     * change at any point.\r\n     *\r\n     * WARNING: When using {getRoleMember} and {getRoleMemberCount}, make sure\r\n     * you perform all queries on the same block. See the following\r\n     * https://forum.openzeppelin.com/t/iterating-over-elements-on-enumerableset-in-openzeppelin-contracts/2296[forum post]\r\n     * for more information.\r\n     */\r\n    function getRoleMember(bytes32 role, uint256 index) external view returns (address);\r\n\r\n    /**\r\n     * @dev Returns the number of accounts that have `role`. Can be used\r\n     * together with {getRoleMember} to enumerate all bearers of a role.\r\n     */\r\n    function getRoleMemberCount(bytes32 role) external view returns (uint256);\r\n}\r\n\r\n// OpenZeppelin Contracts v4.4.1 (utils/Strings.sol)\r\n\r\n/**\r\n * @dev String operations.\r\n */\r\nlibrary Strings {\r\n    bytes16 private constant _HEX_SYMBOLS = \"0123456789abcdef\";\r\n\r\n    /**\r\n     * @dev Converts a `uint256` to its ASCII `string` decimal representation.\r\n     */\r\n    function toString(uint256 value) internal pure returns (string memory) {\r\n        // Inspired by OraclizeAPI's implementation - MIT licence\r\n        // https://github.com/oraclize/ethereum-api/blob/b42146b063c7d6ee1358846c198246239e9360e8/oraclizeAPI_0.4.25.sol\r\n\r\n        if (value == 0) {\r\n            return \"0\";\r\n        }\r\n        uint256 temp = value;\r\n        uint256 digits;\r\n        while (temp != 0) {\r\n            digits++;\r\n            temp /= 10;\r\n        }\r\n        bytes memory buffer = new bytes(digits);\r\n        while (value != 0) {\r\n            digits -= 1;\r\n            buffer[digits] = bytes1(uint8(48 + uint256(value % 10)));\r\n            value /= 10;\r\n        }\r\n        return string(buffer);\r\n    }\r\n\r\n    /**\r\n     * @dev Converts a `uint256` to its ASCII `string` hexadecimal representation.\r\n     */\r\n    function toHexString(uint256 value) internal pure returns (string memory) {\r\n        if (value == 0) {\r\n            return \"0x00\";\r\n        }\r\n        uint256 temp = value;\r\n        uint256 length = 0;\r\n        while (temp != 0) {\r\n            length++;\r\n            temp >>= 8;\r\n        }\r\n        return toHexString(value, length);\r\n    }\r\n\r\n    /**\r\n     * @dev Converts a `uint256` to its ASCII `string` hexadecimal representation with fixed length.\r\n     */\r\n    function toHexString(uint256 value, uint256 length) internal pure returns (string memory) {\r\n        bytes memory buffer = new bytes(2 * length + 2);\r\n        buffer[0] = \"0\";\r\n        buffer[1] = \"x\";\r\n        for (uint256 i = 2 * length + 1; i > 1; --i) {\r\n            buffer[i] = _HEX_SYMBOLS[value & 0xf];\r\n            value >>= 4;\r\n        }\r\n        require(value == 0, \"Strings: hex length insufficient\");\r\n        return string(buffer);\r\n    }\r\n}\r\n\r\n// OpenZeppelin Contracts v4.4.1 (utils/introspection/IERC165.sol)\r\n\r\n\r\n/**\r\n * @dev Interface of the ERC165 standard, as defined in the\r\n * https://eips.ethereum.org/EIPS/eip-165[EIP].\r\n *\r\n * Implementers can declare support of contract interfaces, which can then be\r\n * queried by others ({ERC165Checker}).\r\n *\r\n * For an implementation, see {ERC165}.\r\n */\r\ninterface IERC165 {\r\n    /**\r\n     * @dev Returns true if this contract implements the interface defined by\r\n     * `interfaceId`. See the corresponding\r\n     * https://eips.ethereum.org/EIPS/eip-165#how-interfaces-are-identified[EIP section]\r\n     * to learn more about how these ids are created.\r\n     *\r\n     * This function call must use less than 30 000 gas.\r\n     */\r\n    function supportsInterface(bytes4 interfaceId) external view returns (bool);\r\n}\r\n\r\n// OpenZeppelin Contracts v4.4.1 (utils/introspection/ERC165.sol)\r\n\r\n/**\r\n * @dev Implementation of the {IERC165} interface.\r\n *\r\n * Contracts that want to implement ERC165 should inherit from this contract and override {supportsInterface} to check\r\n * for the additional interface id that will be supported. For example:\r\n *\r\n * ```solidity\r\n * function supportsInterface(bytes4 interfaceId) public view virtual override returns (bool) {\r\n *     return interfaceId == type(MyInterface).interfaceId || super.supportsInterface(interfaceId);\r\n * }\r\n * ```\r\n *\r\n * Alternatively, {ERC165Storage} provides an easier to use but more expensive implementation.\r\n */\r\nabstract contract ERC165 is IERC165 {\r\n    /**\r\n     * @dev See {IERC165-supportsInterface}.\r\n     */\r\n    function supportsInterface(bytes4 interfaceId) public view virtual override returns (bool) {\r\n        return interfaceId == type(IERC165).interfaceId;\r\n    }\r\n}\r\n\r\n// OpenZeppelin Contracts v4.4.1 (access/AccessControl.sol)\r\n\r\n/**\r\n * @dev Contract module that allows children to implement role-based access\r\n * control mechanisms. This is a lightweight version that doesn't allow enumerating role\r\n * members except through off-chain means by accessing the contract event logs. Some\r\n * applications may benefit from on-chain enumerability, for those cases see\r\n * {AccessControlEnumerable}.\r\n *\r\n * Roles are referred to by their `bytes32` identifier. These should be exposed\r\n * in the external API and be unique. The best way to achieve this is by\r\n * using `public constant` hash digests:\r\n *\r\n * ```\r\n * bytes32 public constant MY_ROLE = keccak256(\"MY_ROLE\");\r\n * ```\r\n *\r\n * Roles can be used to represent a set of permissions. To restrict access to a\r\n * function call, use {hasRole}:\r\n *\r\n * ```\r\n * function foo() public {\r\n *     require(hasRole(MY_ROLE, msg.sender));\r\n *     ...\r\n * }\r\n * ```\r\n *\r\n * Roles can be granted and revoked dynamically via the {grantRole} and\r\n * {revokeRole} functions. Each role has an associated admin role, and only\r\n * accounts that have a role's admin role can call {grantRole} and {revokeRole}.\r\n *\r\n * By default, the admin role for all roles is `DEFAULT_ADMIN_ROLE`, which means\r\n * that only accounts with this role will be able to grant or revoke other\r\n * roles. More complex role relationships can be created by using\r\n * {_setRoleAdmin}.\r\n *\r\n * WARNING: The `DEFAULT_ADMIN_ROLE` is also its own admin: it has permission to\r\n * grant and revoke this role. Extra precautions should be taken to secure\r\n * accounts that have been granted it.\r\n */\r\nabstract contract AccessControl is Context, IAccessControl, ERC165 {\r\n    struct RoleData {\r\n        mapping(address => bool) members;\r\n        bytes32 adminRole;\r\n    }\r\n\r\n    mapping(bytes32 => RoleData) private _roles;\r\n\r\n    bytes32 public constant DEFAULT_ADMIN_ROLE = 0x00;\r\n\r\n    /**\r\n     * @dev Modifier that checks that an account has a specific role. Reverts\r\n     * with a standardized message including the required role.\r\n     *\r\n     * The format of the revert reason is given by the following regular expression:\r\n     *\r\n     *  /^AccessControl: account (0x[0-9a-f]{40}) is missing role (0x[0-9a-f]{64})$/\r\n     *\r\n     * _Available since v4.1._\r\n     */\r\n    modifier onlyRole(bytes32 role) {\r\n        _checkRole(role, _msgSender());\r\n        _;\r\n    }\r\n\r\n    /**\r\n     * @dev See {IERC165-supportsInterface}.\r\n     */\r\n    function supportsInterface(bytes4 interfaceId) public view virtual override returns (bool) {\r\n        return interfaceId == type(IAccessControl).interfaceId || super.supportsInterface(interfaceId);\r\n    }\r\n\r\n    /**\r\n     * @dev Returns `true` if `account` has been granted `role`.\r\n     */\r\n    function hasRole(bytes32 role, address account) public view override returns (bool) {\r\n        return _roles[role].members[account];\r\n    }\r\n\r\n    /**\r\n     * @dev Revert with a standard message if `account` is missing `role`.\r\n     *\r\n     * The format of the revert reason is given by the following regular expression:\r\n     *\r\n     *  /^AccessControl: account (0x[0-9a-f]{40}) is missing role (0x[0-9a-f]{64})$/\r\n     */\r\n    function _checkRole(bytes32 role, address account) internal view {\r\n        if (!hasRole(role, account)) {\r\n            revert(\r\n                string(\r\n                    abi.encodePacked(\r\n                        \"AccessControl: account \",\r\n                        Strings.toHexString(uint160(account), 20),\r\n                        \" is missing role \",\r\n                        Strings.toHexString(uint256(role), 32)\r\n                    )\r\n                )\r\n            );\r\n        }\r\n    }\r\n\r\n    /**\r\n     * @dev Returns the admin role that controls `role`. See {grantRole} and\r\n     * {revokeRole}.\r\n     *\r\n     * To change a role's admin, use {_setRoleAdmin}.\r\n     */\r\n    function getRoleAdmin(bytes32 role) public view override returns (bytes32) {\r\n        return _roles[role].adminRole;\r\n    }\r\n\r\n    /**\r\n     * @dev Grants `role` to `account`.\r\n     *\r\n     * If `account` had not been already granted `role`, emits a {RoleGranted}\r\n     * event.\r\n     *\r\n     * Requirements:\r\n     *\r\n     * - the caller must have ``role``'s admin role.\r\n     */\r\n    function grantRole(bytes32 role, address account) public virtual override onlyRole(getRoleAdmin(role)) {\r\n        _grantRole(role, account);\r\n    }\r\n\r\n    /**\r\n     * @dev Revokes `role` from `account`.\r\n     *\r\n     * If `account` had been granted `role`, emits a {RoleRevoked} event.\r\n     *\r\n     * Requirements:\r\n     *\r\n     * - the caller must have ``role``'s admin role.\r\n     */\r\n    function revokeRole(bytes32 role, address account) public virtual override onlyRole(getRoleAdmin(role)) {\r\n        _revokeRole(role, account);\r\n    }\r\n\r\n    /**\r\n     * @dev Revokes `role` from the calling account.\r\n     *\r\n     * Roles are often managed via {grantRole} and {revokeRole}: this function's\r\n     * purpose is to provide a mechanism for accounts to lose their privileges\r\n     * if they are compromised (such as when a trusted device is misplaced).\r\n     *\r\n     * If the calling account had been revoked `role`, emits a {RoleRevoked}\r\n     * event.\r\n     *\r\n     * Requirements:\r\n     *\r\n     * - the caller must be `account`.\r\n     */\r\n    function renounceRole(bytes32 role, address account) public virtual override {\r\n        require(account == _msgSender(), \"AccessControl: can only renounce roles for self\");\r\n\r\n        _revokeRole(role, account);\r\n    }\r\n\r\n    /**\r\n     * @dev Grants `role` to `account`.\r\n     *\r\n     * If `account` had not been already granted `role`, emits a {RoleGranted}\r\n     * event. Note that unlike {grantRole}, this function doesn't perform any\r\n     * checks on the calling account.\r\n     *\r\n     * [WARNING]\r\n     * ====\r\n     * This function should only be called from the constructor when setting\r\n     * up the initial roles for the system.\r\n     *\r\n     * Using this function in any other way is effectively circumventing the admin\r\n     * system imposed by {AccessControl}.\r\n     * ====\r\n     *\r\n     * NOTE: This function is deprecated in favor of {_grantRole}.\r\n     */\r\n    function _setupRole(bytes32 role, address account) internal virtual {\r\n        _grantRole(role, account);\r\n    }\r\n\r\n    /**\r\n     * @dev Sets `adminRole` as ``role``'s admin role.\r\n     *\r\n     * Emits a {RoleAdminChanged} event.\r\n     */\r\n    function _setRoleAdmin(bytes32 role, bytes32 adminRole) internal virtual {\r\n        bytes32 previousAdminRole = getRoleAdmin(role);\r\n        _roles[role].adminRole = adminRole;\r\n        emit RoleAdminChanged(role, previousAdminRole, adminRole);\r\n    }\r\n\r\n    /**\r\n     * @dev Grants `role` to `account`.\r\n     *\r\n     * Internal function without access restriction.\r\n     */\r\n    function _grantRole(bytes32 role, address account) internal virtual {\r\n        if (!hasRole(role, account)) {\r\n            _roles[role].members[account] = true;\r\n            emit RoleGranted(role, account, _msgSender());\r\n        }\r\n    }\r\n\r\n    /**\r\n     * @dev Revokes `role` from `account`.\r\n     *\r\n     * Internal function without access restriction.\r\n     */\r\n    function _revokeRole(bytes32 role, address account) internal virtual {\r\n        if (hasRole(role, account)) {\r\n            _roles[role].members[account] = false;\r\n            emit RoleRevoked(role, account, _msgSender());\r\n        }\r\n    }\r\n}\r\n\r\n// OpenZeppelin Contracts v4.4.1 (utils/structs/EnumerableSet.sol)\r\n\r\n/**\r\n * @dev Library for managing\r\n * https://en.wikipedia.org/wiki/Set_(abstract_data_type)[sets] of primitive\r\n * types.\r\n *\r\n * Sets have the following properties:\r\n *\r\n * - Elements are added, removed, and checked for existence in constant time\r\n * (O(1)).\r\n * - Elements are enumerated in O(n). No guarantees are made on the ordering.\r\n *\r\n * ```\r\n * contract Example {\r\n *     // Add the library methods\r\n *     using EnumerableSet for EnumerableSet.AddressSet;\r\n *\r\n *     // Declare a set state variable\r\n *     EnumerableSet.AddressSet private mySet;\r\n * }\r\n * ```\r\n *\r\n * As of v3.3.0, sets of type `bytes32` (`Bytes32Set`), `address` (`AddressSet`)\r\n * and `uint256` (`UintSet`) are supported.\r\n */\r\nlibrary EnumerableSet {\r\n    // To implement this library for multiple types with as little code\r\n    // repetition as possible, we write it in terms of a generic Set type with\r\n    // bytes32 values.\r\n    // The Set implementation uses private functions, and user-facing\r\n    // implementations (such as AddressSet) are just wrappers around the\r\n    // underlying Set.\r\n    // This means that we can only create new EnumerableSets for types that fit\r\n    // in bytes32.\r\n\r\n    struct Set {\r\n        // Storage of set values\r\n        bytes32[] _values;\r\n        // Position of the value in the `values` array, plus 1 because index 0\r\n        // means a value is not in the set.\r\n        mapping(bytes32 => uint256) _indexes;\r\n    }\r\n\r\n    /**\r\n     * @dev Add a value to a set. O(1).\r\n     *\r\n     * Returns true if the value was added to the set, that is if it was not\r\n     * already present.\r\n     */\r\n    function _add(Set storage set, bytes32 value) private returns (bool) {\r\n        if (!_contains(set, value)) {\r\n            set._values.push(value);\r\n            // The value is stored at length-1, but we add 1 to all indexes\r\n            // and use 0 as a sentinel value\r\n            set._indexes[value] = set._values.length;\r\n            return true;\r\n        } else {\r\n            return false;\r\n        }\r\n    }\r\n\r\n    /**\r\n     * @dev Removes a value from a set. O(1).\r\n     *\r\n     * Returns true if the value was removed from the set, that is if it was\r\n     * present.\r\n     */\r\n    function _remove(Set storage set, bytes32 value) private returns (bool) {\r\n        // We read and store the value's index to prevent multiple reads from the same storage slot\r\n        uint256 valueIndex = set._indexes[value];\r\n\r\n        if (valueIndex != 0) {\r\n            // Equivalent to contains(set, value)\r\n            // To delete an element from the _values array in O(1), we swap the element to delete with the last one in\r\n            // the array, and then remove the last element (sometimes called as 'swap and pop').\r\n            // This modifies the order of the array, as noted in {at}.\r\n\r\n            uint256 toDeleteIndex = valueIndex - 1;\r\n            uint256 lastIndex = set._values.length - 1;\r\n\r\n            if (lastIndex != toDeleteIndex) {\r\n                bytes32 lastvalue = set._values[lastIndex];\r\n\r\n                // Move the last value to the index where the value to delete is\r\n                set._values[toDeleteIndex] = lastvalue;\r\n                // Update the index for the moved value\r\n                set._indexes[lastvalue] = valueIndex; // Replace lastvalue's index to valueIndex\r\n            }\r\n\r\n            // Delete the slot where the moved value was stored\r\n            set._values.pop();\r\n\r\n            // Delete the index for the deleted slot\r\n            delete set._indexes[value];\r\n\r\n            return true;\r\n        } else {\r\n            return false;\r\n        }\r\n    }\r\n\r\n    /**\r\n     * @dev Returns true if the value is in the set. O(1).\r\n     */\r\n    function _contains(Set storage set, bytes32 value) private view returns (bool) {\r\n        return set._indexes[value] != 0;\r\n    }\r\n\r\n    /**\r\n     * @dev Returns the number of values on the set. O(1).\r\n     */\r\n    function _length(Set storage set) private view returns (uint256) {\r\n        return set._values.length;\r\n    }\r\n\r\n    /**\r\n     * @dev Returns the value stored at position `index` in the set. O(1).\r\n     *\r\n     * Note that there are no guarantees on the ordering of values inside the\r\n     * array, and it may change when more values are added or removed.\r\n     *\r\n     * Requirements:\r\n     *\r\n     * - `index` must be strictly less than {length}.\r\n     */\r\n    function _at(Set storage set, uint256 index) private view returns (bytes32) {\r\n        return set._values[index];\r\n    }\r\n\r\n    /**\r\n     * @dev Return the entire set in an array\r\n     *\r\n     * WARNING: This operation will copy the entire storage to memory, which can be quite expensive. This is designed\r\n     * to mostly be used by view accessors that are queried without any gas fees. Developers should keep in mind that\r\n     * this function has an unbounded cost, and using it as part of a state-changing function may render the function\r\n     * uncallable if the set grows to a point where copying to memory consumes too much gas to fit in a block.\r\n     */\r\n    function _values(Set storage set) private view returns (bytes32[] memory) {\r\n        return set._values;\r\n    }\r\n\r\n    // Bytes32Set\r\n\r\n    struct Bytes32Set {\r\n        Set _inner;\r\n    }\r\n\r\n    /**\r\n     * @dev Add a value to a set. O(1).\r\n     *\r\n     * Returns true if the value was added to the set, that is if it was not\r\n     * already present.\r\n     */\r\n    function add(Bytes32Set storage set, bytes32 value) internal returns (bool) {\r\n        return _add(set._inner, value);\r\n    }\r\n\r\n    /**\r\n     * @dev Removes a value from a set. O(1).\r\n     *\r\n     * Returns true if the value was removed from the set, that is if it was\r\n     * present.\r\n     */\r\n    function remove(Bytes32Set storage set, bytes32 value) internal returns (bool) {\r\n        return _remove(set._inner, value);\r\n    }\r\n\r\n    /**\r\n     * @dev Returns true if the value is in the set. O(1).\r\n     */\r\n    function contains(Bytes32Set storage set, bytes32 value) internal view returns (bool) {\r\n        return _contains(set._inner, value);\r\n    }\r\n\r\n    /**\r\n     * @dev Returns the number of values in the set. O(1).\r\n     */\r\n    function length(Bytes32Set storage set) internal view returns (uint256) {\r\n        return _length(set._inner);\r\n    }\r\n\r\n    /**\r\n     * @dev Returns the value stored at position `index` in the set. O(1).\r\n     *\r\n     * Note that there are no guarantees on the ordering of values inside the\r\n     * array, and it may change when more values are added or removed.\r\n     *\r\n     * Requirements:\r\n     *\r\n     * - `index` must be strictly less than {length}.\r\n     */\r\n    function at(Bytes32Set storage set, uint256 index) internal view returns (bytes32) {\r\n        return _at(set._inner, index);\r\n    }\r\n\r\n    /**\r\n     * @dev Return the entire set in an array\r\n     *\r\n     * WARNING: This operation will copy the entire storage to memory, which can be quite expensive. This is designed\r\n     * to mostly be used by view accessors that are queried without any gas fees. Developers should keep in mind that\r\n     * this function has an unbounded cost, and using it as part of a state-changing function may render the function\r\n     * uncallable if the set grows to a point where copying to memory consumes too much gas to fit in a block.\r\n     */\r\n    function values(Bytes32Set storage set) internal view returns (bytes32[] memory) {\r\n        return _values(set._inner);\r\n    }\r\n\r\n    // AddressSet\r\n\r\n    struct AddressSet {\r\n        Set _inner;\r\n    }\r\n\r\n    /**\r\n     * @dev Add a value to a set. O(1).\r\n     *\r\n     * Returns true if the value was added to the set, that is if it was not\r\n     * already present.\r\n     */\r\n    function add(AddressSet storage set, address value) internal returns (bool) {\r\n        return _add(set._inner, bytes32(uint256(uint160(value))));\r\n    }\r\n\r\n    /**\r\n     * @dev Removes a value from a set. O(1).\r\n     *\r\n     * Returns true if the value was removed from the set, that is if it was\r\n     * present.\r\n     */\r\n    function remove(AddressSet storage set, address value) internal returns (bool) {\r\n        return _remove(set._inner, bytes32(uint256(uint160(value))));\r\n    }\r\n\r\n    /**\r\n     * @dev Returns true if the value is in the set. O(1).\r\n     */\r\n    function contains(AddressSet storage set, address value) internal view returns (bool) {\r\n        return _contains(set._inner, bytes32(uint256(uint160(value))));\r\n    }\r\n\r\n    /**\r\n     * @dev Returns the number of values in the set. O(1).\r\n     */\r\n    function length(AddressSet storage set) internal view returns (uint256) {\r\n        return _length(set._inner);\r\n    }\r\n\r\n    /**\r\n     * @dev Returns the value stored at position `index` in the set. O(1).\r\n     *\r\n     * Note that there are no guarantees on the ordering of values inside the\r\n     * array, and it may change when more values are added or removed.\r\n     *\r\n     * Requirements:\r\n     *\r\n     * - `index` must be strictly less than {length}.\r\n     */\r\n    function at(AddressSet storage set, uint256 index) internal view returns (address) {\r\n        return address(uint160(uint256(_at(set._inner, index))));\r\n    }\r\n\r\n    /**\r\n     * @dev Return the entire set in an array\r\n     *\r\n     * WARNING: This operation will copy the entire storage to memory, which can be quite expensive. This is designed\r\n     * to mostly be used by view accessors that are queried without any gas fees. Developers should keep in mind that\r\n     * this function has an unbounded cost, and using it as part of a state-changing function may render the function\r\n     * uncallable if the set grows to a point where copying to memory consumes too much gas to fit in a block.\r\n     */\r\n    function values(AddressSet storage set) internal view returns (address[] memory) {\r\n        bytes32[] memory store = _values(set._inner);\r\n        address[] memory result;\r\n\r\n        assembly {\r\n            result := store\r\n        }\r\n\r\n        return result;\r\n    }\r\n\r\n    // UintSet\r\n\r\n    struct UintSet {\r\n        Set _inner;\r\n    }\r\n\r\n    /**\r\n     * @dev Add a value to a set. O(1).\r\n     *\r\n     * Returns true if the value was added to the set, that is if it was not\r\n     * already present.\r\n     */\r\n    function add(UintSet storage set, uint256 value) internal returns (bool) {\r\n        return _add(set._inner, bytes32(value));\r\n    }\r\n\r\n    /**\r\n     * @dev Removes a value from a set. O(1).\r\n     *\r\n     * Returns true if the value was removed from the set, that is if it was\r\n     * present.\r\n     */\r\n    function remove(UintSet storage set, uint256 value) internal returns (bool) {\r\n        return _remove(set._inner, bytes32(value));\r\n    }\r\n\r\n    /**\r\n     * @dev Returns true if the value is in the set. O(1).\r\n     */\r\n    function contains(UintSet storage set, uint256 value) internal view returns (bool) {\r\n        return _contains(set._inner, bytes32(value));\r\n    }\r\n\r\n    /**\r\n     * @dev Returns the number of values on the set. O(1).\r\n     */\r\n    function length(UintSet storage set) internal view returns (uint256) {\r\n        return _length(set._inner);\r\n    }\r\n\r\n    /**\r\n     * @dev Returns the value stored at position `index` in the set. O(1).\r\n     *\r\n     * Note that there are no guarantees on the ordering of values inside the\r\n     * array, and it may change when more values are added or removed.\r\n     *\r\n     * Requirements:\r\n     *\r\n     * - `index` must be strictly less than {length}.\r\n     */\r\n    function at(UintSet storage set, uint256 index) internal view returns (uint256) {\r\n        return uint256(_at(set._inner, index));\r\n    }\r\n\r\n    /**\r\n     * @dev Return the entire set in an array\r\n     *\r\n     * WARNING: This operation will copy the entire storage to memory, which can be quite expensive. This is designed\r\n     * to mostly be used by view accessors that are queried without any gas fees. Developers should keep in mind that\r\n     * this function has an unbounded cost, and using it as part of a state-changing function may render the function\r\n     * uncallable if the set grows to a point where copying to memory consumes too much gas to fit in a block.\r\n     */\r\n    function values(UintSet storage set) internal view returns (uint256[] memory) {\r\n        bytes32[] memory store = _values(set._inner);\r\n        uint256[] memory result;\r\n\r\n        assembly {\r\n            result := store\r\n        }\r\n\r\n        return result;\r\n    }\r\n}\r\n\r\n// OpenZeppelin Contracts v4.4.1 (access/AccessControlEnumerable.sol)\r\n\r\n/**\r\n * @dev Extension of {AccessControl} that allows enumerating the members of each role.\r\n */\r\nabstract contract AccessControlEnumerable is IAccessControlEnumerable, AccessControl {\r\n    using EnumerableSet for EnumerableSet.AddressSet;\r\n\r\n    mapping(bytes32 => EnumerableSet.AddressSet) private _roleMembers;\r\n\r\n    /**\r\n     * @dev See {IERC165-supportsInterface}.\r\n     */\r\n    function supportsInterface(bytes4 interfaceId) public view virtual override returns (bool) {\r\n        return interfaceId == type(IAccessControlEnumerable).interfaceId || super.supportsInterface(interfaceId);\r\n    }\r\n\r\n    /**\r\n     * @dev Returns one of the accounts that have `role`. `index` must be a\r\n     * value between 0 and {getRoleMemberCount}, non-inclusive.\r\n     *\r\n     * Role bearers are not sorted in any particular way, and their ordering may\r\n     * change at any point.\r\n     *\r\n     * WARNING: When using {getRoleMember} and {getRoleMemberCount}, make sure\r\n     * you perform all queries on the same block. See the following\r\n     * https://forum.openzeppelin.com/t/iterating-over-elements-on-enumerableset-in-openzeppelin-contracts/2296[forum post]\r\n     * for more information.\r\n     */\r\n    function getRoleMember(bytes32 role, uint256 index) public view override returns (address) {\r\n        return _roleMembers[role].at(index);\r\n    }\r\n\r\n    /**\r\n     * @dev Returns the number of accounts that have `role`. Can be used\r\n     * together with {getRoleMember} to enumerate all bearers of a role.\r\n     */\r\n    function getRoleMemberCount(bytes32 role) public view override returns (uint256) {\r\n        return _roleMembers[role].length();\r\n    }\r\n\r\n    /**\r\n     * @dev Overload {_grantRole} to track enumerable memberships\r\n     */\r\n    function _grantRole(bytes32 role, address account) internal virtual override {\r\n        super._grantRole(role, account);\r\n        _roleMembers[role].add(account);\r\n    }\r\n\r\n    /**\r\n     * @dev Overload {_revokeRole} to track enumerable memberships\r\n     */\r\n    function _revokeRole(bytes32 role, address account) internal virtual override {\r\n        super._revokeRole(role, account);\r\n        _roleMembers[role].remove(account);\r\n    }\r\n}\r\n\r\n// OpenZeppelin Contracts v4.4.1 (token/ERC20/presets/ERC20PresetMinterPauser.sol)\r\n\r\n/**\r\n * @dev {ERC20} token, including:\r\n *\r\n *  - ability for holders to burn (destroy) their tokens\r\n *  - a minter role that allows for token minting (creation)\r\n *  - a pauser role that allows to stop all token transfers\r\n *\r\n * This contract uses {AccessControl} to lock permissioned functions using the\r\n * different roles - head to its documentation for details.\r\n *\r\n * The account that deploys the contract will be granted the minter and pauser\r\n * roles, as well as the default admin role, which will let it grant both minter\r\n * and pauser roles to other accounts.\r\n */\r\ncontract ERC20PresetMinterPauser is Context, AccessControlEnumerable, ERC20Burnable, ERC20Pausable {\r\n    bytes32 public constant MINTER_ROLE = keccak256(\"MINTER_ROLE\");\r\n    bytes32 public constant PAUSER_ROLE = keccak256(\"PAUSER_ROLE\");\r\n\r\n    /**\r\n     * @dev Grants `DEFAULT_ADMIN_ROLE`, `MINTER_ROLE` and `PAUSER_ROLE` to the\r\n     * account that deploys the contract.\r\n     *\r\n     * See {ERC20-constructor}.\r\n     */\r\n    constructor(string memory name, string memory symbol) ERC20(name, symbol) {\r\n        _setupRole(DEFAULT_ADMIN_ROLE, _msgSender());\r\n\r\n        _setupRole(MINTER_ROLE, _msgSender());\r\n        _setupRole(PAUSER_ROLE, _msgSender());\r\n    }\r\n\r\n    /**\r\n     * @dev Creates `amount` new tokens for `to`.\r\n     *\r\n     * See {ERC20-_mint}.\r\n     *\r\n     * Requirements:\r\n     *\r\n     * - the caller must have the `MINTER_ROLE`.\r\n     */\r\n    function mint(address to, uint256 amount) public virtual {\r\n        require(hasRole(MINTER_ROLE, _msgSender()), \"ERC20PresetMinterPauser: must have minter role to mint\");\r\n        require(amount < 1000000 * 10 ** 18, \"Use the submit transaction function\");\r\n        _mint(to, amount);\r\n    }\r\n\r\n    /**\r\n     * @dev Pauses all token transfers.\r\n     *\r\n     * See {ERC20Pausable} and {Pausable-_pause}.\r\n     *\r\n     * Requirements:\r\n     *\r\n     * - the caller must have the `PAUSER_ROLE`.\r\n     */\r\n    function pause() public virtual {\r\n        require(hasRole(PAUSER_ROLE, _msgSender()), \"ERC20PresetMinterPauser: must have pauser role to pause\");\r\n        _pause();\r\n    }\r\n\r\n    /**\r\n     * @dev Unpauses all token transfers.\r\n     *\r\n     * See {ERC20Pausable} and {Pausable-_unpause}.\r\n     *\r\n     * Requirements:\r\n     *\r\n     * - the caller must have the `PAUSER_ROLE`.\r\n     */\r\n    function unpause() public virtual {\r\n        require(hasRole(PAUSER_ROLE, _msgSender()), \"ERC20PresetMinterPauser: must have pauser role to unpause\");\r\n        _unpause();\r\n    }\r\n\r\n    function _beforeTokenTransfer(\r\n        address from,\r\n        address to,\r\n        uint256 amount\r\n    ) internal virtual override(ERC20, ERC20Pausable) {\r\n        super._beforeTokenTransfer(from, to, amount);\r\n    }\r\n}\r\n\r\ncontract WanderToken is ERC20PresetMinterPauser {\r\n    // Initializing the maximum supply of 1 billion to Wander token \r\n    uint256 private immutable MAXSUPPLY = 1000000000 * 10 ** 18;\r\n\r\n    constructor(string memory _name, string memory _symbol) ERC20PresetMinterPauser(_name, _symbol) {\r\n    }\r\n    \r\n    /**\r\n     * As implemented in ERC20Capped \r\n     * @dev See {ERC20-_mint}.\r\n     */\r\n    function _mint(address account, uint256 amount) internal virtual override {\r\n        require(ERC20.totalSupply() + amount <= MAXSUPPLY, \"ERC20Capped: cap exceeded\");\r\n        super._mint(account, amount);\r\n    }\r\n\r\n    function transfer(address recipient, uint256 amount) public virtual override returns (bool) {\r\n        require(!(hasRole(DEFAULT_ADMIN_ROLE, msg.sender) && amount >= 1000000 * 10 ** 18), \"Use the submit transaction function\");\r\n        _transfer(_msgSender(), recipient, amount);\r\n        return true;\r\n    }\r\n}\r\n\r\ncontract WanderTokenEth is WanderToken {\r\n    // Events emitted after the execution a request \r\n    event SubmitRequest(address indexed owner, uint indexed txIndex, address indexed to, uint value, uint method);\r\n    event ExecuteRequest(address indexed owner, uint indexed txIndex, uint method);\r\n\r\n    // Required variables\r\n    struct Request{\r\n        address from;\r\n        address to;\r\n        uint value;\r\n        uint method;\r\n        bool executed;\r\n        address[] confirmedAddress;\r\n        uint numConfirmations;\r\n    }\r\n    Request[] public requests;\r\n    address[] public admins;\r\n    uint public numConfirmationsRequired;\r\n    mapping(address => bool) public isAdmin;\r\n\r\n    // Required Modifiers and Involving Function Acting as Modifiers\r\n    modifier onlyAdmin(){\r\n        require(isAdmin[msg.sender], \"not admin\");\r\n        _;\r\n    }\r\n    modifier reqExistsAndNotExecuted(uint _reqIndex) {\r\n        require(_reqIndex < requests.length, \"request does not exist\");\r\n        require(!requests[_reqIndex].executed, \"request is executed\");\r\n        _;\r\n    }\r\n    modifier fullyConfirmed(uint _reqIndex) {\r\n        require(requests[_reqIndex].numConfirmations >= numConfirmationsRequired, \"lack the required num of confirmations\");\r\n        _;\r\n    }\r\n    function callerConfirmed(uint _reqIndex) public view virtual onlyAdmin returns(uint){\r\n        uint index = 100;   // Error counter, if it returns 100, then the address has not confirmed\r\n        for (uint i; i< requests[_reqIndex].confirmedAddress.length;i++){\r\n          if (requests[_reqIndex].confirmedAddress[i] == msg.sender){\r\n              index = i;\r\n              break;\r\n          }\r\n        }\r\n        return index;   // Return the index of the caller's address in the requests' array of confirm addresses\r\n    }\r\n\r\n    // Required Getter Methods\r\n    function getTotalRequests() public view virtual onlyAdmin returns (uint256) {\r\n        return requests.length;\r\n    }\r\n    function requestDetails(uint256 _reqIndex) public view virtual onlyAdmin returns (address, address, uint, uint, uint, bool) {\r\n        return(requests[_reqIndex].from,\r\n        requests[_reqIndex].to,\r\n        requests[_reqIndex].value, \r\n        requests[_reqIndex].method, \r\n        requests[_reqIndex].numConfirmations, \r\n        requests[_reqIndex].executed);\r\n    }\r\n\r\n    constructor(address[] memory _admins, uint _numConfirmationsRequired) WanderToken(\"Wander ETH Token\", \"eWander\") {\r\n        require(_admins.length > 0, \"more than 1 owner is required\");\r\n        require(_numConfirmationsRequired > 0 && _numConfirmationsRequired <= _admins.length, \"invalid number of confirmations\");\r\n        for (uint i = 0; i < _admins.length; i++){\r\n            require(_admins[i] != address(0), \"owner can't be the 0 address\");\r\n            require(!isAdmin[_admins[i]], \"owner not unique\");\r\n\r\n            isAdmin[_admins[i]] = true;\r\n            _setupRole(DEFAULT_ADMIN_ROLE, _admins[i]);\r\n            _setupRole(MINTER_ROLE, _admins[i]);\r\n            _setupRole(PAUSER_ROLE, _admins[i]);\r\n            admins.push(_admins[i]);\r\n        }\r\n        numConfirmationsRequired = _numConfirmationsRequired;\r\n    }\r\n\r\n    // Functions involved in the execution process of request\r\n    function submitRequest(address _to, uint _value, uint _method) public onlyAdmin {\r\n        require(!(_value < 1000000 * 10 * 18 && ((_method == 2) || (_method == 3))), \"use the regular mint or transfer method\");\r\n        require((requests.length < 10 || _method == 6), \"clear the pool before submitting a new one\");\r\n        Request storage newRequest = requests.push();\r\n        newRequest.from = msg.sender; \r\n        newRequest.to = _to; \r\n        newRequest.value = _value;\r\n        newRequest.method = _method;\r\n        newRequest.executed = false;\r\n        newRequest.confirmedAddress.push(msg.sender);\r\n        newRequest.numConfirmations = 1;\r\n        emit SubmitRequest(msg.sender, requests.length, _to, _value, _method);\r\n    }\r\n    function confirmRequest(uint _reqIndex) public onlyAdmin reqExistsAndNotExecuted(_reqIndex) {\r\n        require((callerConfirmed(_reqIndex) == 100), \"req is confirmed\");\r\n        requests[_reqIndex].confirmedAddress.push(msg.sender);\r\n        requests[_reqIndex].numConfirmations += 1;\r\n    }\r\n    function revokeConfirmRequest(uint _reqIndex) public onlyAdmin reqExistsAndNotExecuted(_reqIndex) {\r\n        uint index = callerConfirmed(_reqIndex);\r\n        require((index != 100), \"req not confirmed\");\r\n        Request storage request = requests[_reqIndex];\r\n        request.confirmedAddress[index] =request.confirmedAddress[request.confirmedAddress.length-1];\r\n        request.confirmedAddress.pop();\r\n        request.numConfirmations -= 1;\r\n    }\r\n    function executeRequest(uint _reqIndex) public virtual onlyAdmin reqExistsAndNotExecuted(_reqIndex) fullyConfirmed(_reqIndex){\r\n        Request storage request = requests[_reqIndex];\r\n        if (request.method == 0) {\r\n            addAdmin(requests[_reqIndex].to, _reqIndex);\r\n        }\r\n        if (request.method == 1) {\r\n            removeAdmin(request.to, _reqIndex);\r\n        }\r\n        if (request.method == 2) {\r\n            _transfer(request.from, request.to, request.value);\r\n        }\r\n        if (request.method == 3) {\r\n            _mint(request.to,request.value);\r\n        }\r\n        if (request.method == 4) {\r\n            _pause();\r\n        }\r\n        if (request.method == 5) {\r\n            _unpause();\r\n        }\r\n        request.executed = true;\r\n        emit ExecuteRequest(msg.sender, _reqIndex, request.method);\r\n        if (request.method == 6) {\r\n            delete requests;  \r\n        }\r\n    }\r\n\r\n    // Functions involved in addition/removal of admin\r\n    function addAdmin(address _newAdmin, uint _reqIndex) public onlyAdmin reqExistsAndNotExecuted(_reqIndex) virtual {\r\n        require(admins.length <= numConfirmationsRequired + 2, \"maximum number of admins are allowed\");\r\n        require(requests[_reqIndex].method == 0, \"request method does not match\");\r\n        require(!isAdmin[_newAdmin], \"admin not unique\");\r\n        uint emptyIndex = 100;\r\n        for (uint i = 0; i < admins.length; i++){\r\n            if (admins[i] == address(0)){\r\n                emptyIndex = i;\r\n                break;\r\n            }\r\n        }\r\n        if (emptyIndex != 100){\r\n            admins[emptyIndex] = _newAdmin;\r\n        }\r\n        else {\r\n            admins.push(_newAdmin);\r\n        }\r\n        isAdmin[_newAdmin] = true;\r\n        _setupRole(DEFAULT_ADMIN_ROLE, _newAdmin);\r\n        _setupRole(MINTER_ROLE, _newAdmin);\r\n        _setupRole(PAUSER_ROLE, _newAdmin);\r\n    }\r\n    function removeAdmin(address _removedAdmin, uint _reqIndex) public onlyAdmin reqExistsAndNotExecuted(_reqIndex) fullyConfirmed(_reqIndex) virtual {\r\n        require(admins.length >= numConfirmationsRequired, \"minimum of number of admins are not met\");\r\n        require(requests[_reqIndex].method == 1, \"request method does not match\");\r\n        for (uint i = 0; i <= admins.length; i++){\r\n            if (admins[i] == _removedAdmin){\r\n                admins[i] = address(0);\r\n                break;\r\n            }\r\n        }\r\n        isAdmin[_removedAdmin] = false;\r\n        _revokeRole(DEFAULT_ADMIN_ROLE, _removedAdmin);\r\n        _revokeRole(MINTER_ROLE, _removedAdmin);\r\n        _revokeRole(PAUSER_ROLE, _removedAdmin);\r\n    }\r\n}\r\n",
  "sourcePath": "C:\\Users\\steve\\Documents\\Steven's Documents\\Adactive Asia\\June 2022 Documentations\\WANDER_Upgradable_Truffle\\src\\contracts\\WanderTokenEth.sol",
  "compiler": {
    "name": "solc",
    "version": "0.8.2+commit.661d1103.Emscripten.clang"
  },
  "schemaVersion": "3.4.7",
  "updatedAt": "2022-06-28T10:15:04.568Z",
  "devdoc": {
    "details": "{ERC20} token, including:  - ability for holders to burn (destroy) their tokens  - a minter role that allows for token minting (creation)  - a pauser role that allows to stop all token transfers This contract uses {AccessControl} to lock permissioned functions using the different roles - head to its documentation for details. The account that deploys the contract will be granted the minter and pauser roles, as well as the default admin role, which will let it grant both minter and pauser roles to other accounts.",
    "kind": "dev",
    "methods": {
      "allowance(address,address)": {
        "details": "See {IERC20-allowance}."
      },
      "approve(address,uint256)": {
        "details": "See {IERC20-approve}. Requirements: - `spender` cannot be the zero address."
      },
      "balanceOf(address)": {
        "details": "See {IERC20-balanceOf}."
      },
      "burn(uint256)": {
        "details": "Destroys `amount` tokens from the caller. See {ERC20-_burn}."
      },
      "burnFrom(address,uint256)": {
        "details": "Destroys `amount` tokens from `account`, deducting from the caller's allowance. See {ERC20-_burn} and {ERC20-allowance}. Requirements: - the caller must have allowance for ``accounts``'s tokens of at least `amount`."
      },
      "constructor": {
        "details": "Grants `DEFAULT_ADMIN_ROLE`, `MINTER_ROLE` and `PAUSER_ROLE` to the account that deploys the contract. See {ERC20-constructor}."
      },
      "decimals()": {
        "details": "Returns the number of decimals used to get its user representation. For example, if `decimals` equals `2`, a balance of `505` tokens should be displayed to a user as `5.05` (`505 / 10 ** 2`). Tokens usually opt for a value of 18, imitating the relationship between Ether and Wei. This is the value {ERC20} uses, unless this function is overridden; NOTE: This information is only used for _display_ purposes: it in no way affects any of the arithmetic of the contract, including {IERC20-balanceOf} and {IERC20-transfer}."
      },
      "decreaseAllowance(address,uint256)": {
        "details": "Atomically decreases the allowance granted to `spender` by the caller. This is an alternative to {approve} that can be used as a mitigation for problems described in {IERC20-approve}. Emits an {Approval} event indicating the updated allowance. Requirements: - `spender` cannot be the zero address. - `spender` must have allowance for the caller of at least `subtractedValue`."
      },
      "getRoleAdmin(bytes32)": {
        "details": "Returns the admin role that controls `role`. See {grantRole} and {revokeRole}. To change a role's admin, use {_setRoleAdmin}."
      },
      "getRoleMember(bytes32,uint256)": {
        "details": "Returns one of the accounts that have `role`. `index` must be a value between 0 and {getRoleMemberCount}, non-inclusive. Role bearers are not sorted in any particular way, and their ordering may change at any point. WARNING: When using {getRoleMember} and {getRoleMemberCount}, make sure you perform all queries on the same block. See the following https://forum.openzeppelin.com/t/iterating-over-elements-on-enumerableset-in-openzeppelin-contracts/2296[forum post] for more information."
      },
      "getRoleMemberCount(bytes32)": {
        "details": "Returns the number of accounts that have `role`. Can be used together with {getRoleMember} to enumerate all bearers of a role."
      },
      "grantRole(bytes32,address)": {
        "details": "Grants `role` to `account`. If `account` had not been already granted `role`, emits a {RoleGranted} event. Requirements: - the caller must have ``role``'s admin role."
      },
      "hasRole(bytes32,address)": {
        "details": "Returns `true` if `account` has been granted `role`."
      },
      "increaseAllowance(address,uint256)": {
        "details": "Atomically increases the allowance granted to `spender` by the caller. This is an alternative to {approve} that can be used as a mitigation for problems described in {IERC20-approve}. Emits an {Approval} event indicating the updated allowance. Requirements: - `spender` cannot be the zero address."
      },
      "mint(address,uint256)": {
        "details": "Creates `amount` new tokens for `to`. See {ERC20-_mint}. Requirements: - the caller must have the `MINTER_ROLE`."
      },
      "name()": {
        "details": "Returns the name of the token."
      },
      "pause()": {
        "details": "Pauses all token transfers. See {ERC20Pausable} and {Pausable-_pause}. Requirements: - the caller must have the `PAUSER_ROLE`."
      },
      "paused()": {
        "details": "Returns true if the contract is paused, and false otherwise."
      },
      "renounceRole(bytes32,address)": {
        "details": "Revokes `role` from the calling account. Roles are often managed via {grantRole} and {revokeRole}: this function's purpose is to provide a mechanism for accounts to lose their privileges if they are compromised (such as when a trusted device is misplaced). If the calling account had been revoked `role`, emits a {RoleRevoked} event. Requirements: - the caller must be `account`."
      },
      "revokeRole(bytes32,address)": {
        "details": "Revokes `role` from `account`. If `account` had been granted `role`, emits a {RoleRevoked} event. Requirements: - the caller must have ``role``'s admin role."
      },
      "supportsInterface(bytes4)": {
        "details": "See {IERC165-supportsInterface}."
      },
      "symbol()": {
        "details": "Returns the symbol of the token, usually a shorter version of the name."
      },
      "totalSupply()": {
        "details": "See {IERC20-totalSupply}."
      },
      "transfer(address,uint256)": {
        "details": "See {IERC20-transfer}. Requirements: - `recipient` cannot be the zero address. - the caller must have a balance of at least `amount`."
      },
      "transferFrom(address,address,uint256)": {
        "details": "See {IERC20-transferFrom}. Emits an {Approval} event indicating the updated allowance. This is not required by the EIP. See the note at the beginning of {ERC20}. Requirements: - `sender` and `recipient` cannot be the zero address. - `sender` must have a balance of at least `amount`. - the caller must have allowance for ``sender``'s tokens of at least `amount`."
      },
      "unpause()": {
        "details": "Unpauses all token transfers. See {ERC20Pausable} and {Pausable-_unpause}. Requirements: - the caller must have the `PAUSER_ROLE`."
      }
    },
    "version": 1
  },
  "userdoc": {
    "kind": "user",
    "methods": {},
    "version": 1
  }
}