{
  "contractName": "Request",
  "abi": [
    {
      "anonymous": false,
      "inputs": [
        {
          "indexed": true,
          "internalType": "address",
          "name": "owner",
          "type": "address"
        },
        {
          "indexed": true,
          "internalType": "uint256",
          "name": "txIndex",
          "type": "uint256"
        },
        {
          "indexed": false,
          "internalType": "uint256",
          "name": "method",
          "type": "uint256"
        }
      ],
      "name": "ExecuteRequest",
      "type": "event"
    },
    {
      "anonymous": false,
      "inputs": [
        {
          "indexed": true,
          "internalType": "address",
          "name": "owner",
          "type": "address"
        },
        {
          "indexed": true,
          "internalType": "uint256",
          "name": "txIndex",
          "type": "uint256"
        },
        {
          "indexed": true,
          "internalType": "address",
          "name": "to",
          "type": "address"
        },
        {
          "indexed": false,
          "internalType": "uint256",
          "name": "value",
          "type": "uint256"
        },
        {
          "indexed": false,
          "internalType": "uint256",
          "name": "method",
          "type": "uint256"
        }
      ],
      "name": "SubmitRequest",
      "type": "event"
    },
    {
      "inputs": [
        {
          "internalType": "uint256",
          "name": "",
          "type": "uint256"
        }
      ],
      "name": "admins",
      "outputs": [
        {
          "internalType": "address",
          "name": "",
          "type": "address"
        }
      ],
      "stateMutability": "view",
      "type": "function"
    },
    {
      "inputs": [
        {
          "internalType": "address",
          "name": "",
          "type": "address"
        }
      ],
      "name": "isAdmin",
      "outputs": [
        {
          "internalType": "bool",
          "name": "",
          "type": "bool"
        }
      ],
      "stateMutability": "view",
      "type": "function"
    },
    {
      "inputs": [],
      "name": "numConfirmationsRequired",
      "outputs": [
        {
          "internalType": "uint256",
          "name": "",
          "type": "uint256"
        }
      ],
      "stateMutability": "view",
      "type": "function"
    },
    {
      "inputs": [
        {
          "internalType": "uint256",
          "name": "",
          "type": "uint256"
        }
      ],
      "name": "requests",
      "outputs": [
        {
          "internalType": "address",
          "name": "from",
          "type": "address"
        },
        {
          "internalType": "address",
          "name": "to",
          "type": "address"
        },
        {
          "internalType": "uint256",
          "name": "value",
          "type": "uint256"
        },
        {
          "internalType": "uint256",
          "name": "method",
          "type": "uint256"
        },
        {
          "internalType": "bool",
          "name": "executed",
          "type": "bool"
        },
        {
          "internalType": "uint256",
          "name": "numConfirmations",
          "type": "uint256"
        }
      ],
      "stateMutability": "view",
      "type": "function"
    },
    {
      "inputs": [
        {
          "internalType": "uint256",
          "name": "_reqIndex",
          "type": "uint256"
        }
      ],
      "name": "callerConfirmed",
      "outputs": [
        {
          "internalType": "uint256",
          "name": "",
          "type": "uint256"
        }
      ],
      "stateMutability": "view",
      "type": "function"
    },
    {
      "inputs": [
        {
          "internalType": "address[]",
          "name": "_admins",
          "type": "address[]"
        },
        {
          "internalType": "uint256",
          "name": "_numConfirmationsRequired",
          "type": "uint256"
        },
        {
          "internalType": "address",
          "name": "_wanderTokenPolAddress",
          "type": "address"
        }
      ],
      "name": "init",
      "outputs": [],
      "stateMutability": "nonpayable",
      "type": "function"
    },
    {
      "inputs": [],
      "name": "getTotalRequests",
      "outputs": [
        {
          "internalType": "uint256",
          "name": "",
          "type": "uint256"
        }
      ],
      "stateMutability": "view",
      "type": "function"
    },
    {
      "inputs": [
        {
          "internalType": "uint256",
          "name": "_reqIndex",
          "type": "uint256"
        }
      ],
      "name": "requestDetails",
      "outputs": [
        {
          "internalType": "address",
          "name": "",
          "type": "address"
        },
        {
          "internalType": "address",
          "name": "",
          "type": "address"
        },
        {
          "internalType": "uint256",
          "name": "",
          "type": "uint256"
        },
        {
          "internalType": "uint256",
          "name": "",
          "type": "uint256"
        },
        {
          "internalType": "uint256",
          "name": "",
          "type": "uint256"
        },
        {
          "internalType": "bool",
          "name": "",
          "type": "bool"
        }
      ],
      "stateMutability": "view",
      "type": "function"
    },
    {
      "inputs": [
        {
          "internalType": "address",
          "name": "_to",
          "type": "address"
        },
        {
          "internalType": "uint256",
          "name": "_value",
          "type": "uint256"
        },
        {
          "internalType": "uint256",
          "name": "_method",
          "type": "uint256"
        }
      ],
      "name": "submitRequest",
      "outputs": [],
      "stateMutability": "nonpayable",
      "type": "function"
    },
    {
      "inputs": [
        {
          "internalType": "uint256",
          "name": "_reqIndex",
          "type": "uint256"
        }
      ],
      "name": "confirmRequest",
      "outputs": [],
      "stateMutability": "nonpayable",
      "type": "function"
    },
    {
      "inputs": [
        {
          "internalType": "uint256",
          "name": "_reqIndex",
          "type": "uint256"
        }
      ],
      "name": "revokeConfirmRequest",
      "outputs": [],
      "stateMutability": "nonpayable",
      "type": "function"
    },
    {
      "inputs": [
        {
          "internalType": "uint256",
          "name": "_reqIndex",
          "type": "uint256"
        }
      ],
      "name": "executeRequest",
      "outputs": [],
      "stateMutability": "nonpayable",
      "type": "function"
    },
    {
      "inputs": [
        {
          "internalType": "address",
          "name": "_newAdmin",
          "type": "address"
        },
        {
          "internalType": "uint256",
          "name": "_reqIndex",
          "type": "uint256"
        }
      ],
      "name": "addAdmin",
      "outputs": [],
      "stateMutability": "nonpayable",
      "type": "function"
    },
    {
      "inputs": [
        {
          "internalType": "address",
          "name": "_removedAdmin",
          "type": "address"
        },
        {
          "internalType": "uint256",
          "name": "_reqIndex",
          "type": "uint256"
        }
      ],
      "name": "removeAdmin",
      "outputs": [],
      "stateMutability": "nonpayable",
      "type": "function"
    },
    {
      "inputs": [],
      "name": "test",
      "outputs": [
        {
          "internalType": "address",
          "name": "",
          "type": "address"
        }
      ],
      "stateMutability": "view",
      "type": "function"
    }
  ],
  "bytecode": "0x608060405234801561001057600080fd5b506137d6806100206000396000f3fe608060405234801561001057600080fd5b50600436106100f55760003560e01c8063a6b2c43711610097578063d0549b8511610066578063d0549b851461029c578063e835ea29146102ba578063f0e22d52146102d6578063f8a8fd6d146102f4576100f5565b8063a6b2c43714610213578063ba50db3b1461022f578063c2ba13161461024b578063c6e0ddfa14610280576100f5565b80636e417c69116100d35780636e417c69146101765780637c185907146101925780637fcb29c9146101c257806381d12c58146101de576100f5565b806314bfd6d0146100fa578063155802821461012a57806324d7806c14610146575b600080fd5b610114600480360381019061010f9190612bce565b610312565b6040516101219190612e54565b60405180910390f35b610144600480360381019061013f9190612aef565b610351565b005b610160600480360381019061015b9190612a8a565b610649565b60405161016d9190612f91565b60405180910390f35b610190600480360381019061018b9190612bce565b610669565b005b6101ac60048036038101906101a79190612bce565b610ced565b6040516101b991906131ac565b60405180910390f35b6101dc60048036038101906101d79190612ab3565b610ee0565b005b6101f860048036038101906101f39190612bce565b611466565b60405161020a96959493929190612ea6565b60405180910390f35b61022d60048036038101906102289190612bce565b6114ff565b005b61024960048036038101906102449190612b3e565b6117ca565b005b61026560048036038101906102609190612bce565b611c8e565b60405161027796959493929190612f07565b60405180910390f35b61029a60048036038101906102959190612ab3565b611f4d565b005b6102a4612450565b6040516102b191906131ac565b60405180910390f35b6102d460048036038101906102cf9190612bce565b612456565b005b6102de6127ef565b6040516102eb91906131ac565b60405180910390f35b6102fc612888565b6040516103099190612e54565b60405180910390f35b6003818154811061032257600080fd5b906000526020600020016000915054906101000a900473ffffffffffffffffffffffffffffffffffffffff1681565b600560003373ffffffffffffffffffffffffffffffffffffffff1673ffffffffffffffffffffffffffffffffffffffff16815260200190815260200160002060009054906101000a900460ff166103dd576040517f08c379a00000000000000000000000000000000000000000000000000000000081526004016103d49061314c565b60405180910390fd5b630aba9500821080156103fb575060028114806103fa5750600381145b5b1561043b576040517f08c379a00000000000000000000000000000000000000000000000000000000081526004016104329061316c565b60405180910390fd5b600a600280549050108061044f5750600681145b61048e576040517f08c379a00000000000000000000000000000000000000000000000000000000081526004016104859061310c565b60405180910390fd5b600060026001816001815401808255809150500390600052602060002090600702019050338160000160006101000a81548173ffffffffffffffffffffffffffffffffffffffff021916908373ffffffffffffffffffffffffffffffffffffffff160217905550838160010160006101000a81548173ffffffffffffffffffffffffffffffffffffffff021916908373ffffffffffffffffffffffffffffffffffffffff16021790555082816002018190555081816003018190555060008160040160006101000a81548160ff02191690831515021790555080600501339080600181540180825580915050600190039060005260206000200160009091909190916101000a81548173ffffffffffffffffffffffffffffffffffffffff021916908373ffffffffffffffffffffffffffffffffffffffff160217905550600181600601819055508373ffffffffffffffffffffffffffffffffffffffff166002805490503373ffffffffffffffffffffffffffffffffffffffff167f54dfaf1400365d0bb0ffb12aa1987fa48da85db94f54bc3132a732ce2934e167868660405161063b9291906131c7565b60405180910390a450505050565b60056020528060005260406000206000915054906101000a900460ff1681565b600560003373ffffffffffffffffffffffffffffffffffffffff1673ffffffffffffffffffffffffffffffffffffffff16815260200190815260200160002060009054906101000a900460ff166106f5576040517f08c379a00000000000000000000000000000000000000000000000000000000081526004016106ec9061314c565b60405180910390fd5b80600280549050811061073d576040517f08c379a000000000000000000000000000000000000000000000000000000000815260040161073490612fcc565b60405180910390fd5b60028181548110610777577f4e487b7100000000000000000000000000000000000000000000000000000000600052603260045260246000fd5b906000526020600020906007020160040160009054906101000a900460ff16156107d6576040517f08c379a00000000000000000000000000000000000000000000000000000000081526004016107cd9061312c565b60405180910390fd5b8160045460028281548110610814577f4e487b7100000000000000000000000000000000000000000000000000000000600052603260045260246000fd5b9060005260206000209060070201600601541015610867576040517f08c379a000000000000000000000000000000000000000000000000000000000815260040161085e9061318c565b60405180910390fd5b6000600284815481106108a3577f4e487b7100000000000000000000000000000000000000000000000000000000600052603260045260246000fd5b9060005260206000209060070201905060008160030154141561093657610935600285815481106108fd577f4e487b7100000000000000000000000000000000000000000000000000000000600052603260045260246000fd5b906000526020600020906007020160010160009054906101000a900473ffffffffffffffffffffffffffffffffffffffff1685610ee0565b5b600181600301541415610972576109718160010160009054906101000a900473ffffffffffffffffffffffffffffffffffffffff1685611f4d565b5b600281600301541415610a7c5760008054906101000a900473ffffffffffffffffffffffffffffffffffffffff1673ffffffffffffffffffffffffffffffffffffffff166334dc58dd8260000160009054906101000a900473ffffffffffffffffffffffffffffffffffffffff168360010160009054906101000a900473ffffffffffffffffffffffffffffffffffffffff1684600201546040518463ffffffff1660e01b8152600401610a2893929190612e6f565b602060405180830381600087803b158015610a4257600080fd5b505af1158015610a56573d6000803e3d6000fd5b505050506040513d601f19601f82011682018060405250810190610a7a9190612ba5565b505b600381600301541415610b3f5760008054906101000a900473ffffffffffffffffffffffffffffffffffffffff1673ffffffffffffffffffffffffffffffffffffffff166340c10f198260010160009054906101000a900473ffffffffffffffffffffffffffffffffffffffff1683600201546040518363ffffffff1660e01b8152600401610b0c929190612f68565b600060405180830381600087803b158015610b2657600080fd5b505af1158015610b3a573d6000803e3d6000fd5b505050505b600481600301541415610bcd5760008054906101000a900473ffffffffffffffffffffffffffffffffffffffff1673ffffffffffffffffffffffffffffffffffffffff16638456cb596040518163ffffffff1660e01b8152600401600060405180830381600087803b158015610bb457600080fd5b505af1158015610bc8573d6000803e3d6000fd5b505050505b600581600301541415610c5b5760008054906101000a900473ffffffffffffffffffffffffffffffffffffffff1673ffffffffffffffffffffffffffffffffffffffff16633f4ba83a6040518163ffffffff1660e01b8152600401600060405180830381600087803b158015610c4257600080fd5b505af1158015610c56573d6000803e3d6000fd5b505050505b60018160040160006101000a81548160ff021916908315150217905550833373ffffffffffffffffffffffffffffffffffffffff167f119b3523fa62a0fe2dbb45b4ce93fc0a99e589ec6d13b406f5ebee29119439c58360030154604051610cc391906131ac565b60405180910390a3600681600301541415610ce75760026000610ce691906128b2565b5b50505050565b6000600560003373ffffffffffffffffffffffffffffffffffffffff1673ffffffffffffffffffffffffffffffffffffffff16815260200190815260200160002060009054906101000a900460ff16610d7b576040517f08c379a0000000000000000000000000000000000000000000000000000000008152600401610d729061314c565b60405180910390fd5b60006064905060005b60028481548110610dbe577f4e487b7100000000000000000000000000000000000000000000000000000000600052603260045260246000fd5b906000526020600020906007020160050180549050811015610ed6573373ffffffffffffffffffffffffffffffffffffffff1660028581548110610e2b577f4e487b7100000000000000000000000000000000000000000000000000000000600052603260045260246000fd5b90600052602060002090600702016005018281548110610e74577f4e487b7100000000000000000000000000000000000000000000000000000000600052603260045260246000fd5b9060005260206000200160009054906101000a900473ffffffffffffffffffffffffffffffffffffffff1673ffffffffffffffffffffffffffffffffffffffff161415610ec357809150610ed6565b8080610ece90613355565b915050610d84565b5080915050919050565b600560003373ffffffffffffffffffffffffffffffffffffffff1673ffffffffffffffffffffffffffffffffffffffff16815260200190815260200160002060009054906101000a900460ff16610f6c576040517f08c379a0000000000000000000000000000000000000000000000000000000008152600401610f639061314c565b60405180910390fd5b806002805490508110610fb4576040517f08c379a0000000000000000000000000000000000000000000000000000000008152600401610fab90612fcc565b60405180910390fd5b60028181548110610fee577f4e487b7100000000000000000000000000000000000000000000000000000000600052603260045260246000fd5b906000526020600020906007020160040160009054906101000a900460ff161561104d576040517f08c379a00000000000000000000000000000000000000000000000000000000081526004016110449061312c565b60405180910390fd5b600260045461105c9190613252565b60038054905011156110a3576040517f08c379a000000000000000000000000000000000000000000000000000000000815260040161109a9061302c565b60405180910390fd5b6000600283815481106110df577f4e487b7100000000000000000000000000000000000000000000000000000000600052603260045260246000fd5b90600052602060002090600702016003015414611131576040517f08c379a00000000000000000000000000000000000000000000000000000000081526004016111289061306c565b60405180910390fd5b600560008473ffffffffffffffffffffffffffffffffffffffff1673ffffffffffffffffffffffffffffffffffffffff16815260200190815260200160002060009054906101000a900460ff16156111be576040517f08c379a00000000000000000000000000000000000000000000000000000000081526004016111b59061304c565b60405180910390fd5b60006064905060005b60038054905081101561128857600073ffffffffffffffffffffffffffffffffffffffff1660038281548110611226577f4e487b7100000000000000000000000000000000000000000000000000000000600052603260045260246000fd5b9060005260206000200160009054906101000a900473ffffffffffffffffffffffffffffffffffffffff1673ffffffffffffffffffffffffffffffffffffffff16141561127557809150611288565b808061128090613355565b9150506111c7565b50606481146113195783600382815481106112cc577f4e487b7100000000000000000000000000000000000000000000000000000000600052603260045260246000fd5b9060005260206000200160006101000a81548173ffffffffffffffffffffffffffffffffffffffff021916908373ffffffffffffffffffffffffffffffffffffffff16021790555061137d565b6003849080600181540180825580915050600190039060005260206000200160009091909190916101000a81548173ffffffffffffffffffffffffffffffffffffffff021916908373ffffffffffffffffffffffffffffffffffffffff1602179055505b6001600560008673ffffffffffffffffffffffffffffffffffffffff1673ffffffffffffffffffffffffffffffffffffffff16815260200190815260200160002060006101000a81548160ff02191690831515021790555060008054906101000a900473ffffffffffffffffffffffffffffffffffffffff1673ffffffffffffffffffffffffffffffffffffffff16635d0efc4d856040518263ffffffff1660e01b815260040161142e9190612e54565b600060405180830381600087803b15801561144857600080fd5b505af115801561145c573d6000803e3d6000fd5b5050505050505050565b6002818154811061147657600080fd5b90600052602060002090600702016000915090508060000160009054906101000a900473ffffffffffffffffffffffffffffffffffffffff16908060010160009054906101000a900473ffffffffffffffffffffffffffffffffffffffff16908060020154908060030154908060040160009054906101000a900460ff16908060060154905086565b600560003373ffffffffffffffffffffffffffffffffffffffff1673ffffffffffffffffffffffffffffffffffffffff16815260200190815260200160002060009054906101000a900460ff1661158b576040517f08c379a00000000000000000000000000000000000000000000000000000000081526004016115829061314c565b60405180910390fd5b8060028054905081106115d3576040517f08c379a00000000000000000000000000000000000000000000000000000000081526004016115ca90612fcc565b60405180910390fd5b6002818154811061160d577f4e487b7100000000000000000000000000000000000000000000000000000000600052603260045260246000fd5b906000526020600020906007020160040160009054906101000a900460ff161561166c576040517f08c379a00000000000000000000000000000000000000000000000000000000081526004016116639061312c565b60405180910390fd5b606461167783610ced565b146116b7576040517f08c379a00000000000000000000000000000000000000000000000000000000081526004016116ae9061300c565b60405180910390fd5b600282815481106116f1577f4e487b7100000000000000000000000000000000000000000000000000000000600052603260045260246000fd5b9060005260206000209060070201600501339080600181540180825580915050600190039060005260206000200160009091909190916101000a81548173ffffffffffffffffffffffffffffffffffffffff021916908373ffffffffffffffffffffffffffffffffffffffff16021790555060016002838154811061179f577f4e487b7100000000000000000000000000000000000000000000000000000000600052603260045260246000fd5b906000526020600020906007020160060160008282546117bf9190613252565b925050819055505050565b600083511161180e576040517f08c379a000000000000000000000000000000000000000000000000000000000815260040161180590612fec565b60405180910390fd5b60008211801561181f575082518211155b61185e576040517f08c379a00000000000000000000000000000000000000000000000000000000081526004016118559061308c565b60405180910390fd5b806000806101000a81548173ffffffffffffffffffffffffffffffffffffffff021916908373ffffffffffffffffffffffffffffffffffffffff16021790555080600160006101000a81548173ffffffffffffffffffffffffffffffffffffffff021916908373ffffffffffffffffffffffffffffffffffffffff16021790555060005b8351811015611c8157600073ffffffffffffffffffffffffffffffffffffffff1684828151811061193c577f4e487b7100000000000000000000000000000000000000000000000000000000600052603260045260246000fd5b602002602001015173ffffffffffffffffffffffffffffffffffffffff16141561199b576040517f08c379a0000000000000000000000000000000000000000000000000000000008152600401611992906130ec565b60405180910390fd5b600560008583815181106119d8577f4e487b7100000000000000000000000000000000000000000000000000000000600052603260045260246000fd5b602002602001015173ffffffffffffffffffffffffffffffffffffffff1673ffffffffffffffffffffffffffffffffffffffff16815260200190815260200160002060009054906101000a900460ff1615611a68576040517f08c379a0000000000000000000000000000000000000000000000000000000008152600401611a5f90612fac565b60405180910390fd5b600160056000868481518110611aa7577f4e487b7100000000000000000000000000000000000000000000000000000000600052603260045260246000fd5b602002602001015173ffffffffffffffffffffffffffffffffffffffff1673ffffffffffffffffffffffffffffffffffffffff16815260200190815260200160002060006101000a81548160ff02191690831515021790555060008054906101000a900473ffffffffffffffffffffffffffffffffffffffff1673ffffffffffffffffffffffffffffffffffffffff16635d0efc4d858381518110611b75577f4e487b7100000000000000000000000000000000000000000000000000000000600052603260045260246000fd5b60200260200101516040518263ffffffff1660e01b8152600401611b999190612e54565b600060405180830381600087803b158015611bb357600080fd5b505af1158015611bc7573d6000803e3d6000fd5b505050506003848281518110611c06577f4e487b7100000000000000000000000000000000000000000000000000000000600052603260045260246000fd5b60200260200101519080600181540180825580915050600190039060005260206000200160009091909190916101000a81548173ffffffffffffffffffffffffffffffffffffffff021916908373ffffffffffffffffffffffffffffffffffffffff1602179055508080611c7990613355565b9150506118e2565b5081600481905550505050565b600080600080600080600560003373ffffffffffffffffffffffffffffffffffffffff1673ffffffffffffffffffffffffffffffffffffffff16815260200190815260200160002060009054906101000a900460ff16611d23576040517f08c379a0000000000000000000000000000000000000000000000000000000008152600401611d1a9061314c565b60405180910390fd5b60028781548110611d5d577f4e487b7100000000000000000000000000000000000000000000000000000000600052603260045260246000fd5b906000526020600020906007020160000160009054906101000a900473ffffffffffffffffffffffffffffffffffffffff1660028881548110611dc9577f4e487b7100000000000000000000000000000000000000000000000000000000600052603260045260246000fd5b906000526020600020906007020160010160009054906101000a900473ffffffffffffffffffffffffffffffffffffffff1660028981548110611e35577f4e487b7100000000000000000000000000000000000000000000000000000000600052603260045260246000fd5b90600052602060002090600702016002015460028a81548110611e81577f4e487b7100000000000000000000000000000000000000000000000000000000600052603260045260246000fd5b90600052602060002090600702016003015460028b81548110611ecd577f4e487b7100000000000000000000000000000000000000000000000000000000600052603260045260246000fd5b90600052602060002090600702016006015460028c81548110611f19577f4e487b7100000000000000000000000000000000000000000000000000000000600052603260045260246000fd5b906000526020600020906007020160040160009054906101000a900460ff1695509550955095509550955091939550919395565b600560003373ffffffffffffffffffffffffffffffffffffffff1673ffffffffffffffffffffffffffffffffffffffff16815260200190815260200160002060009054906101000a900460ff16611fd9576040517f08c379a0000000000000000000000000000000000000000000000000000000008152600401611fd09061314c565b60405180910390fd5b806002805490508110612021576040517f08c379a000000000000000000000000000000000000000000000000000000000815260040161201890612fcc565b60405180910390fd5b6002818154811061205b577f4e487b7100000000000000000000000000000000000000000000000000000000600052603260045260246000fd5b906000526020600020906007020160040160009054906101000a900460ff16156120ba576040517f08c379a00000000000000000000000000000000000000000000000000000000081526004016120b19061312c565b60405180910390fd5b81600454600282815481106120f8577f4e487b7100000000000000000000000000000000000000000000000000000000600052603260045260246000fd5b906000526020600020906007020160060154101561214b576040517f08c379a00000000000000000000000000000000000000000000000000000000081526004016121429061318c565b60405180910390fd5b6004546003805490501015612195576040517f08c379a000000000000000000000000000000000000000000000000000000000815260040161218c906130ac565b60405180910390fd5b6001600284815481106121d1577f4e487b7100000000000000000000000000000000000000000000000000000000600052603260045260246000fd5b90600052602060002090600702016003015414612223576040517f08c379a000000000000000000000000000000000000000000000000000000000815260040161221a9061306c565b60405180910390fd5b60005b6003805490508111612366578473ffffffffffffffffffffffffffffffffffffffff1660038281548110612283577f4e487b7100000000000000000000000000000000000000000000000000000000600052603260045260246000fd5b9060005260206000200160009054906101000a900473ffffffffffffffffffffffffffffffffffffffff1673ffffffffffffffffffffffffffffffffffffffff16141561235357600060038281548110612306577f4e487b7100000000000000000000000000000000000000000000000000000000600052603260045260246000fd5b9060005260206000200160006101000a81548173ffffffffffffffffffffffffffffffffffffffff021916908373ffffffffffffffffffffffffffffffffffffffff160217905550612366565b808061235e90613355565b915050612226565b506000600560008673ffffffffffffffffffffffffffffffffffffffff1673ffffffffffffffffffffffffffffffffffffffff16815260200190815260200160002060006101000a81548160ff02191690831515021790555060008054906101000a900473ffffffffffffffffffffffffffffffffffffffff1673ffffffffffffffffffffffffffffffffffffffff16634762155d856040518263ffffffff1660e01b81526004016124189190612e54565b600060405180830381600087803b15801561243257600080fd5b505af1158015612446573d6000803e3d6000fd5b5050505050505050565b60045481565b600560003373ffffffffffffffffffffffffffffffffffffffff1673ffffffffffffffffffffffffffffffffffffffff16815260200190815260200160002060009054906101000a900460ff166124e2576040517f08c379a00000000000000000000000000000000000000000000000000000000081526004016124d99061314c565b60405180910390fd5b80600280549050811061252a576040517f08c379a000000000000000000000000000000000000000000000000000000000815260040161252190612fcc565b60405180910390fd5b60028181548110612564577f4e487b7100000000000000000000000000000000000000000000000000000000600052603260045260246000fd5b906000526020600020906007020160040160009054906101000a900460ff16156125c3576040517f08c379a00000000000000000000000000000000000000000000000000000000081526004016125ba9061312c565b60405180910390fd5b60006125ce83610ced565b90506064811415612614576040517f08c379a000000000000000000000000000000000000000000000000000000000815260040161260b906130cc565b60405180910390fd5b600060028481548110612650577f4e487b7100000000000000000000000000000000000000000000000000000000600052603260045260246000fd5b90600052602060002090600702019050806005016001826005018054905061267891906132a8565b815481106126af577f4e487b7100000000000000000000000000000000000000000000000000000000600052603260045260246000fd5b9060005260206000200160009054906101000a900473ffffffffffffffffffffffffffffffffffffffff16816005018381548110612716577f4e487b7100000000000000000000000000000000000000000000000000000000600052603260045260246000fd5b9060005260206000200160006101000a81548173ffffffffffffffffffffffffffffffffffffffff021916908373ffffffffffffffffffffffffffffffffffffffff16021790555080600501805480612798577f4e487b7100000000000000000000000000000000000000000000000000000000600052603160045260246000fd5b6001900381819060005260206000200160006101000a81549073ffffffffffffffffffffffffffffffffffffffff0219169055905560018160060160008282546127e291906132a8565b9250508190555050505050565b6000600560003373ffffffffffffffffffffffffffffffffffffffff1673ffffffffffffffffffffffffffffffffffffffff16815260200190815260200160002060009054906101000a900460ff1661287d576040517f08c379a00000000000000000000000000000000000000000000000000000000081526004016128749061314c565b60405180910390fd5b600280549050905090565b6000600160009054906101000a900473ffffffffffffffffffffffffffffffffffffffff16905090565b50805460008255600702906000526020600020908101906128d391906128d6565b50565b5b8082111561297357600080820160006101000a81549073ffffffffffffffffffffffffffffffffffffffff02191690556001820160006101000a81549073ffffffffffffffffffffffffffffffffffffffff0219169055600282016000905560038201600090556004820160006101000a81549060ff02191690556005820160006129629190612977565b6006820160009055506007016128d7565b5090565b50805460008255906000526020600020908101906129959190612998565b50565b5b808211156129b1576000816000905550600101612999565b5090565b60006129c86129c384613215565b6131f0565b905080838252602082019050828560208602820111156129e757600080fd5b60005b85811015612a1757816129fd8882612a21565b8452602084019350602083019250506001810190506129ea565b5050509392505050565b600081359050612a308161375b565b92915050565b600082601f830112612a4757600080fd5b8135612a578482602086016129b5565b91505092915050565b600081519050612a6f81613772565b92915050565b600081359050612a8481613789565b92915050565b600060208284031215612a9c57600080fd5b6000612aaa84828501612a21565b91505092915050565b60008060408385031215612ac657600080fd5b6000612ad485828601612a21565b9250506020612ae585828601612a75565b9150509250929050565b600080600060608486031215612b0457600080fd5b6000612b1286828701612a21565b9350506020612b2386828701612a75565b9250506040612b3486828701612a75565b9150509250925092565b600080600060608486031215612b5357600080fd5b600084013567ffffffffffffffff811115612b6d57600080fd5b612b7986828701612a36565b9350506020612b8a86828701612a75565b9250506040612b9b86828701612a21565b9150509250925092565b600060208284031215612bb757600080fd5b6000612bc584828501612a60565b91505092915050565b600060208284031215612be057600080fd5b6000612bee84828501612a75565b91505092915050565b612c00816132dc565b82525050565b612c0f816132ee565b82525050565b6000612c22601083613241565b9150612c2d8261340d565b602082019050919050565b6000612c45601683613241565b9150612c5082613436565b602082019050919050565b6000612c68601d83613241565b9150612c738261345f565b602082019050919050565b6000612c8b601083613241565b9150612c9682613488565b602082019050919050565b6000612cae602483613241565b9150612cb9826134b1565b604082019050919050565b6000612cd1601083613241565b9150612cdc82613500565b602082019050919050565b6000612cf4601d83613241565b9150612cff82613529565b602082019050919050565b6000612d17601f83613241565b9150612d2282613552565b602082019050919050565b6000612d3a602783613241565b9150612d458261357b565b604082019050919050565b6000612d5d601183613241565b9150612d68826135ca565b602082019050919050565b6000612d80601c83613241565b9150612d8b826135f3565b602082019050919050565b6000612da3602a83613241565b9150612dae8261361c565b604082019050919050565b6000612dc6601383613241565b9150612dd18261366b565b602082019050919050565b6000612de9600983613241565b9150612df482613694565b602082019050919050565b6000612e0c602783613241565b9150612e17826136bd565b604082019050919050565b6000612e2f602683613241565b9150612e3a8261370c565b604082019050919050565b612e4e8161331a565b82525050565b6000602082019050612e696000830184612bf7565b92915050565b6000606082019050612e846000830186612bf7565b612e916020830185612bf7565b612e9e6040830184612e45565b949350505050565b600060c082019050612ebb6000830189612bf7565b612ec86020830188612bf7565b612ed56040830187612e45565b612ee26060830186612e45565b612eef6080830185612c06565b612efc60a0830184612e45565b979650505050505050565b600060c082019050612f1c6000830189612bf7565b612f296020830188612bf7565b612f366040830187612e45565b612f436060830186612e45565b612f506080830185612e45565b612f5d60a0830184612c06565b979650505050505050565b6000604082019050612f7d6000830185612bf7565b612f8a6020830184612e45565b9392505050565b6000602082019050612fa66000830184612c06565b92915050565b60006020820190508181036000830152612fc581612c15565b9050919050565b60006020820190508181036000830152612fe581612c38565b9050919050565b6000602082019050818103600083015261300581612c5b565b9050919050565b6000602082019050818103600083015261302581612c7e565b9050919050565b6000602082019050818103600083015261304581612ca1565b9050919050565b6000602082019050818103600083015261306581612cc4565b9050919050565b6000602082019050818103600083015261308581612ce7565b9050919050565b600060208201905081810360008301526130a581612d0a565b9050919050565b600060208201905081810360008301526130c581612d2d565b9050919050565b600060208201905081810360008301526130e581612d50565b9050919050565b6000602082019050818103600083015261310581612d73565b9050919050565b6000602082019050818103600083015261312581612d96565b9050919050565b6000602082019050818103600083015261314581612db9565b9050919050565b6000602082019050818103600083015261316581612ddc565b9050919050565b6000602082019050818103600083015261318581612dff565b9050919050565b600060208201905081810360008301526131a581612e22565b9050919050565b60006020820190506131c16000830184612e45565b92915050565b60006040820190506131dc6000830185612e45565b6131e96020830184612e45565b9392505050565b60006131fa61320b565b90506132068282613324565b919050565b6000604051905090565b600067ffffffffffffffff8211156132305761322f6133cd565b5b602082029050602081019050919050565b600082825260208201905092915050565b600061325d8261331a565b91506132688361331a565b9250827fffffffffffffffffffffffffffffffffffffffffffffffffffffffffffffffff0382111561329d5761329c61339e565b5b828201905092915050565b60006132b38261331a565b91506132be8361331a565b9250828210156132d1576132d061339e565b5b828203905092915050565b60006132e7826132fa565b9050919050565b60008115159050919050565b600073ffffffffffffffffffffffffffffffffffffffff82169050919050565b6000819050919050565b61332d826133fc565b810181811067ffffffffffffffff8211171561334c5761334b6133cd565b5b80604052505050565b60006133608261331a565b91507fffffffffffffffffffffffffffffffffffffffffffffffffffffffffffffffff8214156133935761339261339e565b5b600182019050919050565b7f4e487b7100000000000000000000000000000000000000000000000000000000600052601160045260246000fd5b7f4e487b7100000000000000000000000000000000000000000000000000000000600052604160045260246000fd5b6000601f19601f8301169050919050565b7f6f776e6572206e6f7420756e6971756500000000000000000000000000000000600082015250565b7f7265717565737420646f6573206e6f7420657869737400000000000000000000600082015250565b7f6d6f7265207468616e2031206f776e6572206973207265717569726564000000600082015250565b7f72657120697320636f6e6669726d656400000000000000000000000000000000600082015250565b7f6d6178696d756d206e756d626572206f662061646d696e732061726520616c6c60008201527f6f77656400000000000000000000000000000000000000000000000000000000602082015250565b7f61646d696e206e6f7420756e6971756500000000000000000000000000000000600082015250565b7f72657175657374206d6574686f6420646f6573206e6f74206d61746368000000600082015250565b7f696e76616c6964206e756d626572206f6620636f6e6669726d6174696f6e7300600082015250565b7f6d696e696d756d206f66206e756d626572206f662061646d696e73206172652060008201527f6e6f74206d657400000000000000000000000000000000000000000000000000602082015250565b7f726571206e6f7420636f6e6669726d6564000000000000000000000000000000600082015250565b7f6f776e65722063616e2774206265207468652030206164647265737300000000600082015250565b7f636c6561722074686520706f6f6c206265666f7265207375626d697474696e6760008201527f2061206e6577206f6e6500000000000000000000000000000000000000000000602082015250565b7f7265717565737420697320657865637574656400000000000000000000000000600082015250565b7f6e6f742061646d696e0000000000000000000000000000000000000000000000600082015250565b7f7573652074686520726567756c6172206d696e74206f72207472616e7366657260008201527f206d6574686f6400000000000000000000000000000000000000000000000000602082015250565b7f6c61636b20746865207265717569726564206e756d206f6620636f6e6669726d60008201527f6174696f6e730000000000000000000000000000000000000000000000000000602082015250565b613764816132dc565b811461376f57600080fd5b50565b61377b816132ee565b811461378657600080fd5b50565b6137928161331a565b811461379d57600080fd5b5056fea26469706673582212202028ce37d7321e6655f113b4063a7b1b64aca4e2d545910ebbb5ca52cf513ae064736f6c63430008020033",
  "immutableReferences": {},
  "source": "// SPDX-License-Identifier: MIT\r\npragma solidity ^0.8.2;\r\n\r\nimport \"./IWanderTokenPol.sol\";\r\n\r\ncontract Request {\r\n    IWanderTokenPol wanderTokenPolInterface;\r\n    address wanderTokenPolAddress;\r\n    Request[] public requests;\r\n    address[] public admins;\r\n    uint public numConfirmationsRequired;\r\n    mapping(address => bool) public isAdmin;\r\n\r\n     // Events emitted after the execution a request \r\n    event SubmitRequest(address indexed owner, uint indexed txIndex, address indexed to, uint value, uint method);\r\n    event ExecuteRequest(address indexed owner, uint indexed txIndex, uint method);\r\n\r\n    // Required variables\r\n    struct Request{\r\n        address from;\r\n        address to;\r\n        uint value;\r\n        uint method;\r\n        bool executed;\r\n        address[] confirmedAddress;\r\n        uint numConfirmations;\r\n    }\r\n\r\n    // Required Modifiers and Involving Function Acting as Modifiers\r\n    modifier onlyAdmin(){\r\n        require(isAdmin[msg.sender], \"not admin\");\r\n        _;\r\n    }\r\n    modifier reqExistsAndNotExecuted(uint _reqIndex) {\r\n        require(_reqIndex < requests.length, \"request does not exist\");\r\n        require(!requests[_reqIndex].executed, \"request is executed\");\r\n        _;\r\n    }\r\n    modifier fullyConfirmed(uint _reqIndex) {\r\n        require(requests[_reqIndex].numConfirmations >= numConfirmationsRequired, \"lack the required num of confirmations\");\r\n        _;\r\n    }\r\n    function callerConfirmed(uint _reqIndex) public view virtual onlyAdmin returns(uint){\r\n        uint index = 100;   // Error counter, if it returns 100, then the address has not confirmed\r\n        for (uint i; i< requests[_reqIndex].confirmedAddress.length;i++){\r\n          if (requests[_reqIndex].confirmedAddress[i] == msg.sender){\r\n              index = i;\r\n              break;\r\n          }\r\n        }\r\n        return index;   // Return the index of the caller's address in the requests' array of confirm addresses\r\n    }\r\n\r\n    // Replacement to Constructor\r\n    function init(address[] memory _admins, uint _numConfirmationsRequired, address _wanderTokenPolAddress) public virtual{\r\n        require(_admins.length > 0, \"more than 1 owner is required\");\r\n        require(_numConfirmationsRequired > 0 && _numConfirmationsRequired <= _admins.length, \"invalid number of confirmations\");\r\n        wanderTokenPolInterface = IWanderTokenPol(_wanderTokenPolAddress);\r\n        wanderTokenPolAddress = _wanderTokenPolAddress;\r\n        for (uint i = 0; i < _admins.length; i++){\r\n            require(_admins[i] != address(0), \"owner can't be the 0 address\");\r\n            require(!isAdmin[_admins[i]], \"owner not unique\");\r\n\r\n            isAdmin[_admins[i]] = true;\r\n\r\n            wanderTokenPolInterface.setRole(_admins[i]);\r\n            admins.push(_admins[i]);\r\n        }\r\n        numConfirmationsRequired = _numConfirmationsRequired;\r\n    }\r\n\r\n    // Required Getter Methods\r\n    function getTotalRequests() public view virtual onlyAdmin returns (uint256) {\r\n        return requests.length;\r\n    }\r\n    function requestDetails(uint256 _reqIndex) public view virtual onlyAdmin returns (address, address, uint, uint, uint, bool) {\r\n        return(requests[_reqIndex].from,\r\n        requests[_reqIndex].to,\r\n        requests[_reqIndex].value, \r\n        requests[_reqIndex].method, \r\n        requests[_reqIndex].numConfirmations, \r\n        requests[_reqIndex].executed);\r\n    }\r\n\r\n    // Functions involved in the execution process of request\r\n    function submitRequest(address _to, uint _value, uint _method) public onlyAdmin {\r\n        require(!(_value < 1000000 * 10 * 18 && ((_method == 2) || (_method == 3))), \"use the regular mint or transfer method\");\r\n        require((requests.length < 10 || _method == 6), \"clear the pool before submitting a new one\");\r\n        Request storage newRequest = requests.push();\r\n        newRequest.from = msg.sender; \r\n        newRequest.to = _to; \r\n        newRequest.value = _value;\r\n        newRequest.method = _method;\r\n        newRequest.executed = false;\r\n        newRequest.confirmedAddress.push(msg.sender);\r\n        newRequest.numConfirmations = 1;\r\n        emit SubmitRequest(msg.sender, requests.length, _to, _value, _method);\r\n    }\r\n    function confirmRequest(uint _reqIndex) public onlyAdmin reqExistsAndNotExecuted(_reqIndex) {\r\n        require((callerConfirmed(_reqIndex) == 100), \"req is confirmed\");\r\n        requests[_reqIndex].confirmedAddress.push(msg.sender);\r\n        requests[_reqIndex].numConfirmations += 1;\r\n    }\r\n    function revokeConfirmRequest(uint _reqIndex) public onlyAdmin reqExistsAndNotExecuted(_reqIndex) {\r\n        uint index = callerConfirmed(_reqIndex);\r\n        require((index != 100), \"req not confirmed\");\r\n        Request storage request = requests[_reqIndex];\r\n        request.confirmedAddress[index] =request.confirmedAddress[request.confirmedAddress.length-1];\r\n        request.confirmedAddress.pop();\r\n        request.numConfirmations -= 1;\r\n    }\r\n    function executeRequest(uint _reqIndex) public virtual onlyAdmin reqExistsAndNotExecuted(_reqIndex) fullyConfirmed(_reqIndex){\r\n        Request storage request = requests[_reqIndex];\r\n        if (request.method == 0) {\r\n            addAdmin(requests[_reqIndex].to, _reqIndex);\r\n        }\r\n        if (request.method == 1) {\r\n            removeAdmin(request.to, _reqIndex);\r\n        }\r\n        if (request.method == 2) {\r\n            wanderTokenPolInterface.transferRequest(request.from, request.to, request.value);\r\n        }\r\n        if (request.method == 3) {\r\n            wanderTokenPolInterface.mint(request.to, request.value);\r\n        }\r\n        if (request.method == 4) {\r\n            wanderTokenPolInterface.pause();\r\n        }\r\n        if (request.method == 5) {\r\n            wanderTokenPolInterface.unpause();\r\n        }\r\n        request.executed = true;\r\n        emit ExecuteRequest(msg.sender, _reqIndex, request.method);\r\n        if (request.method == 6) {\r\n            delete requests;  \r\n        }\r\n    }\r\n\r\n    // //Functions involved in addition/removal of admin\r\n    function addAdmin(address _newAdmin, uint _reqIndex) public onlyAdmin reqExistsAndNotExecuted(_reqIndex) virtual {\r\n        require(admins.length <= numConfirmationsRequired + 2, \"maximum number of admins are allowed\");\r\n        require(requests[_reqIndex].method == 0, \"request method does not match\");\r\n        require(!isAdmin[_newAdmin], \"admin not unique\");\r\n        uint emptyIndex = 100;\r\n        for (uint i = 0; i < admins.length; i++){\r\n            if (admins[i] == address(0)){\r\n                emptyIndex = i;\r\n                break;\r\n            }\r\n        }\r\n        if (emptyIndex != 100){\r\n            admins[emptyIndex] = _newAdmin;\r\n        }\r\n        else {\r\n            admins.push(_newAdmin);\r\n        }\r\n        isAdmin[_newAdmin] = true;\r\n        wanderTokenPolInterface.setRole(_newAdmin);\r\n    }\r\n    function removeAdmin(address _removedAdmin, uint _reqIndex) public onlyAdmin reqExistsAndNotExecuted(_reqIndex) fullyConfirmed(_reqIndex) virtual {\r\n        require(admins.length >= numConfirmationsRequired, \"minimum of number of admins are not met\");\r\n        require(requests[_reqIndex].method == 1, \"request method does not match\");\r\n        for (uint i = 0; i <= admins.length; i++){\r\n            if (admins[i] == _removedAdmin){\r\n                admins[i] = address(0);\r\n                break;\r\n            }\r\n        }\r\n        isAdmin[_removedAdmin] = false;\r\n        wanderTokenPolInterface.removeRole(_removedAdmin);\r\n    }\r\n\r\n    function test() public view returns(address){\r\n        return wanderTokenPolAddress;\r\n    }\r\n}\r\n",
  "sourcePath": "C:\\Users\\steve\\Documents\\Steven's Documents\\Adactive Asia\\June 2022 Documentations\\WANDER_Upgradable_Truffle\\src\\contracts\\Request.sol",
  "compiler": {
    "name": "solc",
    "version": "0.8.2+commit.661d1103.Emscripten.clang"
  },
  "schemaVersion": "3.4.7",
  "updatedAt": "2022-06-28T10:15:03.968Z",
  "devdoc": {
    "kind": "dev",
    "methods": {},
    "version": 1
  },
  "userdoc": {
    "kind": "user",
    "methods": {},
    "version": 1
  }
}