{
  "contractName": "WanderTokenPol",
  "abi": [
    {
      "anonymous": false,
      "inputs": [
        {
          "indexed": true,
          "internalType": "address",
          "name": "owner",
          "type": "address"
        },
        {
          "indexed": true,
          "internalType": "address",
          "name": "spender",
          "type": "address"
        },
        {
          "indexed": false,
          "internalType": "uint256",
          "name": "value",
          "type": "uint256"
        }
      ],
      "name": "Approval",
      "type": "event"
    },
    {
      "anonymous": false,
      "inputs": [
        {
          "indexed": true,
          "internalType": "address",
          "name": "owner",
          "type": "address"
        },
        {
          "indexed": true,
          "internalType": "uint256",
          "name": "txIndex",
          "type": "uint256"
        },
        {
          "indexed": false,
          "internalType": "uint256",
          "name": "method",
          "type": "uint256"
        }
      ],
      "name": "ExecuteRequest",
      "type": "event"
    },
    {
      "anonymous": false,
      "inputs": [
        {
          "indexed": false,
          "internalType": "uint8",
          "name": "version",
          "type": "uint8"
        }
      ],
      "name": "Initialized",
      "type": "event"
    },
    {
      "anonymous": false,
      "inputs": [
        {
          "indexed": false,
          "internalType": "address",
          "name": "account",
          "type": "address"
        }
      ],
      "name": "Paused",
      "type": "event"
    },
    {
      "anonymous": false,
      "inputs": [
        {
          "indexed": true,
          "internalType": "bytes32",
          "name": "role",
          "type": "bytes32"
        },
        {
          "indexed": true,
          "internalType": "bytes32",
          "name": "previousAdminRole",
          "type": "bytes32"
        },
        {
          "indexed": true,
          "internalType": "bytes32",
          "name": "newAdminRole",
          "type": "bytes32"
        }
      ],
      "name": "RoleAdminChanged",
      "type": "event"
    },
    {
      "anonymous": false,
      "inputs": [
        {
          "indexed": true,
          "internalType": "bytes32",
          "name": "role",
          "type": "bytes32"
        },
        {
          "indexed": true,
          "internalType": "address",
          "name": "account",
          "type": "address"
        },
        {
          "indexed": true,
          "internalType": "address",
          "name": "sender",
          "type": "address"
        }
      ],
      "name": "RoleGranted",
      "type": "event"
    },
    {
      "anonymous": false,
      "inputs": [
        {
          "indexed": true,
          "internalType": "bytes32",
          "name": "role",
          "type": "bytes32"
        },
        {
          "indexed": true,
          "internalType": "address",
          "name": "account",
          "type": "address"
        },
        {
          "indexed": true,
          "internalType": "address",
          "name": "sender",
          "type": "address"
        }
      ],
      "name": "RoleRevoked",
      "type": "event"
    },
    {
      "anonymous": false,
      "inputs": [
        {
          "indexed": true,
          "internalType": "address",
          "name": "owner",
          "type": "address"
        },
        {
          "indexed": true,
          "internalType": "uint256",
          "name": "txIndex",
          "type": "uint256"
        },
        {
          "indexed": true,
          "internalType": "address",
          "name": "to",
          "type": "address"
        },
        {
          "indexed": false,
          "internalType": "uint256",
          "name": "value",
          "type": "uint256"
        },
        {
          "indexed": false,
          "internalType": "uint256",
          "name": "method",
          "type": "uint256"
        }
      ],
      "name": "SubmitRequest",
      "type": "event"
    },
    {
      "anonymous": false,
      "inputs": [
        {
          "indexed": true,
          "internalType": "address",
          "name": "from",
          "type": "address"
        },
        {
          "indexed": true,
          "internalType": "address",
          "name": "to",
          "type": "address"
        },
        {
          "indexed": false,
          "internalType": "uint256",
          "name": "value",
          "type": "uint256"
        }
      ],
      "name": "Transfer",
      "type": "event"
    },
    {
      "anonymous": false,
      "inputs": [
        {
          "indexed": false,
          "internalType": "address",
          "name": "account",
          "type": "address"
        }
      ],
      "name": "Unpaused",
      "type": "event"
    },
    {
      "inputs": [],
      "name": "DEFAULT_ADMIN_ROLE",
      "outputs": [
        {
          "internalType": "bytes32",
          "name": "",
          "type": "bytes32"
        }
      ],
      "stateMutability": "view",
      "type": "function",
      "constant": true
    },
    {
      "inputs": [],
      "name": "MINTER_ROLE",
      "outputs": [
        {
          "internalType": "bytes32",
          "name": "",
          "type": "bytes32"
        }
      ],
      "stateMutability": "view",
      "type": "function",
      "constant": true
    },
    {
      "inputs": [],
      "name": "PAUSER_ROLE",
      "outputs": [
        {
          "internalType": "bytes32",
          "name": "",
          "type": "bytes32"
        }
      ],
      "stateMutability": "view",
      "type": "function",
      "constant": true
    },
    {
      "inputs": [
        {
          "internalType": "uint256",
          "name": "",
          "type": "uint256"
        }
      ],
      "name": "admins",
      "outputs": [
        {
          "internalType": "address",
          "name": "",
          "type": "address"
        }
      ],
      "stateMutability": "view",
      "type": "function",
      "constant": true
    },
    {
      "inputs": [
        {
          "internalType": "address",
          "name": "owner",
          "type": "address"
        },
        {
          "internalType": "address",
          "name": "spender",
          "type": "address"
        }
      ],
      "name": "allowance",
      "outputs": [
        {
          "internalType": "uint256",
          "name": "",
          "type": "uint256"
        }
      ],
      "stateMutability": "view",
      "type": "function",
      "constant": true
    },
    {
      "inputs": [
        {
          "internalType": "address",
          "name": "spender",
          "type": "address"
        },
        {
          "internalType": "uint256",
          "name": "amount",
          "type": "uint256"
        }
      ],
      "name": "approve",
      "outputs": [
        {
          "internalType": "bool",
          "name": "",
          "type": "bool"
        }
      ],
      "stateMutability": "nonpayable",
      "type": "function"
    },
    {
      "inputs": [
        {
          "internalType": "address",
          "name": "account",
          "type": "address"
        }
      ],
      "name": "balanceOf",
      "outputs": [
        {
          "internalType": "uint256",
          "name": "",
          "type": "uint256"
        }
      ],
      "stateMutability": "view",
      "type": "function",
      "constant": true
    },
    {
      "inputs": [
        {
          "internalType": "uint256",
          "name": "amount",
          "type": "uint256"
        }
      ],
      "name": "burn",
      "outputs": [],
      "stateMutability": "nonpayable",
      "type": "function"
    },
    {
      "inputs": [
        {
          "internalType": "address",
          "name": "account",
          "type": "address"
        },
        {
          "internalType": "uint256",
          "name": "amount",
          "type": "uint256"
        }
      ],
      "name": "burnFrom",
      "outputs": [],
      "stateMutability": "nonpayable",
      "type": "function"
    },
    {
      "inputs": [],
      "name": "decimals",
      "outputs": [
        {
          "internalType": "uint8",
          "name": "",
          "type": "uint8"
        }
      ],
      "stateMutability": "view",
      "type": "function",
      "constant": true
    },
    {
      "inputs": [
        {
          "internalType": "address",
          "name": "spender",
          "type": "address"
        },
        {
          "internalType": "uint256",
          "name": "subtractedValue",
          "type": "uint256"
        }
      ],
      "name": "decreaseAllowance",
      "outputs": [
        {
          "internalType": "bool",
          "name": "",
          "type": "bool"
        }
      ],
      "stateMutability": "nonpayable",
      "type": "function"
    },
    {
      "inputs": [
        {
          "internalType": "bytes32",
          "name": "role",
          "type": "bytes32"
        }
      ],
      "name": "getRoleAdmin",
      "outputs": [
        {
          "internalType": "bytes32",
          "name": "",
          "type": "bytes32"
        }
      ],
      "stateMutability": "view",
      "type": "function",
      "constant": true
    },
    {
      "inputs": [
        {
          "internalType": "bytes32",
          "name": "role",
          "type": "bytes32"
        },
        {
          "internalType": "uint256",
          "name": "index",
          "type": "uint256"
        }
      ],
      "name": "getRoleMember",
      "outputs": [
        {
          "internalType": "address",
          "name": "",
          "type": "address"
        }
      ],
      "stateMutability": "view",
      "type": "function",
      "constant": true
    },
    {
      "inputs": [
        {
          "internalType": "bytes32",
          "name": "role",
          "type": "bytes32"
        }
      ],
      "name": "getRoleMemberCount",
      "outputs": [
        {
          "internalType": "uint256",
          "name": "",
          "type": "uint256"
        }
      ],
      "stateMutability": "view",
      "type": "function",
      "constant": true
    },
    {
      "inputs": [
        {
          "internalType": "bytes32",
          "name": "role",
          "type": "bytes32"
        },
        {
          "internalType": "address",
          "name": "account",
          "type": "address"
        }
      ],
      "name": "grantRole",
      "outputs": [],
      "stateMutability": "nonpayable",
      "type": "function"
    },
    {
      "inputs": [
        {
          "internalType": "bytes32",
          "name": "role",
          "type": "bytes32"
        },
        {
          "internalType": "address",
          "name": "account",
          "type": "address"
        }
      ],
      "name": "hasRole",
      "outputs": [
        {
          "internalType": "bool",
          "name": "",
          "type": "bool"
        }
      ],
      "stateMutability": "view",
      "type": "function",
      "constant": true
    },
    {
      "inputs": [
        {
          "internalType": "address",
          "name": "spender",
          "type": "address"
        },
        {
          "internalType": "uint256",
          "name": "addedValue",
          "type": "uint256"
        }
      ],
      "name": "increaseAllowance",
      "outputs": [
        {
          "internalType": "bool",
          "name": "",
          "type": "bool"
        }
      ],
      "stateMutability": "nonpayable",
      "type": "function"
    },
    {
      "inputs": [],
      "name": "name",
      "outputs": [
        {
          "internalType": "string",
          "name": "",
          "type": "string"
        }
      ],
      "stateMutability": "view",
      "type": "function",
      "constant": true
    },
    {
      "inputs": [],
      "name": "numConfirmationsRequired",
      "outputs": [
        {
          "internalType": "uint256",
          "name": "",
          "type": "uint256"
        }
      ],
      "stateMutability": "view",
      "type": "function",
      "constant": true
    },
    {
      "inputs": [],
      "name": "pause",
      "outputs": [],
      "stateMutability": "nonpayable",
      "type": "function"
    },
    {
      "inputs": [],
      "name": "paused",
      "outputs": [
        {
          "internalType": "bool",
          "name": "",
          "type": "bool"
        }
      ],
      "stateMutability": "view",
      "type": "function",
      "constant": true
    },
    {
      "inputs": [
        {
          "internalType": "bytes32",
          "name": "role",
          "type": "bytes32"
        },
        {
          "internalType": "address",
          "name": "account",
          "type": "address"
        }
      ],
      "name": "renounceRole",
      "outputs": [],
      "stateMutability": "nonpayable",
      "type": "function"
    },
    {
      "inputs": [
        {
          "internalType": "uint256",
          "name": "",
          "type": "uint256"
        }
      ],
      "name": "requests",
      "outputs": [
        {
          "internalType": "address",
          "name": "from",
          "type": "address"
        },
        {
          "internalType": "address",
          "name": "to",
          "type": "address"
        },
        {
          "internalType": "uint256",
          "name": "value",
          "type": "uint256"
        },
        {
          "internalType": "uint256",
          "name": "method",
          "type": "uint256"
        },
        {
          "internalType": "bool",
          "name": "executed",
          "type": "bool"
        },
        {
          "internalType": "uint256",
          "name": "numConfirmations",
          "type": "uint256"
        }
      ],
      "stateMutability": "view",
      "type": "function",
      "constant": true
    },
    {
      "inputs": [
        {
          "internalType": "bytes32",
          "name": "role",
          "type": "bytes32"
        },
        {
          "internalType": "address",
          "name": "account",
          "type": "address"
        }
      ],
      "name": "revokeRole",
      "outputs": [],
      "stateMutability": "nonpayable",
      "type": "function"
    },
    {
      "inputs": [
        {
          "internalType": "bytes4",
          "name": "interfaceId",
          "type": "bytes4"
        }
      ],
      "name": "supportsInterface",
      "outputs": [
        {
          "internalType": "bool",
          "name": "",
          "type": "bool"
        }
      ],
      "stateMutability": "view",
      "type": "function",
      "constant": true
    },
    {
      "inputs": [],
      "name": "symbol",
      "outputs": [
        {
          "internalType": "string",
          "name": "",
          "type": "string"
        }
      ],
      "stateMutability": "view",
      "type": "function",
      "constant": true
    },
    {
      "inputs": [],
      "name": "totalSupply",
      "outputs": [
        {
          "internalType": "uint256",
          "name": "",
          "type": "uint256"
        }
      ],
      "stateMutability": "view",
      "type": "function",
      "constant": true
    },
    {
      "inputs": [
        {
          "internalType": "address",
          "name": "from",
          "type": "address"
        },
        {
          "internalType": "address",
          "name": "to",
          "type": "address"
        },
        {
          "internalType": "uint256",
          "name": "amount",
          "type": "uint256"
        }
      ],
      "name": "transferFrom",
      "outputs": [
        {
          "internalType": "bool",
          "name": "",
          "type": "bool"
        }
      ],
      "stateMutability": "nonpayable",
      "type": "function"
    },
    {
      "inputs": [],
      "name": "unpause",
      "outputs": [],
      "stateMutability": "nonpayable",
      "type": "function"
    },
    {
      "inputs": [
        {
          "internalType": "uint256",
          "name": "_reqIndex",
          "type": "uint256"
        }
      ],
      "name": "callerConfirmed",
      "outputs": [
        {
          "internalType": "uint256",
          "name": "",
          "type": "uint256"
        }
      ],
      "stateMutability": "view",
      "type": "function",
      "constant": true
    },
    {
      "inputs": [
        {
          "internalType": "string",
          "name": "name",
          "type": "string"
        },
        {
          "internalType": "string",
          "name": "symbol",
          "type": "string"
        }
      ],
      "name": "initialize",
      "outputs": [],
      "stateMutability": "nonpayable",
      "type": "function"
    },
    {
      "inputs": [
        {
          "internalType": "address[]",
          "name": "_admins",
          "type": "address[]"
        },
        {
          "internalType": "uint256",
          "name": "_numConfirmationsRequired",
          "type": "uint256"
        }
      ],
      "name": "initialize",
      "outputs": [],
      "stateMutability": "nonpayable",
      "type": "function"
    },
    {
      "inputs": [
        {
          "internalType": "address",
          "name": "to",
          "type": "address"
        },
        {
          "internalType": "uint256",
          "name": "amount",
          "type": "uint256"
        }
      ],
      "name": "mint",
      "outputs": [],
      "stateMutability": "nonpayable",
      "type": "function"
    },
    {
      "inputs": [
        {
          "internalType": "address",
          "name": "recipient",
          "type": "address"
        },
        {
          "internalType": "uint256",
          "name": "amount",
          "type": "uint256"
        }
      ],
      "name": "transfer",
      "outputs": [
        {
          "internalType": "bool",
          "name": "",
          "type": "bool"
        }
      ],
      "stateMutability": "nonpayable",
      "type": "function"
    },
    {
      "inputs": [],
      "name": "getTotalRequests",
      "outputs": [
        {
          "internalType": "uint256",
          "name": "",
          "type": "uint256"
        }
      ],
      "stateMutability": "view",
      "type": "function",
      "constant": true
    },
    {
      "inputs": [
        {
          "internalType": "uint256",
          "name": "_reqIndex",
          "type": "uint256"
        }
      ],
      "name": "requestDetails",
      "outputs": [
        {
          "internalType": "address",
          "name": "",
          "type": "address"
        },
        {
          "internalType": "address",
          "name": "",
          "type": "address"
        },
        {
          "internalType": "uint256",
          "name": "",
          "type": "uint256"
        },
        {
          "internalType": "uint256",
          "name": "",
          "type": "uint256"
        },
        {
          "internalType": "uint256",
          "name": "",
          "type": "uint256"
        },
        {
          "internalType": "bool",
          "name": "",
          "type": "bool"
        }
      ],
      "stateMutability": "view",
      "type": "function",
      "constant": true
    },
    {
      "inputs": [
        {
          "internalType": "address",
          "name": "_to",
          "type": "address"
        },
        {
          "internalType": "uint256",
          "name": "_value",
          "type": "uint256"
        },
        {
          "internalType": "uint256",
          "name": "_method",
          "type": "uint256"
        }
      ],
      "name": "submitRequest",
      "outputs": [],
      "stateMutability": "nonpayable",
      "type": "function"
    },
    {
      "inputs": [
        {
          "internalType": "uint256",
          "name": "_reqIndex",
          "type": "uint256"
        }
      ],
      "name": "confirmRequest",
      "outputs": [],
      "stateMutability": "nonpayable",
      "type": "function"
    },
    {
      "inputs": [
        {
          "internalType": "uint256",
          "name": "_reqIndex",
          "type": "uint256"
        }
      ],
      "name": "revokeConfirmRequest",
      "outputs": [],
      "stateMutability": "nonpayable",
      "type": "function"
    },
    {
      "inputs": [
        {
          "internalType": "uint256",
          "name": "_reqIndex",
          "type": "uint256"
        }
      ],
      "name": "executeRequest",
      "outputs": [],
      "stateMutability": "nonpayable",
      "type": "function"
    }
  ],
  "bytecode": "0x608060405234801561001057600080fd5b50615fc980620000216000396000f3fe608060405234801561001057600080fd5b50600436106102485760003560e01c806379cc67901161013b578063a9059cbb116100b8578063d547741f1161007c578063d547741f14610743578063dd62ed3e1461075f578063e63ab1e91461078f578063e835ea29146107ad578063f0e22d52146107c957610248565b8063a9059cbb14610672578063c2ba1316146106a2578063ca15c873146106d7578063d0549b8514610707578063d53913931461072557610248565b806391d14854116100ff57806391d14854146105ba57806395d89b41146105ea578063a217fddf14610608578063a457c2d714610626578063a6b2c4371461065657610248565b806379cc6790146104ff5780637c1859071461051b57806381d12c581461054b5780638456cb59146105805780639010d07c1461058a57610248565b806336568abe116101c95780634cd88b761161018d5780634cd88b761461045d5780635c975abb1461047957806360b5bb3f146104975780636e417c69146104b357806370a08231146104cf57610248565b806336568abe146103cf57806339509351146103eb5780633f4ba83a1461041b57806340c10f191461042557806342966c681461044157610248565b806318160ddd1161021057806318160ddd1461031757806323b872dd14610335578063248a9ca3146103655780632f2ff15d14610395578063313ce567146103b157610248565b806301ffc9a71461024d57806306fdde031461027d578063095ea7b31461029b57806314bfd6d0146102cb57806315580282146102fb575b600080fd5b61026760048036038101906102629190614598565b6107e7565b6040516102749190614d40565b60405180910390f35b610285610861565b6040516102929190614d91565b60405180910390f35b6102b560048036038101906102b09190614418565b6108f3565b6040516102c29190614d40565b60405180910390f35b6102e560048036038101906102e0919061462d565b610916565b6040516102f29190614c63565b60405180910390f35b61031560048036038101906103109190614454565b610956565b005b61031f610bcd565b60405161032c9190615213565b60405180910390f35b61034f600480360381019061034a91906143c9565b610bd7565b60405161035c9190614d40565b60405180910390f35b61037f600480360381019061037a91906144f7565b610c06565b60405161038c9190614d5b565b60405180910390f35b6103af60048036038101906103aa9190614520565b610c26565b005b6103b9610c47565b6040516103c69190615257565b60405180910390f35b6103e960048036038101906103e49190614520565b610c50565b005b61040560048036038101906104009190614418565b610cd3565b6040516104129190614d40565b60405180910390f35b610423610d0a565b005b61043f600480360381019061043a9190614418565b610d84565b005b61045b6004803603810190610456919061462d565b610ea6565b005b610477600480360381019061047291906145c1565b610eba565b005b610481610f52565b60405161048e9190614d40565b60405180910390f35b6104b160048036038101906104ac91906144a3565b610f6a565b005b6104cd60048036038101906104c8919061462d565b61143e565b005b6104e960048036038101906104e49190614364565b611b51565b6040516104f69190615213565b60405180910390f35b61051960048036038101906105149190614418565b611b9a565b005b6105356004803603810190610530919061462d565b611bba565b6040516105429190615213565b60405180910390f35b6105656004803603810190610560919061462d565b611d2b565b60405161057796959493929190614c7e565b60405180910390f35b610588611dc5565b005b6105a4600480360381019061059f919061455c565b611e3f565b6040516105b19190614c63565b60405180910390f35b6105d460048036038101906105cf9190614520565b611e6e565b6040516105e19190614d40565b60405180910390f35b6105f2611ed9565b6040516105ff9190614d91565b60405180910390f35b610610611f6b565b60405161061d9190614d5b565b60405180910390f35b610640600480360381019061063b9190614418565b611f72565b60405161064d9190614d40565b60405180910390f35b610670600480360381019061066b919061462d565b611fe9565b005b61068c60048036038101906106879190614418565b612159565b6040516106999190614d40565b60405180910390f35b6106bc60048036038101906106b7919061462d565b6121d4565b6040516106ce96959493929190614cdf565b60405180910390f35b6106f160048036038101906106ec91906144f7565b612415565b6040516106fe9190615213565b60405180910390f35b61070f612439565b60405161071c9190615213565b60405180910390f35b61072d612440565b60405161073a9190614d5b565b60405180910390f35b61075d60048036038101906107589190614520565b612464565b005b6107796004803603810190610774919061438d565b612485565b6040516107869190615213565b60405180910390f35b61079761250c565b6040516107a49190614d5b565b60405180910390f35b6107c760048036038101906107c2919061462d565b612530565b005b6107d161276d565b6040516107de9190615213565b60405180910390f35b60007f5a05180f000000000000000000000000000000000000000000000000000000007bffffffffffffffffffffffffffffffffffffffffffffffffffffffff1916827bffffffffffffffffffffffffffffffffffffffffffffffffffffffff1916148061085a575061085982612783565b5b9050919050565b606060cc805461087090615508565b80601f016020809104026020016040519081016040528092919081815260200182805461089c90615508565b80156108e95780601f106108be576101008083540402835291602001916108e9565b820191906000526020600020905b8154815290600101906020018083116108cc57829003601f168201915b5050505050905090565b6000806108fe6127fd565b905061090b818585612805565b600191505092915050565b6101c8818154811061092757600080fd5b906000526020600020016000915054906101000a900473ffffffffffffffffffffffffffffffffffffffff1681565b61095e6129d0565b630aba95008210801561097c5750600281148061097b5750600381145b5b156109bc576040517f08c379a00000000000000000000000000000000000000000000000000000000081526004016109b390615153565b60405180910390fd5b600a6101c78054905010806109d15750600681145b610a10576040517f08c379a0000000000000000000000000000000000000000000000000000000008152600401610a0790615013565b60405180910390fd5b60006101c76001816001815401808255809150500390600052602060002090600702019050338160000160006101000a81548173ffffffffffffffffffffffffffffffffffffffff021916908373ffffffffffffffffffffffffffffffffffffffff160217905550838160010160006101000a81548173ffffffffffffffffffffffffffffffffffffffff021916908373ffffffffffffffffffffffffffffffffffffffff16021790555082816002018190555081816003018190555060008160040160006101000a81548160ff02191690831515021790555080600501339080600181540180825580915050600190039060005260206000200160009091909190916101000a81548173ffffffffffffffffffffffffffffffffffffffff021916908373ffffffffffffffffffffffffffffffffffffffff160217905550600181600601819055508373ffffffffffffffffffffffffffffffffffffffff166101c7805490503373ffffffffffffffffffffffffffffffffffffffff167f54dfaf1400365d0bb0ffb12aa1987fa48da85db94f54bc3132a732ce2934e1678686604051610bbf92919061522e565b60405180910390a450505050565b600060cb54905090565b600080610be26127fd565b9050610bef858285612a1e565b610bfa858585612aaa565b60019150509392505050565b600060656000838152602001908152602001600020600101549050919050565b610c2f82610c06565b610c3881612d2e565b610c428383612d42565b505050565b60006012905090565b610c586127fd565b73ffffffffffffffffffffffffffffffffffffffff168173ffffffffffffffffffffffffffffffffffffffff1614610cc5576040517f08c379a0000000000000000000000000000000000000000000000000000000008152600401610cbc906151b3565b60405180910390fd5b610ccf8282612d76565b5050565b600080610cde6127fd565b9050610cff818585610cf08589612485565b610cfa919061531b565b612805565b600191505092915050565b610d3b7f65d7a28e3265b37a6474929f336521b332c1681b933f6cb9f3376673440d862a610d366127fd565b611e6e565b610d7a576040517f08c379a0000000000000000000000000000000000000000000000000000000008152600401610d7190614e93565b60405180910390fd5b610d82612daa565b565b610db57f9f2df0fed2c77648de5860a4cc508cd0818c85b8b8a1ab4ceeef8d981c8956a6610db06127fd565b611e6e565b610df4576040517f08c379a0000000000000000000000000000000000000000000000000000000008152600401610deb90614ff3565b60405180910390fd5b6101c35481610e01610bcd565b610e0b919061531b565b1115610e4c576040517f08c379a0000000000000000000000000000000000000000000000000000000008152600401610e43906150b3565b60405180910390fd5b69d3c21bcecceda10000008110610e98576040517f08c379a0000000000000000000000000000000000000000000000000000000008152600401610e8f90615053565b60405180910390fd5b610ea28282612e4d565b5050565b610eb7610eb16127fd565b82612fae565b50565b6000610ec66001613187565b90508015610eea576001600060016101000a81548160ff0219169083151502179055505b610ef48383613277565b8015610f4d5760008060016101000a81548160ff0219169083151502179055507f7f26b83ff96e1f2b6a682f133852f6798a09c465da95921460cefb38474024986001604051610f449190614d76565b60405180910390a15b505050565b600061012d60009054906101000a900460ff16905090565b6000610f766001613187565b90508015610f9a576001600060016101000a81548160ff0219169083151502179055505b61100e6040518060400160405280600681526020017f57414e44455200000000000000000000000000000000000000000000000000008152506040518060400160405280600781526020017f7057414e444552000000000000000000000000000000000000000000000000008152506132e6565b6b033b2e3c9fd0803ce80000006101c3819055506000835111611066576040517f08c379a000000000000000000000000000000000000000000000000000000000815260040161105d90614e53565b60405180910390fd5b600082118015611077575082518211155b6110b6576040517f08c379a00000000000000000000000000000000000000000000000000000000081526004016110ad90614f53565b60405180910390fd5b60005b83518110156113d757600073ffffffffffffffffffffffffffffffffffffffff16848281518110611113577f4e487b7100000000000000000000000000000000000000000000000000000000600052603260045260246000fd5b602002602001015173ffffffffffffffffffffffffffffffffffffffff161415611172576040517f08c379a000000000000000000000000000000000000000000000000000000000815260040161116990614fd3565b60405180910390fd5b6111bf6000801b8583815181106111b2577f4e487b7100000000000000000000000000000000000000000000000000000000600052603260045260246000fd5b6020026020010151611e6e565b156111ff576040517f08c379a00000000000000000000000000000000000000000000000000000000081526004016111f690614f13565b60405180910390fd5b61124c6000801b85838151811061123f577f4e487b7100000000000000000000000000000000000000000000000000000000600052603260045260246000fd5b6020026020010151613343565b6112b67f9f2df0fed2c77648de5860a4cc508cd0818c85b8b8a1ab4ceeef8d981c8956a68583815181106112a9577f4e487b7100000000000000000000000000000000000000000000000000000000600052603260045260246000fd5b6020026020010151613343565b6113207f65d7a28e3265b37a6474929f336521b332c1681b933f6cb9f3376673440d862a858381518110611313577f4e487b7100000000000000000000000000000000000000000000000000000000600052603260045260246000fd5b6020026020010151613343565b6101c884828151811061135c577f4e487b7100000000000000000000000000000000000000000000000000000000600052603260045260246000fd5b60200260200101519080600181540180825580915050600190039060005260206000200160009091909190916101000a81548173ffffffffffffffffffffffffffffffffffffffff021916908373ffffffffffffffffffffffffffffffffffffffff16021790555080806113cf9061556b565b9150506110b9565b50816101c98190555080156114395760008060016101000a81548160ff0219169083151502179055507f7f26b83ff96e1f2b6a682f133852f6798a09c465da95921460cefb384740249860016040516114309190614d76565b60405180910390a15b505050565b6114466129d0565b61144f81613351565b61145881613436565b60006101c78281548110611495577f4e487b7100000000000000000000000000000000000000000000000000000000600052603260045260246000fd5b90600052602060002090600702019050600081600301541415611679576114e36000801b8260010160009054906101000a900473ffffffffffffffffffffffffffffffffffffffff16611e6e565b15611523576040517f08c379a000000000000000000000000000000000000000000000000000000000815260040161151a90614f13565b60405180910390fd5b6101c88160010160009054906101000a900473ffffffffffffffffffffffffffffffffffffffff169080600181540180825580915050600190039060005260206000200160009091909190916101000a81548173ffffffffffffffffffffffffffffffffffffffff021916908373ffffffffffffffffffffffffffffffffffffffff1602179055506115dc6000801b8260010160009054906101000a900473ffffffffffffffffffffffffffffffffffffffff16613343565b61162a7f9f2df0fed2c77648de5860a4cc508cd0818c85b8b8a1ab4ceeef8d981c8956a68260010160009054906101000a900473ffffffffffffffffffffffffffffffffffffffff16613343565b6116787f65d7a28e3265b37a6474929f336521b332c1681b933f6cb9f3376673440d862a8260010160009054906101000a900473ffffffffffffffffffffffffffffffffffffffff16613343565b5b6001816003015414156119ef576101c9546101c88054905010156116d2576040517f08c379a00000000000000000000000000000000000000000000000000000000081526004016116c990614f93565b60405180910390fd5b60005b6101c8805490508111611920578160010160009054906101000a900473ffffffffffffffffffffffffffffffffffffffff1673ffffffffffffffffffffffffffffffffffffffff166101c88281548110611758577f4e487b7100000000000000000000000000000000000000000000000000000000600052603260045260246000fd5b9060005260206000200160009054906101000a900473ffffffffffffffffffffffffffffffffffffffff1673ffffffffffffffffffffffffffffffffffffffff16141561190d576101c860016101c8805490506117b591906153cb565b815481106117ec577f4e487b7100000000000000000000000000000000000000000000000000000000600052603260045260246000fd5b9060005260206000200160009054906101000a900473ffffffffffffffffffffffffffffffffffffffff166101c88281548110611852577f4e487b7100000000000000000000000000000000000000000000000000000000600052603260045260246000fd5b9060005260206000200160006101000a81548173ffffffffffffffffffffffffffffffffffffffff021916908373ffffffffffffffffffffffffffffffffffffffff1602179055506101c88054806118d3577f4e487b7100000000000000000000000000000000000000000000000000000000600052603160045260246000fd5b6001900381819060005260206000200160006101000a81549073ffffffffffffffffffffffffffffffffffffffff02191690559055611920565b80806119189061556b565b9150506116d5565b506119526000801b8260010160009054906101000a900473ffffffffffffffffffffffffffffffffffffffff16612d76565b6119a07f9f2df0fed2c77648de5860a4cc508cd0818c85b8b8a1ab4ceeef8d981c8956a68260010160009054906101000a900473ffffffffffffffffffffffffffffffffffffffff16612d76565b6119ee7f65d7a28e3265b37a6474929f336521b332c1681b933f6cb9f3376673440d862a8260010160009054906101000a900473ffffffffffffffffffffffffffffffffffffffff16612d76565b5b600281600301541415611a5457611a538160000160009054906101000a900473ffffffffffffffffffffffffffffffffffffffff168260010160009054906101000a900473ffffffffffffffffffffffffffffffffffffffff168360020154612aaa565b5b600381600301541415611a9457611a938160010160009054906101000a900473ffffffffffffffffffffffffffffffffffffffff168260020154612e4d565b5b600481600301541415611aaa57611aa96134cb565b5b600581600301541415611ac057611abf612daa565b5b60018160040160006101000a81548160ff021916908315150217905550813373ffffffffffffffffffffffffffffffffffffffff167f119b3523fa62a0fe2dbb45b4ce93fc0a99e589ec6d13b406f5ebee29119439c58360030154604051611b289190615213565b60405180910390a3600681600301541415611b4d576101c76000611b4c9190614089565b5b5050565b600060c960008373ffffffffffffffffffffffffffffffffffffffff1673ffffffffffffffffffffffffffffffffffffffff168152602001908152602001600020549050919050565b611bac82611ba66127fd565b83612a1e565b611bb68282612fae565b5050565b6000611bc46129d0565b60006064905060005b6101c78481548110611c08577f4e487b7100000000000000000000000000000000000000000000000000000000600052603260045260246000fd5b906000526020600020906007020160050180549050811015611d21573373ffffffffffffffffffffffffffffffffffffffff166101c78581548110611c76577f4e487b7100000000000000000000000000000000000000000000000000000000600052603260045260246000fd5b90600052602060002090600702016005018281548110611cbf577f4e487b7100000000000000000000000000000000000000000000000000000000600052603260045260246000fd5b9060005260206000200160009054906101000a900473ffffffffffffffffffffffffffffffffffffffff1673ffffffffffffffffffffffffffffffffffffffff161415611d0e57809150611d21565b8080611d199061556b565b915050611bcd565b5080915050919050565b6101c78181548110611d3c57600080fd5b90600052602060002090600702016000915090508060000160009054906101000a900473ffffffffffffffffffffffffffffffffffffffff16908060010160009054906101000a900473ffffffffffffffffffffffffffffffffffffffff16908060020154908060030154908060040160009054906101000a900460ff16908060060154905086565b611df67f65d7a28e3265b37a6474929f336521b332c1681b933f6cb9f3376673440d862a611df16127fd565b611e6e565b611e35576040517f08c379a0000000000000000000000000000000000000000000000000000000008152600401611e2c906150f3565b60405180910390fd5b611e3d6134cb565b565b6000611e66826097600086815260200190815260200160002061356f90919063ffffffff16565b905092915050565b60006065600084815260200190815260200160002060000160008373ffffffffffffffffffffffffffffffffffffffff1673ffffffffffffffffffffffffffffffffffffffff16815260200190815260200160002060009054906101000a900460ff16905092915050565b606060cd8054611ee890615508565b80601f0160208091040260200160405190810160405280929190818152602001828054611f1490615508565b8015611f615780601f10611f3657610100808354040283529160200191611f61565b820191906000526020600020905b815481529060010190602001808311611f4457829003601f168201915b5050505050905090565b6000801b81565b600080611f7d6127fd565b90506000611f8b8286612485565b905083811015611fd0576040517f08c379a0000000000000000000000000000000000000000000000000000000008152600401611fc790615193565b60405180910390fd5b611fdd8286868403612805565b60019250505092915050565b611ff16129d0565b611ffa81613351565b606461200582611bba565b14612045576040517f08c379a000000000000000000000000000000000000000000000000000000000815260040161203c90614e73565b60405180910390fd5b6101c78181548110612080577f4e487b7100000000000000000000000000000000000000000000000000000000600052603260045260246000fd5b9060005260206000209060070201600501339080600181540180825580915050600190039060005260206000200160009091909190916101000a81548173ffffffffffffffffffffffffffffffffffffffff021916908373ffffffffffffffffffffffffffffffffffffffff16021790555060016101c7828154811061212f577f4e487b7100000000000000000000000000000000000000000000000000000000600052603260045260246000fd5b9060005260206000209060070201600601600082825461214f919061531b565b9250508190555050565b60006121686000801b33611e6e565b80156121785750630aba95008210155b156121b8576040517f08c379a00000000000000000000000000000000000000000000000000000000081526004016121af90615053565b60405180910390fd5b6121ca6121c36127fd565b8484612aaa565b6001905092915050565b6000806000806000806121e56129d0565b6101c78781548110612220577f4e487b7100000000000000000000000000000000000000000000000000000000600052603260045260246000fd5b906000526020600020906007020160000160009054906101000a900473ffffffffffffffffffffffffffffffffffffffff166101c7888154811061228d577f4e487b7100000000000000000000000000000000000000000000000000000000600052603260045260246000fd5b906000526020600020906007020160010160009054906101000a900473ffffffffffffffffffffffffffffffffffffffff166101c789815481106122fa577f4e487b7100000000000000000000000000000000000000000000000000000000600052603260045260246000fd5b9060005260206000209060070201600201546101c78a81548110612347577f4e487b7100000000000000000000000000000000000000000000000000000000600052603260045260246000fd5b9060005260206000209060070201600301546101c78b81548110612394577f4e487b7100000000000000000000000000000000000000000000000000000000600052603260045260246000fd5b9060005260206000209060070201600601546101c78c815481106123e1577f4e487b7100000000000000000000000000000000000000000000000000000000600052603260045260246000fd5b906000526020600020906007020160040160009054906101000a900460ff1695509550955095509550955091939550919395565b600061243260976000848152602001908152602001600020613589565b9050919050565b6101c95481565b7f9f2df0fed2c77648de5860a4cc508cd0818c85b8b8a1ab4ceeef8d981c8956a681565b61246d82610c06565b61247681612d2e565b6124808383612d76565b505050565b600060ca60008473ffffffffffffffffffffffffffffffffffffffff1673ffffffffffffffffffffffffffffffffffffffff16815260200190815260200160002060008373ffffffffffffffffffffffffffffffffffffffff1673ffffffffffffffffffffffffffffffffffffffff16815260200190815260200160002054905092915050565b7f65d7a28e3265b37a6474929f336521b332c1681b933f6cb9f3376673440d862a81565b6125386129d0565b61254181613351565b600061254c82611bba565b90506064811415612592576040517f08c379a000000000000000000000000000000000000000000000000000000000815260040161258990614fb3565b60405180910390fd5b60006101c783815481106125cf577f4e487b7100000000000000000000000000000000000000000000000000000000600052603260045260246000fd5b9060005260206000209060070201905080600501600182600501805490506125f791906153cb565b8154811061262e577f4e487b7100000000000000000000000000000000000000000000000000000000600052603260045260246000fd5b9060005260206000200160009054906101000a900473ffffffffffffffffffffffffffffffffffffffff16816005018381548110612695577f4e487b7100000000000000000000000000000000000000000000000000000000600052603260045260246000fd5b9060005260206000200160006101000a81548173ffffffffffffffffffffffffffffffffffffffff021916908373ffffffffffffffffffffffffffffffffffffffff16021790555080600501805480612717577f4e487b7100000000000000000000000000000000000000000000000000000000600052603160045260246000fd5b6001900381819060005260206000200160006101000a81549073ffffffffffffffffffffffffffffffffffffffff02191690559055600181600601600082825461276191906153cb565b92505081905550505050565b60006127776129d0565b6101c780549050905090565b60007f7965db0b000000000000000000000000000000000000000000000000000000007bffffffffffffffffffffffffffffffffffffffffffffffffffffffff1916827bffffffffffffffffffffffffffffffffffffffffffffffffffffffff191614806127f657506127f58261359e565b5b9050919050565b600033905090565b600073ffffffffffffffffffffffffffffffffffffffff168373ffffffffffffffffffffffffffffffffffffffff161415612875576040517f08c379a000000000000000000000000000000000000000000000000000000000815260040161286c906150d3565b60405180910390fd5b600073ffffffffffffffffffffffffffffffffffffffff168273ffffffffffffffffffffffffffffffffffffffff1614156128e5576040517f08c379a00000000000000000000000000000000000000000000000000000000081526004016128dc90614eb3565b60405180910390fd5b8060ca60008573ffffffffffffffffffffffffffffffffffffffff1673ffffffffffffffffffffffffffffffffffffffff16815260200190815260200160002060008473ffffffffffffffffffffffffffffffffffffffff1673ffffffffffffffffffffffffffffffffffffffff168152602001908152602001600020819055508173ffffffffffffffffffffffffffffffffffffffff168373ffffffffffffffffffffffffffffffffffffffff167f8c5be1e5ebec7d5bd14f71427d1e84f3dd0314c0f7b2291e5b200ac8c7c3b925836040516129c39190615213565b60405180910390a3505050565b6129dd6000801b33611e6e565b612a1c576040517f08c379a0000000000000000000000000000000000000000000000000000000008152600401612a1390615133565b60405180910390fd5b565b6000612a2a8484612485565b90507fffffffffffffffffffffffffffffffffffffffffffffffffffffffffffffffff8114612aa45781811015612a96576040517f08c379a0000000000000000000000000000000000000000000000000000000008152600401612a8d90614ed3565b60405180910390fd5b612aa38484848403612805565b5b50505050565b600073ffffffffffffffffffffffffffffffffffffffff168373ffffffffffffffffffffffffffffffffffffffff161415612b1a576040517f08c379a0000000000000000000000000000000000000000000000000000000008152600401612b1190615073565b60405180910390fd5b600073ffffffffffffffffffffffffffffffffffffffff168273ffffffffffffffffffffffffffffffffffffffff161415612b8a576040517f08c379a0000000000000000000000000000000000000000000000000000000008152600401612b8190614dd3565b60405180910390fd5b612b95838383613608565b600060c960008573ffffffffffffffffffffffffffffffffffffffff1673ffffffffffffffffffffffffffffffffffffffff16815260200190815260200160002054905081811015612c1c576040517f08c379a0000000000000000000000000000000000000000000000000000000008152600401612c1390614ef3565b60405180910390fd5b81810360c960008673ffffffffffffffffffffffffffffffffffffffff1673ffffffffffffffffffffffffffffffffffffffff168152602001908152602001600020819055508160c960008573ffffffffffffffffffffffffffffffffffffffff1673ffffffffffffffffffffffffffffffffffffffff1681526020019081526020016000206000828254612cb1919061531b565b925050819055508273ffffffffffffffffffffffffffffffffffffffff168473ffffffffffffffffffffffffffffffffffffffff167fddf252ad1be2c89b69c2b068fc378daa952ba7f163c4a11628f55a4df523b3ef84604051612d159190615213565b60405180910390a3612d28848484613618565b50505050565b612d3f81612d3a6127fd565b61361d565b50565b612d4c82826136ba565b612d71816097600085815260200190815260200160002061379b90919063ffffffff16565b505050565b612d8082826137cb565b612da581609760008581526020019081526020016000206138ad90919063ffffffff16565b505050565b612db2610f52565b612df1576040517f08c379a0000000000000000000000000000000000000000000000000000000008152600401612de890614df3565b60405180910390fd5b600061012d60006101000a81548160ff0219169083151502179055507f5db9ee0a495bf2e6ff9c91a7834c1ba4fdd244a5e8aa4e537bd38aeae4b073aa612e366127fd565b604051612e439190614c63565b60405180910390a1565b600073ffffffffffffffffffffffffffffffffffffffff168273ffffffffffffffffffffffffffffffffffffffff161415612ebd576040517f08c379a0000000000000000000000000000000000000000000000000000000008152600401612eb4906151d3565b60405180910390fd5b612ec960008383613608565b8060cb6000828254612edb919061531b565b925050819055508060c960008473ffffffffffffffffffffffffffffffffffffffff1673ffffffffffffffffffffffffffffffffffffffff1681526020019081526020016000206000828254612f31919061531b565b925050819055508173ffffffffffffffffffffffffffffffffffffffff16600073ffffffffffffffffffffffffffffffffffffffff167fddf252ad1be2c89b69c2b068fc378daa952ba7f163c4a11628f55a4df523b3ef83604051612f969190615213565b60405180910390a3612faa60008383613618565b5050565b600073ffffffffffffffffffffffffffffffffffffffff168273ffffffffffffffffffffffffffffffffffffffff16141561301e576040517f08c379a000000000000000000000000000000000000000000000000000000000815260040161301590615033565b60405180910390fd5b61302a82600083613608565b600060c960008473ffffffffffffffffffffffffffffffffffffffff1673ffffffffffffffffffffffffffffffffffffffff168152602001908152602001600020549050818110156130b1576040517f08c379a00000000000000000000000000000000000000000000000000000000081526004016130a890614e33565b60405180910390fd5b81810360c960008573ffffffffffffffffffffffffffffffffffffffff1673ffffffffffffffffffffffffffffffffffffffff168152602001908152602001600020819055508160cb600082825461310991906153cb565b92505081905550600073ffffffffffffffffffffffffffffffffffffffff168373ffffffffffffffffffffffffffffffffffffffff167fddf252ad1be2c89b69c2b068fc378daa952ba7f163c4a11628f55a4df523b3ef8460405161316e9190615213565b60405180910390a361318283600084613618565b505050565b60008060019054906101000a900460ff16156131fe5760018260ff161480156131b657506131b4306138dd565b155b6131f5576040517f08c379a00000000000000000000000000000000000000000000000000000000081526004016131ec90614f73565b60405180910390fd5b60009050613272565b8160ff1660008054906101000a900460ff1660ff1610613253576040517f08c379a000000000000000000000000000000000000000000000000000000000815260040161324a90614f73565b60405180910390fd5b816000806101000a81548160ff021916908360ff160217905550600190505b919050565b600060019054906101000a900460ff166132c6576040517f08c379a00000000000000000000000000000000000000000000000000000000081526004016132bd90615113565b60405180910390fd5b6132d08282613900565b6132d8613981565b6132e282826139ee565b5050565b600060019054906101000a900460ff16613335576040517f08c379a000000000000000000000000000000000000000000000000000000000815260040161332c90615113565b60405180910390fd5b61333f8282613900565b5050565b61334d8282612d42565b5050565b6101c7805490508110613399576040517f08c379a000000000000000000000000000000000000000000000000000000000815260040161339090614e13565b60405180910390fd5b6101c781815481106133d4577f4e487b7100000000000000000000000000000000000000000000000000000000600052603260045260246000fd5b906000526020600020906007020160040160009054906101000a900460ff1615613433576040517f08c379a000000000000000000000000000000000000000000000000000000000815260040161342a90615093565b60405180910390fd5b50565b6101c9546101c78281548110613475577f4e487b7100000000000000000000000000000000000000000000000000000000600052603260045260246000fd5b90600052602060002090600702016006015410156134c8576040517f08c379a00000000000000000000000000000000000000000000000000000000081526004016134bf90615173565b60405180910390fd5b50565b6134d3610f52565b15613513576040517f08c379a000000000000000000000000000000000000000000000000000000000815260040161350a90614f33565b60405180910390fd5b600161012d60006101000a81548160ff0219169083151502179055507f62e78cea01bee320cd4e420270b5ea74000d11b0c9f74754ebdbfc544b05a2586135586127fd565b6040516135659190614c63565b60405180910390a1565b600061357e8360000183613ab7565b60001c905092915050565b600061359782600001613b08565b9050919050565b60007f01ffc9a7000000000000000000000000000000000000000000000000000000007bffffffffffffffffffffffffffffffffffffffffffffffffffffffff1916827bffffffffffffffffffffffffffffffffffffffffffffffffffffffff1916149050919050565b613613838383613b19565b505050565b505050565b6136278282611e6e565b6136b65761364c8173ffffffffffffffffffffffffffffffffffffffff166014613b71565b61365a8360001c6020613b71565b60405160200161366b929190614c29565b6040516020818303038152906040526040517f08c379a00000000000000000000000000000000000000000000000000000000081526004016136ad9190614d91565b60405180910390fd5b5050565b6136c48282611e6e565b6137975760016065600084815260200190815260200160002060000160008373ffffffffffffffffffffffffffffffffffffffff1673ffffffffffffffffffffffffffffffffffffffff16815260200190815260200160002060006101000a81548160ff02191690831515021790555061373c6127fd565b73ffffffffffffffffffffffffffffffffffffffff168173ffffffffffffffffffffffffffffffffffffffff16837f2f8788117e7eff1d82e926ec794901d17c78024a50270940304540a733656f0d60405160405180910390a45b5050565b60006137c3836000018373ffffffffffffffffffffffffffffffffffffffff1660001b613e6b565b905092915050565b6137d58282611e6e565b156138a95760006065600084815260200190815260200160002060000160008373ffffffffffffffffffffffffffffffffffffffff1673ffffffffffffffffffffffffffffffffffffffff16815260200190815260200160002060006101000a81548160ff02191690831515021790555061384e6127fd565b73ffffffffffffffffffffffffffffffffffffffff168173ffffffffffffffffffffffffffffffffffffffff16837ff6391f5c32d9c69d2a47ea670b442974b53935d1edc7fd64eb21e047a839171b60405160405180910390a45b5050565b60006138d5836000018373ffffffffffffffffffffffffffffffffffffffff1660001b613edb565b905092915050565b6000808273ffffffffffffffffffffffffffffffffffffffff163b119050919050565b600060019054906101000a900460ff1661394f576040517f08c379a000000000000000000000000000000000000000000000000000000000815260040161394690615113565b60405180910390fd5b8160cc90805190602001906139659291906140ad565b508060cd908051906020019061397c9291906140ad565b505050565b600060019054906101000a900460ff166139d0576040517f08c379a00000000000000000000000000000000000000000000000000000000081526004016139c790615113565b60405180910390fd5b600061012d60006101000a81548160ff021916908315150217905550565b600060019054906101000a900460ff16613a3d576040517f08c379a0000000000000000000000000000000000000000000000000000000008152600401613a3490615113565b60405180910390fd5b613a516000801b613a4c6127fd565b613343565b613a827f9f2df0fed2c77648de5860a4cc508cd0818c85b8b8a1ab4ceeef8d981c8956a6613a7d6127fd565b613343565b613ab37f65d7a28e3265b37a6474929f336521b332c1681b933f6cb9f3376673440d862a613aae6127fd565b613343565b5050565b6000826000018281548110613af5577f4e487b7100000000000000000000000000000000000000000000000000000000600052603260045260246000fd5b9060005260206000200154905092915050565b600081600001805490509050919050565b613b24838383614061565b613b2c610f52565b15613b6c576040517f08c379a0000000000000000000000000000000000000000000000000000000008152600401613b63906151f3565b60405180910390fd5b505050565b606060006002836002613b849190615371565b613b8e919061531b565b67ffffffffffffffff811115613bcd577f4e487b7100000000000000000000000000000000000000000000000000000000600052604160045260246000fd5b6040519080825280601f01601f191660200182016040528015613bff5781602001600182028036833780820191505090505b5090507f300000000000000000000000000000000000000000000000000000000000000081600081518110613c5d577f4e487b7100000000000000000000000000000000000000000000000000000000600052603260045260246000fd5b60200101907effffffffffffffffffffffffffffffffffffffffffffffffffffffffffffff1916908160001a9053507f780000000000000000000000000000000000000000000000000000000000000081600181518110613ce7577f4e487b7100000000000000000000000000000000000000000000000000000000600052603260045260246000fd5b60200101907effffffffffffffffffffffffffffffffffffffffffffffffffffffffffffff1916908160001a90535060006001846002613d279190615371565b613d31919061531b565b90505b6001811115613e1d577f3031323334353637383961626364656600000000000000000000000000000000600f861660108110613d99577f4e487b7100000000000000000000000000000000000000000000000000000000600052603260045260246000fd5b1a60f81b828281518110613dd6577f4e487b7100000000000000000000000000000000000000000000000000000000600052603260045260246000fd5b60200101907effffffffffffffffffffffffffffffffffffffffffffffffffffffffffffff1916908160001a905350600485901c945080613e16906154de565b9050613d34565b5060008414613e61576040517f08c379a0000000000000000000000000000000000000000000000000000000008152600401613e5890614db3565b60405180910390fd5b8091505092915050565b6000613e778383614066565b613ed0578260000182908060018154018082558091505060019003906000526020600020016000909190919091505582600001805490508360010160008481526020019081526020016000208190555060019050613ed5565b600090505b92915050565b60008083600101600084815260200190815260200160002054905060008114614055576000600182613f0d91906153cb565b9050600060018660000180549050613f2591906153cb565b9050818114613fe0576000866000018281548110613f6c577f4e487b7100000000000000000000000000000000000000000000000000000000600052603260045260246000fd5b9060005260206000200154905080876000018481548110613fb6577f4e487b7100000000000000000000000000000000000000000000000000000000600052603260045260246000fd5b90600052602060002001819055508387600101600083815260200190815260200160002081905550505b8560000180548061401a577f4e487b7100000000000000000000000000000000000000000000000000000000600052603160045260246000fd5b60019003818190600052602060002001600090559055856001016000868152602001908152602001600020600090556001935050505061405b565b60009150505b92915050565b505050565b600080836001016000848152602001908152602001600020541415905092915050565b50805460008255600702906000526020600020908101906140aa9190614133565b50565b8280546140b990615508565b90600052602060002090601f0160209004810192826140db5760008555614122565b82601f106140f457805160ff1916838001178555614122565b82800160010185558215614122579182015b82811115614121578251825591602001919060010190614106565b5b50905061412f91906141d4565b5090565b5b808211156141d057600080820160006101000a81549073ffffffffffffffffffffffffffffffffffffffff02191690556001820160006101000a81549073ffffffffffffffffffffffffffffffffffffffff0219169055600282016000905560038201600090556004820160006101000a81549060ff02191690556005820160006141bf91906141f1565b600682016000905550600701614134565b5090565b5b808211156141ed5760008160009055506001016141d5565b5090565b508054600082559060005260206000209081019061420f91906141d4565b50565b600061422561422084615297565b615272565b9050808382526020820190508285602086028201111561424457600080fd5b60005b85811015614274578161425a88826142bc565b845260208401935060208301925050600181019050614247565b5050509392505050565b600061429161428c846152c3565b615272565b9050828152602081018484840111156142a957600080fd5b6142b484828561549c565b509392505050565b6000813590506142cb81615f37565b92915050565b600082601f8301126142e257600080fd5b81356142f2848260208601614212565b91505092915050565b60008135905061430a81615f4e565b92915050565b60008135905061431f81615f65565b92915050565b600082601f83011261433657600080fd5b813561434684826020860161427e565b91505092915050565b60008135905061435e81615f7c565b92915050565b60006020828403121561437657600080fd5b6000614384848285016142bc565b91505092915050565b600080604083850312156143a057600080fd5b60006143ae858286016142bc565b92505060206143bf858286016142bc565b9150509250929050565b6000806000606084860312156143de57600080fd5b60006143ec868287016142bc565b93505060206143fd868287016142bc565b925050604061440e8682870161434f565b9150509250925092565b6000806040838503121561442b57600080fd5b6000614439858286016142bc565b925050602061444a8582860161434f565b9150509250929050565b60008060006060848603121561446957600080fd5b6000614477868287016142bc565b93505060206144888682870161434f565b92505060406144998682870161434f565b9150509250925092565b600080604083850312156144b657600080fd5b600083013567ffffffffffffffff8111156144d057600080fd5b6144dc858286016142d1565b92505060206144ed8582860161434f565b9150509250929050565b60006020828403121561450957600080fd5b6000614517848285016142fb565b91505092915050565b6000806040838503121561453357600080fd5b6000614541858286016142fb565b9250506020614552858286016142bc565b9150509250929050565b6000806040838503121561456f57600080fd5b600061457d858286016142fb565b925050602061458e8582860161434f565b9150509250929050565b6000602082840312156145aa57600080fd5b60006145b884828501614310565b91505092915050565b600080604083850312156145d457600080fd5b600083013567ffffffffffffffff8111156145ee57600080fd5b6145fa85828601614325565b925050602083013567ffffffffffffffff81111561461757600080fd5b61462385828601614325565b9150509250929050565b60006020828403121561463f57600080fd5b600061464d8482850161434f565b91505092915050565b61465f816153ff565b82525050565b61466e81615411565b82525050565b61467d8161541d565b82525050565b61468c8161548a565b82525050565b600061469d826152f4565b6146a781856152ff565b93506146b78185602086016154ab565b6146c081615641565b840191505092915050565b60006146d6826152f4565b6146e08185615310565b93506146f08185602086016154ab565b80840191505092915050565b60006147096020836152ff565b915061471482615652565b602082019050919050565b600061472c6023836152ff565b91506147378261567b565b604082019050919050565b600061474f6014836152ff565b915061475a826156ca565b602082019050919050565b60006147726016836152ff565b915061477d826156f3565b602082019050919050565b60006147956022836152ff565b91506147a08261571c565b604082019050919050565b60006147b8601d836152ff565b91506147c38261576b565b602082019050919050565b60006147db6010836152ff565b91506147e682615794565b602082019050919050565b60006147fe6039836152ff565b9150614809826157bd565b604082019050919050565b60006148216022836152ff565b915061482c8261580c565b604082019050919050565b6000614844601d836152ff565b915061484f8261585b565b602082019050919050565b60006148676026836152ff565b915061487282615884565b604082019050919050565b600061488a601e836152ff565b9150614895826158d3565b602082019050919050565b60006148ad6010836152ff565b91506148b8826158fc565b602082019050919050565b60006148d0601f836152ff565b91506148db82615925565b602082019050919050565b60006148f3602e836152ff565b91506148fe8261594e565b604082019050919050565b60006149166027836152ff565b91506149218261599d565b604082019050919050565b60006149396011836152ff565b9150614944826159ec565b602082019050919050565b600061495c601c836152ff565b915061496782615a15565b602082019050919050565b600061497f6036836152ff565b915061498a82615a3e565b604082019050919050565b60006149a2602a836152ff565b91506149ad82615a8d565b604082019050919050565b60006149c56021836152ff565b91506149d082615adc565b604082019050919050565b60006149e86023836152ff565b91506149f382615b2b565b604082019050919050565b6000614a0b6025836152ff565b9150614a1682615b7a565b604082019050919050565b6000614a2e6013836152ff565b9150614a3982615bc9565b602082019050919050565b6000614a516019836152ff565b9150614a5c82615bf2565b602082019050919050565b6000614a746024836152ff565b9150614a7f82615c1b565b604082019050919050565b6000614a976037836152ff565b9150614aa282615c6a565b604082019050919050565b6000614aba602b836152ff565b9150614ac582615cb9565b604082019050919050565b6000614add601783615310565b9150614ae882615d08565b601782019050919050565b6000614b006009836152ff565b9150614b0b82615d31565b602082019050919050565b6000614b236027836152ff565b9150614b2e82615d5a565b604082019050919050565b6000614b466026836152ff565b9150614b5182615da9565b604082019050919050565b6000614b696025836152ff565b9150614b7482615df8565b604082019050919050565b6000614b8c601183615310565b9150614b9782615e47565b601182019050919050565b6000614baf602f836152ff565b9150614bba82615e70565b604082019050919050565b6000614bd2601f836152ff565b9150614bdd82615ebf565b602082019050919050565b6000614bf5602a836152ff565b9150614c0082615ee8565b604082019050919050565b614c1481615473565b82525050565b614c238161547d565b82525050565b6000614c3482614ad0565b9150614c4082856146cb565b9150614c4b82614b7f565b9150614c5782846146cb565b91508190509392505050565b6000602082019050614c786000830184614656565b92915050565b600060c082019050614c936000830189614656565b614ca06020830188614656565b614cad6040830187614c0b565b614cba6060830186614c0b565b614cc76080830185614665565b614cd460a0830184614c0b565b979650505050505050565b600060c082019050614cf46000830189614656565b614d016020830188614656565b614d0e6040830187614c0b565b614d1b6060830186614c0b565b614d286080830185614c0b565b614d3560a0830184614665565b979650505050505050565b6000602082019050614d556000830184614665565b92915050565b6000602082019050614d706000830184614674565b92915050565b6000602082019050614d8b6000830184614683565b92915050565b60006020820190508181036000830152614dab8184614692565b905092915050565b60006020820190508181036000830152614dcc816146fc565b9050919050565b60006020820190508181036000830152614dec8161471f565b9050919050565b60006020820190508181036000830152614e0c81614742565b9050919050565b60006020820190508181036000830152614e2c81614765565b9050919050565b60006020820190508181036000830152614e4c81614788565b9050919050565b60006020820190508181036000830152614e6c816147ab565b9050919050565b60006020820190508181036000830152614e8c816147ce565b9050919050565b60006020820190508181036000830152614eac816147f1565b9050919050565b60006020820190508181036000830152614ecc81614814565b9050919050565b60006020820190508181036000830152614eec81614837565b9050919050565b60006020820190508181036000830152614f0c8161485a565b9050919050565b60006020820190508181036000830152614f2c8161487d565b9050919050565b60006020820190508181036000830152614f4c816148a0565b9050919050565b60006020820190508181036000830152614f6c816148c3565b9050919050565b60006020820190508181036000830152614f8c816148e6565b9050919050565b60006020820190508181036000830152614fac81614909565b9050919050565b60006020820190508181036000830152614fcc8161492c565b9050919050565b60006020820190508181036000830152614fec8161494f565b9050919050565b6000602082019050818103600083015261500c81614972565b9050919050565b6000602082019050818103600083015261502c81614995565b9050919050565b6000602082019050818103600083015261504c816149b8565b9050919050565b6000602082019050818103600083015261506c816149db565b9050919050565b6000602082019050818103600083015261508c816149fe565b9050919050565b600060208201905081810360008301526150ac81614a21565b9050919050565b600060208201905081810360008301526150cc81614a44565b9050919050565b600060208201905081810360008301526150ec81614a67565b9050919050565b6000602082019050818103600083015261510c81614a8a565b9050919050565b6000602082019050818103600083015261512c81614aad565b9050919050565b6000602082019050818103600083015261514c81614af3565b9050919050565b6000602082019050818103600083015261516c81614b16565b9050919050565b6000602082019050818103600083015261518c81614b39565b9050919050565b600060208201905081810360008301526151ac81614b5c565b9050919050565b600060208201905081810360008301526151cc81614ba2565b9050919050565b600060208201905081810360008301526151ec81614bc5565b9050919050565b6000602082019050818103600083015261520c81614be8565b9050919050565b60006020820190506152286000830184614c0b565b92915050565b60006040820190506152436000830185614c0b565b6152506020830184614c0b565b9392505050565b600060208201905061526c6000830184614c1a565b92915050565b600061527c61528d565b9050615288828261553a565b919050565b6000604051905090565b600067ffffffffffffffff8211156152b2576152b1615612565b5b602082029050602081019050919050565b600067ffffffffffffffff8211156152de576152dd615612565b5b6152e782615641565b9050602081019050919050565b600081519050919050565b600082825260208201905092915050565b600081905092915050565b600061532682615473565b915061533183615473565b9250827fffffffffffffffffffffffffffffffffffffffffffffffffffffffffffffffff03821115615366576153656155b4565b5b828201905092915050565b600061537c82615473565b915061538783615473565b9250817fffffffffffffffffffffffffffffffffffffffffffffffffffffffffffffffff04831182151516156153c0576153bf6155b4565b5b828202905092915050565b60006153d682615473565b91506153e183615473565b9250828210156153f4576153f36155b4565b5b828203905092915050565b600061540a82615453565b9050919050565b60008115159050919050565b6000819050919050565b60007fffffffff0000000000000000000000000000000000000000000000000000000082169050919050565b600073ffffffffffffffffffffffffffffffffffffffff82169050919050565b6000819050919050565b600060ff82169050919050565b60006154958261547d565b9050919050565b82818337600083830152505050565b60005b838110156154c95780820151818401526020810190506154ae565b838111156154d8576000848401525b50505050565b60006154e982615473565b915060008214156154fd576154fc6155b4565b5b600182039050919050565b6000600282049050600182168061552057607f821691505b60208210811415615534576155336155e3565b5b50919050565b61554382615641565b810181811067ffffffffffffffff8211171561556257615561615612565b5b80604052505050565b600061557682615473565b91507fffffffffffffffffffffffffffffffffffffffffffffffffffffffffffffffff8214156155a9576155a86155b4565b5b600182019050919050565b7f4e487b7100000000000000000000000000000000000000000000000000000000600052601160045260246000fd5b7f4e487b7100000000000000000000000000000000000000000000000000000000600052602260045260246000fd5b7f4e487b7100000000000000000000000000000000000000000000000000000000600052604160045260246000fd5b6000601f19601f8301169050919050565b7f537472696e67733a20686578206c656e67746820696e73756666696369656e74600082015250565b7f45524332303a207472616e7366657220746f20746865207a65726f206164647260008201527f6573730000000000000000000000000000000000000000000000000000000000602082015250565b7f5061757361626c653a206e6f7420706175736564000000000000000000000000600082015250565b7f7265717565737420646f6573206e6f7420657869737400000000000000000000600082015250565b7f45524332303a206275726e20616d6f756e7420657863656564732062616c616e60008201527f6365000000000000000000000000000000000000000000000000000000000000602082015250565b7f6d6f7265207468616e2031206f776e6572206973207265717569726564000000600082015250565b7f72657120697320636f6e6669726d656400000000000000000000000000000000600082015250565b7f45524332305072657365744d696e7465725061757365723a206d75737420686160008201527f76652070617573657220726f6c6520746f20756e706175736500000000000000602082015250565b7f45524332303a20617070726f766520746f20746865207a65726f20616464726560008201527f7373000000000000000000000000000000000000000000000000000000000000602082015250565b7f45524332303a20696e73756666696369656e7420616c6c6f77616e6365000000600082015250565b7f45524332303a207472616e7366657220616d6f756e742065786365656473206260008201527f616c616e63650000000000000000000000000000000000000000000000000000602082015250565b7f61646472657373206861732061646d696e6973747261746f7220726f6c650000600082015250565b7f5061757361626c653a2070617573656400000000000000000000000000000000600082015250565b7f696e76616c6964206e756d626572206f6620636f6e6669726d6174696f6e7300600082015250565b7f496e697469616c697a61626c653a20636f6e747261637420697320616c72656160008201527f647920696e697469616c697a6564000000000000000000000000000000000000602082015250565b7f6d696e696d756d206f66206e756d626572206f662061646d696e73206172652060008201527f6e6f74206d657400000000000000000000000000000000000000000000000000602082015250565b7f726571206e6f7420636f6e6669726d6564000000000000000000000000000000600082015250565b7f6f776e65722063616e2774206265207468652030206164647265737300000000600082015250565b7f45524332305072657365744d696e7465725061757365723a206d75737420686160008201527f7665206d696e74657220726f6c6520746f206d696e7400000000000000000000602082015250565b7f636c6561722074686520706f6f6c206265666f7265207375626d697474696e6760008201527f2061206e6577206f6e6500000000000000000000000000000000000000000000602082015250565b7f45524332303a206275726e2066726f6d20746865207a65726f2061646472657360008201527f7300000000000000000000000000000000000000000000000000000000000000602082015250565b7f55736520746865207375626d6974207472616e73616374696f6e2066756e637460008201527f696f6e0000000000000000000000000000000000000000000000000000000000602082015250565b7f45524332303a207472616e736665722066726f6d20746865207a65726f20616460008201527f6472657373000000000000000000000000000000000000000000000000000000602082015250565b7f7265717565737420697320657865637574656400000000000000000000000000600082015250565b7f45524332304361707065643a2063617020657863656564656400000000000000600082015250565b7f45524332303a20617070726f76652066726f6d20746865207a65726f2061646460008201527f7265737300000000000000000000000000000000000000000000000000000000602082015250565b7f45524332305072657365744d696e7465725061757365723a206d75737420686160008201527f76652070617573657220726f6c6520746f207061757365000000000000000000602082015250565b7f496e697469616c697a61626c653a20636f6e7472616374206973206e6f74206960008201527f6e697469616c697a696e67000000000000000000000000000000000000000000602082015250565b7f416363657373436f6e74726f6c3a206163636f756e7420000000000000000000600082015250565b7f6e6f742061646d696e0000000000000000000000000000000000000000000000600082015250565b7f7573652074686520726567756c6172206d696e74206f72207472616e7366657260008201527f206d6574686f6400000000000000000000000000000000000000000000000000602082015250565b7f6c61636b20746865207265717569726564206e756d206f6620636f6e6669726d60008201527f6174696f6e730000000000000000000000000000000000000000000000000000602082015250565b7f45524332303a2064656372656173656420616c6c6f77616e63652062656c6f7760008201527f207a65726f000000000000000000000000000000000000000000000000000000602082015250565b7f206973206d697373696e6720726f6c6520000000000000000000000000000000600082015250565b7f416363657373436f6e74726f6c3a2063616e206f6e6c792072656e6f756e636560008201527f20726f6c657320666f722073656c660000000000000000000000000000000000602082015250565b7f45524332303a206d696e7420746f20746865207a65726f206164647265737300600082015250565b7f45524332305061757361626c653a20746f6b656e207472616e7366657220776860008201527f696c652070617573656400000000000000000000000000000000000000000000602082015250565b615f40816153ff565b8114615f4b57600080fd5b50565b615f578161541d565b8114615f6257600080fd5b50565b615f6e81615427565b8114615f7957600080fd5b50565b615f8581615473565b8114615f9057600080fd5b5056fea264697066735822122078dbceac650449f532ea8a4561d00405d19122e8a233b7770afb371c4655e8cc64736f6c63430008020033",
  "immutableReferences": {},
  "source": "// SPDX-License-Identifier: MIT\r\npragma solidity ^0.8.2;\r\n\r\nimport \"@openzeppelin/contracts-upgradeable/token/ERC20/presets/ERC20PresetMinterPauserUpgradeable.sol\";\r\nimport \"@openzeppelin/contracts-upgradeable/proxy/utils/Initializable.sol\";\r\n\r\ncontract WanderTokenPol is Initializable, ERC20PresetMinterPauserUpgradeable {\r\n    // Initializing the maximum supply of 1 billion to Wander token \r\n    uint256 private MAXSUPPLY;\r\n    string private _name;\r\n    string private _symbol;\r\n    uint8 private _decimals;\r\n\r\n    Request[] public requests;\r\n    address[] public admins;\r\n    uint public numConfirmationsRequired;\r\n\r\n     // Events emitted after the execution a request \r\n    event SubmitRequest(address indexed owner, uint indexed txIndex, address indexed to, uint value, uint method);\r\n    event ExecuteRequest(address indexed owner, uint indexed txIndex, uint method);\r\n\r\n    // Required variables\r\n    struct Request{\r\n        address from;\r\n        address to;\r\n        uint value;\r\n        uint method;\r\n        bool executed;\r\n        address[] confirmedAddress;\r\n        uint numConfirmations;\r\n    }\r\n\r\n    function _onlyAdmin() private view {\r\n        require(hasRole(DEFAULT_ADMIN_ROLE, msg.sender), \"not admin\");\r\n    }\r\n    \r\n    function _reqExistsAndNotExecuted(uint _reqIndex) private view {\r\n        require(_reqIndex < requests.length, \"request does not exist\");\r\n        require(!requests[_reqIndex].executed, \"request is executed\");\r\n    }\r\n\r\n    function _fullyConfirmed(uint _reqIndex) private view {\r\n        require(requests[_reqIndex].numConfirmations >= numConfirmationsRequired, \"lack the required num of confirmations\");\r\n    }\r\n\r\n    // Required Modifiers and Involving Function Acting as Modifiers\r\n    function callerConfirmed(uint _reqIndex) public view virtual returns(uint){\r\n        _onlyAdmin();\r\n        uint index = 100;   // Error counter, if it returns 100, then the address has not confirmed\r\n        for (uint i; i< requests[_reqIndex].confirmedAddress.length;i++){\r\n          if (requests[_reqIndex].confirmedAddress[i] == msg.sender){\r\n              index = i;\r\n              break;\r\n          }\r\n        }\r\n        return index;   // Return the index of the caller's address in the requests' array of confirm addresses\r\n    }\r\n\r\n    // // Replacement to Constructor\r\n    function initialize(address[] memory _admins, uint _numConfirmationsRequired) public initializer {\r\n        __ERC20_init(\"WANDER\", \"pWANDER\");\r\n        MAXSUPPLY = 1000000000 * 10 ** 18;\r\n        require(_admins.length > 0, \"more than 1 owner is required\");\r\n        require(_numConfirmationsRequired > 0 && _numConfirmationsRequired <= _admins.length, \"invalid number of confirmations\");\r\n        for (uint i = 0; i < _admins.length; i++){\r\n            require(_admins[i] != address(0), \"owner can't be the 0 address\");\r\n            require(!hasRole(DEFAULT_ADMIN_ROLE, _admins[i]), \"address has administrator role\");\r\n\r\n            _setupRole(DEFAULT_ADMIN_ROLE, _admins[i]);\r\n            _setupRole(MINTER_ROLE, _admins[i]);\r\n            _setupRole(PAUSER_ROLE, _admins[i]);\r\n            admins.push(_admins[i]);\r\n        }\r\n        numConfirmationsRequired = _numConfirmationsRequired;\r\n    }\r\n\r\n    function mint(address to, uint256 amount) public override virtual {\r\n        require(hasRole(MINTER_ROLE, _msgSender()), \"ERC20PresetMinterPauser: must have minter role to mint\");\r\n        require(ERC20Upgradeable.totalSupply() + amount <= MAXSUPPLY, \"ERC20Capped: cap exceeded\");\r\n        require(amount < 1000000 * 10 ** 18, \"Use the submit transaction function\");\r\n        _mint(to, amount);\r\n    }\r\n\r\n    function transfer(address recipient, uint256 amount) public virtual override returns (bool) {\r\n        require(!(hasRole(DEFAULT_ADMIN_ROLE, msg.sender) && amount >= 1000000 * 10 * 18), \"Use the submit transaction function\");\r\n        _transfer(_msgSender(), recipient, amount);\r\n        return true;\r\n    }\r\n\r\n     // Required Getter Methods\r\n    function getTotalRequests() public view virtual returns (uint256) {\r\n        _onlyAdmin();\r\n        return requests.length;\r\n    }\r\n    function requestDetails(uint256 _reqIndex) public view virtual returns (address, address, uint, uint, uint, bool) {\r\n        _onlyAdmin();\r\n        return(requests[_reqIndex].from,\r\n        requests[_reqIndex].to,\r\n        requests[_reqIndex].value, \r\n        requests[_reqIndex].method, \r\n        requests[_reqIndex].numConfirmations, \r\n        requests[_reqIndex].executed);\r\n    }\r\n\r\n    // Functions involved in the execution process of request\r\n    function submitRequest(address _to, uint _value, uint _method) public {\r\n        _onlyAdmin();\r\n        require(!(_value < 1000000 * 10 * 18 && ((_method == 2) || (_method == 3))), \"use the regular mint or transfer method\");\r\n        require((requests.length < 10 || _method == 6), \"clear the pool before submitting a new one\");\r\n        Request storage newRequest = requests.push();\r\n        newRequest.from = msg.sender; \r\n        newRequest.to = _to; \r\n        newRequest.value = _value;\r\n        newRequest.method = _method;\r\n        newRequest.executed = false;\r\n        newRequest.confirmedAddress.push(msg.sender);\r\n        newRequest.numConfirmations = 1;\r\n        emit SubmitRequest(msg.sender, requests.length, _to, _value, _method);\r\n    }\r\n    function confirmRequest(uint _reqIndex) public {\r\n        _onlyAdmin();\r\n        _reqExistsAndNotExecuted(_reqIndex);\r\n        require((callerConfirmed(_reqIndex) == 100), \"req is confirmed\");\r\n        requests[_reqIndex].confirmedAddress.push(msg.sender);\r\n        requests[_reqIndex].numConfirmations += 1;\r\n    }\r\n    function revokeConfirmRequest(uint _reqIndex) public {\r\n        _onlyAdmin();\r\n        _reqExistsAndNotExecuted(_reqIndex);\r\n        uint index = callerConfirmed(_reqIndex);\r\n        require((index != 100), \"req not confirmed\");\r\n        Request storage request = requests[_reqIndex];\r\n        request.confirmedAddress[index] = request.confirmedAddress[request.confirmedAddress.length-1];\r\n        request.confirmedAddress.pop();\r\n        request.numConfirmations -= 1;\r\n    }\r\n    function executeRequest(uint _reqIndex) public virtual {\r\n        _onlyAdmin();\r\n        _reqExistsAndNotExecuted(_reqIndex);\r\n        _fullyConfirmed(_reqIndex);\r\n        Request storage request = requests[_reqIndex];\r\n        if (request.method == 0) {\r\n            require(!hasRole(DEFAULT_ADMIN_ROLE, request.to), \"address has administrator role\");\r\n            admins.push(request.to);\r\n            _setupRole(DEFAULT_ADMIN_ROLE, request.to);\r\n            _setupRole(MINTER_ROLE, request.to);\r\n            _setupRole(PAUSER_ROLE, request.to);\r\n        }\r\n        if (request.method == 1) {\r\n            require(admins.length >= numConfirmationsRequired, \"minimum of number of admins are not met\");\r\n            for (uint i = 0; i <= admins.length; i++){\r\n                if (admins[i] == request.to){\r\n                    admins[i] = admins[admins.length-1];\r\n                    admins.pop();\r\n                    break;\r\n                }\r\n            }\r\n            _revokeRole(DEFAULT_ADMIN_ROLE, request.to);\r\n            _revokeRole(MINTER_ROLE, request.to);\r\n            _revokeRole(PAUSER_ROLE, request.to);\r\n        }\r\n        if (request.method == 2) {\r\n            _transfer(request.from, request.to, request.value);\r\n        }\r\n        if (request.method == 3) {\r\n            _mint(request.to,request.value);\r\n        }\r\n        if (request.method == 4) {\r\n            _pause();\r\n        }\r\n        if (request.method == 5) {\r\n            _unpause();\r\n        }\r\n        request.executed = true;\r\n        emit ExecuteRequest(msg.sender, _reqIndex, request.method);\r\n        if (request.method == 6) {\r\n            delete requests;  \r\n        }\r\n    }\r\n    \r\n}\r\n",
  "sourcePath": "C:\\Users\\steve\\Documents\\Steven's Documents\\Adactive Asia\\June 2022 Documentations\\WANDER_Upgradable_Truffle\\src\\contracts\\WanderTokenPol.sol",
  "compiler": {
    "name": "solc",
    "version": "0.8.2+commit.661d1103.Emscripten.clang"
  },
  "schemaVersion": "3.4.7",
  "updatedAt": "2022-06-28T10:16:39.565Z",
  "networkType": "ethereum",
  "devdoc": {
    "kind": "dev",
    "methods": {
      "allowance(address,address)": {
        "details": "See {IERC20-allowance}."
      },
      "approve(address,uint256)": {
        "details": "See {IERC20-approve}. NOTE: If `amount` is the maximum `uint256`, the allowance is not updated on `transferFrom`. This is semantically equivalent to an infinite approval. Requirements: - `spender` cannot be the zero address."
      },
      "balanceOf(address)": {
        "details": "See {IERC20-balanceOf}."
      },
      "burn(uint256)": {
        "details": "Destroys `amount` tokens from the caller. See {ERC20-_burn}."
      },
      "burnFrom(address,uint256)": {
        "details": "Destroys `amount` tokens from `account`, deducting from the caller's allowance. See {ERC20-_burn} and {ERC20-allowance}. Requirements: - the caller must have allowance for ``accounts``'s tokens of at least `amount`."
      },
      "decimals()": {
        "details": "Returns the number of decimals used to get its user representation. For example, if `decimals` equals `2`, a balance of `505` tokens should be displayed to a user as `5.05` (`505 / 10 ** 2`). Tokens usually opt for a value of 18, imitating the relationship between Ether and Wei. This is the value {ERC20} uses, unless this function is overridden; NOTE: This information is only used for _display_ purposes: it in no way affects any of the arithmetic of the contract, including {IERC20-balanceOf} and {IERC20-transfer}."
      },
      "decreaseAllowance(address,uint256)": {
        "details": "Atomically decreases the allowance granted to `spender` by the caller. This is an alternative to {approve} that can be used as a mitigation for problems described in {IERC20-approve}. Emits an {Approval} event indicating the updated allowance. Requirements: - `spender` cannot be the zero address. - `spender` must have allowance for the caller of at least `subtractedValue`."
      },
      "getRoleAdmin(bytes32)": {
        "details": "Returns the admin role that controls `role`. See {grantRole} and {revokeRole}. To change a role's admin, use {_setRoleAdmin}."
      },
      "getRoleMember(bytes32,uint256)": {
        "details": "Returns one of the accounts that have `role`. `index` must be a value between 0 and {getRoleMemberCount}, non-inclusive. Role bearers are not sorted in any particular way, and their ordering may change at any point. WARNING: When using {getRoleMember} and {getRoleMemberCount}, make sure you perform all queries on the same block. See the following https://forum.openzeppelin.com/t/iterating-over-elements-on-enumerableset-in-openzeppelin-contracts/2296[forum post] for more information."
      },
      "getRoleMemberCount(bytes32)": {
        "details": "Returns the number of accounts that have `role`. Can be used together with {getRoleMember} to enumerate all bearers of a role."
      },
      "grantRole(bytes32,address)": {
        "details": "Grants `role` to `account`. If `account` had not been already granted `role`, emits a {RoleGranted} event. Requirements: - the caller must have ``role``'s admin role."
      },
      "hasRole(bytes32,address)": {
        "details": "Returns `true` if `account` has been granted `role`."
      },
      "increaseAllowance(address,uint256)": {
        "details": "Atomically increases the allowance granted to `spender` by the caller. This is an alternative to {approve} that can be used as a mitigation for problems described in {IERC20-approve}. Emits an {Approval} event indicating the updated allowance. Requirements: - `spender` cannot be the zero address."
      },
      "mint(address,uint256)": {
        "details": "Creates `amount` new tokens for `to`. See {ERC20-_mint}. Requirements: - the caller must have the `MINTER_ROLE`."
      },
      "name()": {
        "details": "Returns the name of the token."
      },
      "pause()": {
        "details": "Pauses all token transfers. See {ERC20Pausable} and {Pausable-_pause}. Requirements: - the caller must have the `PAUSER_ROLE`."
      },
      "paused()": {
        "details": "Returns true if the contract is paused, and false otherwise."
      },
      "renounceRole(bytes32,address)": {
        "details": "Revokes `role` from the calling account. Roles are often managed via {grantRole} and {revokeRole}: this function's purpose is to provide a mechanism for accounts to lose their privileges if they are compromised (such as when a trusted device is misplaced). If the calling account had been revoked `role`, emits a {RoleRevoked} event. Requirements: - the caller must be `account`."
      },
      "revokeRole(bytes32,address)": {
        "details": "Revokes `role` from `account`. If `account` had been granted `role`, emits a {RoleRevoked} event. Requirements: - the caller must have ``role``'s admin role."
      },
      "supportsInterface(bytes4)": {
        "details": "See {IERC165-supportsInterface}."
      },
      "symbol()": {
        "details": "Returns the symbol of the token, usually a shorter version of the name."
      },
      "totalSupply()": {
        "details": "See {IERC20-totalSupply}."
      },
      "transferFrom(address,address,uint256)": {
        "details": "See {IERC20-transferFrom}. Emits an {Approval} event indicating the updated allowance. This is not required by the EIP. See the note at the beginning of {ERC20}. NOTE: Does not update the allowance if the current allowance is the maximum `uint256`. Requirements: - `from` and `to` cannot be the zero address. - `from` must have a balance of at least `amount`. - the caller must have allowance for ``from``'s tokens of at least `amount`."
      },
      "unpause()": {
        "details": "Unpauses all token transfers. See {ERC20Pausable} and {Pausable-_unpause}. Requirements: - the caller must have the `PAUSER_ROLE`."
      }
    },
    "version": 1
  },
  "userdoc": {
    "kind": "user",
    "methods": {},
    "version": 1
  }
}