{
  "contractName": "WanderTokenEth",
  "abi": [
    {
      "inputs": [
        {
          "internalType": "address[]",
          "name": "_admins",
          "type": "address[]"
        },
        {
          "internalType": "uint256",
          "name": "_numConfirmationsRequired",
          "type": "uint256"
        }
      ],
      "stateMutability": "nonpayable",
      "type": "constructor"
    },
    {
      "anonymous": false,
      "inputs": [
        {
          "indexed": true,
          "internalType": "address",
          "name": "owner",
          "type": "address"
        },
        {
          "indexed": true,
          "internalType": "address",
          "name": "spender",
          "type": "address"
        },
        {
          "indexed": false,
          "internalType": "uint256",
          "name": "value",
          "type": "uint256"
        }
      ],
      "name": "Approval",
      "type": "event"
    },
    {
      "anonymous": false,
      "inputs": [
        {
          "indexed": true,
          "internalType": "address",
          "name": "owner",
          "type": "address"
        },
        {
          "indexed": true,
          "internalType": "uint256",
          "name": "txIndex",
          "type": "uint256"
        },
        {
          "indexed": false,
          "internalType": "uint256",
          "name": "method",
          "type": "uint256"
        }
      ],
      "name": "ExecuteRequest",
      "type": "event"
    },
    {
      "anonymous": false,
      "inputs": [
        {
          "indexed": false,
          "internalType": "address",
          "name": "account",
          "type": "address"
        }
      ],
      "name": "Paused",
      "type": "event"
    },
    {
      "anonymous": false,
      "inputs": [
        {
          "indexed": true,
          "internalType": "bytes32",
          "name": "role",
          "type": "bytes32"
        },
        {
          "indexed": true,
          "internalType": "bytes32",
          "name": "previousAdminRole",
          "type": "bytes32"
        },
        {
          "indexed": true,
          "internalType": "bytes32",
          "name": "newAdminRole",
          "type": "bytes32"
        }
      ],
      "name": "RoleAdminChanged",
      "type": "event"
    },
    {
      "anonymous": false,
      "inputs": [
        {
          "indexed": true,
          "internalType": "bytes32",
          "name": "role",
          "type": "bytes32"
        },
        {
          "indexed": true,
          "internalType": "address",
          "name": "account",
          "type": "address"
        },
        {
          "indexed": true,
          "internalType": "address",
          "name": "sender",
          "type": "address"
        }
      ],
      "name": "RoleGranted",
      "type": "event"
    },
    {
      "anonymous": false,
      "inputs": [
        {
          "indexed": true,
          "internalType": "bytes32",
          "name": "role",
          "type": "bytes32"
        },
        {
          "indexed": true,
          "internalType": "address",
          "name": "account",
          "type": "address"
        },
        {
          "indexed": true,
          "internalType": "address",
          "name": "sender",
          "type": "address"
        }
      ],
      "name": "RoleRevoked",
      "type": "event"
    },
    {
      "anonymous": false,
      "inputs": [
        {
          "indexed": true,
          "internalType": "address",
          "name": "owner",
          "type": "address"
        },
        {
          "indexed": true,
          "internalType": "uint256",
          "name": "txIndex",
          "type": "uint256"
        },
        {
          "indexed": true,
          "internalType": "address",
          "name": "to",
          "type": "address"
        },
        {
          "indexed": false,
          "internalType": "uint256",
          "name": "value",
          "type": "uint256"
        },
        {
          "indexed": false,
          "internalType": "uint256",
          "name": "method",
          "type": "uint256"
        }
      ],
      "name": "SubmitRequest",
      "type": "event"
    },
    {
      "anonymous": false,
      "inputs": [
        {
          "indexed": true,
          "internalType": "address",
          "name": "from",
          "type": "address"
        },
        {
          "indexed": true,
          "internalType": "address",
          "name": "to",
          "type": "address"
        },
        {
          "indexed": false,
          "internalType": "uint256",
          "name": "value",
          "type": "uint256"
        }
      ],
      "name": "Transfer",
      "type": "event"
    },
    {
      "anonymous": false,
      "inputs": [
        {
          "indexed": false,
          "internalType": "address",
          "name": "account",
          "type": "address"
        }
      ],
      "name": "Unpaused",
      "type": "event"
    },
    {
      "inputs": [],
      "name": "DEFAULT_ADMIN_ROLE",
      "outputs": [
        {
          "internalType": "bytes32",
          "name": "",
          "type": "bytes32"
        }
      ],
      "stateMutability": "view",
      "type": "function"
    },
    {
      "inputs": [],
      "name": "MINTER_ROLE",
      "outputs": [
        {
          "internalType": "bytes32",
          "name": "",
          "type": "bytes32"
        }
      ],
      "stateMutability": "view",
      "type": "function"
    },
    {
      "inputs": [],
      "name": "PAUSER_ROLE",
      "outputs": [
        {
          "internalType": "bytes32",
          "name": "",
          "type": "bytes32"
        }
      ],
      "stateMutability": "view",
      "type": "function"
    },
    {
      "inputs": [
        {
          "internalType": "uint256",
          "name": "",
          "type": "uint256"
        }
      ],
      "name": "admins",
      "outputs": [
        {
          "internalType": "address",
          "name": "",
          "type": "address"
        }
      ],
      "stateMutability": "view",
      "type": "function"
    },
    {
      "inputs": [
        {
          "internalType": "address",
          "name": "owner",
          "type": "address"
        },
        {
          "internalType": "address",
          "name": "spender",
          "type": "address"
        }
      ],
      "name": "allowance",
      "outputs": [
        {
          "internalType": "uint256",
          "name": "",
          "type": "uint256"
        }
      ],
      "stateMutability": "view",
      "type": "function"
    },
    {
      "inputs": [
        {
          "internalType": "address",
          "name": "spender",
          "type": "address"
        },
        {
          "internalType": "uint256",
          "name": "amount",
          "type": "uint256"
        }
      ],
      "name": "approve",
      "outputs": [
        {
          "internalType": "bool",
          "name": "",
          "type": "bool"
        }
      ],
      "stateMutability": "nonpayable",
      "type": "function"
    },
    {
      "inputs": [
        {
          "internalType": "address",
          "name": "account",
          "type": "address"
        }
      ],
      "name": "balanceOf",
      "outputs": [
        {
          "internalType": "uint256",
          "name": "",
          "type": "uint256"
        }
      ],
      "stateMutability": "view",
      "type": "function"
    },
    {
      "inputs": [
        {
          "internalType": "uint256",
          "name": "amount",
          "type": "uint256"
        }
      ],
      "name": "burn",
      "outputs": [],
      "stateMutability": "nonpayable",
      "type": "function"
    },
    {
      "inputs": [
        {
          "internalType": "address",
          "name": "account",
          "type": "address"
        },
        {
          "internalType": "uint256",
          "name": "amount",
          "type": "uint256"
        }
      ],
      "name": "burnFrom",
      "outputs": [],
      "stateMutability": "nonpayable",
      "type": "function"
    },
    {
      "inputs": [],
      "name": "decimals",
      "outputs": [
        {
          "internalType": "uint8",
          "name": "",
          "type": "uint8"
        }
      ],
      "stateMutability": "view",
      "type": "function"
    },
    {
      "inputs": [
        {
          "internalType": "address",
          "name": "spender",
          "type": "address"
        },
        {
          "internalType": "uint256",
          "name": "subtractedValue",
          "type": "uint256"
        }
      ],
      "name": "decreaseAllowance",
      "outputs": [
        {
          "internalType": "bool",
          "name": "",
          "type": "bool"
        }
      ],
      "stateMutability": "nonpayable",
      "type": "function"
    },
    {
      "inputs": [
        {
          "internalType": "bytes32",
          "name": "role",
          "type": "bytes32"
        }
      ],
      "name": "getRoleAdmin",
      "outputs": [
        {
          "internalType": "bytes32",
          "name": "",
          "type": "bytes32"
        }
      ],
      "stateMutability": "view",
      "type": "function"
    },
    {
      "inputs": [
        {
          "internalType": "bytes32",
          "name": "role",
          "type": "bytes32"
        },
        {
          "internalType": "uint256",
          "name": "index",
          "type": "uint256"
        }
      ],
      "name": "getRoleMember",
      "outputs": [
        {
          "internalType": "address",
          "name": "",
          "type": "address"
        }
      ],
      "stateMutability": "view",
      "type": "function"
    },
    {
      "inputs": [
        {
          "internalType": "bytes32",
          "name": "role",
          "type": "bytes32"
        }
      ],
      "name": "getRoleMemberCount",
      "outputs": [
        {
          "internalType": "uint256",
          "name": "",
          "type": "uint256"
        }
      ],
      "stateMutability": "view",
      "type": "function"
    },
    {
      "inputs": [
        {
          "internalType": "bytes32",
          "name": "role",
          "type": "bytes32"
        },
        {
          "internalType": "address",
          "name": "account",
          "type": "address"
        }
      ],
      "name": "grantRole",
      "outputs": [],
      "stateMutability": "nonpayable",
      "type": "function"
    },
    {
      "inputs": [
        {
          "internalType": "bytes32",
          "name": "role",
          "type": "bytes32"
        },
        {
          "internalType": "address",
          "name": "account",
          "type": "address"
        }
      ],
      "name": "hasRole",
      "outputs": [
        {
          "internalType": "bool",
          "name": "",
          "type": "bool"
        }
      ],
      "stateMutability": "view",
      "type": "function"
    },
    {
      "inputs": [
        {
          "internalType": "address",
          "name": "spender",
          "type": "address"
        },
        {
          "internalType": "uint256",
          "name": "addedValue",
          "type": "uint256"
        }
      ],
      "name": "increaseAllowance",
      "outputs": [
        {
          "internalType": "bool",
          "name": "",
          "type": "bool"
        }
      ],
      "stateMutability": "nonpayable",
      "type": "function"
    },
    {
      "inputs": [
        {
          "internalType": "address",
          "name": "",
          "type": "address"
        }
      ],
      "name": "isAdmin",
      "outputs": [
        {
          "internalType": "bool",
          "name": "",
          "type": "bool"
        }
      ],
      "stateMutability": "view",
      "type": "function"
    },
    {
      "inputs": [
        {
          "internalType": "address",
          "name": "to",
          "type": "address"
        },
        {
          "internalType": "uint256",
          "name": "amount",
          "type": "uint256"
        }
      ],
      "name": "mint",
      "outputs": [],
      "stateMutability": "nonpayable",
      "type": "function"
    },
    {
      "inputs": [],
      "name": "name",
      "outputs": [
        {
          "internalType": "string",
          "name": "",
          "type": "string"
        }
      ],
      "stateMutability": "view",
      "type": "function"
    },
    {
      "inputs": [],
      "name": "numConfirmationsRequired",
      "outputs": [
        {
          "internalType": "uint256",
          "name": "",
          "type": "uint256"
        }
      ],
      "stateMutability": "view",
      "type": "function"
    },
    {
      "inputs": [],
      "name": "pause",
      "outputs": [],
      "stateMutability": "nonpayable",
      "type": "function"
    },
    {
      "inputs": [],
      "name": "paused",
      "outputs": [
        {
          "internalType": "bool",
          "name": "",
          "type": "bool"
        }
      ],
      "stateMutability": "view",
      "type": "function"
    },
    {
      "inputs": [
        {
          "internalType": "bytes32",
          "name": "role",
          "type": "bytes32"
        },
        {
          "internalType": "address",
          "name": "account",
          "type": "address"
        }
      ],
      "name": "renounceRole",
      "outputs": [],
      "stateMutability": "nonpayable",
      "type": "function"
    },
    {
      "inputs": [
        {
          "internalType": "uint256",
          "name": "",
          "type": "uint256"
        }
      ],
      "name": "requests",
      "outputs": [
        {
          "internalType": "address",
          "name": "from",
          "type": "address"
        },
        {
          "internalType": "address",
          "name": "to",
          "type": "address"
        },
        {
          "internalType": "uint256",
          "name": "value",
          "type": "uint256"
        },
        {
          "internalType": "uint256",
          "name": "method",
          "type": "uint256"
        },
        {
          "internalType": "bool",
          "name": "executed",
          "type": "bool"
        },
        {
          "internalType": "uint256",
          "name": "numConfirmations",
          "type": "uint256"
        }
      ],
      "stateMutability": "view",
      "type": "function"
    },
    {
      "inputs": [
        {
          "internalType": "bytes32",
          "name": "role",
          "type": "bytes32"
        },
        {
          "internalType": "address",
          "name": "account",
          "type": "address"
        }
      ],
      "name": "revokeRole",
      "outputs": [],
      "stateMutability": "nonpayable",
      "type": "function"
    },
    {
      "inputs": [
        {
          "internalType": "bytes4",
          "name": "interfaceId",
          "type": "bytes4"
        }
      ],
      "name": "supportsInterface",
      "outputs": [
        {
          "internalType": "bool",
          "name": "",
          "type": "bool"
        }
      ],
      "stateMutability": "view",
      "type": "function"
    },
    {
      "inputs": [],
      "name": "symbol",
      "outputs": [
        {
          "internalType": "string",
          "name": "",
          "type": "string"
        }
      ],
      "stateMutability": "view",
      "type": "function"
    },
    {
      "inputs": [],
      "name": "totalSupply",
      "outputs": [
        {
          "internalType": "uint256",
          "name": "",
          "type": "uint256"
        }
      ],
      "stateMutability": "view",
      "type": "function"
    },
    {
      "inputs": [
        {
          "internalType": "address",
          "name": "recipient",
          "type": "address"
        },
        {
          "internalType": "uint256",
          "name": "amount",
          "type": "uint256"
        }
      ],
      "name": "transfer",
      "outputs": [
        {
          "internalType": "bool",
          "name": "",
          "type": "bool"
        }
      ],
      "stateMutability": "nonpayable",
      "type": "function"
    },
    {
      "inputs": [
        {
          "internalType": "address",
          "name": "sender",
          "type": "address"
        },
        {
          "internalType": "address",
          "name": "recipient",
          "type": "address"
        },
        {
          "internalType": "uint256",
          "name": "amount",
          "type": "uint256"
        }
      ],
      "name": "transferFrom",
      "outputs": [
        {
          "internalType": "bool",
          "name": "",
          "type": "bool"
        }
      ],
      "stateMutability": "nonpayable",
      "type": "function"
    },
    {
      "inputs": [],
      "name": "unpause",
      "outputs": [],
      "stateMutability": "nonpayable",
      "type": "function"
    },
    {
      "inputs": [
        {
          "internalType": "uint256",
          "name": "_reqIndex",
          "type": "uint256"
        }
      ],
      "name": "callerConfirmed",
      "outputs": [
        {
          "internalType": "uint256",
          "name": "",
          "type": "uint256"
        }
      ],
      "stateMutability": "view",
      "type": "function"
    },
    {
      "inputs": [],
      "name": "getTotalRequests",
      "outputs": [
        {
          "internalType": "uint256",
          "name": "",
          "type": "uint256"
        }
      ],
      "stateMutability": "view",
      "type": "function"
    },
    {
      "inputs": [
        {
          "internalType": "uint256",
          "name": "_reqIndex",
          "type": "uint256"
        }
      ],
      "name": "requestDetails",
      "outputs": [
        {
          "internalType": "address",
          "name": "",
          "type": "address"
        },
        {
          "internalType": "address",
          "name": "",
          "type": "address"
        },
        {
          "internalType": "uint256",
          "name": "",
          "type": "uint256"
        },
        {
          "internalType": "uint256",
          "name": "",
          "type": "uint256"
        },
        {
          "internalType": "uint256",
          "name": "",
          "type": "uint256"
        },
        {
          "internalType": "bool",
          "name": "",
          "type": "bool"
        }
      ],
      "stateMutability": "view",
      "type": "function"
    },
    {
      "inputs": [
        {
          "internalType": "address",
          "name": "_to",
          "type": "address"
        },
        {
          "internalType": "uint256",
          "name": "_value",
          "type": "uint256"
        },
        {
          "internalType": "uint256",
          "name": "_method",
          "type": "uint256"
        }
      ],
      "name": "submitRequest",
      "outputs": [],
      "stateMutability": "nonpayable",
      "type": "function"
    },
    {
      "inputs": [
        {
          "internalType": "uint256",
          "name": "_reqIndex",
          "type": "uint256"
        }
      ],
      "name": "confirmRequest",
      "outputs": [],
      "stateMutability": "nonpayable",
      "type": "function"
    },
    {
      "inputs": [
        {
          "internalType": "uint256",
          "name": "_reqIndex",
          "type": "uint256"
        }
      ],
      "name": "revokeConfirmRequest",
      "outputs": [],
      "stateMutability": "nonpayable",
      "type": "function"
    },
    {
      "inputs": [
        {
          "internalType": "uint256",
          "name": "_reqIndex",
          "type": "uint256"
        }
      ],
      "name": "executeRequest",
      "outputs": [],
      "stateMutability": "nonpayable",
      "type": "function"
    },
    {
      "inputs": [
        {
          "internalType": "address",
          "name": "_newAdmin",
          "type": "address"
        },
        {
          "internalType": "uint256",
          "name": "_reqIndex",
          "type": "uint256"
        }
      ],
      "name": "addAdmin",
      "outputs": [],
      "stateMutability": "nonpayable",
      "type": "function"
    },
    {
      "inputs": [
        {
          "internalType": "address",
          "name": "_removedAdmin",
          "type": "address"
        },
        {
          "internalType": "uint256",
          "name": "_reqIndex",
          "type": "uint256"
        }
      ],
      "name": "removeAdmin",
      "outputs": [],
      "stateMutability": "nonpayable",
      "type": "function"
    }
  ],
  "bytecode": "0x60a06040526b033b2e3c9fd0803ce80000006080908152503480156200002457600080fd5b5060405162006e2538038062006e2583398181016040528101906200004a919062000a95565b6040518060400160405280601081526020017f57616e6465722045544820546f6b656e000000000000000000000000000000008152506040518060400160405280600781526020017f6557616e64657200000000000000000000000000000000000000000000000000815250818181818160059080519060200190620000d292919062000915565b508060069080519060200190620000eb92919062000915565b5050506000600760006101000a81548160ff0219169083151502179055506200012d6000801b620001216200067f60201b60201c565b6200068760201b60201c565b6200016e7f9f2df0fed2c77648de5860a4cc508cd0818c85b8b8a1ab4ceeef8d981c8956a6620001626200067f60201b60201c565b6200068760201b60201c565b620001af7f65d7a28e3265b37a6474929f336521b332c1681b933f6cb9f3376673440d862a620001a36200067f60201b60201c565b6200068760201b60201c565b505050506000825111620001fa576040517f08c379a0000000000000000000000000000000000000000000000000000000008152600401620001f19062000bad565b60405180910390fd5b6000811180156200020c575081518111155b6200024e576040517f08c379a0000000000000000000000000000000000000000000000000000000008152600401620002459062000bcf565b60405180910390fd5b60005b82518110156200066f57600073ffffffffffffffffffffffffffffffffffffffff16838281518110620002ad577f4e487b7100000000000000000000000000000000000000000000000000000000600052603260045260246000fd5b602002602001015173ffffffffffffffffffffffffffffffffffffffff1614156200030f576040517f08c379a0000000000000000000000000000000000000000000000000000000008152600401620003069062000bf1565b60405180910390fd5b600b60008483815181106200034d577f4e487b7100000000000000000000000000000000000000000000000000000000600052603260045260246000fd5b602002602001015173ffffffffffffffffffffffffffffffffffffffff1673ffffffffffffffffffffffffffffffffffffffff16815260200190815260200160002060009054906101000a900460ff1615620003e0576040517f08c379a0000000000000000000000000000000000000000000000000000000008152600401620003d79062000b8b565b60405180910390fd5b6001600b600085848151811062000420577f4e487b7100000000000000000000000000000000000000000000000000000000600052603260045260246000fd5b602002602001015173ffffffffffffffffffffffffffffffffffffffff1673ffffffffffffffffffffffffffffffffffffffff16815260200190815260200160002060006101000a81548160ff021916908315150217905550620004cf6000801b848381518110620004bb577f4e487b7100000000000000000000000000000000000000000000000000000000600052603260045260246000fd5b60200260200101516200068760201b60201c565b620005427f9f2df0fed2c77648de5860a4cc508cd0818c85b8b8a1ab4ceeef8d981c8956a68483815181106200052e577f4e487b7100000000000000000000000000000000000000000000000000000000600052603260045260246000fd5b60200260200101516200068760201b60201c565b620005b57f65d7a28e3265b37a6474929f336521b332c1681b933f6cb9f3376673440d862a848381518110620005a1577f4e487b7100000000000000000000000000000000000000000000000000000000600052603260045260246000fd5b60200260200101516200068760201b60201c565b6009838281518110620005f1577f4e487b7100000000000000000000000000000000000000000000000000000000600052603260045260246000fd5b60200260200101519080600181540180825580915050600190039060005260206000200160009091909190916101000a81548173ffffffffffffffffffffffffffffffffffffffff021916908373ffffffffffffffffffffffffffffffffffffffff1602179055508080620006669062000d26565b91505062000251565b5080600a81905550505062000eea565b600033905090565b6200069982826200069d60201b60201c565b5050565b620006b48282620006e560201b6200307b1760201c565b620006e08160016000858152602001908152602001600020620007d660201b6200315b1790919060201c565b505050565b620006f782826200080e60201b60201c565b620007d257600160008084815260200190815260200160002060000160008373ffffffffffffffffffffffffffffffffffffffff1673ffffffffffffffffffffffffffffffffffffffff16815260200190815260200160002060006101000a81548160ff021916908315150217905550620007776200067f60201b60201c565b73ffffffffffffffffffffffffffffffffffffffff168173ffffffffffffffffffffffffffffffffffffffff16837f2f8788117e7eff1d82e926ec794901d17c78024a50270940304540a733656f0d60405160405180910390a45b5050565b600062000806836000018373ffffffffffffffffffffffffffffffffffffffff1660001b6200087860201b60201c565b905092915050565b600080600084815260200190815260200160002060000160008373ffffffffffffffffffffffffffffffffffffffff1673ffffffffffffffffffffffffffffffffffffffff16815260200190815260200160002060009054906101000a900460ff16905092915050565b60006200088c8383620008f260201b60201c565b620008e7578260000182908060018154018082558091505060019003906000526020600020016000909190919091505582600001805490508360010160008481526020019081526020016000208190555060019050620008ec565b600090505b92915050565b600080836001016000848152602001908152602001600020541415905092915050565b828054620009239062000cba565b90600052602060002090601f01602090048101928262000947576000855562000993565b82601f106200096257805160ff191683800117855562000993565b8280016001018555821562000993579182015b828111156200099257825182559160200191906001019062000975565b5b509050620009a29190620009a6565b5090565b5b80821115620009c1576000816000905550600101620009a7565b5090565b6000620009dc620009d68462000c3c565b62000c13565b90508083825260208201905082856020860282011115620009fc57600080fd5b60005b8581101562000a30578162000a15888262000a3a565b845260208401935060208301925050600181019050620009ff565b5050509392505050565b60008151905062000a4b8162000eb6565b92915050565b600082601f83011262000a6357600080fd5b815162000a75848260208601620009c5565b91505092915050565b60008151905062000a8f8162000ed0565b92915050565b6000806040838503121562000aa957600080fd5b600083015167ffffffffffffffff81111562000ac457600080fd5b62000ad28582860162000a51565b925050602062000ae58582860162000a7e565b9150509250929050565b600062000afe60108362000c6b565b915062000b0b8262000e12565b602082019050919050565b600062000b25601d8362000c6b565b915062000b328262000e3b565b602082019050919050565b600062000b4c601f8362000c6b565b915062000b598262000e64565b602082019050919050565b600062000b73601c8362000c6b565b915062000b808262000e8d565b602082019050919050565b6000602082019050818103600083015262000ba68162000aef565b9050919050565b6000602082019050818103600083015262000bc88162000b16565b9050919050565b6000602082019050818103600083015262000bea8162000b3d565b9050919050565b6000602082019050818103600083015262000c0c8162000b64565b9050919050565b600062000c1f62000c32565b905062000c2d828262000cf0565b919050565b6000604051905090565b600067ffffffffffffffff82111562000c5a5762000c5962000dd2565b5b602082029050602081019050919050565b600082825260208201905092915050565b600062000c898262000c90565b9050919050565b600073ffffffffffffffffffffffffffffffffffffffff82169050919050565b6000819050919050565b6000600282049050600182168062000cd357607f821691505b6020821081141562000cea5762000ce962000da3565b5b50919050565b62000cfb8262000e01565b810181811067ffffffffffffffff8211171562000d1d5762000d1c62000dd2565b5b80604052505050565b600062000d338262000cb0565b91507fffffffffffffffffffffffffffffffffffffffffffffffffffffffffffffffff82141562000d695762000d6862000d74565b5b600182019050919050565b7f4e487b7100000000000000000000000000000000000000000000000000000000600052601160045260246000fd5b7f4e487b7100000000000000000000000000000000000000000000000000000000600052602260045260246000fd5b7f4e487b7100000000000000000000000000000000000000000000000000000000600052604160045260246000fd5b6000601f19601f8301169050919050565b7f6f776e6572206e6f7420756e6971756500000000000000000000000000000000600082015250565b7f6d6f7265207468616e2031206f776e6572206973207265717569726564000000600082015250565b7f696e76616c6964206e756d626572206f6620636f6e6669726d6174696f6e7300600082015250565b7f6f776e65722063616e2774206265207468652030206164647265737300000000600082015250565b62000ec18162000c7c565b811462000ecd57600080fd5b50565b62000edb8162000cb0565b811462000ee757600080fd5b50565b608051615f1f62000f0660003960006138050152615f1f6000f3fe608060405234801561001057600080fd5b50600436106102535760003560e01c80637c18590711610146578063a9059cbb116100c3578063d539139311610087578063d539139314610760578063d547741f1461077e578063dd62ed3e1461079a578063e63ab1e9146107ca578063e835ea29146107e8578063f0e22d521461080457610253565b8063a9059cbb14610691578063c2ba1316146106c1578063c6e0ddfa146106f6578063ca15c87314610712578063d0549b851461074257610253565b806391d148541161010a57806391d14854146105d957806395d89b4114610609578063a217fddf14610627578063a457c2d714610645578063a6b2c4371461067557610253565b80637c1859071461051e5780637fcb29c91461054e57806381d12c581461056a5780638456cb591461059f5780639010d07c146105a957610253565b8063313ce567116101d457806342966c681161019857806342966c681461047c5780635c975abb146104985780636e417c69146104b657806370a08231146104d257806379cc67901461050257610253565b8063313ce567146103ec57806336568abe1461040a57806339509351146104265780633f4ba83a1461045657806340c10f191461046057610253565b806318160ddd1161021b57806318160ddd1461032257806323b872dd14610340578063248a9ca31461037057806324d7806c146103a05780632f2ff15d146103d057610253565b806301ffc9a71461025857806306fdde0314610288578063095ea7b3146102a657806314bfd6d0146102d65780631558028214610306575b600080fd5b610272600480360381019061026d9190614739565b610822565b60405161027f9190614e20565b60405180910390f35b61029061089c565b60405161029d9190614e56565b60405180910390f35b6102c060048036038101906102bb919061460d565b61092e565b6040516102cd9190614e20565b60405180910390f35b6102f060048036038101906102eb9190614762565b61094c565b6040516102fd9190614d43565b60405180910390f35b610320600480360381019061031b9190614649565b61098b565b005b61032a610c83565b6040516103379190615298565b60405180910390f35b61035a600480360381019061035591906145be565b610c8d565b6040516103679190614e20565b60405180910390f35b61038a60048036038101906103859190614698565b610d85565b6040516103979190614e3b565b60405180910390f35b6103ba60048036038101906103b59190614559565b610da4565b6040516103c79190614e20565b60405180910390f35b6103ea60048036038101906103e591906146c1565b610dc4565b005b6103f4610ded565b60405161040191906152dc565b60405180910390f35b610424600480360381019061041f91906146c1565b610df6565b005b610440600480360381019061043b919061460d565b610e79565b60405161044d9190614e20565b60405180910390f35b61045e610f25565b005b61047a6004803603810190610475919061460d565b610f9f565b005b61049660048036038101906104919190614762565b611069565b005b6104a061107d565b6040516104ad9190614e20565b60405180910390f35b6104d060048036038101906104cb9190614762565b611094565b005b6104ec60048036038101906104e79190614559565b611500565b6040516104f99190615298565b60405180910390f35b61051c6004803603810190610517919061460d565b611549565b005b61053860048036038101906105339190614762565b6115c4565b6040516105459190615298565b60405180910390f35b6105686004803603810190610563919061460d565b6117b7565b005b610584600480360381019061057f9190614762565b611d13565b60405161059696959493929190614d5e565b60405180910390f35b6105a7611dac565b005b6105c360048036038101906105be91906146fd565b611e26565b6040516105d09190614d43565b60405180910390f35b6105f360048036038101906105ee91906146c1565b611e55565b6040516106009190614e20565b60405180910390f35b610611611ebf565b60405161061e9190614e56565b60405180910390f35b61062f611f51565b60405161063c9190614e3b565b60405180910390f35b61065f600480360381019061065a919061460d565b611f58565b60405161066c9190614e20565b60405180910390f35b61068f600480360381019061068a9190614762565b612043565b005b6106ab60048036038101906106a6919061460d565b61230e565b6040516106b89190614e20565b60405180910390f35b6106db60048036038101906106d69190614762565b61238f565b6040516106ed96959493929190614dbf565b60405180910390f35b610710600480360381019061070b919061460d565b61264e565b005b61072c60048036038101906107279190614698565b612b27565b6040516107399190615298565b60405180910390f35b61074a612b4b565b6040516107579190615298565b60405180910390f35b610768612b51565b6040516107759190614e3b565b60405180910390f35b610798600480360381019061079391906146c1565b612b75565b005b6107b460048036038101906107af9190614582565b612b9e565b6040516107c19190615298565b60405180910390f35b6107d2612c25565b6040516107df9190614e3b565b60405180910390f35b61080260048036038101906107fd9190614762565b612c49565b005b61080c612fe2565b6040516108199190615298565b60405180910390f35b60007f5a05180f000000000000000000000000000000000000000000000000000000007bffffffffffffffffffffffffffffffffffffffffffffffffffffffff1916827bffffffffffffffffffffffffffffffffffffffffffffffffffffffff1916148061089557506108948261318b565b5b9050919050565b6060600580546108ab906154ea565b80601f01602080910402602001604051908101604052809291908181526020018280546108d7906154ea565b80156109245780601f106108f957610100808354040283529160200191610924565b820191906000526020600020905b81548152906001019060200180831161090757829003601f168201915b5050505050905090565b600061094261093b613205565b848461320d565b6001905092915050565b6009818154811061095c57600080fd5b906000526020600020016000915054906101000a900473ffffffffffffffffffffffffffffffffffffffff1681565b600b60003373ffffffffffffffffffffffffffffffffffffffff1673ffffffffffffffffffffffffffffffffffffffff16815260200190815260200160002060009054906101000a900460ff16610a17576040517f08c379a0000000000000000000000000000000000000000000000000000000008152600401610a0e906151b8565b60405180910390fd5b630aba950082108015610a3557506002811480610a345750600381145b5b15610a75576040517f08c379a0000000000000000000000000000000000000000000000000000000008152600401610a6c906151d8565b60405180910390fd5b600a6008805490501080610a895750600681145b610ac8576040517f08c379a0000000000000000000000000000000000000000000000000000000008152600401610abf906150b8565b60405180910390fd5b600060086001816001815401808255809150500390600052602060002090600702019050338160000160006101000a81548173ffffffffffffffffffffffffffffffffffffffff021916908373ffffffffffffffffffffffffffffffffffffffff160217905550838160010160006101000a81548173ffffffffffffffffffffffffffffffffffffffff021916908373ffffffffffffffffffffffffffffffffffffffff16021790555082816002018190555081816003018190555060008160040160006101000a81548160ff02191690831515021790555080600501339080600181540180825580915050600190039060005260206000200160009091909190916101000a81548173ffffffffffffffffffffffffffffffffffffffff021916908373ffffffffffffffffffffffffffffffffffffffff160217905550600181600601819055508373ffffffffffffffffffffffffffffffffffffffff166008805490503373ffffffffffffffffffffffffffffffffffffffff167f54dfaf1400365d0bb0ffb12aa1987fa48da85db94f54bc3132a732ce2934e1678686604051610c759291906152b3565b60405180910390a450505050565b6000600454905090565b6000610c9a8484846133d8565b6000600360008673ffffffffffffffffffffffffffffffffffffffff1673ffffffffffffffffffffffffffffffffffffffff1681526020019081526020016000206000610ce5613205565b73ffffffffffffffffffffffffffffffffffffffff1673ffffffffffffffffffffffffffffffffffffffff16815260200190815260200160002054905082811015610d65576040517f08c379a0000000000000000000000000000000000000000000000000000000008152600401610d5c90615058565b60405180910390fd5b610d7985610d71613205565b85840361320d565b60019150509392505050565b6000806000838152602001908152602001600020600101549050919050565b600b6020528060005260406000206000915054906101000a900460ff1681565b610dcd82610d85565b610dde81610dd9613205565b61365c565b610de883836136f9565b505050565b60006012905090565b610dfe613205565b73ffffffffffffffffffffffffffffffffffffffff168173ffffffffffffffffffffffffffffffffffffffff1614610e6b576040517f08c379a0000000000000000000000000000000000000000000000000000000008152600401610e6290615238565b60405180910390fd5b610e75828261372d565b5050565b6000610f1b610e86613205565b848460036000610e94613205565b73ffffffffffffffffffffffffffffffffffffffff1673ffffffffffffffffffffffffffffffffffffffff16815260200190815260200160002060008873ffffffffffffffffffffffffffffffffffffffff1673ffffffffffffffffffffffffffffffffffffffff16815260200190815260200160002054610f16919061531e565b61320d565b6001905092915050565b610f567f65d7a28e3265b37a6474929f336521b332c1681b933f6cb9f3376673440d862a610f51613205565b611e55565b610f95576040517f08c379a0000000000000000000000000000000000000000000000000000000008152600401610f8c90614f38565b60405180910390fd5b610f9d613761565b565b610fd07f9f2df0fed2c77648de5860a4cc508cd0818c85b8b8a1ab4ceeef8d981c8956a6610fcb613205565b611e55565b61100f576040517f08c379a000000000000000000000000000000000000000000000000000000000815260040161100690615078565b60405180910390fd5b69d3c21bcecceda1000000811061105b576040517f08c379a0000000000000000000000000000000000000000000000000000000008152600401611052906150f8565b60405180910390fd5b6110658282613803565b5050565b61107a611074613205565b82613886565b50565b6000600760009054906101000a900460ff16905090565b600b60003373ffffffffffffffffffffffffffffffffffffffff1673ffffffffffffffffffffffffffffffffffffffff16815260200190815260200160002060009054906101000a900460ff16611120576040517f08c379a0000000000000000000000000000000000000000000000000000000008152600401611117906151b8565b60405180910390fd5b806008805490508110611168576040517f08c379a000000000000000000000000000000000000000000000000000000000815260040161115f90614ed8565b60405180910390fd5b600881815481106111a2577f4e487b7100000000000000000000000000000000000000000000000000000000600052603260045260246000fd5b906000526020600020906007020160040160009054906101000a900460ff1615611201576040517f08c379a00000000000000000000000000000000000000000000000000000000081526004016111f890615138565b60405180910390fd5b81600a546008828154811061123f577f4e487b7100000000000000000000000000000000000000000000000000000000600052603260045260246000fd5b9060005260206000209060070201600601541015611292576040517f08c379a0000000000000000000000000000000000000000000000000000000008152600401611289906151f8565b60405180910390fd5b6000600884815481106112ce577f4e487b7100000000000000000000000000000000000000000000000000000000600052603260045260246000fd5b906000526020600020906007020190506000816003015414156113615761136060088581548110611328577f4e487b7100000000000000000000000000000000000000000000000000000000600052603260045260246000fd5b906000526020600020906007020160010160009054906101000a900473ffffffffffffffffffffffffffffffffffffffff16856117b7565b5b60018160030154141561139d5761139c8160010160009054906101000a900473ffffffffffffffffffffffffffffffffffffffff168561264e565b5b600281600301541415611402576114018160000160009054906101000a900473ffffffffffffffffffffffffffffffffffffffff168260010160009054906101000a900473ffffffffffffffffffffffffffffffffffffffff1683600201546133d8565b5b600381600301541415611442576114418160010160009054906101000a900473ffffffffffffffffffffffffffffffffffffffff168260020154613803565b5b60048160030154141561145857611457613a5f565b5b60058160030154141561146e5761146d613761565b5b60018160040160006101000a81548160ff021916908315150217905550833373ffffffffffffffffffffffffffffffffffffffff167f119b3523fa62a0fe2dbb45b4ce93fc0a99e589ec6d13b406f5ebee29119439c583600301546040516114d69190615298565b60405180910390a36006816003015414156114fa57600860006114f99190614402565b5b50505050565b6000600260008373ffffffffffffffffffffffffffffffffffffffff1673ffffffffffffffffffffffffffffffffffffffff168152602001908152602001600020549050919050565b600061155c83611557613205565b612b9e565b9050818110156115a1576040517f08c379a000000000000000000000000000000000000000000000000000000000815260040161159890615098565b60405180910390fd5b6115b5836115ad613205565b84840361320d565b6115bf8383613886565b505050565b6000600b60003373ffffffffffffffffffffffffffffffffffffffff1673ffffffffffffffffffffffffffffffffffffffff16815260200190815260200160002060009054906101000a900460ff16611652576040517f08c379a0000000000000000000000000000000000000000000000000000000008152600401611649906151b8565b60405180910390fd5b60006064905060005b60088481548110611695577f4e487b7100000000000000000000000000000000000000000000000000000000600052603260045260246000fd5b9060005260206000209060070201600501805490508110156117ad573373ffffffffffffffffffffffffffffffffffffffff1660088581548110611702577f4e487b7100000000000000000000000000000000000000000000000000000000600052603260045260246000fd5b9060005260206000209060070201600501828154811061174b577f4e487b7100000000000000000000000000000000000000000000000000000000600052603260045260246000fd5b9060005260206000200160009054906101000a900473ffffffffffffffffffffffffffffffffffffffff1673ffffffffffffffffffffffffffffffffffffffff16141561179a578091506117ad565b80806117a59061551c565b91505061165b565b5080915050919050565b600b60003373ffffffffffffffffffffffffffffffffffffffff1673ffffffffffffffffffffffffffffffffffffffff16815260200190815260200160002060009054906101000a900460ff16611843576040517f08c379a000000000000000000000000000000000000000000000000000000000815260040161183a906151b8565b60405180910390fd5b80600880549050811061188b576040517f08c379a000000000000000000000000000000000000000000000000000000000815260040161188290614ed8565b60405180910390fd5b600881815481106118c5577f4e487b7100000000000000000000000000000000000000000000000000000000600052603260045260246000fd5b906000526020600020906007020160040160009054906101000a900460ff1615611924576040517f08c379a000000000000000000000000000000000000000000000000000000000815260040161191b90615138565b60405180910390fd5b6002600a54611933919061531e565b600980549050111561197a576040517f08c379a000000000000000000000000000000000000000000000000000000000815260040161197190614f78565b60405180910390fd5b6000600883815481106119b6577f4e487b7100000000000000000000000000000000000000000000000000000000600052603260045260246000fd5b90600052602060002090600702016003015414611a08576040517f08c379a00000000000000000000000000000000000000000000000000000000081526004016119ff90614fd8565b60405180910390fd5b600b60008473ffffffffffffffffffffffffffffffffffffffff1673ffffffffffffffffffffffffffffffffffffffff16815260200190815260200160002060009054906101000a900460ff1615611a95576040517f08c379a0000000000000000000000000000000000000000000000000000000008152600401611a8c90614fb8565b60405180910390fd5b60006064905060005b600980549050811015611b5f57600073ffffffffffffffffffffffffffffffffffffffff1660098281548110611afd577f4e487b7100000000000000000000000000000000000000000000000000000000600052603260045260246000fd5b9060005260206000200160009054906101000a900473ffffffffffffffffffffffffffffffffffffffff1673ffffffffffffffffffffffffffffffffffffffff161415611b4c57809150611b5f565b8080611b579061551c565b915050611a9e565b5060648114611bf0578360098281548110611ba3577f4e487b7100000000000000000000000000000000000000000000000000000000600052603260045260246000fd5b9060005260206000200160006101000a81548173ffffffffffffffffffffffffffffffffffffffff021916908373ffffffffffffffffffffffffffffffffffffffff160217905550611c54565b6009849080600181540180825580915050600190039060005260206000200160009091909190916101000a81548173ffffffffffffffffffffffffffffffffffffffff021916908373ffffffffffffffffffffffffffffffffffffffff1602179055505b6001600b60008673ffffffffffffffffffffffffffffffffffffffff1673ffffffffffffffffffffffffffffffffffffffff16815260200190815260200160002060006101000a81548160ff021916908315150217905550611cb96000801b85613b02565b611ce37f9f2df0fed2c77648de5860a4cc508cd0818c85b8b8a1ab4ceeef8d981c8956a685613b02565b611d0d7f65d7a28e3265b37a6474929f336521b332c1681b933f6cb9f3376673440d862a85613b02565b50505050565b60088181548110611d2357600080fd5b90600052602060002090600702016000915090508060000160009054906101000a900473ffffffffffffffffffffffffffffffffffffffff16908060010160009054906101000a900473ffffffffffffffffffffffffffffffffffffffff16908060020154908060030154908060040160009054906101000a900460ff16908060060154905086565b611ddd7f65d7a28e3265b37a6474929f336521b332c1681b933f6cb9f3376673440d862a611dd8613205565b611e55565b611e1c576040517f08c379a0000000000000000000000000000000000000000000000000000000008152600401611e1390615198565b60405180910390fd5b611e24613a5f565b565b6000611e4d8260016000868152602001908152602001600020613b1090919063ffffffff16565b905092915050565b600080600084815260200190815260200160002060000160008373ffffffffffffffffffffffffffffffffffffffff1673ffffffffffffffffffffffffffffffffffffffff16815260200190815260200160002060009054906101000a900460ff16905092915050565b606060068054611ece906154ea565b80601f0160208091040260200160405190810160405280929190818152602001828054611efa906154ea565b8015611f475780601f10611f1c57610100808354040283529160200191611f47565b820191906000526020600020905b815481529060010190602001808311611f2a57829003601f168201915b5050505050905090565b6000801b81565b60008060036000611f67613205565b73ffffffffffffffffffffffffffffffffffffffff1673ffffffffffffffffffffffffffffffffffffffff16815260200190815260200160002060008573ffffffffffffffffffffffffffffffffffffffff1673ffffffffffffffffffffffffffffffffffffffff16815260200190815260200160002054905082811015612024576040517f08c379a000000000000000000000000000000000000000000000000000000000815260040161201b90615218565b60405180910390fd5b61203861202f613205565b8585840361320d565b600191505092915050565b600b60003373ffffffffffffffffffffffffffffffffffffffff1673ffffffffffffffffffffffffffffffffffffffff16815260200190815260200160002060009054906101000a900460ff166120cf576040517f08c379a00000000000000000000000000000000000000000000000000000000081526004016120c6906151b8565b60405180910390fd5b806008805490508110612117576040517f08c379a000000000000000000000000000000000000000000000000000000000815260040161210e90614ed8565b60405180910390fd5b60088181548110612151577f4e487b7100000000000000000000000000000000000000000000000000000000600052603260045260246000fd5b906000526020600020906007020160040160009054906101000a900460ff16156121b0576040517f08c379a00000000000000000000000000000000000000000000000000000000081526004016121a790615138565b60405180910390fd5b60646121bb836115c4565b146121fb576040517f08c379a00000000000000000000000000000000000000000000000000000000081526004016121f290614f18565b60405180910390fd5b60088281548110612235577f4e487b7100000000000000000000000000000000000000000000000000000000600052603260045260246000fd5b9060005260206000209060070201600501339080600181540180825580915050600190039060005260206000200160009091909190916101000a81548173ffffffffffffffffffffffffffffffffffffffff021916908373ffffffffffffffffffffffffffffffffffffffff1602179055506001600883815481106122e3577f4e487b7100000000000000000000000000000000000000000000000000000000600052603260045260246000fd5b90600052602060002090600702016006016000828254612303919061531e565b925050819055505050565b600061231d6000801b33611e55565b8015612333575069d3c21bcecceda10000008210155b15612373576040517f08c379a000000000000000000000000000000000000000000000000000000000815260040161236a906150f8565b60405180910390fd5b61238561237e613205565b84846133d8565b6001905092915050565b600080600080600080600b60003373ffffffffffffffffffffffffffffffffffffffff1673ffffffffffffffffffffffffffffffffffffffff16815260200190815260200160002060009054906101000a900460ff16612424576040517f08c379a000000000000000000000000000000000000000000000000000000000815260040161241b906151b8565b60405180910390fd5b6008878154811061245e577f4e487b7100000000000000000000000000000000000000000000000000000000600052603260045260246000fd5b906000526020600020906007020160000160009054906101000a900473ffffffffffffffffffffffffffffffffffffffff16600888815481106124ca577f4e487b7100000000000000000000000000000000000000000000000000000000600052603260045260246000fd5b906000526020600020906007020160010160009054906101000a900473ffffffffffffffffffffffffffffffffffffffff1660088981548110612536577f4e487b7100000000000000000000000000000000000000000000000000000000600052603260045260246000fd5b90600052602060002090600702016002015460088a81548110612582577f4e487b7100000000000000000000000000000000000000000000000000000000600052603260045260246000fd5b90600052602060002090600702016003015460088b815481106125ce577f4e487b7100000000000000000000000000000000000000000000000000000000600052603260045260246000fd5b90600052602060002090600702016006015460088c8154811061261a577f4e487b7100000000000000000000000000000000000000000000000000000000600052603260045260246000fd5b906000526020600020906007020160040160009054906101000a900460ff1695509550955095509550955091939550919395565b600b60003373ffffffffffffffffffffffffffffffffffffffff1673ffffffffffffffffffffffffffffffffffffffff16815260200190815260200160002060009054906101000a900460ff166126da576040517f08c379a00000000000000000000000000000000000000000000000000000000081526004016126d1906151b8565b60405180910390fd5b806008805490508110612722576040517f08c379a000000000000000000000000000000000000000000000000000000000815260040161271990614ed8565b60405180910390fd5b6008818154811061275c577f4e487b7100000000000000000000000000000000000000000000000000000000600052603260045260246000fd5b906000526020600020906007020160040160009054906101000a900460ff16156127bb576040517f08c379a00000000000000000000000000000000000000000000000000000000081526004016127b290615138565b60405180910390fd5b81600a54600882815481106127f9577f4e487b7100000000000000000000000000000000000000000000000000000000600052603260045260246000fd5b906000526020600020906007020160060154101561284c576040517f08c379a0000000000000000000000000000000000000000000000000000000008152600401612843906151f8565b60405180910390fd5b600a546009805490501015612896576040517f08c379a000000000000000000000000000000000000000000000000000000000815260040161288d90615018565b60405180910390fd5b6001600884815481106128d2577f4e487b7100000000000000000000000000000000000000000000000000000000600052603260045260246000fd5b90600052602060002090600702016003015414612924576040517f08c379a000000000000000000000000000000000000000000000000000000000815260040161291b90614fd8565b60405180910390fd5b60005b6009805490508111612a67578473ffffffffffffffffffffffffffffffffffffffff1660098281548110612984577f4e487b7100000000000000000000000000000000000000000000000000000000600052603260045260246000fd5b9060005260206000200160009054906101000a900473ffffffffffffffffffffffffffffffffffffffff1673ffffffffffffffffffffffffffffffffffffffff161415612a5457600060098281548110612a07577f4e487b7100000000000000000000000000000000000000000000000000000000600052603260045260246000fd5b9060005260206000200160006101000a81548173ffffffffffffffffffffffffffffffffffffffff021916908373ffffffffffffffffffffffffffffffffffffffff160217905550612a67565b8080612a5f9061551c565b915050612927565b506000600b60008673ffffffffffffffffffffffffffffffffffffffff1673ffffffffffffffffffffffffffffffffffffffff16815260200190815260200160002060006101000a81548160ff021916908315150217905550612acd6000801b8561372d565b612af77f9f2df0fed2c77648de5860a4cc508cd0818c85b8b8a1ab4ceeef8d981c8956a68561372d565b612b217f65d7a28e3265b37a6474929f336521b332c1681b933f6cb9f3376673440d862a8561372d565b50505050565b6000612b4460016000848152602001908152602001600020613b2a565b9050919050565b600a5481565b7f9f2df0fed2c77648de5860a4cc508cd0818c85b8b8a1ab4ceeef8d981c8956a681565b612b7e82610d85565b612b8f81612b8a613205565b61365c565b612b99838361372d565b505050565b6000600360008473ffffffffffffffffffffffffffffffffffffffff1673ffffffffffffffffffffffffffffffffffffffff16815260200190815260200160002060008373ffffffffffffffffffffffffffffffffffffffff1673ffffffffffffffffffffffffffffffffffffffff16815260200190815260200160002054905092915050565b7f65d7a28e3265b37a6474929f336521b332c1681b933f6cb9f3376673440d862a81565b600b60003373ffffffffffffffffffffffffffffffffffffffff1673ffffffffffffffffffffffffffffffffffffffff16815260200190815260200160002060009054906101000a900460ff16612cd5576040517f08c379a0000000000000000000000000000000000000000000000000000000008152600401612ccc906151b8565b60405180910390fd5b806008805490508110612d1d576040517f08c379a0000000000000000000000000000000000000000000000000000000008152600401612d1490614ed8565b60405180910390fd5b60088181548110612d57577f4e487b7100000000000000000000000000000000000000000000000000000000600052603260045260246000fd5b906000526020600020906007020160040160009054906101000a900460ff1615612db6576040517f08c379a0000000000000000000000000000000000000000000000000000000008152600401612dad90615138565b60405180910390fd5b6000612dc1836115c4565b90506064811415612e07576040517f08c379a0000000000000000000000000000000000000000000000000000000008152600401612dfe90615038565b60405180910390fd5b600060088481548110612e43577f4e487b7100000000000000000000000000000000000000000000000000000000600052603260045260246000fd5b906000526020600020906007020190508060050160018260050180549050612e6b91906153ce565b81548110612ea2577f4e487b7100000000000000000000000000000000000000000000000000000000600052603260045260246000fd5b9060005260206000200160009054906101000a900473ffffffffffffffffffffffffffffffffffffffff16816005018381548110612f09577f4e487b7100000000000000000000000000000000000000000000000000000000600052603260045260246000fd5b9060005260206000200160006101000a81548173ffffffffffffffffffffffffffffffffffffffff021916908373ffffffffffffffffffffffffffffffffffffffff16021790555080600501805480612f8b577f4e487b7100000000000000000000000000000000000000000000000000000000600052603160045260246000fd5b6001900381819060005260206000200160006101000a81549073ffffffffffffffffffffffffffffffffffffffff021916905590556001816006016000828254612fd591906153ce565b9250508190555050505050565b6000600b60003373ffffffffffffffffffffffffffffffffffffffff1673ffffffffffffffffffffffffffffffffffffffff16815260200190815260200160002060009054906101000a900460ff16613070576040517f08c379a0000000000000000000000000000000000000000000000000000000008152600401613067906151b8565b60405180910390fd5b600880549050905090565b6130858282611e55565b61315757600160008084815260200190815260200160002060000160008373ffffffffffffffffffffffffffffffffffffffff1673ffffffffffffffffffffffffffffffffffffffff16815260200190815260200160002060006101000a81548160ff0219169083151502179055506130fc613205565b73ffffffffffffffffffffffffffffffffffffffff168173ffffffffffffffffffffffffffffffffffffffff16837f2f8788117e7eff1d82e926ec794901d17c78024a50270940304540a733656f0d60405160405180910390a45b5050565b6000613183836000018373ffffffffffffffffffffffffffffffffffffffff1660001b613b3f565b905092915050565b60007f7965db0b000000000000000000000000000000000000000000000000000000007bffffffffffffffffffffffffffffffffffffffffffffffffffffffff1916827bffffffffffffffffffffffffffffffffffffffffffffffffffffffff191614806131fe57506131fd82613baf565b5b9050919050565b600033905090565b600073ffffffffffffffffffffffffffffffffffffffff168373ffffffffffffffffffffffffffffffffffffffff16141561327d576040517f08c379a000000000000000000000000000000000000000000000000000000000815260040161327490615178565b60405180910390fd5b600073ffffffffffffffffffffffffffffffffffffffff168273ffffffffffffffffffffffffffffffffffffffff1614156132ed576040517f08c379a00000000000000000000000000000000000000000000000000000000081526004016132e490614f58565b60405180910390fd5b80600360008573ffffffffffffffffffffffffffffffffffffffff1673ffffffffffffffffffffffffffffffffffffffff16815260200190815260200160002060008473ffffffffffffffffffffffffffffffffffffffff1673ffffffffffffffffffffffffffffffffffffffff168152602001908152602001600020819055508173ffffffffffffffffffffffffffffffffffffffff168373ffffffffffffffffffffffffffffffffffffffff167f8c5be1e5ebec7d5bd14f71427d1e84f3dd0314c0f7b2291e5b200ac8c7c3b925836040516133cb9190615298565b60405180910390a3505050565b600073ffffffffffffffffffffffffffffffffffffffff168373ffffffffffffffffffffffffffffffffffffffff161415613448576040517f08c379a000000000000000000000000000000000000000000000000000000000815260040161343f90615118565b60405180910390fd5b600073ffffffffffffffffffffffffffffffffffffffff168273ffffffffffffffffffffffffffffffffffffffff1614156134b8576040517f08c379a00000000000000000000000000000000000000000000000000000000081526004016134af90614e98565b60405180910390fd5b6134c3838383613c19565b6000600260008573ffffffffffffffffffffffffffffffffffffffff1673ffffffffffffffffffffffffffffffffffffffff1681526020019081526020016000205490508181101561354a576040517f08c379a000000000000000000000000000000000000000000000000000000000815260040161354190614f98565b60405180910390fd5b818103600260008673ffffffffffffffffffffffffffffffffffffffff1673ffffffffffffffffffffffffffffffffffffffff1681526020019081526020016000208190555081600260008573ffffffffffffffffffffffffffffffffffffffff1673ffffffffffffffffffffffffffffffffffffffff16815260200190815260200160002060008282546135df919061531e565b925050819055508273ffffffffffffffffffffffffffffffffffffffff168473ffffffffffffffffffffffffffffffffffffffff167fddf252ad1be2c89b69c2b068fc378daa952ba7f163c4a11628f55a4df523b3ef846040516136439190615298565b60405180910390a3613656848484613c29565b50505050565b6136668282611e55565b6136f55761368b8173ffffffffffffffffffffffffffffffffffffffff166014613c2e565b6136998360001c6020613c2e565b6040516020016136aa929190614d09565b6040516020818303038152906040526040517f08c379a00000000000000000000000000000000000000000000000000000000081526004016136ec9190614e56565b60405180910390fd5b5050565b613703828261307b565b613728816001600085815260200190815260200160002061315b90919063ffffffff16565b505050565b6137378282613f28565b61375c816001600085815260200190815260200160002061400990919063ffffffff16565b505050565b61376961107d565b6137a8576040517f08c379a000000000000000000000000000000000000000000000000000000000815260040161379f90614eb8565b60405180910390fd5b6000600760006101000a81548160ff0219169083151502179055507f5db9ee0a495bf2e6ff9c91a7834c1ba4fdd244a5e8aa4e537bd38aeae4b073aa6137ec613205565b6040516137f99190614d43565b60405180910390a1565b7f00000000000000000000000000000000000000000000000000000000000000008161382d610c83565b613837919061531e565b1115613878576040517f08c379a000000000000000000000000000000000000000000000000000000000815260040161386f90615158565b60405180910390fd5b6138828282614039565b5050565b600073ffffffffffffffffffffffffffffffffffffffff168273ffffffffffffffffffffffffffffffffffffffff1614156138f6576040517f08c379a00000000000000000000000000000000000000000000000000000000081526004016138ed906150d8565b60405180910390fd5b61390282600083613c19565b6000600260008473ffffffffffffffffffffffffffffffffffffffff1673ffffffffffffffffffffffffffffffffffffffff16815260200190815260200160002054905081811015613989576040517f08c379a000000000000000000000000000000000000000000000000000000000815260040161398090614ef8565b60405180910390fd5b818103600260008573ffffffffffffffffffffffffffffffffffffffff1673ffffffffffffffffffffffffffffffffffffffff1681526020019081526020016000208190555081600460008282546139e191906153ce565b92505081905550600073ffffffffffffffffffffffffffffffffffffffff168373ffffffffffffffffffffffffffffffffffffffff167fddf252ad1be2c89b69c2b068fc378daa952ba7f163c4a11628f55a4df523b3ef84604051613a469190615298565b60405180910390a3613a5a83600084613c29565b505050565b613a6761107d565b15613aa7576040517f08c379a0000000000000000000000000000000000000000000000000000000008152600401613a9e90614ff8565b60405180910390fd5b6001600760006101000a81548160ff0219169083151502179055507f62e78cea01bee320cd4e420270b5ea74000d11b0c9f74754ebdbfc544b05a258613aeb613205565b604051613af89190614d43565b60405180910390a1565b613b0c82826136f9565b5050565b6000613b1f836000018361419a565b60001c905092915050565b6000613b38826000016141eb565b9050919050565b6000613b4b83836141fc565b613ba4578260000182908060018154018082558091505060019003906000526020600020016000909190919091505582600001805490508360010160008481526020019081526020016000208190555060019050613ba9565b600090505b92915050565b60007f01ffc9a7000000000000000000000000000000000000000000000000000000007bffffffffffffffffffffffffffffffffffffffffffffffffffffffff1916827bffffffffffffffffffffffffffffffffffffffffffffffffffffffff1916149050919050565b613c2483838361421f565b505050565b505050565b606060006002836002613c419190615374565b613c4b919061531e565b67ffffffffffffffff811115613c8a577f4e487b7100000000000000000000000000000000000000000000000000000000600052604160045260246000fd5b6040519080825280601f01601f191660200182016040528015613cbc5781602001600182028036833780820191505090505b5090507f300000000000000000000000000000000000000000000000000000000000000081600081518110613d1a577f4e487b7100000000000000000000000000000000000000000000000000000000600052603260045260246000fd5b60200101907effffffffffffffffffffffffffffffffffffffffffffffffffffffffffffff1916908160001a9053507f780000000000000000000000000000000000000000000000000000000000000081600181518110613da4577f4e487b7100000000000000000000000000000000000000000000000000000000600052603260045260246000fd5b60200101907effffffffffffffffffffffffffffffffffffffffffffffffffffffffffffff1916908160001a90535060006001846002613de49190615374565b613dee919061531e565b90505b6001811115613eda577f3031323334353637383961626364656600000000000000000000000000000000600f861660108110613e56577f4e487b7100000000000000000000000000000000000000000000000000000000600052603260045260246000fd5b1a60f81b828281518110613e93577f4e487b7100000000000000000000000000000000000000000000000000000000600052603260045260246000fd5b60200101907effffffffffffffffffffffffffffffffffffffffffffffffffffffffffffff1916908160001a905350600485901c945080613ed3906154c0565b9050613df1565b5060008414613f1e576040517f08c379a0000000000000000000000000000000000000000000000000000000008152600401613f1590614e78565b60405180910390fd5b8091505092915050565b613f328282611e55565b1561400557600080600084815260200190815260200160002060000160008373ffffffffffffffffffffffffffffffffffffffff1673ffffffffffffffffffffffffffffffffffffffff16815260200190815260200160002060006101000a81548160ff021916908315150217905550613faa613205565b73ffffffffffffffffffffffffffffffffffffffff168173ffffffffffffffffffffffffffffffffffffffff16837ff6391f5c32d9c69d2a47ea670b442974b53935d1edc7fd64eb21e047a839171b60405160405180910390a45b5050565b6000614031836000018373ffffffffffffffffffffffffffffffffffffffff1660001b614277565b905092915050565b600073ffffffffffffffffffffffffffffffffffffffff168273ffffffffffffffffffffffffffffffffffffffff1614156140a9576040517f08c379a00000000000000000000000000000000000000000000000000000000081526004016140a090615258565b60405180910390fd5b6140b560008383613c19565b80600460008282546140c7919061531e565b9250508190555080600260008473ffffffffffffffffffffffffffffffffffffffff1673ffffffffffffffffffffffffffffffffffffffff168152602001908152602001600020600082825461411d919061531e565b925050819055508173ffffffffffffffffffffffffffffffffffffffff16600073ffffffffffffffffffffffffffffffffffffffff167fddf252ad1be2c89b69c2b068fc378daa952ba7f163c4a11628f55a4df523b3ef836040516141829190615298565b60405180910390a361419660008383613c29565b5050565b60008260000182815481106141d8577f4e487b7100000000000000000000000000000000000000000000000000000000600052603260045260246000fd5b9060005260206000200154905092915050565b600081600001805490509050919050565b600080836001016000848152602001908152602001600020541415905092915050565b61422a8383836143fd565b61423261107d565b15614272576040517f08c379a000000000000000000000000000000000000000000000000000000000815260040161426990615278565b60405180910390fd5b505050565b600080836001016000848152602001908152602001600020549050600081146143f15760006001826142a991906153ce565b90506000600186600001805490506142c191906153ce565b905081811461437c576000866000018281548110614308577f4e487b7100000000000000000000000000000000000000000000000000000000600052603260045260246000fd5b9060005260206000200154905080876000018481548110614352577f4e487b7100000000000000000000000000000000000000000000000000000000600052603260045260246000fd5b90600052602060002001819055508387600101600083815260200190815260200160002081905550505b856000018054806143b6577f4e487b7100000000000000000000000000000000000000000000000000000000600052603160045260246000fd5b6001900381819060005260206000200160009055905585600101600086815260200190815260200160002060009055600193505050506143f7565b60009150505b92915050565b505050565b50805460008255600702906000526020600020908101906144239190614426565b50565b5b808211156144c357600080820160006101000a81549073ffffffffffffffffffffffffffffffffffffffff02191690556001820160006101000a81549073ffffffffffffffffffffffffffffffffffffffff0219169055600282016000905560038201600090556004820160006101000a81549060ff02191690556005820160006144b291906144c7565b600682016000905550600701614427565b5090565b50805460008255906000526020600020908101906144e591906144e8565b50565b5b808211156145015760008160009055506001016144e9565b5090565b60008135905061451481615e8d565b92915050565b60008135905061452981615ea4565b92915050565b60008135905061453e81615ebb565b92915050565b60008135905061455381615ed2565b92915050565b60006020828403121561456b57600080fd5b600061457984828501614505565b91505092915050565b6000806040838503121561459557600080fd5b60006145a385828601614505565b92505060206145b485828601614505565b9150509250929050565b6000806000606084860312156145d357600080fd5b60006145e186828701614505565b93505060206145f286828701614505565b925050604061460386828701614544565b9150509250925092565b6000806040838503121561462057600080fd5b600061462e85828601614505565b925050602061463f85828601614544565b9150509250929050565b60008060006060848603121561465e57600080fd5b600061466c86828701614505565b935050602061467d86828701614544565b925050604061468e86828701614544565b9150509250925092565b6000602082840312156146aa57600080fd5b60006146b88482850161451a565b91505092915050565b600080604083850312156146d457600080fd5b60006146e28582860161451a565b92505060206146f385828601614505565b9150509250929050565b6000806040838503121561471057600080fd5b600061471e8582860161451a565b925050602061472f85828601614544565b9150509250929050565b60006020828403121561474b57600080fd5b60006147598482850161452f565b91505092915050565b60006020828403121561477457600080fd5b600061478284828501614544565b91505092915050565b61479481615402565b82525050565b6147a381615414565b82525050565b6147b281615420565b82525050565b60006147c3826152f7565b6147cd8185615302565b93506147dd81856020860161548d565b6147e6816155c3565b840191505092915050565b60006147fc826152f7565b6148068185615313565b935061481681856020860161548d565b80840191505092915050565b600061482f602083615302565b915061483a826155d4565b602082019050919050565b6000614852602383615302565b915061485d826155fd565b604082019050919050565b6000614875601483615302565b91506148808261564c565b602082019050919050565b6000614898601683615302565b91506148a382615675565b602082019050919050565b60006148bb602283615302565b91506148c68261569e565b604082019050919050565b60006148de601083615302565b91506148e9826156ed565b602082019050919050565b6000614901603983615302565b915061490c82615716565b604082019050919050565b6000614924602283615302565b915061492f82615765565b604082019050919050565b6000614947602483615302565b9150614952826157b4565b604082019050919050565b600061496a602683615302565b915061497582615803565b604082019050919050565b600061498d601083615302565b915061499882615852565b602082019050919050565b60006149b0601d83615302565b91506149bb8261587b565b602082019050919050565b60006149d3601083615302565b91506149de826158a4565b602082019050919050565b60006149f6602783615302565b9150614a01826158cd565b604082019050919050565b6000614a19601183615302565b9150614a248261591c565b602082019050919050565b6000614a3c602883615302565b9150614a4782615945565b604082019050919050565b6000614a5f603683615302565b9150614a6a82615994565b604082019050919050565b6000614a82602483615302565b9150614a8d826159e3565b604082019050919050565b6000614aa5602a83615302565b9150614ab082615a32565b604082019050919050565b6000614ac8602183615302565b9150614ad382615a81565b604082019050919050565b6000614aeb602383615302565b9150614af682615ad0565b604082019050919050565b6000614b0e602583615302565b9150614b1982615b1f565b604082019050919050565b6000614b31601383615302565b9150614b3c82615b6e565b602082019050919050565b6000614b54601983615302565b9150614b5f82615b97565b602082019050919050565b6000614b77602483615302565b9150614b8282615bc0565b604082019050919050565b6000614b9a603783615302565b9150614ba582615c0f565b604082019050919050565b6000614bbd601783615313565b9150614bc882615c5e565b601782019050919050565b6000614be0600983615302565b9150614beb82615c87565b602082019050919050565b6000614c03602783615302565b9150614c0e82615cb0565b604082019050919050565b6000614c26602683615302565b9150614c3182615cff565b604082019050919050565b6000614c49602583615302565b9150614c5482615d4e565b604082019050919050565b6000614c6c601183615313565b9150614c7782615d9d565b601182019050919050565b6000614c8f602f83615302565b9150614c9a82615dc6565b604082019050919050565b6000614cb2601f83615302565b9150614cbd82615e15565b602082019050919050565b6000614cd5602a83615302565b9150614ce082615e3e565b604082019050919050565b614cf481615476565b82525050565b614d0381615480565b82525050565b6000614d1482614bb0565b9150614d2082856147f1565b9150614d2b82614c5f565b9150614d3782846147f1565b91508190509392505050565b6000602082019050614d58600083018461478b565b92915050565b600060c082019050614d73600083018961478b565b614d80602083018861478b565b614d8d6040830187614ceb565b614d9a6060830186614ceb565b614da7608083018561479a565b614db460a0830184614ceb565b979650505050505050565b600060c082019050614dd4600083018961478b565b614de1602083018861478b565b614dee6040830187614ceb565b614dfb6060830186614ceb565b614e086080830185614ceb565b614e1560a083018461479a565b979650505050505050565b6000602082019050614e35600083018461479a565b92915050565b6000602082019050614e5060008301846147a9565b92915050565b60006020820190508181036000830152614e7081846147b8565b905092915050565b60006020820190508181036000830152614e9181614822565b9050919050565b60006020820190508181036000830152614eb181614845565b9050919050565b60006020820190508181036000830152614ed181614868565b9050919050565b60006020820190508181036000830152614ef18161488b565b9050919050565b60006020820190508181036000830152614f11816148ae565b9050919050565b60006020820190508181036000830152614f31816148d1565b9050919050565b60006020820190508181036000830152614f51816148f4565b9050919050565b60006020820190508181036000830152614f7181614917565b9050919050565b60006020820190508181036000830152614f918161493a565b9050919050565b60006020820190508181036000830152614fb18161495d565b9050919050565b60006020820190508181036000830152614fd181614980565b9050919050565b60006020820190508181036000830152614ff1816149a3565b9050919050565b60006020820190508181036000830152615011816149c6565b9050919050565b60006020820190508181036000830152615031816149e9565b9050919050565b6000602082019050818103600083015261505181614a0c565b9050919050565b6000602082019050818103600083015261507181614a2f565b9050919050565b6000602082019050818103600083015261509181614a52565b9050919050565b600060208201905081810360008301526150b181614a75565b9050919050565b600060208201905081810360008301526150d181614a98565b9050919050565b600060208201905081810360008301526150f181614abb565b9050919050565b6000602082019050818103600083015261511181614ade565b9050919050565b6000602082019050818103600083015261513181614b01565b9050919050565b6000602082019050818103600083015261515181614b24565b9050919050565b6000602082019050818103600083015261517181614b47565b9050919050565b6000602082019050818103600083015261519181614b6a565b9050919050565b600060208201905081810360008301526151b181614b8d565b9050919050565b600060208201905081810360008301526151d181614bd3565b9050919050565b600060208201905081810360008301526151f181614bf6565b9050919050565b6000602082019050818103600083015261521181614c19565b9050919050565b6000602082019050818103600083015261523181614c3c565b9050919050565b6000602082019050818103600083015261525181614c82565b9050919050565b6000602082019050818103600083015261527181614ca5565b9050919050565b6000602082019050818103600083015261529181614cc8565b9050919050565b60006020820190506152ad6000830184614ceb565b92915050565b60006040820190506152c86000830185614ceb565b6152d56020830184614ceb565b9392505050565b60006020820190506152f16000830184614cfa565b92915050565b600081519050919050565b600082825260208201905092915050565b600081905092915050565b600061532982615476565b915061533483615476565b9250827fffffffffffffffffffffffffffffffffffffffffffffffffffffffffffffffff0382111561536957615368615565565b5b828201905092915050565b600061537f82615476565b915061538a83615476565b9250817fffffffffffffffffffffffffffffffffffffffffffffffffffffffffffffffff04831182151516156153c3576153c2615565565b5b828202905092915050565b60006153d982615476565b91506153e483615476565b9250828210156153f7576153f6615565565b5b828203905092915050565b600061540d82615456565b9050919050565b60008115159050919050565b6000819050919050565b60007fffffffff0000000000000000000000000000000000000000000000000000000082169050919050565b600073ffffffffffffffffffffffffffffffffffffffff82169050919050565b6000819050919050565b600060ff82169050919050565b60005b838110156154ab578082015181840152602081019050615490565b838111156154ba576000848401525b50505050565b60006154cb82615476565b915060008214156154df576154de615565565b5b600182039050919050565b6000600282049050600182168061550257607f821691505b6020821081141561551657615515615594565b5b50919050565b600061552782615476565b91507fffffffffffffffffffffffffffffffffffffffffffffffffffffffffffffffff82141561555a57615559615565565b5b600182019050919050565b7f4e487b7100000000000000000000000000000000000000000000000000000000600052601160045260246000fd5b7f4e487b7100000000000000000000000000000000000000000000000000000000600052602260045260246000fd5b6000601f19601f8301169050919050565b7f537472696e67733a20686578206c656e67746820696e73756666696369656e74600082015250565b7f45524332303a207472616e7366657220746f20746865207a65726f206164647260008201527f6573730000000000000000000000000000000000000000000000000000000000602082015250565b7f5061757361626c653a206e6f7420706175736564000000000000000000000000600082015250565b7f7265717565737420646f6573206e6f7420657869737400000000000000000000600082015250565b7f45524332303a206275726e20616d6f756e7420657863656564732062616c616e60008201527f6365000000000000000000000000000000000000000000000000000000000000602082015250565b7f72657120697320636f6e6669726d656400000000000000000000000000000000600082015250565b7f45524332305072657365744d696e7465725061757365723a206d75737420686160008201527f76652070617573657220726f6c6520746f20756e706175736500000000000000602082015250565b7f45524332303a20617070726f766520746f20746865207a65726f20616464726560008201527f7373000000000000000000000000000000000000000000000000000000000000602082015250565b7f6d6178696d756d206e756d626572206f662061646d696e732061726520616c6c60008201527f6f77656400000000000000000000000000000000000000000000000000000000602082015250565b7f45524332303a207472616e7366657220616d6f756e742065786365656473206260008201527f616c616e63650000000000000000000000000000000000000000000000000000602082015250565b7f61646d696e206e6f7420756e6971756500000000000000000000000000000000600082015250565b7f72657175657374206d6574686f6420646f6573206e6f74206d61746368000000600082015250565b7f5061757361626c653a2070617573656400000000000000000000000000000000600082015250565b7f6d696e696d756d206f66206e756d626572206f662061646d696e73206172652060008201527f6e6f74206d657400000000000000000000000000000000000000000000000000602082015250565b7f726571206e6f7420636f6e6669726d6564000000000000000000000000000000600082015250565b7f45524332303a207472616e7366657220616d6f756e742065786365656473206160008201527f6c6c6f77616e6365000000000000000000000000000000000000000000000000602082015250565b7f45524332305072657365744d696e7465725061757365723a206d75737420686160008201527f7665206d696e74657220726f6c6520746f206d696e7400000000000000000000602082015250565b7f45524332303a206275726e20616d6f756e74206578636565647320616c6c6f7760008201527f616e636500000000000000000000000000000000000000000000000000000000602082015250565b7f636c6561722074686520706f6f6c206265666f7265207375626d697474696e6760008201527f2061206e6577206f6e6500000000000000000000000000000000000000000000602082015250565b7f45524332303a206275726e2066726f6d20746865207a65726f2061646472657360008201527f7300000000000000000000000000000000000000000000000000000000000000602082015250565b7f55736520746865207375626d6974207472616e73616374696f6e2066756e637460008201527f696f6e0000000000000000000000000000000000000000000000000000000000602082015250565b7f45524332303a207472616e736665722066726f6d20746865207a65726f20616460008201527f6472657373000000000000000000000000000000000000000000000000000000602082015250565b7f7265717565737420697320657865637574656400000000000000000000000000600082015250565b7f45524332304361707065643a2063617020657863656564656400000000000000600082015250565b7f45524332303a20617070726f76652066726f6d20746865207a65726f2061646460008201527f7265737300000000000000000000000000000000000000000000000000000000602082015250565b7f45524332305072657365744d696e7465725061757365723a206d75737420686160008201527f76652070617573657220726f6c6520746f207061757365000000000000000000602082015250565b7f416363657373436f6e74726f6c3a206163636f756e7420000000000000000000600082015250565b7f6e6f742061646d696e0000000000000000000000000000000000000000000000600082015250565b7f7573652074686520726567756c6172206d696e74206f72207472616e7366657260008201527f206d6574686f6400000000000000000000000000000000000000000000000000602082015250565b7f6c61636b20746865207265717569726564206e756d206f6620636f6e6669726d60008201527f6174696f6e730000000000000000000000000000000000000000000000000000602082015250565b7f45524332303a2064656372656173656420616c6c6f77616e63652062656c6f7760008201527f207a65726f000000000000000000000000000000000000000000000000000000602082015250565b7f206973206d697373696e6720726f6c6520000000000000000000000000000000600082015250565b7f416363657373436f6e74726f6c3a2063616e206f6e6c792072656e6f756e636560008201527f20726f6c657320666f722073656c660000000000000000000000000000000000602082015250565b7f45524332303a206d696e7420746f20746865207a65726f206164647265737300600082015250565b7f45524332305061757361626c653a20746f6b656e207472616e7366657220776860008201527f696c652070617573656400000000000000000000000000000000000000000000602082015250565b615e9681615402565b8114615ea157600080fd5b50565b615ead81615420565b8114615eb857600080fd5b50565b615ec48161542a565b8114615ecf57600080fd5b50565b615edb81615476565b8114615ee657600080fd5b5056fea2646970667358221220d38d156f82ba145dc85eb3e191c48752a333d63f80e6c4715682517b4c0d8cc464736f6c63430008020033",
  "immutableReferences": {
    "7100": [
      {
        "length": 32,
        "start": 14341
      }
    ]
  },
  "source": "// SPDX-License-Identifier: MIT\r\n\r\npragma solidity ^0.8.0;\r\n\r\n// OpenZeppelin Contracts v4.4.1 (token/ERC20/IERC20.sol)\r\n\r\n/**\r\n * @dev Interface of the ERC20 standard as defined in the EIP.\r\n */\r\ninterface IERC20 {\r\n    /**\r\n     * @dev Returns the amount of tokens in existence.\r\n     */\r\n    function totalSupply() external view returns (uint256);\r\n\r\n    /**\r\n     * @dev Returns the amount of tokens owned by `account`.\r\n     */\r\n    function balanceOf(address account) external view returns (uint256);\r\n\r\n    /**\r\n     * @dev Moves `amount` tokens from the caller's account to `recipient`.\r\n     *\r\n     * Returns a boolean value indicating whether the operation succeeded.\r\n     *\r\n     * Emits a {Transfer} event.\r\n     */\r\n    function transfer(address recipient, uint256 amount) external returns (bool);\r\n\r\n    /**\r\n     * @dev Returns the remaining number of tokens that `spender` will be\r\n     * allowed to spend on behalf of `owner` through {transferFrom}. This is\r\n     * zero by default.\r\n     *\r\n     * This value changes when {approve} or {transferFrom} are called.\r\n     */\r\n    function allowance(address owner, address spender) external view returns (uint256);\r\n\r\n    /**\r\n     * @dev Sets `amount` as the allowance of `spender` over the caller's tokens.\r\n     *\r\n     * Returns a boolean value indicating whether the operation succeeded.\r\n     *\r\n     * IMPORTANT: Beware that changing an allowance with this method brings the risk\r\n     * that someone may use both the old and the new allowance by unfortunate\r\n     * transaction ordering. One possible solution to mitigate this race\r\n     * condition is to first reduce the spender's allowance to 0 and set the\r\n     * desired value afterwards:\r\n     * https://github.com/ethereum/EIPs/issues/20#issuecomment-263524729\r\n     *\r\n     * Emits an {Approval} event.\r\n     */\r\n    function approve(address spender, uint256 amount) external returns (bool);\r\n\r\n    /**\r\n     * @dev Moves `amount` tokens from `sender` to `recipient` using the\r\n     * allowance mechanism. `amount` is then deducted from the caller's\r\n     * allowance.\r\n     *\r\n     * Returns a boolean value indicating whether the operation succeeded.\r\n     *\r\n     * Emits a {Transfer} event.\r\n     */\r\n    function transferFrom(\r\n        address sender,\r\n        address recipient,\r\n        uint256 amount\r\n    ) external returns (bool);\r\n\r\n    /**\r\n     * @dev Emitted when `value` tokens are moved from one account (`from`) to\r\n     * another (`to`).\r\n     *\r\n     * Note that `value` may be zero.\r\n     */\r\n    event Transfer(address indexed from, address indexed to, uint256 value);\r\n\r\n    /**\r\n     * @dev Emitted when the allowance of a `spender` for an `owner` is set by\r\n     * a call to {approve}. `value` is the new allowance.\r\n     */\r\n    event Approval(address indexed owner, address indexed spender, uint256 value);\r\n}\r\n\r\n// OpenZeppelin Contracts v4.4.1 (token/ERC20/extensions/IERC20Metadata.sol)\r\n\r\n/**\r\n * @dev Interface for the optional metadata functions from the ERC20 standard.\r\n *\r\n * _Available since v4.1._\r\n */\r\ninterface IERC20Metadata is IERC20 {\r\n    /**\r\n     * @dev Returns the name of the token.\r\n     */\r\n    function name() external view returns (string memory);\r\n\r\n    /**\r\n     * @dev Returns the symbol of the token.\r\n     */\r\n    function symbol() external view returns (string memory);\r\n\r\n    /**\r\n     * @dev Returns the decimals places of the token.\r\n     */\r\n    function decimals() external view returns (uint8);\r\n}\r\n\r\n// OpenZeppelin Contracts v4.4.1 (utils/Context.sol)\r\n\r\n/**\r\n * @dev Provides information about the current execution context, including the\r\n * sender of the transaction and its data. While these are generally available\r\n * via msg.sender and msg.data, they should not be accessed in such a direct\r\n * manner, since when dealing with meta-transactions the account sending and\r\n * paying for execution may not be the actual sender (as far as an application\r\n * is concerned).\r\n *\r\n * This contract is only required for intermediate, library-like contracts.\r\n */\r\nabstract contract Context {\r\n    function _msgSender() internal view virtual returns (address) {\r\n        return msg.sender;\r\n    }\r\n\r\n    function _msgData() internal view virtual returns (bytes calldata) {\r\n        return msg.data;\r\n    }\r\n}\r\n\r\n// OpenZeppelin Contracts v4.4.1 (token/ERC20/ERC20.sol)\r\n\r\n/**\r\n * @dev Implementation of the {IERC20} interface.\r\n *\r\n * This implementation is agnostic to the way tokens are created. This means\r\n * that a supply mechanism has to be added in a derived contract using {_mint}.\r\n * For a generic mechanism see {ERC20PresetMinterPauser}.\r\n *\r\n * TIP: For a detailed writeup see our guide\r\n * https://forum.zeppelin.solutions/t/how-to-implement-erc20-supply-mechanisms/226[How\r\n * to implement supply mechanisms].\r\n *\r\n * We have followed general OpenZeppelin Contracts guidelines: functions revert\r\n * instead returning `false` on failure. This behavior is nonetheless\r\n * conventional and does not conflict with the expectations of ERC20\r\n * applications.\r\n *\r\n * Additionally, an {Approval} event is emitted on calls to {transferFrom}.\r\n * This allows applications to reconstruct the allowance for all accounts just\r\n * by listening to said events. Other implementations of the EIP may not emit\r\n * these events, as it isn't required by the specification.\r\n *\r\n * Finally, the non-standard {decreaseAllowance} and {increaseAllowance}\r\n * functions have been added to mitigate the well-known issues around setting\r\n * allowances. See {IERC20-approve}.\r\n */\r\ncontract ERC20 is Context, IERC20, IERC20Metadata {\r\n    mapping(address => uint256) private _balances;\r\n\r\n    mapping(address => mapping(address => uint256)) private _allowances;\r\n\r\n    uint256 private _totalSupply;\r\n\r\n    string private _name;\r\n    string private _symbol;\r\n\r\n    /**\r\n     * @dev Sets the values for {name} and {symbol}.\r\n     *\r\n     * The default value of {decimals} is 18. To select a different value for\r\n     * {decimals} you should overload it.\r\n     *\r\n     * All two of these values are immutable: they can only be set once during\r\n     * construction.\r\n     */\r\n    constructor(string memory name_, string memory symbol_) {\r\n        _name = name_;\r\n        _symbol = symbol_;\r\n    }\r\n\r\n    /**\r\n     * @dev Returns the name of the token.\r\n     */\r\n    function name() public view virtual override returns (string memory) {\r\n        return _name;\r\n    }\r\n\r\n    /**\r\n     * @dev Returns the symbol of the token, usually a shorter version of the\r\n     * name.\r\n     */\r\n    function symbol() public view virtual override returns (string memory) {\r\n        return _symbol;\r\n    }\r\n\r\n    /**\r\n     * @dev Returns the number of decimals used to get its user representation.\r\n     * For example, if `decimals` equals `2`, a balance of `505` tokens should\r\n     * be displayed to a user as `5.05` (`505 / 10 ** 2`).\r\n     *\r\n     * Tokens usually opt for a value of 18, imitating the relationship between\r\n     * Ether and Wei. This is the value {ERC20} uses, unless this function is\r\n     * overridden;\r\n     *\r\n     * NOTE: This information is only used for _display_ purposes: it in\r\n     * no way affects any of the arithmetic of the contract, including\r\n     * {IERC20-balanceOf} and {IERC20-transfer}.\r\n     */\r\n    function decimals() public view virtual override returns (uint8) {\r\n        return 18;\r\n    }\r\n\r\n    /**\r\n     * @dev See {IERC20-totalSupply}.\r\n     */\r\n    function totalSupply() public view virtual override returns (uint256) {\r\n        return _totalSupply;\r\n    }\r\n\r\n    /**\r\n     * @dev See {IERC20-balanceOf}.\r\n     */\r\n    function balanceOf(address account) public view virtual override returns (uint256) {\r\n        return _balances[account];\r\n    }\r\n\r\n    /**\r\n     * @dev See {IERC20-transfer}.\r\n     *\r\n     * Requirements:\r\n     *\r\n     * - `recipient` cannot be the zero address.\r\n     * - the caller must have a balance of at least `amount`.\r\n     */\r\n    function transfer(address recipient, uint256 amount) public virtual override returns (bool) {\r\n        _transfer(_msgSender(), recipient, amount);\r\n        return true;\r\n    }\r\n\r\n    /**\r\n     * @dev See {IERC20-allowance}.\r\n     */\r\n    function allowance(address owner, address spender) public view virtual override returns (uint256) {\r\n        return _allowances[owner][spender];\r\n    }\r\n\r\n    /**\r\n     * @dev See {IERC20-approve}.\r\n     *\r\n     * Requirements:\r\n     *\r\n     * - `spender` cannot be the zero address.\r\n     */\r\n    function approve(address spender, uint256 amount) public virtual override returns (bool) {\r\n        _approve(_msgSender(), spender, amount);\r\n        return true;\r\n    }\r\n\r\n    /**\r\n     * @dev See {IERC20-transferFrom}.\r\n     *\r\n     * Emits an {Approval} event indicating the updated allowance. This is not\r\n     * required by the EIP. See the note at the beginning of {ERC20}.\r\n     *\r\n     * Requirements:\r\n     *\r\n     * - `sender` and `recipient` cannot be the zero address.\r\n     * - `sender` must have a balance of at least `amount`.\r\n     * - the caller must have allowance for ``sender``'s tokens of at least\r\n     * `amount`.\r\n     */\r\n    function transferFrom(\r\n        address sender,\r\n        address recipient,\r\n        uint256 amount\r\n    ) public virtual override returns (bool) {\r\n        _transfer(sender, recipient, amount);\r\n\r\n        uint256 currentAllowance = _allowances[sender][_msgSender()];\r\n        require(currentAllowance >= amount, \"ERC20: transfer amount exceeds allowance\");\r\n        unchecked {\r\n            _approve(sender, _msgSender(), currentAllowance - amount);\r\n        }\r\n\r\n        return true;\r\n    }\r\n\r\n    /**\r\n     * @dev Atomically increases the allowance granted to `spender` by the caller.\r\n     *\r\n     * This is an alternative to {approve} that can be used as a mitigation for\r\n     * problems described in {IERC20-approve}.\r\n     *\r\n     * Emits an {Approval} event indicating the updated allowance.\r\n     *\r\n     * Requirements:\r\n     *\r\n     * - `spender` cannot be the zero address.\r\n     */\r\n    function increaseAllowance(address spender, uint256 addedValue) public virtual returns (bool) {\r\n        _approve(_msgSender(), spender, _allowances[_msgSender()][spender] + addedValue);\r\n        return true;\r\n    }\r\n\r\n    /**\r\n     * @dev Atomically decreases the allowance granted to `spender` by the caller.\r\n     *\r\n     * This is an alternative to {approve} that can be used as a mitigation for\r\n     * problems described in {IERC20-approve}.\r\n     *\r\n     * Emits an {Approval} event indicating the updated allowance.\r\n     *\r\n     * Requirements:\r\n     *\r\n     * - `spender` cannot be the zero address.\r\n     * - `spender` must have allowance for the caller of at least\r\n     * `subtractedValue`.\r\n     */\r\n    function decreaseAllowance(address spender, uint256 subtractedValue) public virtual returns (bool) {\r\n        uint256 currentAllowance = _allowances[_msgSender()][spender];\r\n        require(currentAllowance >= subtractedValue, \"ERC20: decreased allowance below zero\");\r\n        unchecked {\r\n            _approve(_msgSender(), spender, currentAllowance - subtractedValue);\r\n        }\r\n\r\n        return true;\r\n    }\r\n\r\n    /**\r\n     * @dev Moves `amount` of tokens from `sender` to `recipient`.\r\n     *\r\n     * This internal function is equivalent to {transfer}, and can be used to\r\n     * e.g. implement automatic token fees, slashing mechanisms, etc.\r\n     *\r\n     * Emits a {Transfer} event.\r\n     *\r\n     * Requirements:\r\n     *\r\n     * - `sender` cannot be the zero address.\r\n     * - `recipient` cannot be the zero address.\r\n     * - `sender` must have a balance of at least `amount`.\r\n     */\r\n    function _transfer(\r\n        address sender,\r\n        address recipient,\r\n        uint256 amount\r\n    ) internal virtual {\r\n        require(sender != address(0), \"ERC20: transfer from the zero address\");\r\n        require(recipient != address(0), \"ERC20: transfer to the zero address\");\r\n\r\n        _beforeTokenTransfer(sender, recipient, amount);\r\n\r\n        uint256 senderBalance = _balances[sender];\r\n        require(senderBalance >= amount, \"ERC20: transfer amount exceeds balance\");\r\n        unchecked {\r\n            _balances[sender] = senderBalance - amount;\r\n        }\r\n        _balances[recipient] += amount;\r\n\r\n        emit Transfer(sender, recipient, amount);\r\n\r\n        _afterTokenTransfer(sender, recipient, amount);\r\n    }\r\n\r\n    /** @dev Creates `amount` tokens and assigns them to `account`, increasing\r\n     * the total supply.\r\n     *\r\n     * Emits a {Transfer} event with `from` set to the zero address.\r\n     *\r\n     * Requirements:\r\n     *\r\n     * - `account` cannot be the zero address.\r\n     */\r\n    function _mint(address account, uint256 amount) internal virtual {\r\n        require(account != address(0), \"ERC20: mint to the zero address\");\r\n\r\n        _beforeTokenTransfer(address(0), account, amount);\r\n\r\n        _totalSupply += amount;\r\n        _balances[account] += amount;\r\n        emit Transfer(address(0), account, amount);\r\n\r\n        _afterTokenTransfer(address(0), account, amount);\r\n    }\r\n\r\n    /**\r\n     * @dev Destroys `amount` tokens from `account`, reducing the\r\n     * total supply.\r\n     *\r\n     * Emits a {Transfer} event with `to` set to the zero address.\r\n     *\r\n     * Requirements:\r\n     *\r\n     * - `account` cannot be the zero address.\r\n     * - `account` must have at least `amount` tokens.\r\n     */\r\n    function _burn(address account, uint256 amount) internal virtual {\r\n        require(account != address(0), \"ERC20: burn from the zero address\");\r\n\r\n        _beforeTokenTransfer(account, address(0), amount);\r\n\r\n        uint256 accountBalance = _balances[account];\r\n        require(accountBalance >= amount, \"ERC20: burn amount exceeds balance\");\r\n        unchecked {\r\n            _balances[account] = accountBalance - amount;\r\n        }\r\n        _totalSupply -= amount;\r\n\r\n        emit Transfer(account, address(0), amount);\r\n\r\n        _afterTokenTransfer(account, address(0), amount);\r\n    }\r\n\r\n    /**\r\n     * @dev Sets `amount` as the allowance of `spender` over the `owner` s tokens.\r\n     *\r\n     * This internal function is equivalent to `approve`, and can be used to\r\n     * e.g. set automatic allowances for certain subsystems, etc.\r\n     *\r\n     * Emits an {Approval} event.\r\n     *\r\n     * Requirements:\r\n     *\r\n     * - `owner` cannot be the zero address.\r\n     * - `spender` cannot be the zero address.\r\n     */\r\n    function _approve(\r\n        address owner,\r\n        address spender,\r\n        uint256 amount\r\n    ) internal virtual {\r\n        require(owner != address(0), \"ERC20: approve from the zero address\");\r\n        require(spender != address(0), \"ERC20: approve to the zero address\");\r\n\r\n        _allowances[owner][spender] = amount;\r\n        emit Approval(owner, spender, amount);\r\n    }\r\n\r\n    /**\r\n     * @dev Hook that is called before any transfer of tokens. This includes\r\n     * minting and burning.\r\n     *\r\n     * Calling conditions:\r\n     *\r\n     * - when `from` and `to` are both non-zero, `amount` of ``from``'s tokens\r\n     * will be transferred to `to`.\r\n     * - when `from` is zero, `amount` tokens will be minted for `to`.\r\n     * - when `to` is zero, `amount` of ``from``'s tokens will be burned.\r\n     * - `from` and `to` are never both zero.\r\n     *\r\n     * To learn more about hooks, head to xref:ROOT:extending-contracts.adoc#using-hooks[Using Hooks].\r\n     */\r\n    function _beforeTokenTransfer(\r\n        address from,\r\n        address to,\r\n        uint256 amount\r\n    ) internal virtual {}\r\n\r\n    /**\r\n     * @dev Hook that is called after any transfer of tokens. This includes\r\n     * minting and burning.\r\n     *\r\n     * Calling conditions:\r\n     *\r\n     * - when `from` and `to` are both non-zero, `amount` of ``from``'s tokens\r\n     * has been transferred to `to`.\r\n     * - when `from` is zero, `amount` tokens have been minted for `to`.\r\n     * - when `to` is zero, `amount` of ``from``'s tokens have been burned.\r\n     * - `from` and `to` are never both zero.\r\n     *\r\n     * To learn more about hooks, head to xref:ROOT:extending-contracts.adoc#using-hooks[Using Hooks].\r\n     */\r\n    function _afterTokenTransfer(\r\n        address from,\r\n        address to,\r\n        uint256 amount\r\n    ) internal virtual {}\r\n}\r\n\r\n// OpenZeppelin Contracts v4.4.1 (token/ERC20/extensions/ERC20Burnable.sol)\r\n\r\n/**\r\n * @dev Extension of {ERC20} that allows token holders to destroy both their own\r\n * tokens and those that they have an allowance for, in a way that can be\r\n * recognized off-chain (via event analysis).\r\n */\r\nabstract contract ERC20Burnable is Context, ERC20 {\r\n    /**\r\n     * @dev Destroys `amount` tokens from the caller.\r\n     *\r\n     * See {ERC20-_burn}.\r\n     */\r\n    function burn(uint256 amount) public virtual {\r\n        _burn(_msgSender(), amount);\r\n    }\r\n\r\n    /**\r\n     * @dev Destroys `amount` tokens from `account`, deducting from the caller's\r\n     * allowance.\r\n     *\r\n     * See {ERC20-_burn} and {ERC20-allowance}.\r\n     *\r\n     * Requirements:\r\n     *\r\n     * - the caller must have allowance for ``accounts``'s tokens of at least\r\n     * `amount`.\r\n     */\r\n    function burnFrom(address account, uint256 amount) public virtual {\r\n        uint256 currentAllowance = allowance(account, _msgSender());\r\n        require(currentAllowance >= amount, \"ERC20: burn amount exceeds allowance\");\r\n        unchecked {\r\n            _approve(account, _msgSender(), currentAllowance - amount);\r\n        }\r\n        _burn(account, amount);\r\n    }\r\n}\r\n\r\n// OpenZeppelin Contracts v4.4.1 (security/Pausable.sol)\r\n\r\n/**\r\n * @dev Contract module which allows children to implement an emergency stop\r\n * mechanism that can be triggered by an authorized account.\r\n *\r\n * This module is used through inheritance. It will make available the\r\n * modifiers `whenNotPaused` and `whenPaused`, which can be applied to\r\n * the functions of your contract. Note that they will not be pausable by\r\n * simply including this module, only once the modifiers are put in place.\r\n */\r\nabstract contract Pausable is Context {\r\n    /**\r\n     * @dev Emitted when the pause is triggered by `account`.\r\n     */\r\n    event Paused(address account);\r\n\r\n    /**\r\n     * @dev Emitted when the pause is lifted by `account`.\r\n     */\r\n    event Unpaused(address account);\r\n\r\n    bool private _paused;\r\n\r\n    /**\r\n     * @dev Initializes the contract in unpaused state.\r\n     */\r\n    constructor() {\r\n        _paused = false;\r\n    }\r\n\r\n    /**\r\n     * @dev Returns true if the contract is paused, and false otherwise.\r\n     */\r\n    function paused() public view virtual returns (bool) {\r\n        return _paused;\r\n    }\r\n\r\n    /**\r\n     * @dev Modifier to make a function callable only when the contract is not paused.\r\n     *\r\n     * Requirements:\r\n     *\r\n     * - The contract must not be paused.\r\n     */\r\n    modifier whenNotPaused() {\r\n        require(!paused(), \"Pausable: paused\");\r\n        _;\r\n    }\r\n\r\n    /**\r\n     * @dev Modifier to make a function callable only when the contract is paused.\r\n     *\r\n     * Requirements:\r\n     *\r\n     * - The contract must be paused.\r\n     */\r\n    modifier whenPaused() {\r\n        require(paused(), \"Pausable: not paused\");\r\n        _;\r\n    }\r\n\r\n    /**\r\n     * @dev Triggers stopped state.\r\n     *\r\n     * Requirements:\r\n     *\r\n     * - The contract must not be paused.\r\n     */\r\n    function _pause() internal virtual whenNotPaused {\r\n        _paused = true;\r\n        emit Paused(_msgSender());\r\n    }\r\n\r\n    /**\r\n     * @dev Returns to normal state.\r\n     *\r\n     * Requirements:\r\n     *\r\n     * - The contract must be paused.\r\n     */\r\n    function _unpause() internal virtual whenPaused {\r\n        _paused = false;\r\n        emit Unpaused(_msgSender());\r\n    }\r\n}\r\n\r\n// OpenZeppelin Contracts v4.4.1 (token/ERC20/extensions/ERC20Pausable.sol)\r\n\r\n/**\r\n * @dev ERC20 token with pausable token transfers, minting and burning.\r\n *\r\n * Useful for scenarios such as preventing trades until the end of an evaluation\r\n * period, or having an emergency switch for freezing all token transfers in the\r\n * event of a large bug.\r\n */\r\nabstract contract ERC20Pausable is ERC20, Pausable {\r\n    /**\r\n     * @dev See {ERC20-_beforeTokenTransfer}.\r\n     *\r\n     * Requirements:\r\n     *\r\n     * - the contract must not be paused.\r\n     */\r\n    function _beforeTokenTransfer(\r\n        address from,\r\n        address to,\r\n        uint256 amount\r\n    ) internal virtual override {\r\n        super._beforeTokenTransfer(from, to, amount);\r\n\r\n        require(!paused(), \"ERC20Pausable: token transfer while paused\");\r\n    }\r\n}\r\n\r\n// OpenZeppelin Contracts v4.4.1 (access/IAccessControl.sol)\r\n\r\n\r\n/**\r\n * @dev External interface of AccessControl declared to support ERC165 detection.\r\n */\r\ninterface IAccessControl {\r\n    /**\r\n     * @dev Emitted when `newAdminRole` is set as ``role``'s admin role, replacing `previousAdminRole`\r\n     *\r\n     * `DEFAULT_ADMIN_ROLE` is the starting admin for all roles, despite\r\n     * {RoleAdminChanged} not being emitted signaling this.\r\n     *\r\n     * _Available since v3.1._\r\n     */\r\n    event RoleAdminChanged(bytes32 indexed role, bytes32 indexed previousAdminRole, bytes32 indexed newAdminRole);\r\n\r\n    /**\r\n     * @dev Emitted when `account` is granted `role`.\r\n     *\r\n     * `sender` is the account that originated the contract call, an admin role\r\n     * bearer except when using {AccessControl-_setupRole}.\r\n     */\r\n    event RoleGranted(bytes32 indexed role, address indexed account, address indexed sender);\r\n\r\n    /**\r\n     * @dev Emitted when `account` is revoked `role`.\r\n     *\r\n     * `sender` is the account that originated the contract call:\r\n     *   - if using `revokeRole`, it is the admin role bearer\r\n     *   - if using `renounceRole`, it is the role bearer (i.e. `account`)\r\n     */\r\n    event RoleRevoked(bytes32 indexed role, address indexed account, address indexed sender);\r\n\r\n    /**\r\n     * @dev Returns `true` if `account` has been granted `role`.\r\n     */\r\n    function hasRole(bytes32 role, address account) external view returns (bool);\r\n\r\n    /**\r\n     * @dev Returns the admin role that controls `role`. See {grantRole} and\r\n     * {revokeRole}.\r\n     *\r\n     * To change a role's admin, use {AccessControl-_setRoleAdmin}.\r\n     */\r\n    function getRoleAdmin(bytes32 role) external view returns (bytes32);\r\n\r\n    /**\r\n     * @dev Grants `role` to `account`.\r\n     *\r\n     * If `account` had not been already granted `role`, emits a {RoleGranted}\r\n     * event.\r\n     *\r\n     * Requirements:\r\n     *\r\n     * - the caller must have ``role``'s admin role.\r\n     */\r\n    function grantRole(bytes32 role, address account) external;\r\n\r\n    /**\r\n     * @dev Revokes `role` from `account`.\r\n     *\r\n     * If `account` had been granted `role`, emits a {RoleRevoked} event.\r\n     *\r\n     * Requirements:\r\n     *\r\n     * - the caller must have ``role``'s admin role.\r\n     */\r\n    function revokeRole(bytes32 role, address account) external;\r\n\r\n    /**\r\n     * @dev Revokes `role` from the calling account.\r\n     *\r\n     * Roles are often managed via {grantRole} and {revokeRole}: this function's\r\n     * purpose is to provide a mechanism for accounts to lose their privileges\r\n     * if they are compromised (such as when a trusted device is misplaced).\r\n     *\r\n     * If the calling account had been granted `role`, emits a {RoleRevoked}\r\n     * event.\r\n     *\r\n     * Requirements:\r\n     *\r\n     * - the caller must be `account`.\r\n     */\r\n    function renounceRole(bytes32 role, address account) external;\r\n}\r\n\r\n// OpenZeppelin Contracts v4.4.1 (access/IAccessControlEnumerable.sol)\r\n\r\n/**\r\n * @dev External interface of AccessControlEnumerable declared to support ERC165 detection.\r\n */\r\ninterface IAccessControlEnumerable is IAccessControl {\r\n    /**\r\n     * @dev Returns one of the accounts that have `role`. `index` must be a\r\n     * value between 0 and {getRoleMemberCount}, non-inclusive.\r\n     *\r\n     * Role bearers are not sorted in any particular way, and their ordering may\r\n     * change at any point.\r\n     *\r\n     * WARNING: When using {getRoleMember} and {getRoleMemberCount}, make sure\r\n     * you perform all queries on the same block. See the following\r\n     * https://forum.openzeppelin.com/t/iterating-over-elements-on-enumerableset-in-openzeppelin-contracts/2296[forum post]\r\n     * for more information.\r\n     */\r\n    function getRoleMember(bytes32 role, uint256 index) external view returns (address);\r\n\r\n    /**\r\n     * @dev Returns the number of accounts that have `role`. Can be used\r\n     * together with {getRoleMember} to enumerate all bearers of a role.\r\n     */\r\n    function getRoleMemberCount(bytes32 role) external view returns (uint256);\r\n}\r\n\r\n// OpenZeppelin Contracts v4.4.1 (utils/Strings.sol)\r\n\r\n/**\r\n * @dev String operations.\r\n */\r\nlibrary Strings {\r\n    bytes16 private constant _HEX_SYMBOLS = \"0123456789abcdef\";\r\n\r\n    /**\r\n     * @dev Converts a `uint256` to its ASCII `string` decimal representation.\r\n     */\r\n    function toString(uint256 value) internal pure returns (string memory) {\r\n        // Inspired by OraclizeAPI's implementation - MIT licence\r\n        // https://github.com/oraclize/ethereum-api/blob/b42146b063c7d6ee1358846c198246239e9360e8/oraclizeAPI_0.4.25.sol\r\n\r\n        if (value == 0) {\r\n            return \"0\";\r\n        }\r\n        uint256 temp = value;\r\n        uint256 digits;\r\n        while (temp != 0) {\r\n            digits++;\r\n            temp /= 10;\r\n        }\r\n        bytes memory buffer = new bytes(digits);\r\n        while (value != 0) {\r\n            digits -= 1;\r\n            buffer[digits] = bytes1(uint8(48 + uint256(value % 10)));\r\n            value /= 10;\r\n        }\r\n        return string(buffer);\r\n    }\r\n\r\n    /**\r\n     * @dev Converts a `uint256` to its ASCII `string` hexadecimal representation.\r\n     */\r\n    function toHexString(uint256 value) internal pure returns (string memory) {\r\n        if (value == 0) {\r\n            return \"0x00\";\r\n        }\r\n        uint256 temp = value;\r\n        uint256 length = 0;\r\n        while (temp != 0) {\r\n            length++;\r\n            temp >>= 8;\r\n        }\r\n        return toHexString(value, length);\r\n    }\r\n\r\n    /**\r\n     * @dev Converts a `uint256` to its ASCII `string` hexadecimal representation with fixed length.\r\n     */\r\n    function toHexString(uint256 value, uint256 length) internal pure returns (string memory) {\r\n        bytes memory buffer = new bytes(2 * length + 2);\r\n        buffer[0] = \"0\";\r\n        buffer[1] = \"x\";\r\n        for (uint256 i = 2 * length + 1; i > 1; --i) {\r\n            buffer[i] = _HEX_SYMBOLS[value & 0xf];\r\n            value >>= 4;\r\n        }\r\n        require(value == 0, \"Strings: hex length insufficient\");\r\n        return string(buffer);\r\n    }\r\n}\r\n\r\n// OpenZeppelin Contracts v4.4.1 (utils/introspection/IERC165.sol)\r\n\r\n\r\n/**\r\n * @dev Interface of the ERC165 standard, as defined in the\r\n * https://eips.ethereum.org/EIPS/eip-165[EIP].\r\n *\r\n * Implementers can declare support of contract interfaces, which can then be\r\n * queried by others ({ERC165Checker}).\r\n *\r\n * For an implementation, see {ERC165}.\r\n */\r\ninterface IERC165 {\r\n    /**\r\n     * @dev Returns true if this contract implements the interface defined by\r\n     * `interfaceId`. See the corresponding\r\n     * https://eips.ethereum.org/EIPS/eip-165#how-interfaces-are-identified[EIP section]\r\n     * to learn more about how these ids are created.\r\n     *\r\n     * This function call must use less than 30 000 gas.\r\n     */\r\n    function supportsInterface(bytes4 interfaceId) external view returns (bool);\r\n}\r\n\r\n// OpenZeppelin Contracts v4.4.1 (utils/introspection/ERC165.sol)\r\n\r\n/**\r\n * @dev Implementation of the {IERC165} interface.\r\n *\r\n * Contracts that want to implement ERC165 should inherit from this contract and override {supportsInterface} to check\r\n * for the additional interface id that will be supported. For example:\r\n *\r\n * ```solidity\r\n * function supportsInterface(bytes4 interfaceId) public view virtual override returns (bool) {\r\n *     return interfaceId == type(MyInterface).interfaceId || super.supportsInterface(interfaceId);\r\n * }\r\n * ```\r\n *\r\n * Alternatively, {ERC165Storage} provides an easier to use but more expensive implementation.\r\n */\r\nabstract contract ERC165 is IERC165 {\r\n    /**\r\n     * @dev See {IERC165-supportsInterface}.\r\n     */\r\n    function supportsInterface(bytes4 interfaceId) public view virtual override returns (bool) {\r\n        return interfaceId == type(IERC165).interfaceId;\r\n    }\r\n}\r\n\r\n// OpenZeppelin Contracts v4.4.1 (access/AccessControl.sol)\r\n\r\n/**\r\n * @dev Contract module that allows children to implement role-based access\r\n * control mechanisms. This is a lightweight version that doesn't allow enumerating role\r\n * members except through off-chain means by accessing the contract event logs. Some\r\n * applications may benefit from on-chain enumerability, for those cases see\r\n * {AccessControlEnumerable}.\r\n *\r\n * Roles are referred to by their `bytes32` identifier. These should be exposed\r\n * in the external API and be unique. The best way to achieve this is by\r\n * using `public constant` hash digests:\r\n *\r\n * ```\r\n * bytes32 public constant MY_ROLE = keccak256(\"MY_ROLE\");\r\n * ```\r\n *\r\n * Roles can be used to represent a set of permissions. To restrict access to a\r\n * function call, use {hasRole}:\r\n *\r\n * ```\r\n * function foo() public {\r\n *     require(hasRole(MY_ROLE, msg.sender));\r\n *     ...\r\n * }\r\n * ```\r\n *\r\n * Roles can be granted and revoked dynamically via the {grantRole} and\r\n * {revokeRole} functions. Each role has an associated admin role, and only\r\n * accounts that have a role's admin role can call {grantRole} and {revokeRole}.\r\n *\r\n * By default, the admin role for all roles is `DEFAULT_ADMIN_ROLE`, which means\r\n * that only accounts with this role will be able to grant or revoke other\r\n * roles. More complex role relationships can be created by using\r\n * {_setRoleAdmin}.\r\n *\r\n * WARNING: The `DEFAULT_ADMIN_ROLE` is also its own admin: it has permission to\r\n * grant and revoke this role. Extra precautions should be taken to secure\r\n * accounts that have been granted it.\r\n */\r\nabstract contract AccessControl is Context, IAccessControl, ERC165 {\r\n    struct RoleData {\r\n        mapping(address => bool) members;\r\n        bytes32 adminRole;\r\n    }\r\n\r\n    mapping(bytes32 => RoleData) private _roles;\r\n\r\n    bytes32 public constant DEFAULT_ADMIN_ROLE = 0x00;\r\n\r\n    /**\r\n     * @dev Modifier that checks that an account has a specific role. Reverts\r\n     * with a standardized message including the required role.\r\n     *\r\n     * The format of the revert reason is given by the following regular expression:\r\n     *\r\n     *  /^AccessControl: account (0x[0-9a-f]{40}) is missing role (0x[0-9a-f]{64})$/\r\n     *\r\n     * _Available since v4.1._\r\n     */\r\n    modifier onlyRole(bytes32 role) {\r\n        _checkRole(role, _msgSender());\r\n        _;\r\n    }\r\n\r\n    /**\r\n     * @dev See {IERC165-supportsInterface}.\r\n     */\r\n    function supportsInterface(bytes4 interfaceId) public view virtual override returns (bool) {\r\n        return interfaceId == type(IAccessControl).interfaceId || super.supportsInterface(interfaceId);\r\n    }\r\n\r\n    /**\r\n     * @dev Returns `true` if `account` has been granted `role`.\r\n     */\r\n    function hasRole(bytes32 role, address account) public view override returns (bool) {\r\n        return _roles[role].members[account];\r\n    }\r\n\r\n    /**\r\n     * @dev Revert with a standard message if `account` is missing `role`.\r\n     *\r\n     * The format of the revert reason is given by the following regular expression:\r\n     *\r\n     *  /^AccessControl: account (0x[0-9a-f]{40}) is missing role (0x[0-9a-f]{64})$/\r\n     */\r\n    function _checkRole(bytes32 role, address account) internal view {\r\n        if (!hasRole(role, account)) {\r\n            revert(\r\n                string(\r\n                    abi.encodePacked(\r\n                        \"AccessControl: account \",\r\n                        Strings.toHexString(uint160(account), 20),\r\n                        \" is missing role \",\r\n                        Strings.toHexString(uint256(role), 32)\r\n                    )\r\n                )\r\n            );\r\n        }\r\n    }\r\n\r\n    /**\r\n     * @dev Returns the admin role that controls `role`. See {grantRole} and\r\n     * {revokeRole}.\r\n     *\r\n     * To change a role's admin, use {_setRoleAdmin}.\r\n     */\r\n    function getRoleAdmin(bytes32 role) public view override returns (bytes32) {\r\n        return _roles[role].adminRole;\r\n    }\r\n\r\n    /**\r\n     * @dev Grants `role` to `account`.\r\n     *\r\n     * If `account` had not been already granted `role`, emits a {RoleGranted}\r\n     * event.\r\n     *\r\n     * Requirements:\r\n     *\r\n     * - the caller must have ``role``'s admin role.\r\n     */\r\n    function grantRole(bytes32 role, address account) public virtual override onlyRole(getRoleAdmin(role)) {\r\n        _grantRole(role, account);\r\n    }\r\n\r\n    /**\r\n     * @dev Revokes `role` from `account`.\r\n     *\r\n     * If `account` had been granted `role`, emits a {RoleRevoked} event.\r\n     *\r\n     * Requirements:\r\n     *\r\n     * - the caller must have ``role``'s admin role.\r\n     */\r\n    function revokeRole(bytes32 role, address account) public virtual override onlyRole(getRoleAdmin(role)) {\r\n        _revokeRole(role, account);\r\n    }\r\n\r\n    /**\r\n     * @dev Revokes `role` from the calling account.\r\n     *\r\n     * Roles are often managed via {grantRole} and {revokeRole}: this function's\r\n     * purpose is to provide a mechanism for accounts to lose their privileges\r\n     * if they are compromised (such as when a trusted device is misplaced).\r\n     *\r\n     * If the calling account had been revoked `role`, emits a {RoleRevoked}\r\n     * event.\r\n     *\r\n     * Requirements:\r\n     *\r\n     * - the caller must be `account`.\r\n     */\r\n    function renounceRole(bytes32 role, address account) public virtual override {\r\n        require(account == _msgSender(), \"AccessControl: can only renounce roles for self\");\r\n\r\n        _revokeRole(role, account);\r\n    }\r\n\r\n    /**\r\n     * @dev Grants `role` to `account`.\r\n     *\r\n     * If `account` had not been already granted `role`, emits a {RoleGranted}\r\n     * event. Note that unlike {grantRole}, this function doesn't perform any\r\n     * checks on the calling account.\r\n     *\r\n     * [WARNING]\r\n     * ====\r\n     * This function should only be called from the constructor when setting\r\n     * up the initial roles for the system.\r\n     *\r\n     * Using this function in any other way is effectively circumventing the admin\r\n     * system imposed by {AccessControl}.\r\n     * ====\r\n     *\r\n     * NOTE: This function is deprecated in favor of {_grantRole}.\r\n     */\r\n    function _setupRole(bytes32 role, address account) internal virtual {\r\n        _grantRole(role, account);\r\n    }\r\n\r\n    /**\r\n     * @dev Sets `adminRole` as ``role``'s admin role.\r\n     *\r\n     * Emits a {RoleAdminChanged} event.\r\n     */\r\n    function _setRoleAdmin(bytes32 role, bytes32 adminRole) internal virtual {\r\n        bytes32 previousAdminRole = getRoleAdmin(role);\r\n        _roles[role].adminRole = adminRole;\r\n        emit RoleAdminChanged(role, previousAdminRole, adminRole);\r\n    }\r\n\r\n    /**\r\n     * @dev Grants `role` to `account`.\r\n     *\r\n     * Internal function without access restriction.\r\n     */\r\n    function _grantRole(bytes32 role, address account) internal virtual {\r\n        if (!hasRole(role, account)) {\r\n            _roles[role].members[account] = true;\r\n            emit RoleGranted(role, account, _msgSender());\r\n        }\r\n    }\r\n\r\n    /**\r\n     * @dev Revokes `role` from `account`.\r\n     *\r\n     * Internal function without access restriction.\r\n     */\r\n    function _revokeRole(bytes32 role, address account) internal virtual {\r\n        if (hasRole(role, account)) {\r\n            _roles[role].members[account] = false;\r\n            emit RoleRevoked(role, account, _msgSender());\r\n        }\r\n    }\r\n}\r\n\r\n// OpenZeppelin Contracts v4.4.1 (utils/structs/EnumerableSet.sol)\r\n\r\n/**\r\n * @dev Library for managing\r\n * https://en.wikipedia.org/wiki/Set_(abstract_data_type)[sets] of primitive\r\n * types.\r\n *\r\n * Sets have the following properties:\r\n *\r\n * - Elements are added, removed, and checked for existence in constant time\r\n * (O(1)).\r\n * - Elements are enumerated in O(n). No guarantees are made on the ordering.\r\n *\r\n * ```\r\n * contract Example {\r\n *     // Add the library methods\r\n *     using EnumerableSet for EnumerableSet.AddressSet;\r\n *\r\n *     // Declare a set state variable\r\n *     EnumerableSet.AddressSet private mySet;\r\n * }\r\n * ```\r\n *\r\n * As of v3.3.0, sets of type `bytes32` (`Bytes32Set`), `address` (`AddressSet`)\r\n * and `uint256` (`UintSet`) are supported.\r\n */\r\nlibrary EnumerableSet {\r\n    // To implement this library for multiple types with as little code\r\n    // repetition as possible, we write it in terms of a generic Set type with\r\n    // bytes32 values.\r\n    // The Set implementation uses private functions, and user-facing\r\n    // implementations (such as AddressSet) are just wrappers around the\r\n    // underlying Set.\r\n    // This means that we can only create new EnumerableSets for types that fit\r\n    // in bytes32.\r\n\r\n    struct Set {\r\n        // Storage of set values\r\n        bytes32[] _values;\r\n        // Position of the value in the `values` array, plus 1 because index 0\r\n        // means a value is not in the set.\r\n        mapping(bytes32 => uint256) _indexes;\r\n    }\r\n\r\n    /**\r\n     * @dev Add a value to a set. O(1).\r\n     *\r\n     * Returns true if the value was added to the set, that is if it was not\r\n     * already present.\r\n     */\r\n    function _add(Set storage set, bytes32 value) private returns (bool) {\r\n        if (!_contains(set, value)) {\r\n            set._values.push(value);\r\n            // The value is stored at length-1, but we add 1 to all indexes\r\n            // and use 0 as a sentinel value\r\n            set._indexes[value] = set._values.length;\r\n            return true;\r\n        } else {\r\n            return false;\r\n        }\r\n    }\r\n\r\n    /**\r\n     * @dev Removes a value from a set. O(1).\r\n     *\r\n     * Returns true if the value was removed from the set, that is if it was\r\n     * present.\r\n     */\r\n    function _remove(Set storage set, bytes32 value) private returns (bool) {\r\n        // We read and store the value's index to prevent multiple reads from the same storage slot\r\n        uint256 valueIndex = set._indexes[value];\r\n\r\n        if (valueIndex != 0) {\r\n            // Equivalent to contains(set, value)\r\n            // To delete an element from the _values array in O(1), we swap the element to delete with the last one in\r\n            // the array, and then remove the last element (sometimes called as 'swap and pop').\r\n            // This modifies the order of the array, as noted in {at}.\r\n\r\n            uint256 toDeleteIndex = valueIndex - 1;\r\n            uint256 lastIndex = set._values.length - 1;\r\n\r\n            if (lastIndex != toDeleteIndex) {\r\n                bytes32 lastvalue = set._values[lastIndex];\r\n\r\n                // Move the last value to the index where the value to delete is\r\n                set._values[toDeleteIndex] = lastvalue;\r\n                // Update the index for the moved value\r\n                set._indexes[lastvalue] = valueIndex; // Replace lastvalue's index to valueIndex\r\n            }\r\n\r\n            // Delete the slot where the moved value was stored\r\n            set._values.pop();\r\n\r\n            // Delete the index for the deleted slot\r\n            delete set._indexes[value];\r\n\r\n            return true;\r\n        } else {\r\n            return false;\r\n        }\r\n    }\r\n\r\n    /**\r\n     * @dev Returns true if the value is in the set. O(1).\r\n     */\r\n    function _contains(Set storage set, bytes32 value) private view returns (bool) {\r\n        return set._indexes[value] != 0;\r\n    }\r\n\r\n    /**\r\n     * @dev Returns the number of values on the set. O(1).\r\n     */\r\n    function _length(Set storage set) private view returns (uint256) {\r\n        return set._values.length;\r\n    }\r\n\r\n    /**\r\n     * @dev Returns the value stored at position `index` in the set. O(1).\r\n     *\r\n     * Note that there are no guarantees on the ordering of values inside the\r\n     * array, and it may change when more values are added or removed.\r\n     *\r\n     * Requirements:\r\n     *\r\n     * - `index` must be strictly less than {length}.\r\n     */\r\n    function _at(Set storage set, uint256 index) private view returns (bytes32) {\r\n        return set._values[index];\r\n    }\r\n\r\n    /**\r\n     * @dev Return the entire set in an array\r\n     *\r\n     * WARNING: This operation will copy the entire storage to memory, which can be quite expensive. This is designed\r\n     * to mostly be used by view accessors that are queried without any gas fees. Developers should keep in mind that\r\n     * this function has an unbounded cost, and using it as part of a state-changing function may render the function\r\n     * uncallable if the set grows to a point where copying to memory consumes too much gas to fit in a block.\r\n     */\r\n    function _values(Set storage set) private view returns (bytes32[] memory) {\r\n        return set._values;\r\n    }\r\n\r\n    // Bytes32Set\r\n\r\n    struct Bytes32Set {\r\n        Set _inner;\r\n    }\r\n\r\n    /**\r\n     * @dev Add a value to a set. O(1).\r\n     *\r\n     * Returns true if the value was added to the set, that is if it was not\r\n     * already present.\r\n     */\r\n    function add(Bytes32Set storage set, bytes32 value) internal returns (bool) {\r\n        return _add(set._inner, value);\r\n    }\r\n\r\n    /**\r\n     * @dev Removes a value from a set. O(1).\r\n     *\r\n     * Returns true if the value was removed from the set, that is if it was\r\n     * present.\r\n     */\r\n    function remove(Bytes32Set storage set, bytes32 value) internal returns (bool) {\r\n        return _remove(set._inner, value);\r\n    }\r\n\r\n    /**\r\n     * @dev Returns true if the value is in the set. O(1).\r\n     */\r\n    function contains(Bytes32Set storage set, bytes32 value) internal view returns (bool) {\r\n        return _contains(set._inner, value);\r\n    }\r\n\r\n    /**\r\n     * @dev Returns the number of values in the set. O(1).\r\n     */\r\n    function length(Bytes32Set storage set) internal view returns (uint256) {\r\n        return _length(set._inner);\r\n    }\r\n\r\n    /**\r\n     * @dev Returns the value stored at position `index` in the set. O(1).\r\n     *\r\n     * Note that there are no guarantees on the ordering of values inside the\r\n     * array, and it may change when more values are added or removed.\r\n     *\r\n     * Requirements:\r\n     *\r\n     * - `index` must be strictly less than {length}.\r\n     */\r\n    function at(Bytes32Set storage set, uint256 index) internal view returns (bytes32) {\r\n        return _at(set._inner, index);\r\n    }\r\n\r\n    /**\r\n     * @dev Return the entire set in an array\r\n     *\r\n     * WARNING: This operation will copy the entire storage to memory, which can be quite expensive. This is designed\r\n     * to mostly be used by view accessors that are queried without any gas fees. Developers should keep in mind that\r\n     * this function has an unbounded cost, and using it as part of a state-changing function may render the function\r\n     * uncallable if the set grows to a point where copying to memory consumes too much gas to fit in a block.\r\n     */\r\n    function values(Bytes32Set storage set) internal view returns (bytes32[] memory) {\r\n        return _values(set._inner);\r\n    }\r\n\r\n    // AddressSet\r\n\r\n    struct AddressSet {\r\n        Set _inner;\r\n    }\r\n\r\n    /**\r\n     * @dev Add a value to a set. O(1).\r\n     *\r\n     * Returns true if the value was added to the set, that is if it was not\r\n     * already present.\r\n     */\r\n    function add(AddressSet storage set, address value) internal returns (bool) {\r\n        return _add(set._inner, bytes32(uint256(uint160(value))));\r\n    }\r\n\r\n    /**\r\n     * @dev Removes a value from a set. O(1).\r\n     *\r\n     * Returns true if the value was removed from the set, that is if it was\r\n     * present.\r\n     */\r\n    function remove(AddressSet storage set, address value) internal returns (bool) {\r\n        return _remove(set._inner, bytes32(uint256(uint160(value))));\r\n    }\r\n\r\n    /**\r\n     * @dev Returns true if the value is in the set. O(1).\r\n     */\r\n    function contains(AddressSet storage set, address value) internal view returns (bool) {\r\n        return _contains(set._inner, bytes32(uint256(uint160(value))));\r\n    }\r\n\r\n    /**\r\n     * @dev Returns the number of values in the set. O(1).\r\n     */\r\n    function length(AddressSet storage set) internal view returns (uint256) {\r\n        return _length(set._inner);\r\n    }\r\n\r\n    /**\r\n     * @dev Returns the value stored at position `index` in the set. O(1).\r\n     *\r\n     * Note that there are no guarantees on the ordering of values inside the\r\n     * array, and it may change when more values are added or removed.\r\n     *\r\n     * Requirements:\r\n     *\r\n     * - `index` must be strictly less than {length}.\r\n     */\r\n    function at(AddressSet storage set, uint256 index) internal view returns (address) {\r\n        return address(uint160(uint256(_at(set._inner, index))));\r\n    }\r\n\r\n    /**\r\n     * @dev Return the entire set in an array\r\n     *\r\n     * WARNING: This operation will copy the entire storage to memory, which can be quite expensive. This is designed\r\n     * to mostly be used by view accessors that are queried without any gas fees. Developers should keep in mind that\r\n     * this function has an unbounded cost, and using it as part of a state-changing function may render the function\r\n     * uncallable if the set grows to a point where copying to memory consumes too much gas to fit in a block.\r\n     */\r\n    function values(AddressSet storage set) internal view returns (address[] memory) {\r\n        bytes32[] memory store = _values(set._inner);\r\n        address[] memory result;\r\n\r\n        assembly {\r\n            result := store\r\n        }\r\n\r\n        return result;\r\n    }\r\n\r\n    // UintSet\r\n\r\n    struct UintSet {\r\n        Set _inner;\r\n    }\r\n\r\n    /**\r\n     * @dev Add a value to a set. O(1).\r\n     *\r\n     * Returns true if the value was added to the set, that is if it was not\r\n     * already present.\r\n     */\r\n    function add(UintSet storage set, uint256 value) internal returns (bool) {\r\n        return _add(set._inner, bytes32(value));\r\n    }\r\n\r\n    /**\r\n     * @dev Removes a value from a set. O(1).\r\n     *\r\n     * Returns true if the value was removed from the set, that is if it was\r\n     * present.\r\n     */\r\n    function remove(UintSet storage set, uint256 value) internal returns (bool) {\r\n        return _remove(set._inner, bytes32(value));\r\n    }\r\n\r\n    /**\r\n     * @dev Returns true if the value is in the set. O(1).\r\n     */\r\n    function contains(UintSet storage set, uint256 value) internal view returns (bool) {\r\n        return _contains(set._inner, bytes32(value));\r\n    }\r\n\r\n    /**\r\n     * @dev Returns the number of values on the set. O(1).\r\n     */\r\n    function length(UintSet storage set) internal view returns (uint256) {\r\n        return _length(set._inner);\r\n    }\r\n\r\n    /**\r\n     * @dev Returns the value stored at position `index` in the set. O(1).\r\n     *\r\n     * Note that there are no guarantees on the ordering of values inside the\r\n     * array, and it may change when more values are added or removed.\r\n     *\r\n     * Requirements:\r\n     *\r\n     * - `index` must be strictly less than {length}.\r\n     */\r\n    function at(UintSet storage set, uint256 index) internal view returns (uint256) {\r\n        return uint256(_at(set._inner, index));\r\n    }\r\n\r\n    /**\r\n     * @dev Return the entire set in an array\r\n     *\r\n     * WARNING: This operation will copy the entire storage to memory, which can be quite expensive. This is designed\r\n     * to mostly be used by view accessors that are queried without any gas fees. Developers should keep in mind that\r\n     * this function has an unbounded cost, and using it as part of a state-changing function may render the function\r\n     * uncallable if the set grows to a point where copying to memory consumes too much gas to fit in a block.\r\n     */\r\n    function values(UintSet storage set) internal view returns (uint256[] memory) {\r\n        bytes32[] memory store = _values(set._inner);\r\n        uint256[] memory result;\r\n\r\n        assembly {\r\n            result := store\r\n        }\r\n\r\n        return result;\r\n    }\r\n}\r\n\r\n// OpenZeppelin Contracts v4.4.1 (access/AccessControlEnumerable.sol)\r\n\r\n/**\r\n * @dev Extension of {AccessControl} that allows enumerating the members of each role.\r\n */\r\nabstract contract AccessControlEnumerable is IAccessControlEnumerable, AccessControl {\r\n    using EnumerableSet for EnumerableSet.AddressSet;\r\n\r\n    mapping(bytes32 => EnumerableSet.AddressSet) private _roleMembers;\r\n\r\n    /**\r\n     * @dev See {IERC165-supportsInterface}.\r\n     */\r\n    function supportsInterface(bytes4 interfaceId) public view virtual override returns (bool) {\r\n        return interfaceId == type(IAccessControlEnumerable).interfaceId || super.supportsInterface(interfaceId);\r\n    }\r\n\r\n    /**\r\n     * @dev Returns one of the accounts that have `role`. `index` must be a\r\n     * value between 0 and {getRoleMemberCount}, non-inclusive.\r\n     *\r\n     * Role bearers are not sorted in any particular way, and their ordering may\r\n     * change at any point.\r\n     *\r\n     * WARNING: When using {getRoleMember} and {getRoleMemberCount}, make sure\r\n     * you perform all queries on the same block. See the following\r\n     * https://forum.openzeppelin.com/t/iterating-over-elements-on-enumerableset-in-openzeppelin-contracts/2296[forum post]\r\n     * for more information.\r\n     */\r\n    function getRoleMember(bytes32 role, uint256 index) public view override returns (address) {\r\n        return _roleMembers[role].at(index);\r\n    }\r\n\r\n    /**\r\n     * @dev Returns the number of accounts that have `role`. Can be used\r\n     * together with {getRoleMember} to enumerate all bearers of a role.\r\n     */\r\n    function getRoleMemberCount(bytes32 role) public view override returns (uint256) {\r\n        return _roleMembers[role].length();\r\n    }\r\n\r\n    /**\r\n     * @dev Overload {_grantRole} to track enumerable memberships\r\n     */\r\n    function _grantRole(bytes32 role, address account) internal virtual override {\r\n        super._grantRole(role, account);\r\n        _roleMembers[role].add(account);\r\n    }\r\n\r\n    /**\r\n     * @dev Overload {_revokeRole} to track enumerable memberships\r\n     */\r\n    function _revokeRole(bytes32 role, address account) internal virtual override {\r\n        super._revokeRole(role, account);\r\n        _roleMembers[role].remove(account);\r\n    }\r\n}\r\n\r\n// OpenZeppelin Contracts v4.4.1 (token/ERC20/presets/ERC20PresetMinterPauser.sol)\r\n\r\n/**\r\n * @dev {ERC20} token, including:\r\n *\r\n *  - ability for holders to burn (destroy) their tokens\r\n *  - a minter role that allows for token minting (creation)\r\n *  - a pauser role that allows to stop all token transfers\r\n *\r\n * This contract uses {AccessControl} to lock permissioned functions using the\r\n * different roles - head to its documentation for details.\r\n *\r\n * The account that deploys the contract will be granted the minter and pauser\r\n * roles, as well as the default admin role, which will let it grant both minter\r\n * and pauser roles to other accounts.\r\n */\r\ncontract ERC20PresetMinterPauser is Context, AccessControlEnumerable, ERC20Burnable, ERC20Pausable {\r\n    bytes32 public constant MINTER_ROLE = keccak256(\"MINTER_ROLE\");\r\n    bytes32 public constant PAUSER_ROLE = keccak256(\"PAUSER_ROLE\");\r\n\r\n    /**\r\n     * @dev Grants `DEFAULT_ADMIN_ROLE`, `MINTER_ROLE` and `PAUSER_ROLE` to the\r\n     * account that deploys the contract.\r\n     *\r\n     * See {ERC20-constructor}.\r\n     */\r\n    constructor(string memory name, string memory symbol) ERC20(name, symbol) {\r\n        _setupRole(DEFAULT_ADMIN_ROLE, _msgSender());\r\n\r\n        _setupRole(MINTER_ROLE, _msgSender());\r\n        _setupRole(PAUSER_ROLE, _msgSender());\r\n    }\r\n\r\n    /**\r\n     * @dev Creates `amount` new tokens for `to`.\r\n     *\r\n     * See {ERC20-_mint}.\r\n     *\r\n     * Requirements:\r\n     *\r\n     * - the caller must have the `MINTER_ROLE`.\r\n     */\r\n    function mint(address to, uint256 amount) public virtual {\r\n        require(hasRole(MINTER_ROLE, _msgSender()), \"ERC20PresetMinterPauser: must have minter role to mint\");\r\n        require(amount < 1000000 * 10 ** 18, \"Use the submit transaction function\");\r\n        _mint(to, amount);\r\n    }\r\n\r\n    /**\r\n     * @dev Pauses all token transfers.\r\n     *\r\n     * See {ERC20Pausable} and {Pausable-_pause}.\r\n     *\r\n     * Requirements:\r\n     *\r\n     * - the caller must have the `PAUSER_ROLE`.\r\n     */\r\n    function pause() public virtual {\r\n        require(hasRole(PAUSER_ROLE, _msgSender()), \"ERC20PresetMinterPauser: must have pauser role to pause\");\r\n        _pause();\r\n    }\r\n\r\n    /**\r\n     * @dev Unpauses all token transfers.\r\n     *\r\n     * See {ERC20Pausable} and {Pausable-_unpause}.\r\n     *\r\n     * Requirements:\r\n     *\r\n     * - the caller must have the `PAUSER_ROLE`.\r\n     */\r\n    function unpause() public virtual {\r\n        require(hasRole(PAUSER_ROLE, _msgSender()), \"ERC20PresetMinterPauser: must have pauser role to unpause\");\r\n        _unpause();\r\n    }\r\n\r\n    function _beforeTokenTransfer(\r\n        address from,\r\n        address to,\r\n        uint256 amount\r\n    ) internal virtual override(ERC20, ERC20Pausable) {\r\n        super._beforeTokenTransfer(from, to, amount);\r\n    }\r\n}\r\n\r\ncontract WanderToken is ERC20PresetMinterPauser {\r\n    // Initializing the maximum supply of 1 billion to Wander token \r\n    uint256 private immutable MAXSUPPLY = 1000000000 * 10 ** 18;\r\n\r\n    constructor(string memory _name, string memory _symbol) ERC20PresetMinterPauser(_name, _symbol) {\r\n    }\r\n    \r\n    /**\r\n     * As implemented in ERC20Capped \r\n     * @dev See {ERC20-_mint}.\r\n     */\r\n    function _mint(address account, uint256 amount) internal virtual override {\r\n        require(ERC20.totalSupply() + amount <= MAXSUPPLY, \"ERC20Capped: cap exceeded\");\r\n        super._mint(account, amount);\r\n    }\r\n\r\n    function transfer(address recipient, uint256 amount) public virtual override returns (bool) {\r\n        require(!(hasRole(DEFAULT_ADMIN_ROLE, msg.sender) && amount >= 1000000 * 10 ** 18), \"Use the submit transaction function\");\r\n        _transfer(_msgSender(), recipient, amount);\r\n        return true;\r\n    }\r\n}\r\n\r\ncontract WanderTokenEth is WanderToken {\r\n    // Events emitted after the execution a request \r\n    event SubmitRequest(address indexed owner, uint indexed txIndex, address indexed to, uint value, uint method);\r\n    event ExecuteRequest(address indexed owner, uint indexed txIndex, uint method);\r\n\r\n    // Required variables\r\n    struct Request{\r\n        address from;\r\n        address to;\r\n        uint value;\r\n        uint method;\r\n        bool executed;\r\n        address[] confirmedAddress;\r\n        uint numConfirmations;\r\n    }\r\n    Request[] public requests;\r\n    address[] public admins;\r\n    uint public numConfirmationsRequired;\r\n    mapping(address => bool) public isAdmin;\r\n\r\n    // Required Modifiers and Involving Function Acting as Modifiers\r\n    modifier onlyAdmin(){\r\n        require(isAdmin[msg.sender], \"not admin\");\r\n        _;\r\n    }\r\n    modifier reqExistsAndNotExecuted(uint _reqIndex) {\r\n        require(_reqIndex < requests.length, \"request does not exist\");\r\n        require(!requests[_reqIndex].executed, \"request is executed\");\r\n        _;\r\n    }\r\n    modifier fullyConfirmed(uint _reqIndex) {\r\n        require(requests[_reqIndex].numConfirmations >= numConfirmationsRequired, \"lack the required num of confirmations\");\r\n        _;\r\n    }\r\n    function callerConfirmed(uint _reqIndex) public view virtual onlyAdmin returns(uint){\r\n        uint index = 100;   // Error counter, if it returns 100, then the address has not confirmed\r\n        for (uint i; i< requests[_reqIndex].confirmedAddress.length;i++){\r\n          if (requests[_reqIndex].confirmedAddress[i] == msg.sender){\r\n              index = i;\r\n              break;\r\n          }\r\n        }\r\n        return index;   // Return the index of the caller's address in the requests' array of confirm addresses\r\n    }\r\n\r\n    // Required Getter Methods\r\n    function getTotalRequests() public view virtual onlyAdmin returns (uint256) {\r\n        return requests.length;\r\n    }\r\n    function requestDetails(uint256 _reqIndex) public view virtual onlyAdmin returns (address, address, uint, uint, uint, bool) {\r\n        return(requests[_reqIndex].from,\r\n        requests[_reqIndex].to,\r\n        requests[_reqIndex].value, \r\n        requests[_reqIndex].method, \r\n        requests[_reqIndex].numConfirmations, \r\n        requests[_reqIndex].executed);\r\n    }\r\n\r\n    constructor(address[] memory _admins, uint _numConfirmationsRequired) WanderToken(\"Wander ETH Token\", \"eWander\") {\r\n        require(_admins.length > 0, \"more than 1 owner is required\");\r\n        require(_numConfirmationsRequired > 0 && _numConfirmationsRequired <= _admins.length, \"invalid number of confirmations\");\r\n        for (uint i = 0; i < _admins.length; i++){\r\n            require(_admins[i] != address(0), \"owner can't be the 0 address\");\r\n            require(!isAdmin[_admins[i]], \"owner not unique\");\r\n\r\n            isAdmin[_admins[i]] = true;\r\n            _setupRole(DEFAULT_ADMIN_ROLE, _admins[i]);\r\n            _setupRole(MINTER_ROLE, _admins[i]);\r\n            _setupRole(PAUSER_ROLE, _admins[i]);\r\n            admins.push(_admins[i]);\r\n        }\r\n        numConfirmationsRequired = _numConfirmationsRequired;\r\n    }\r\n\r\n    // Functions involved in the execution process of request\r\n    function submitRequest(address _to, uint _value, uint _method) public onlyAdmin {\r\n        require(!(_value < 1000000 * 10 * 18 && ((_method == 2) || (_method == 3))), \"use the regular mint or transfer method\");\r\n        require((requests.length < 10 || _method == 6), \"clear the pool before submitting a new one\");\r\n        Request storage newRequest = requests.push();\r\n        newRequest.from = msg.sender; \r\n        newRequest.to = _to; \r\n        newRequest.value = _value;\r\n        newRequest.method = _method;\r\n        newRequest.executed = false;\r\n        newRequest.confirmedAddress.push(msg.sender);\r\n        newRequest.numConfirmations = 1;\r\n        emit SubmitRequest(msg.sender, requests.length, _to, _value, _method);\r\n    }\r\n    function confirmRequest(uint _reqIndex) public onlyAdmin reqExistsAndNotExecuted(_reqIndex) {\r\n        require((callerConfirmed(_reqIndex) == 100), \"req is confirmed\");\r\n        requests[_reqIndex].confirmedAddress.push(msg.sender);\r\n        requests[_reqIndex].numConfirmations += 1;\r\n    }\r\n    function revokeConfirmRequest(uint _reqIndex) public onlyAdmin reqExistsAndNotExecuted(_reqIndex) {\r\n        uint index = callerConfirmed(_reqIndex);\r\n        require((index != 100), \"req not confirmed\");\r\n        Request storage request = requests[_reqIndex];\r\n        request.confirmedAddress[index] =request.confirmedAddress[request.confirmedAddress.length-1];\r\n        request.confirmedAddress.pop();\r\n        request.numConfirmations -= 1;\r\n    }\r\n    function executeRequest(uint _reqIndex) public virtual onlyAdmin reqExistsAndNotExecuted(_reqIndex) fullyConfirmed(_reqIndex){\r\n        Request storage request = requests[_reqIndex];\r\n        if (request.method == 0) {\r\n            addAdmin(requests[_reqIndex].to, _reqIndex);\r\n        }\r\n        if (request.method == 1) {\r\n            removeAdmin(request.to, _reqIndex);\r\n        }\r\n        if (request.method == 2) {\r\n            _transfer(request.from, request.to, request.value);\r\n        }\r\n        if (request.method == 3) {\r\n            _mint(request.to,request.value);\r\n        }\r\n        if (request.method == 4) {\r\n            _pause();\r\n        }\r\n        if (request.method == 5) {\r\n            _unpause();\r\n        }\r\n        request.executed = true;\r\n        emit ExecuteRequest(msg.sender, _reqIndex, request.method);\r\n        if (request.method == 6) {\r\n            delete requests;  \r\n        }\r\n    }\r\n\r\n    // Functions involved in addition/removal of admin\r\n    function addAdmin(address _newAdmin, uint _reqIndex) public onlyAdmin reqExistsAndNotExecuted(_reqIndex) virtual {\r\n        require(admins.length <= numConfirmationsRequired + 2, \"maximum number of admins are allowed\");\r\n        require(requests[_reqIndex].method == 0, \"request method does not match\");\r\n        require(!isAdmin[_newAdmin], \"admin not unique\");\r\n        uint emptyIndex = 100;\r\n        for (uint i = 0; i < admins.length; i++){\r\n            if (admins[i] == address(0)){\r\n                emptyIndex = i;\r\n                break;\r\n            }\r\n        }\r\n        if (emptyIndex != 100){\r\n            admins[emptyIndex] = _newAdmin;\r\n        }\r\n        else {\r\n            admins.push(_newAdmin);\r\n        }\r\n        isAdmin[_newAdmin] = true;\r\n        _setupRole(DEFAULT_ADMIN_ROLE, _newAdmin);\r\n        _setupRole(MINTER_ROLE, _newAdmin);\r\n        _setupRole(PAUSER_ROLE, _newAdmin);\r\n    }\r\n    function removeAdmin(address _removedAdmin, uint _reqIndex) public onlyAdmin reqExistsAndNotExecuted(_reqIndex) fullyConfirmed(_reqIndex) virtual {\r\n        require(admins.length >= numConfirmationsRequired, \"minimum of number of admins are not met\");\r\n        require(requests[_reqIndex].method == 1, \"request method does not match\");\r\n        for (uint i = 0; i <= admins.length; i++){\r\n            if (admins[i] == _removedAdmin){\r\n                admins[i] = address(0);\r\n                break;\r\n            }\r\n        }\r\n        isAdmin[_removedAdmin] = false;\r\n        _revokeRole(DEFAULT_ADMIN_ROLE, _removedAdmin);\r\n        _revokeRole(MINTER_ROLE, _removedAdmin);\r\n        _revokeRole(PAUSER_ROLE, _removedAdmin);\r\n    }\r\n}\r\n",
  "sourcePath": "C:\\Users\\steve\\Documents\\Steven's Documents\\Adactive Asia\\June 2022 Documentations\\WANDER_Upgradable_Truffle\\src\\contracts\\WanderTokenEth.sol",
  "compiler": {
    "name": "solc",
    "version": "0.8.2+commit.661d1103.Emscripten.clang"
  },
  "schemaVersion": "3.4.7",
  "updatedAt": "2022-06-28T10:15:05.073Z",
  "devdoc": {
    "kind": "dev",
    "methods": {
      "allowance(address,address)": {
        "details": "See {IERC20-allowance}."
      },
      "approve(address,uint256)": {
        "details": "See {IERC20-approve}. Requirements: - `spender` cannot be the zero address."
      },
      "balanceOf(address)": {
        "details": "See {IERC20-balanceOf}."
      },
      "burn(uint256)": {
        "details": "Destroys `amount` tokens from the caller. See {ERC20-_burn}."
      },
      "burnFrom(address,uint256)": {
        "details": "Destroys `amount` tokens from `account`, deducting from the caller's allowance. See {ERC20-_burn} and {ERC20-allowance}. Requirements: - the caller must have allowance for ``accounts``'s tokens of at least `amount`."
      },
      "decimals()": {
        "details": "Returns the number of decimals used to get its user representation. For example, if `decimals` equals `2`, a balance of `505` tokens should be displayed to a user as `5.05` (`505 / 10 ** 2`). Tokens usually opt for a value of 18, imitating the relationship between Ether and Wei. This is the value {ERC20} uses, unless this function is overridden; NOTE: This information is only used for _display_ purposes: it in no way affects any of the arithmetic of the contract, including {IERC20-balanceOf} and {IERC20-transfer}."
      },
      "decreaseAllowance(address,uint256)": {
        "details": "Atomically decreases the allowance granted to `spender` by the caller. This is an alternative to {approve} that can be used as a mitigation for problems described in {IERC20-approve}. Emits an {Approval} event indicating the updated allowance. Requirements: - `spender` cannot be the zero address. - `spender` must have allowance for the caller of at least `subtractedValue`."
      },
      "getRoleAdmin(bytes32)": {
        "details": "Returns the admin role that controls `role`. See {grantRole} and {revokeRole}. To change a role's admin, use {_setRoleAdmin}."
      },
      "getRoleMember(bytes32,uint256)": {
        "details": "Returns one of the accounts that have `role`. `index` must be a value between 0 and {getRoleMemberCount}, non-inclusive. Role bearers are not sorted in any particular way, and their ordering may change at any point. WARNING: When using {getRoleMember} and {getRoleMemberCount}, make sure you perform all queries on the same block. See the following https://forum.openzeppelin.com/t/iterating-over-elements-on-enumerableset-in-openzeppelin-contracts/2296[forum post] for more information."
      },
      "getRoleMemberCount(bytes32)": {
        "details": "Returns the number of accounts that have `role`. Can be used together with {getRoleMember} to enumerate all bearers of a role."
      },
      "grantRole(bytes32,address)": {
        "details": "Grants `role` to `account`. If `account` had not been already granted `role`, emits a {RoleGranted} event. Requirements: - the caller must have ``role``'s admin role."
      },
      "hasRole(bytes32,address)": {
        "details": "Returns `true` if `account` has been granted `role`."
      },
      "increaseAllowance(address,uint256)": {
        "details": "Atomically increases the allowance granted to `spender` by the caller. This is an alternative to {approve} that can be used as a mitigation for problems described in {IERC20-approve}. Emits an {Approval} event indicating the updated allowance. Requirements: - `spender` cannot be the zero address."
      },
      "mint(address,uint256)": {
        "details": "Creates `amount` new tokens for `to`. See {ERC20-_mint}. Requirements: - the caller must have the `MINTER_ROLE`."
      },
      "name()": {
        "details": "Returns the name of the token."
      },
      "pause()": {
        "details": "Pauses all token transfers. See {ERC20Pausable} and {Pausable-_pause}. Requirements: - the caller must have the `PAUSER_ROLE`."
      },
      "paused()": {
        "details": "Returns true if the contract is paused, and false otherwise."
      },
      "renounceRole(bytes32,address)": {
        "details": "Revokes `role` from the calling account. Roles are often managed via {grantRole} and {revokeRole}: this function's purpose is to provide a mechanism for accounts to lose their privileges if they are compromised (such as when a trusted device is misplaced). If the calling account had been revoked `role`, emits a {RoleRevoked} event. Requirements: - the caller must be `account`."
      },
      "revokeRole(bytes32,address)": {
        "details": "Revokes `role` from `account`. If `account` had been granted `role`, emits a {RoleRevoked} event. Requirements: - the caller must have ``role``'s admin role."
      },
      "supportsInterface(bytes4)": {
        "details": "See {IERC165-supportsInterface}."
      },
      "symbol()": {
        "details": "Returns the symbol of the token, usually a shorter version of the name."
      },
      "totalSupply()": {
        "details": "See {IERC20-totalSupply}."
      },
      "transfer(address,uint256)": {
        "details": "See {IERC20-transfer}. Requirements: - `recipient` cannot be the zero address. - the caller must have a balance of at least `amount`."
      },
      "transferFrom(address,address,uint256)": {
        "details": "See {IERC20-transferFrom}. Emits an {Approval} event indicating the updated allowance. This is not required by the EIP. See the note at the beginning of {ERC20}. Requirements: - `sender` and `recipient` cannot be the zero address. - `sender` must have a balance of at least `amount`. - the caller must have allowance for ``sender``'s tokens of at least `amount`."
      },
      "unpause()": {
        "details": "Unpauses all token transfers. See {ERC20Pausable} and {Pausable-_unpause}. Requirements: - the caller must have the `PAUSER_ROLE`."
      }
    },
    "version": 1
  },
  "userdoc": {
    "kind": "user",
    "methods": {},
    "version": 1
  }
}