{
  "contractName": "WanderTokenPolV2",
  "abi": [
    {
      "anonymous": false,
      "inputs": [
        {
          "indexed": true,
          "internalType": "address",
          "name": "owner",
          "type": "address"
        },
        {
          "indexed": true,
          "internalType": "address",
          "name": "spender",
          "type": "address"
        },
        {
          "indexed": false,
          "internalType": "uint256",
          "name": "value",
          "type": "uint256"
        }
      ],
      "name": "Approval",
      "type": "event"
    },
    {
      "anonymous": false,
      "inputs": [
        {
          "indexed": false,
          "internalType": "uint8",
          "name": "version",
          "type": "uint8"
        }
      ],
      "name": "Initialized",
      "type": "event"
    },
    {
      "anonymous": false,
      "inputs": [
        {
          "indexed": false,
          "internalType": "address",
          "name": "account",
          "type": "address"
        }
      ],
      "name": "Paused",
      "type": "event"
    },
    {
      "anonymous": false,
      "inputs": [
        {
          "indexed": true,
          "internalType": "bytes32",
          "name": "role",
          "type": "bytes32"
        },
        {
          "indexed": true,
          "internalType": "bytes32",
          "name": "previousAdminRole",
          "type": "bytes32"
        },
        {
          "indexed": true,
          "internalType": "bytes32",
          "name": "newAdminRole",
          "type": "bytes32"
        }
      ],
      "name": "RoleAdminChanged",
      "type": "event"
    },
    {
      "anonymous": false,
      "inputs": [
        {
          "indexed": true,
          "internalType": "bytes32",
          "name": "role",
          "type": "bytes32"
        },
        {
          "indexed": true,
          "internalType": "address",
          "name": "account",
          "type": "address"
        },
        {
          "indexed": true,
          "internalType": "address",
          "name": "sender",
          "type": "address"
        }
      ],
      "name": "RoleGranted",
      "type": "event"
    },
    {
      "anonymous": false,
      "inputs": [
        {
          "indexed": true,
          "internalType": "bytes32",
          "name": "role",
          "type": "bytes32"
        },
        {
          "indexed": true,
          "internalType": "address",
          "name": "account",
          "type": "address"
        },
        {
          "indexed": true,
          "internalType": "address",
          "name": "sender",
          "type": "address"
        }
      ],
      "name": "RoleRevoked",
      "type": "event"
    },
    {
      "anonymous": false,
      "inputs": [
        {
          "indexed": true,
          "internalType": "address",
          "name": "from",
          "type": "address"
        },
        {
          "indexed": true,
          "internalType": "address",
          "name": "to",
          "type": "address"
        },
        {
          "indexed": false,
          "internalType": "uint256",
          "name": "value",
          "type": "uint256"
        }
      ],
      "name": "Transfer",
      "type": "event"
    },
    {
      "anonymous": false,
      "inputs": [
        {
          "indexed": false,
          "internalType": "address",
          "name": "account",
          "type": "address"
        }
      ],
      "name": "Unpaused",
      "type": "event"
    },
    {
      "inputs": [],
      "name": "DEFAULT_ADMIN_ROLE",
      "outputs": [
        {
          "internalType": "bytes32",
          "name": "",
          "type": "bytes32"
        }
      ],
      "stateMutability": "view",
      "type": "function",
      "constant": true
    },
    {
      "inputs": [],
      "name": "MINTER_ROLE",
      "outputs": [
        {
          "internalType": "bytes32",
          "name": "",
          "type": "bytes32"
        }
      ],
      "stateMutability": "view",
      "type": "function",
      "constant": true
    },
    {
      "inputs": [],
      "name": "PAUSER_ROLE",
      "outputs": [
        {
          "internalType": "bytes32",
          "name": "",
          "type": "bytes32"
        }
      ],
      "stateMutability": "view",
      "type": "function",
      "constant": true
    },
    {
      "inputs": [
        {
          "internalType": "uint256",
          "name": "",
          "type": "uint256"
        }
      ],
      "name": "admins",
      "outputs": [
        {
          "internalType": "address",
          "name": "",
          "type": "address"
        }
      ],
      "stateMutability": "view",
      "type": "function",
      "constant": true
    },
    {
      "inputs": [
        {
          "internalType": "address",
          "name": "owner",
          "type": "address"
        },
        {
          "internalType": "address",
          "name": "spender",
          "type": "address"
        }
      ],
      "name": "allowance",
      "outputs": [
        {
          "internalType": "uint256",
          "name": "",
          "type": "uint256"
        }
      ],
      "stateMutability": "view",
      "type": "function",
      "constant": true
    },
    {
      "inputs": [
        {
          "internalType": "address",
          "name": "spender",
          "type": "address"
        },
        {
          "internalType": "uint256",
          "name": "amount",
          "type": "uint256"
        }
      ],
      "name": "approve",
      "outputs": [
        {
          "internalType": "bool",
          "name": "",
          "type": "bool"
        }
      ],
      "stateMutability": "nonpayable",
      "type": "function"
    },
    {
      "inputs": [
        {
          "internalType": "address",
          "name": "account",
          "type": "address"
        }
      ],
      "name": "balanceOf",
      "outputs": [
        {
          "internalType": "uint256",
          "name": "",
          "type": "uint256"
        }
      ],
      "stateMutability": "view",
      "type": "function",
      "constant": true
    },
    {
      "inputs": [
        {
          "internalType": "uint256",
          "name": "amount",
          "type": "uint256"
        }
      ],
      "name": "burn",
      "outputs": [],
      "stateMutability": "nonpayable",
      "type": "function"
    },
    {
      "inputs": [
        {
          "internalType": "address",
          "name": "account",
          "type": "address"
        },
        {
          "internalType": "uint256",
          "name": "amount",
          "type": "uint256"
        }
      ],
      "name": "burnFrom",
      "outputs": [],
      "stateMutability": "nonpayable",
      "type": "function"
    },
    {
      "inputs": [],
      "name": "decimals",
      "outputs": [
        {
          "internalType": "uint8",
          "name": "",
          "type": "uint8"
        }
      ],
      "stateMutability": "view",
      "type": "function",
      "constant": true
    },
    {
      "inputs": [
        {
          "internalType": "address",
          "name": "spender",
          "type": "address"
        },
        {
          "internalType": "uint256",
          "name": "subtractedValue",
          "type": "uint256"
        }
      ],
      "name": "decreaseAllowance",
      "outputs": [
        {
          "internalType": "bool",
          "name": "",
          "type": "bool"
        }
      ],
      "stateMutability": "nonpayable",
      "type": "function"
    },
    {
      "inputs": [
        {
          "internalType": "bytes32",
          "name": "role",
          "type": "bytes32"
        }
      ],
      "name": "getRoleAdmin",
      "outputs": [
        {
          "internalType": "bytes32",
          "name": "",
          "type": "bytes32"
        }
      ],
      "stateMutability": "view",
      "type": "function",
      "constant": true
    },
    {
      "inputs": [
        {
          "internalType": "bytes32",
          "name": "role",
          "type": "bytes32"
        },
        {
          "internalType": "uint256",
          "name": "index",
          "type": "uint256"
        }
      ],
      "name": "getRoleMember",
      "outputs": [
        {
          "internalType": "address",
          "name": "",
          "type": "address"
        }
      ],
      "stateMutability": "view",
      "type": "function",
      "constant": true
    },
    {
      "inputs": [
        {
          "internalType": "bytes32",
          "name": "role",
          "type": "bytes32"
        }
      ],
      "name": "getRoleMemberCount",
      "outputs": [
        {
          "internalType": "uint256",
          "name": "",
          "type": "uint256"
        }
      ],
      "stateMutability": "view",
      "type": "function",
      "constant": true
    },
    {
      "inputs": [
        {
          "internalType": "bytes32",
          "name": "role",
          "type": "bytes32"
        },
        {
          "internalType": "address",
          "name": "account",
          "type": "address"
        }
      ],
      "name": "grantRole",
      "outputs": [],
      "stateMutability": "nonpayable",
      "type": "function"
    },
    {
      "inputs": [
        {
          "internalType": "bytes32",
          "name": "role",
          "type": "bytes32"
        },
        {
          "internalType": "address",
          "name": "account",
          "type": "address"
        }
      ],
      "name": "hasRole",
      "outputs": [
        {
          "internalType": "bool",
          "name": "",
          "type": "bool"
        }
      ],
      "stateMutability": "view",
      "type": "function",
      "constant": true
    },
    {
      "inputs": [
        {
          "internalType": "address",
          "name": "spender",
          "type": "address"
        },
        {
          "internalType": "uint256",
          "name": "addedValue",
          "type": "uint256"
        }
      ],
      "name": "increaseAllowance",
      "outputs": [
        {
          "internalType": "bool",
          "name": "",
          "type": "bool"
        }
      ],
      "stateMutability": "nonpayable",
      "type": "function"
    },
    {
      "inputs": [],
      "name": "name",
      "outputs": [
        {
          "internalType": "string",
          "name": "",
          "type": "string"
        }
      ],
      "stateMutability": "view",
      "type": "function",
      "constant": true
    },
    {
      "inputs": [
        {
          "internalType": "uint256",
          "name": "",
          "type": "uint256"
        }
      ],
      "name": "newVariable",
      "outputs": [
        {
          "internalType": "uint256",
          "name": "",
          "type": "uint256"
        }
      ],
      "stateMutability": "view",
      "type": "function",
      "constant": true
    },
    {
      "inputs": [],
      "name": "numConfirmationsRequired",
      "outputs": [
        {
          "internalType": "uint256",
          "name": "",
          "type": "uint256"
        }
      ],
      "stateMutability": "view",
      "type": "function",
      "constant": true
    },
    {
      "inputs": [],
      "name": "pause",
      "outputs": [],
      "stateMutability": "nonpayable",
      "type": "function"
    },
    {
      "inputs": [],
      "name": "paused",
      "outputs": [
        {
          "internalType": "bool",
          "name": "",
          "type": "bool"
        }
      ],
      "stateMutability": "view",
      "type": "function",
      "constant": true
    },
    {
      "inputs": [
        {
          "internalType": "bytes32",
          "name": "role",
          "type": "bytes32"
        },
        {
          "internalType": "address",
          "name": "account",
          "type": "address"
        }
      ],
      "name": "renounceRole",
      "outputs": [],
      "stateMutability": "nonpayable",
      "type": "function"
    },
    {
      "inputs": [
        {
          "internalType": "uint256",
          "name": "",
          "type": "uint256"
        }
      ],
      "name": "requests",
      "outputs": [
        {
          "internalType": "address",
          "name": "from",
          "type": "address"
        },
        {
          "internalType": "address",
          "name": "to",
          "type": "address"
        },
        {
          "internalType": "uint256",
          "name": "value",
          "type": "uint256"
        },
        {
          "internalType": "uint256",
          "name": "method",
          "type": "uint256"
        },
        {
          "internalType": "bool",
          "name": "executed",
          "type": "bool"
        },
        {
          "internalType": "uint256",
          "name": "numConfirmations",
          "type": "uint256"
        }
      ],
      "stateMutability": "view",
      "type": "function",
      "constant": true
    },
    {
      "inputs": [
        {
          "internalType": "bytes32",
          "name": "role",
          "type": "bytes32"
        },
        {
          "internalType": "address",
          "name": "account",
          "type": "address"
        }
      ],
      "name": "revokeRole",
      "outputs": [],
      "stateMutability": "nonpayable",
      "type": "function"
    },
    {
      "inputs": [
        {
          "internalType": "bytes4",
          "name": "interfaceId",
          "type": "bytes4"
        }
      ],
      "name": "supportsInterface",
      "outputs": [
        {
          "internalType": "bool",
          "name": "",
          "type": "bool"
        }
      ],
      "stateMutability": "view",
      "type": "function",
      "constant": true
    },
    {
      "inputs": [],
      "name": "symbol",
      "outputs": [
        {
          "internalType": "string",
          "name": "",
          "type": "string"
        }
      ],
      "stateMutability": "view",
      "type": "function",
      "constant": true
    },
    {
      "inputs": [],
      "name": "totalSupply",
      "outputs": [
        {
          "internalType": "uint256",
          "name": "",
          "type": "uint256"
        }
      ],
      "stateMutability": "view",
      "type": "function",
      "constant": true
    },
    {
      "inputs": [
        {
          "internalType": "address",
          "name": "from",
          "type": "address"
        },
        {
          "internalType": "address",
          "name": "to",
          "type": "address"
        },
        {
          "internalType": "uint256",
          "name": "amount",
          "type": "uint256"
        }
      ],
      "name": "transferFrom",
      "outputs": [
        {
          "internalType": "bool",
          "name": "",
          "type": "bool"
        }
      ],
      "stateMutability": "nonpayable",
      "type": "function"
    },
    {
      "inputs": [],
      "name": "unpause",
      "outputs": [],
      "stateMutability": "nonpayable",
      "type": "function"
    },
    {
      "inputs": [
        {
          "internalType": "uint256",
          "name": "_reqIndex",
          "type": "uint256"
        }
      ],
      "name": "callerConfirmed",
      "outputs": [
        {
          "internalType": "uint256",
          "name": "",
          "type": "uint256"
        }
      ],
      "stateMutability": "view",
      "type": "function",
      "constant": true
    },
    {
      "inputs": [
        {
          "internalType": "string",
          "name": "name",
          "type": "string"
        },
        {
          "internalType": "string",
          "name": "symbol",
          "type": "string"
        }
      ],
      "name": "initialize",
      "outputs": [],
      "stateMutability": "nonpayable",
      "type": "function"
    },
    {
      "inputs": [
        {
          "internalType": "address[]",
          "name": "_admins",
          "type": "address[]"
        },
        {
          "internalType": "uint256",
          "name": "_numConfirmationsRequired",
          "type": "uint256"
        }
      ],
      "name": "initialize",
      "outputs": [],
      "stateMutability": "nonpayable",
      "type": "function"
    },
    {
      "inputs": [
        {
          "internalType": "address",
          "name": "to",
          "type": "address"
        },
        {
          "internalType": "uint256",
          "name": "amount",
          "type": "uint256"
        }
      ],
      "name": "mint",
      "outputs": [],
      "stateMutability": "nonpayable",
      "type": "function"
    },
    {
      "inputs": [
        {
          "internalType": "address",
          "name": "recipient",
          "type": "address"
        },
        {
          "internalType": "uint256",
          "name": "amount",
          "type": "uint256"
        }
      ],
      "name": "transfer",
      "outputs": [
        {
          "internalType": "bool",
          "name": "",
          "type": "bool"
        }
      ],
      "stateMutability": "nonpayable",
      "type": "function"
    },
    {
      "inputs": [],
      "name": "getTotalRequests",
      "outputs": [
        {
          "internalType": "uint256",
          "name": "",
          "type": "uint256"
        }
      ],
      "stateMutability": "view",
      "type": "function",
      "constant": true
    },
    {
      "inputs": [],
      "name": "getNewVariableLength",
      "outputs": [
        {
          "internalType": "uint256",
          "name": "",
          "type": "uint256"
        }
      ],
      "stateMutability": "view",
      "type": "function",
      "constant": true
    },
    {
      "inputs": [
        {
          "internalType": "uint256",
          "name": "_reqIndex",
          "type": "uint256"
        }
      ],
      "name": "requestDetails",
      "outputs": [
        {
          "internalType": "address",
          "name": "",
          "type": "address"
        },
        {
          "internalType": "address",
          "name": "",
          "type": "address"
        },
        {
          "internalType": "uint256",
          "name": "",
          "type": "uint256"
        },
        {
          "internalType": "uint256",
          "name": "",
          "type": "uint256"
        },
        {
          "internalType": "uint256",
          "name": "",
          "type": "uint256"
        },
        {
          "internalType": "bool",
          "name": "",
          "type": "bool"
        }
      ],
      "stateMutability": "view",
      "type": "function",
      "constant": true
    },
    {
      "inputs": [
        {
          "internalType": "address",
          "name": "_to",
          "type": "address"
        },
        {
          "internalType": "uint256",
          "name": "_value",
          "type": "uint256"
        },
        {
          "internalType": "uint256",
          "name": "_method",
          "type": "uint256"
        }
      ],
      "name": "submitRequest",
      "outputs": [],
      "stateMutability": "nonpayable",
      "type": "function"
    },
    {
      "inputs": [
        {
          "internalType": "uint256",
          "name": "_reqIndex",
          "type": "uint256"
        }
      ],
      "name": "confirmRequest",
      "outputs": [],
      "stateMutability": "nonpayable",
      "type": "function"
    },
    {
      "inputs": [
        {
          "internalType": "uint256",
          "name": "_reqIndex",
          "type": "uint256"
        }
      ],
      "name": "revokeConfirmRequest",
      "outputs": [],
      "stateMutability": "nonpayable",
      "type": "function"
    },
    {
      "inputs": [
        {
          "internalType": "uint256",
          "name": "_reqIndex",
          "type": "uint256"
        }
      ],
      "name": "executeRequest",
      "outputs": [],
      "stateMutability": "nonpayable",
      "type": "function"
    }
  ],
  "bytecode": "0x608060405234801561001057600080fd5b50615f7e80620000216000396000f3fe608060405234801561001057600080fd5b506004361061025e5760003560e01c806379cc679011610146578063a9059cbb116100c3578063d539139311610087578063d539139314610789578063d547741f146107a7578063dd62ed3e146107c3578063e63ab1e9146107f3578063e835ea2914610811578063f0e22d521461082d5761025e565b8063a9059cbb146106a6578063adb31fed146106d6578063c2ba131614610706578063ca15c8731461073b578063d0549b851461076b5761025e565b806391d148541161010a57806391d14854146105ee57806395d89b411461061e578063a217fddf1461063c578063a457c2d71461065a578063a6b2c4371461068a5761025e565b806379cc6790146105335780637c1859071461054f57806381d12c581461057f5780638456cb59146105b45780639010d07c146105be5761025e565b806336568abe116101df5780634cd88b76116101a35780634cd88b76146104735780635c975abb1461048f57806360b5bb3f146104ad57806366da5771146104c95780636e417c69146104e757806370a08231146105035761025e565b806336568abe146103e557806339509351146104015780633f4ba83a1461043157806340c10f191461043b57806342966c68146104575761025e565b806318160ddd1161022657806318160ddd1461032d57806323b872dd1461034b578063248a9ca31461037b5780632f2ff15d146103ab578063313ce567146103c75761025e565b806301ffc9a71461026357806306fdde0314610293578063095ea7b3146102b157806314bfd6d0146102e15780631558028214610311575b600080fd5b61027d60048036038101906102789190614576565b61084b565b60405161028a9190614d1e565b60405180910390f35b61029b6108c5565b6040516102a89190614d6f565b60405180910390f35b6102cb60048036038101906102c691906143f6565b610957565b6040516102d89190614d1e565b60405180910390f35b6102fb60048036038101906102f6919061460b565b61097a565b6040516103089190614c41565b60405180910390f35b61032b60048036038101906103269190614432565b6109ba565b005b610335610bc3565b60405161034291906151f1565b60405180910390f35b610365600480360381019061036091906143a7565b610bcd565b6040516103729190614d1e565b60405180910390f35b610395600480360381019061039091906144d5565b610bfc565b6040516103a29190614d39565b60405180910390f35b6103c560048036038101906103c091906144fe565b610c1c565b005b6103cf610c3d565b6040516103dc919061520c565b60405180910390f35b6103ff60048036038101906103fa91906144fe565b610c46565b005b61041b600480360381019061041691906143f6565b610cc9565b6040516104289190614d1e565b60405180910390f35b610439610d00565b005b610455600480360381019061045091906143f6565b610d7a565b005b610471600480360381019061046c919061460b565b610e9c565b005b61048d6004803603810190610488919061459f565b610eb0565b005b610497610f48565b6040516104a49190614d1e565b60405180910390f35b6104c760048036038101906104c29190614481565b610f60565b005b6104d1611434565b6040516104de91906151f1565b60405180910390f35b61050160048036038101906104fc919061460b565b61144a565b005b61051d60048036038101906105189190614342565b611b0a565b60405161052a91906151f1565b60405180910390f35b61054d600480360381019061054891906143f6565b611b53565b005b6105696004803603810190610564919061460b565b611b73565b60405161057691906151f1565b60405180910390f35b6105996004803603810190610594919061460b565b611ce4565b6040516105ab96959493929190614c5c565b60405180910390f35b6105bc611d7e565b005b6105d860048036038101906105d3919061453a565b611df8565b6040516105e59190614c41565b60405180910390f35b610608600480360381019061060391906144fe565b611e27565b6040516106159190614d1e565b60405180910390f35b610626611e92565b6040516106339190614d6f565b60405180910390f35b610644611f24565b6040516106519190614d39565b60405180910390f35b610674600480360381019061066f91906143f6565b611f2b565b6040516106819190614d1e565b60405180910390f35b6106a4600480360381019061069f919061460b565b611fa2565b005b6106c060048036038101906106bb91906143f6565b612112565b6040516106cd9190614d1e565b60405180910390f35b6106f060048036038101906106eb919061460b565b61218d565b6040516106fd91906151f1565b60405180910390f35b610720600480360381019061071b919061460b565b6121b2565b60405161073296959493929190614cbd565b60405180910390f35b610755600480360381019061075091906144d5565b6123f3565b60405161076291906151f1565b60405180910390f35b610773612417565b60405161078091906151f1565b60405180910390f35b61079161241e565b60405161079e9190614d39565b60405180910390f35b6107c160048036038101906107bc91906144fe565b612442565b005b6107dd60048036038101906107d8919061436b565b612463565b6040516107ea91906151f1565b60405180910390f35b6107fb6124ea565b6040516108089190614d39565b60405180910390f35b61082b6004803603810190610826919061460b565b61250e565b005b61083561274b565b60405161084291906151f1565b60405180910390f35b60007f5a05180f000000000000000000000000000000000000000000000000000000007bffffffffffffffffffffffffffffffffffffffffffffffffffffffff1916827bffffffffffffffffffffffffffffffffffffffffffffffffffffffff191614806108be57506108bd82612761565b5b9050919050565b606060cc80546108d4906154bd565b80601f0160208091040260200160405190810160405280929190818152602001828054610900906154bd565b801561094d5780601f106109225761010080835404028352916020019161094d565b820191906000526020600020905b81548152906001019060200180831161093057829003601f168201915b5050505050905090565b6000806109626127db565b905061096f8185856127e3565b600191505092915050565b6101c8818154811061098b57600080fd5b906000526020600020016000915054906101000a900473ffffffffffffffffffffffffffffffffffffffff1681565b6109c26129ae565b630aba9500821080156109e0575060028114806109df5750600381145b5b15610a20576040517f08c379a0000000000000000000000000000000000000000000000000000000008152600401610a1790615131565b60405180910390fd5b600a6101c7805490501080610a355750600681145b610a74576040517f08c379a0000000000000000000000000000000000000000000000000000000008152600401610a6b90614ff1565b60405180910390fd5b60006101c76001816001815401808255809150500390600052602060002090600702019050338160000160006101000a81548173ffffffffffffffffffffffffffffffffffffffff021916908373ffffffffffffffffffffffffffffffffffffffff160217905550838160010160006101000a81548173ffffffffffffffffffffffffffffffffffffffff021916908373ffffffffffffffffffffffffffffffffffffffff16021790555082816002018190555081816003018190555060008160040160006101000a81548160ff02191690831515021790555080600501339080600181540180825580915050600190039060005260206000200160009091909190916101000a81548173ffffffffffffffffffffffffffffffffffffffff021916908373ffffffffffffffffffffffffffffffffffffffff1602179055506001816006018190555050505050565b600060cb54905090565b600080610bd86127db565b9050610be58582856129fc565b610bf0858585612a88565b60019150509392505050565b600060656000838152602001908152602001600020600101549050919050565b610c2582610bfc565b610c2e81612d0c565b610c388383612d20565b505050565b60006012905090565b610c4e6127db565b73ffffffffffffffffffffffffffffffffffffffff168173ffffffffffffffffffffffffffffffffffffffff1614610cbb576040517f08c379a0000000000000000000000000000000000000000000000000000000008152600401610cb290615191565b60405180910390fd5b610cc58282612d54565b5050565b600080610cd46127db565b9050610cf5818585610ce68589612463565b610cf091906152d0565b6127e3565b600191505092915050565b610d317f65d7a28e3265b37a6474929f336521b332c1681b933f6cb9f3376673440d862a610d2c6127db565b611e27565b610d70576040517f08c379a0000000000000000000000000000000000000000000000000000000008152600401610d6790614e71565b60405180910390fd5b610d78612d88565b565b610dab7f9f2df0fed2c77648de5860a4cc508cd0818c85b8b8a1ab4ceeef8d981c8956a6610da66127db565b611e27565b610dea576040517f08c379a0000000000000000000000000000000000000000000000000000000008152600401610de190614fd1565b60405180910390fd5b6101c35481610df7610bc3565b610e0191906152d0565b1115610e42576040517f08c379a0000000000000000000000000000000000000000000000000000000008152600401610e3990615091565b60405180910390fd5b69d3c21bcecceda10000008110610e8e576040517f08c379a0000000000000000000000000000000000000000000000000000000008152600401610e8590615031565b60405180910390fd5b610e988282612e2b565b5050565b610ead610ea76127db565b82612f8c565b50565b6000610ebc6001613165565b90508015610ee0576001600060016101000a81548160ff0219169083151502179055505b610eea8383613255565b8015610f435760008060016101000a81548160ff0219169083151502179055507f7f26b83ff96e1f2b6a682f133852f6798a09c465da95921460cefb38474024986001604051610f3a9190614d54565b60405180910390a15b505050565b600061012d60009054906101000a900460ff16905090565b6000610f6c6001613165565b90508015610f90576001600060016101000a81548160ff0219169083151502179055505b6110046040518060400160405280600881526020017f57414e44455256320000000000000000000000000000000000000000000000008152506040518060400160405280600981526020017f7057414e444552563200000000000000000000000000000000000000000000008152506132c4565b6b033b2e3c9fd0803ce80000006101c381905550600083511161105c576040517f08c379a000000000000000000000000000000000000000000000000000000000815260040161105390614e31565b60405180910390fd5b60008211801561106d575082518211155b6110ac576040517f08c379a00000000000000000000000000000000000000000000000000000000081526004016110a390614f31565b60405180910390fd5b60005b83518110156113cd57600073ffffffffffffffffffffffffffffffffffffffff16848281518110611109577f4e487b7100000000000000000000000000000000000000000000000000000000600052603260045260246000fd5b602002602001015173ffffffffffffffffffffffffffffffffffffffff161415611168576040517f08c379a000000000000000000000000000000000000000000000000000000000815260040161115f90614fb1565b60405180910390fd5b6111b56000801b8583815181106111a8577f4e487b7100000000000000000000000000000000000000000000000000000000600052603260045260246000fd5b6020026020010151611e27565b156111f5576040517f08c379a00000000000000000000000000000000000000000000000000000000081526004016111ec90614ef1565b60405180910390fd5b6112426000801b858381518110611235577f4e487b7100000000000000000000000000000000000000000000000000000000600052603260045260246000fd5b6020026020010151613321565b6112ac7f9f2df0fed2c77648de5860a4cc508cd0818c85b8b8a1ab4ceeef8d981c8956a685838151811061129f577f4e487b7100000000000000000000000000000000000000000000000000000000600052603260045260246000fd5b6020026020010151613321565b6113167f65d7a28e3265b37a6474929f336521b332c1681b933f6cb9f3376673440d862a858381518110611309577f4e487b7100000000000000000000000000000000000000000000000000000000600052603260045260246000fd5b6020026020010151613321565b6101c8848281518110611352577f4e487b7100000000000000000000000000000000000000000000000000000000600052603260045260246000fd5b60200260200101519080600181540180825580915050600190039060005260206000200160009091909190916101000a81548173ffffffffffffffffffffffffffffffffffffffff021916908373ffffffffffffffffffffffffffffffffffffffff16021790555080806113c590615520565b9150506110af565b50816101c981905550801561142f5760008060016101000a81548160ff0219169083151502179055507f7f26b83ff96e1f2b6a682f133852f6798a09c465da95921460cefb384740249860016040516114269190614d54565b60405180910390a15b505050565b600061143e6129ae565b6101ca80549050905090565b6114526129ae565b61145b8161332f565b61146481613414565b60006101c782815481106114a1577f4e487b7100000000000000000000000000000000000000000000000000000000600052603260045260246000fd5b90600052602060002090600702019050600081600301541415611685576114ef6000801b8260010160009054906101000a900473ffffffffffffffffffffffffffffffffffffffff16611e27565b1561152f576040517f08c379a000000000000000000000000000000000000000000000000000000000815260040161152690614ef1565b60405180910390fd5b6101c88160010160009054906101000a900473ffffffffffffffffffffffffffffffffffffffff169080600181540180825580915050600190039060005260206000200160009091909190916101000a81548173ffffffffffffffffffffffffffffffffffffffff021916908373ffffffffffffffffffffffffffffffffffffffff1602179055506115e86000801b8260010160009054906101000a900473ffffffffffffffffffffffffffffffffffffffff16613321565b6116367f9f2df0fed2c77648de5860a4cc508cd0818c85b8b8a1ab4ceeef8d981c8956a68260010160009054906101000a900473ffffffffffffffffffffffffffffffffffffffff16613321565b6116847f65d7a28e3265b37a6474929f336521b332c1681b933f6cb9f3376673440d862a8260010160009054906101000a900473ffffffffffffffffffffffffffffffffffffffff16613321565b5b6001816003015414156119fb576101c9546101c88054905010156116de576040517f08c379a00000000000000000000000000000000000000000000000000000000081526004016116d590614f71565b60405180910390fd5b60005b6101c880549050811161192c578160010160009054906101000a900473ffffffffffffffffffffffffffffffffffffffff1673ffffffffffffffffffffffffffffffffffffffff166101c88281548110611764577f4e487b7100000000000000000000000000000000000000000000000000000000600052603260045260246000fd5b9060005260206000200160009054906101000a900473ffffffffffffffffffffffffffffffffffffffff1673ffffffffffffffffffffffffffffffffffffffff161415611919576101c860016101c8805490506117c19190615380565b815481106117f8577f4e487b7100000000000000000000000000000000000000000000000000000000600052603260045260246000fd5b9060005260206000200160009054906101000a900473ffffffffffffffffffffffffffffffffffffffff166101c8828154811061185e577f4e487b7100000000000000000000000000000000000000000000000000000000600052603260045260246000fd5b9060005260206000200160006101000a81548173ffffffffffffffffffffffffffffffffffffffff021916908373ffffffffffffffffffffffffffffffffffffffff1602179055506101c88054806118df577f4e487b7100000000000000000000000000000000000000000000000000000000600052603160045260246000fd5b6001900381819060005260206000200160006101000a81549073ffffffffffffffffffffffffffffffffffffffff0219169055905561192c565b808061192490615520565b9150506116e1565b5061195e6000801b8260010160009054906101000a900473ffffffffffffffffffffffffffffffffffffffff16612d54565b6119ac7f9f2df0fed2c77648de5860a4cc508cd0818c85b8b8a1ab4ceeef8d981c8956a68260010160009054906101000a900473ffffffffffffffffffffffffffffffffffffffff16612d54565b6119fa7f65d7a28e3265b37a6474929f336521b332c1681b933f6cb9f3376673440d862a8260010160009054906101000a900473ffffffffffffffffffffffffffffffffffffffff16612d54565b5b600281600301541415611a6057611a5f8160000160009054906101000a900473ffffffffffffffffffffffffffffffffffffffff168260010160009054906101000a900473ffffffffffffffffffffffffffffffffffffffff168360020154612a88565b5b600381600301541415611aa057611a9f8160010160009054906101000a900473ffffffffffffffffffffffffffffffffffffffff168260020154612e2b565b5b600481600301541415611ab657611ab56134a9565b5b600581600301541415611acc57611acb612d88565b5b60018160040160006101000a81548160ff021916908315150217905550600681600301541415611b06576101c76000611b059190614067565b5b5050565b600060c960008373ffffffffffffffffffffffffffffffffffffffff1673ffffffffffffffffffffffffffffffffffffffff168152602001908152602001600020549050919050565b611b6582611b5f6127db565b836129fc565b611b6f8282612f8c565b5050565b6000611b7d6129ae565b60006064905060005b6101c78481548110611bc1577f4e487b7100000000000000000000000000000000000000000000000000000000600052603260045260246000fd5b906000526020600020906007020160050180549050811015611cda573373ffffffffffffffffffffffffffffffffffffffff166101c78581548110611c2f577f4e487b7100000000000000000000000000000000000000000000000000000000600052603260045260246000fd5b90600052602060002090600702016005018281548110611c78577f4e487b7100000000000000000000000000000000000000000000000000000000600052603260045260246000fd5b9060005260206000200160009054906101000a900473ffffffffffffffffffffffffffffffffffffffff1673ffffffffffffffffffffffffffffffffffffffff161415611cc757809150611cda565b8080611cd290615520565b915050611b86565b5080915050919050565b6101c78181548110611cf557600080fd5b90600052602060002090600702016000915090508060000160009054906101000a900473ffffffffffffffffffffffffffffffffffffffff16908060010160009054906101000a900473ffffffffffffffffffffffffffffffffffffffff16908060020154908060030154908060040160009054906101000a900460ff16908060060154905086565b611daf7f65d7a28e3265b37a6474929f336521b332c1681b933f6cb9f3376673440d862a611daa6127db565b611e27565b611dee576040517f08c379a0000000000000000000000000000000000000000000000000000000008152600401611de5906150d1565b60405180910390fd5b611df66134a9565b565b6000611e1f826097600086815260200190815260200160002061354d90919063ffffffff16565b905092915050565b60006065600084815260200190815260200160002060000160008373ffffffffffffffffffffffffffffffffffffffff1673ffffffffffffffffffffffffffffffffffffffff16815260200190815260200160002060009054906101000a900460ff16905092915050565b606060cd8054611ea1906154bd565b80601f0160208091040260200160405190810160405280929190818152602001828054611ecd906154bd565b8015611f1a5780601f10611eef57610100808354040283529160200191611f1a565b820191906000526020600020905b815481529060010190602001808311611efd57829003601f168201915b5050505050905090565b6000801b81565b600080611f366127db565b90506000611f448286612463565b905083811015611f89576040517f08c379a0000000000000000000000000000000000000000000000000000000008152600401611f8090615171565b60405180910390fd5b611f9682868684036127e3565b60019250505092915050565b611faa6129ae565b611fb38161332f565b6064611fbe82611b73565b14611ffe576040517f08c379a0000000000000000000000000000000000000000000000000000000008152600401611ff590614e51565b60405180910390fd5b6101c78181548110612039577f4e487b7100000000000000000000000000000000000000000000000000000000600052603260045260246000fd5b9060005260206000209060070201600501339080600181540180825580915050600190039060005260206000200160009091909190916101000a81548173ffffffffffffffffffffffffffffffffffffffff021916908373ffffffffffffffffffffffffffffffffffffffff16021790555060016101c782815481106120e8577f4e487b7100000000000000000000000000000000000000000000000000000000600052603260045260246000fd5b9060005260206000209060070201600601600082825461210891906152d0565b9250508190555050565b60006121216000801b33611e27565b80156121315750630aba95008210155b15612171576040517f08c379a000000000000000000000000000000000000000000000000000000000815260040161216890615031565b60405180910390fd5b61218361217c6127db565b8484612a88565b6001905092915050565b6101ca818154811061219e57600080fd5b906000526020600020016000915090505481565b6000806000806000806121c36129ae565b6101c787815481106121fe577f4e487b7100000000000000000000000000000000000000000000000000000000600052603260045260246000fd5b906000526020600020906007020160000160009054906101000a900473ffffffffffffffffffffffffffffffffffffffff166101c7888154811061226b577f4e487b7100000000000000000000000000000000000000000000000000000000600052603260045260246000fd5b906000526020600020906007020160010160009054906101000a900473ffffffffffffffffffffffffffffffffffffffff166101c789815481106122d8577f4e487b7100000000000000000000000000000000000000000000000000000000600052603260045260246000fd5b9060005260206000209060070201600201546101c78a81548110612325577f4e487b7100000000000000000000000000000000000000000000000000000000600052603260045260246000fd5b9060005260206000209060070201600301546101c78b81548110612372577f4e487b7100000000000000000000000000000000000000000000000000000000600052603260045260246000fd5b9060005260206000209060070201600601546101c78c815481106123bf577f4e487b7100000000000000000000000000000000000000000000000000000000600052603260045260246000fd5b906000526020600020906007020160040160009054906101000a900460ff1695509550955095509550955091939550919395565b600061241060976000848152602001908152602001600020613567565b9050919050565b6101c95481565b7f9f2df0fed2c77648de5860a4cc508cd0818c85b8b8a1ab4ceeef8d981c8956a681565b61244b82610bfc565b61245481612d0c565b61245e8383612d54565b505050565b600060ca60008473ffffffffffffffffffffffffffffffffffffffff1673ffffffffffffffffffffffffffffffffffffffff16815260200190815260200160002060008373ffffffffffffffffffffffffffffffffffffffff1673ffffffffffffffffffffffffffffffffffffffff16815260200190815260200160002054905092915050565b7f65d7a28e3265b37a6474929f336521b332c1681b933f6cb9f3376673440d862a81565b6125166129ae565b61251f8161332f565b600061252a82611b73565b90506064811415612570576040517f08c379a000000000000000000000000000000000000000000000000000000000815260040161256790614f91565b60405180910390fd5b60006101c783815481106125ad577f4e487b7100000000000000000000000000000000000000000000000000000000600052603260045260246000fd5b9060005260206000209060070201905080600501600182600501805490506125d59190615380565b8154811061260c577f4e487b7100000000000000000000000000000000000000000000000000000000600052603260045260246000fd5b9060005260206000200160009054906101000a900473ffffffffffffffffffffffffffffffffffffffff16816005018381548110612673577f4e487b7100000000000000000000000000000000000000000000000000000000600052603260045260246000fd5b9060005260206000200160006101000a81548173ffffffffffffffffffffffffffffffffffffffff021916908373ffffffffffffffffffffffffffffffffffffffff160217905550806005018054806126f5577f4e487b7100000000000000000000000000000000000000000000000000000000600052603160045260246000fd5b6001900381819060005260206000200160006101000a81549073ffffffffffffffffffffffffffffffffffffffff02191690559055600181600601600082825461273f9190615380565b92505081905550505050565b60006127556129ae565b6101c780549050905090565b60007f7965db0b000000000000000000000000000000000000000000000000000000007bffffffffffffffffffffffffffffffffffffffffffffffffffffffff1916827bffffffffffffffffffffffffffffffffffffffffffffffffffffffff191614806127d457506127d38261357c565b5b9050919050565b600033905090565b600073ffffffffffffffffffffffffffffffffffffffff168373ffffffffffffffffffffffffffffffffffffffff161415612853576040517f08c379a000000000000000000000000000000000000000000000000000000000815260040161284a906150b1565b60405180910390fd5b600073ffffffffffffffffffffffffffffffffffffffff168273ffffffffffffffffffffffffffffffffffffffff1614156128c3576040517f08c379a00000000000000000000000000000000000000000000000000000000081526004016128ba90614e91565b60405180910390fd5b8060ca60008573ffffffffffffffffffffffffffffffffffffffff1673ffffffffffffffffffffffffffffffffffffffff16815260200190815260200160002060008473ffffffffffffffffffffffffffffffffffffffff1673ffffffffffffffffffffffffffffffffffffffff168152602001908152602001600020819055508173ffffffffffffffffffffffffffffffffffffffff168373ffffffffffffffffffffffffffffffffffffffff167f8c5be1e5ebec7d5bd14f71427d1e84f3dd0314c0f7b2291e5b200ac8c7c3b925836040516129a191906151f1565b60405180910390a3505050565b6129bb6000801b33611e27565b6129fa576040517f08c379a00000000000000000000000000000000000000000000000000000000081526004016129f190615111565b60405180910390fd5b565b6000612a088484612463565b90507fffffffffffffffffffffffffffffffffffffffffffffffffffffffffffffffff8114612a825781811015612a74576040517f08c379a0000000000000000000000000000000000000000000000000000000008152600401612a6b90614eb1565b60405180910390fd5b612a8184848484036127e3565b5b50505050565b600073ffffffffffffffffffffffffffffffffffffffff168373ffffffffffffffffffffffffffffffffffffffff161415612af8576040517f08c379a0000000000000000000000000000000000000000000000000000000008152600401612aef90615051565b60405180910390fd5b600073ffffffffffffffffffffffffffffffffffffffff168273ffffffffffffffffffffffffffffffffffffffff161415612b68576040517f08c379a0000000000000000000000000000000000000000000000000000000008152600401612b5f90614db1565b60405180910390fd5b612b738383836135e6565b600060c960008573ffffffffffffffffffffffffffffffffffffffff1673ffffffffffffffffffffffffffffffffffffffff16815260200190815260200160002054905081811015612bfa576040517f08c379a0000000000000000000000000000000000000000000000000000000008152600401612bf190614ed1565b60405180910390fd5b81810360c960008673ffffffffffffffffffffffffffffffffffffffff1673ffffffffffffffffffffffffffffffffffffffff168152602001908152602001600020819055508160c960008573ffffffffffffffffffffffffffffffffffffffff1673ffffffffffffffffffffffffffffffffffffffff1681526020019081526020016000206000828254612c8f91906152d0565b925050819055508273ffffffffffffffffffffffffffffffffffffffff168473ffffffffffffffffffffffffffffffffffffffff167fddf252ad1be2c89b69c2b068fc378daa952ba7f163c4a11628f55a4df523b3ef84604051612cf391906151f1565b60405180910390a3612d068484846135f6565b50505050565b612d1d81612d186127db565b6135fb565b50565b612d2a8282613698565b612d4f816097600085815260200190815260200160002061377990919063ffffffff16565b505050565b612d5e82826137a9565b612d83816097600085815260200190815260200160002061388b90919063ffffffff16565b505050565b612d90610f48565b612dcf576040517f08c379a0000000000000000000000000000000000000000000000000000000008152600401612dc690614dd1565b60405180910390fd5b600061012d60006101000a81548160ff0219169083151502179055507f5db9ee0a495bf2e6ff9c91a7834c1ba4fdd244a5e8aa4e537bd38aeae4b073aa612e146127db565b604051612e219190614c41565b60405180910390a1565b600073ffffffffffffffffffffffffffffffffffffffff168273ffffffffffffffffffffffffffffffffffffffff161415612e9b576040517f08c379a0000000000000000000000000000000000000000000000000000000008152600401612e92906151b1565b60405180910390fd5b612ea7600083836135e6565b8060cb6000828254612eb991906152d0565b925050819055508060c960008473ffffffffffffffffffffffffffffffffffffffff1673ffffffffffffffffffffffffffffffffffffffff1681526020019081526020016000206000828254612f0f91906152d0565b925050819055508173ffffffffffffffffffffffffffffffffffffffff16600073ffffffffffffffffffffffffffffffffffffffff167fddf252ad1be2c89b69c2b068fc378daa952ba7f163c4a11628f55a4df523b3ef83604051612f7491906151f1565b60405180910390a3612f88600083836135f6565b5050565b600073ffffffffffffffffffffffffffffffffffffffff168273ffffffffffffffffffffffffffffffffffffffff161415612ffc576040517f08c379a0000000000000000000000000000000000000000000000000000000008152600401612ff390615011565b60405180910390fd5b613008826000836135e6565b600060c960008473ffffffffffffffffffffffffffffffffffffffff1673ffffffffffffffffffffffffffffffffffffffff1681526020019081526020016000205490508181101561308f576040517f08c379a000000000000000000000000000000000000000000000000000000000815260040161308690614e11565b60405180910390fd5b81810360c960008573ffffffffffffffffffffffffffffffffffffffff1673ffffffffffffffffffffffffffffffffffffffff168152602001908152602001600020819055508160cb60008282546130e79190615380565b92505081905550600073ffffffffffffffffffffffffffffffffffffffff168373ffffffffffffffffffffffffffffffffffffffff167fddf252ad1be2c89b69c2b068fc378daa952ba7f163c4a11628f55a4df523b3ef8460405161314c91906151f1565b60405180910390a3613160836000846135f6565b505050565b60008060019054906101000a900460ff16156131dc5760018260ff161480156131945750613192306138bb565b155b6131d3576040517f08c379a00000000000000000000000000000000000000000000000000000000081526004016131ca90614f51565b60405180910390fd5b60009050613250565b8160ff1660008054906101000a900460ff1660ff1610613231576040517f08c379a000000000000000000000000000000000000000000000000000000000815260040161322890614f51565b60405180910390fd5b816000806101000a81548160ff021916908360ff160217905550600190505b919050565b600060019054906101000a900460ff166132a4576040517f08c379a000000000000000000000000000000000000000000000000000000000815260040161329b906150f1565b60405180910390fd5b6132ae82826138de565b6132b661395f565b6132c082826139cc565b5050565b600060019054906101000a900460ff16613313576040517f08c379a000000000000000000000000000000000000000000000000000000000815260040161330a906150f1565b60405180910390fd5b61331d82826138de565b5050565b61332b8282612d20565b5050565b6101c7805490508110613377576040517f08c379a000000000000000000000000000000000000000000000000000000000815260040161336e90614df1565b60405180910390fd5b6101c781815481106133b2577f4e487b7100000000000000000000000000000000000000000000000000000000600052603260045260246000fd5b906000526020600020906007020160040160009054906101000a900460ff1615613411576040517f08c379a000000000000000000000000000000000000000000000000000000000815260040161340890615071565b60405180910390fd5b50565b6101c9546101c78281548110613453577f4e487b7100000000000000000000000000000000000000000000000000000000600052603260045260246000fd5b90600052602060002090600702016006015410156134a6576040517f08c379a000000000000000000000000000000000000000000000000000000000815260040161349d90615151565b60405180910390fd5b50565b6134b1610f48565b156134f1576040517f08c379a00000000000000000000000000000000000000000000000000000000081526004016134e890614f11565b60405180910390fd5b600161012d60006101000a81548160ff0219169083151502179055507f62e78cea01bee320cd4e420270b5ea74000d11b0c9f74754ebdbfc544b05a2586135366127db565b6040516135439190614c41565b60405180910390a1565b600061355c8360000183613a95565b60001c905092915050565b600061357582600001613ae6565b9050919050565b60007f01ffc9a7000000000000000000000000000000000000000000000000000000007bffffffffffffffffffffffffffffffffffffffffffffffffffffffff1916827bffffffffffffffffffffffffffffffffffffffffffffffffffffffff1916149050919050565b6135f1838383613af7565b505050565b505050565b6136058282611e27565b6136945761362a8173ffffffffffffffffffffffffffffffffffffffff166014613b4f565b6136388360001c6020613b4f565b604051602001613649929190614c07565b6040516020818303038152906040526040517f08c379a000000000000000000000000000000000000000000000000000000000815260040161368b9190614d6f565b60405180910390fd5b5050565b6136a28282611e27565b6137755760016065600084815260200190815260200160002060000160008373ffffffffffffffffffffffffffffffffffffffff1673ffffffffffffffffffffffffffffffffffffffff16815260200190815260200160002060006101000a81548160ff02191690831515021790555061371a6127db565b73ffffffffffffffffffffffffffffffffffffffff168173ffffffffffffffffffffffffffffffffffffffff16837f2f8788117e7eff1d82e926ec794901d17c78024a50270940304540a733656f0d60405160405180910390a45b5050565b60006137a1836000018373ffffffffffffffffffffffffffffffffffffffff1660001b613e49565b905092915050565b6137b38282611e27565b156138875760006065600084815260200190815260200160002060000160008373ffffffffffffffffffffffffffffffffffffffff1673ffffffffffffffffffffffffffffffffffffffff16815260200190815260200160002060006101000a81548160ff02191690831515021790555061382c6127db565b73ffffffffffffffffffffffffffffffffffffffff168173ffffffffffffffffffffffffffffffffffffffff16837ff6391f5c32d9c69d2a47ea670b442974b53935d1edc7fd64eb21e047a839171b60405160405180910390a45b5050565b60006138b3836000018373ffffffffffffffffffffffffffffffffffffffff1660001b613eb9565b905092915050565b6000808273ffffffffffffffffffffffffffffffffffffffff163b119050919050565b600060019054906101000a900460ff1661392d576040517f08c379a0000000000000000000000000000000000000000000000000000000008152600401613924906150f1565b60405180910390fd5b8160cc908051906020019061394392919061408b565b508060cd908051906020019061395a92919061408b565b505050565b600060019054906101000a900460ff166139ae576040517f08c379a00000000000000000000000000000000000000000000000000000000081526004016139a5906150f1565b60405180910390fd5b600061012d60006101000a81548160ff021916908315150217905550565b600060019054906101000a900460ff16613a1b576040517f08c379a0000000000000000000000000000000000000000000000000000000008152600401613a12906150f1565b60405180910390fd5b613a2f6000801b613a2a6127db565b613321565b613a607f9f2df0fed2c77648de5860a4cc508cd0818c85b8b8a1ab4ceeef8d981c8956a6613a5b6127db565b613321565b613a917f65d7a28e3265b37a6474929f336521b332c1681b933f6cb9f3376673440d862a613a8c6127db565b613321565b5050565b6000826000018281548110613ad3577f4e487b7100000000000000000000000000000000000000000000000000000000600052603260045260246000fd5b9060005260206000200154905092915050565b600081600001805490509050919050565b613b0283838361403f565b613b0a610f48565b15613b4a576040517f08c379a0000000000000000000000000000000000000000000000000000000008152600401613b41906151d1565b60405180910390fd5b505050565b606060006002836002613b629190615326565b613b6c91906152d0565b67ffffffffffffffff811115613bab577f4e487b7100000000000000000000000000000000000000000000000000000000600052604160045260246000fd5b6040519080825280601f01601f191660200182016040528015613bdd5781602001600182028036833780820191505090505b5090507f300000000000000000000000000000000000000000000000000000000000000081600081518110613c3b577f4e487b7100000000000000000000000000000000000000000000000000000000600052603260045260246000fd5b60200101907effffffffffffffffffffffffffffffffffffffffffffffffffffffffffffff1916908160001a9053507f780000000000000000000000000000000000000000000000000000000000000081600181518110613cc5577f4e487b7100000000000000000000000000000000000000000000000000000000600052603260045260246000fd5b60200101907effffffffffffffffffffffffffffffffffffffffffffffffffffffffffffff1916908160001a90535060006001846002613d059190615326565b613d0f91906152d0565b90505b6001811115613dfb577f3031323334353637383961626364656600000000000000000000000000000000600f861660108110613d77577f4e487b7100000000000000000000000000000000000000000000000000000000600052603260045260246000fd5b1a60f81b828281518110613db4577f4e487b7100000000000000000000000000000000000000000000000000000000600052603260045260246000fd5b60200101907effffffffffffffffffffffffffffffffffffffffffffffffffffffffffffff1916908160001a905350600485901c945080613df490615493565b9050613d12565b5060008414613e3f576040517f08c379a0000000000000000000000000000000000000000000000000000000008152600401613e3690614d91565b60405180910390fd5b8091505092915050565b6000613e558383614044565b613eae578260000182908060018154018082558091505060019003906000526020600020016000909190919091505582600001805490508360010160008481526020019081526020016000208190555060019050613eb3565b600090505b92915050565b60008083600101600084815260200190815260200160002054905060008114614033576000600182613eeb9190615380565b9050600060018660000180549050613f039190615380565b9050818114613fbe576000866000018281548110613f4a577f4e487b7100000000000000000000000000000000000000000000000000000000600052603260045260246000fd5b9060005260206000200154905080876000018481548110613f94577f4e487b7100000000000000000000000000000000000000000000000000000000600052603260045260246000fd5b90600052602060002001819055508387600101600083815260200190815260200160002081905550505b85600001805480613ff8577f4e487b7100000000000000000000000000000000000000000000000000000000600052603160045260246000fd5b600190038181906000526020600020016000905590558560010160008681526020019081526020016000206000905560019350505050614039565b60009150505b92915050565b505050565b600080836001016000848152602001908152602001600020541415905092915050565b50805460008255600702906000526020600020908101906140889190614111565b50565b828054614097906154bd565b90600052602060002090601f0160209004810192826140b95760008555614100565b82601f106140d257805160ff1916838001178555614100565b82800160010185558215614100579182015b828111156140ff5782518255916020019190600101906140e4565b5b50905061410d91906141b2565b5090565b5b808211156141ae57600080820160006101000a81549073ffffffffffffffffffffffffffffffffffffffff02191690556001820160006101000a81549073ffffffffffffffffffffffffffffffffffffffff0219169055600282016000905560038201600090556004820160006101000a81549060ff021916905560058201600061419d91906141cf565b600682016000905550600701614112565b5090565b5b808211156141cb5760008160009055506001016141b3565b5090565b50805460008255906000526020600020908101906141ed91906141b2565b50565b60006142036141fe8461524c565b615227565b9050808382526020820190508285602086028201111561422257600080fd5b60005b858110156142525781614238888261429a565b845260208401935060208301925050600181019050614225565b5050509392505050565b600061426f61426a84615278565b615227565b90508281526020810184848401111561428757600080fd5b614292848285615451565b509392505050565b6000813590506142a981615eec565b92915050565b600082601f8301126142c057600080fd5b81356142d08482602086016141f0565b91505092915050565b6000813590506142e881615f03565b92915050565b6000813590506142fd81615f1a565b92915050565b600082601f83011261431457600080fd5b813561432484826020860161425c565b91505092915050565b60008135905061433c81615f31565b92915050565b60006020828403121561435457600080fd5b60006143628482850161429a565b91505092915050565b6000806040838503121561437e57600080fd5b600061438c8582860161429a565b925050602061439d8582860161429a565b9150509250929050565b6000806000606084860312156143bc57600080fd5b60006143ca8682870161429a565b93505060206143db8682870161429a565b92505060406143ec8682870161432d565b9150509250925092565b6000806040838503121561440957600080fd5b60006144178582860161429a565b92505060206144288582860161432d565b9150509250929050565b60008060006060848603121561444757600080fd5b60006144558682870161429a565b93505060206144668682870161432d565b92505060406144778682870161432d565b9150509250925092565b6000806040838503121561449457600080fd5b600083013567ffffffffffffffff8111156144ae57600080fd5b6144ba858286016142af565b92505060206144cb8582860161432d565b9150509250929050565b6000602082840312156144e757600080fd5b60006144f5848285016142d9565b91505092915050565b6000806040838503121561451157600080fd5b600061451f858286016142d9565b92505060206145308582860161429a565b9150509250929050565b6000806040838503121561454d57600080fd5b600061455b858286016142d9565b925050602061456c8582860161432d565b9150509250929050565b60006020828403121561458857600080fd5b6000614596848285016142ee565b91505092915050565b600080604083850312156145b257600080fd5b600083013567ffffffffffffffff8111156145cc57600080fd5b6145d885828601614303565b925050602083013567ffffffffffffffff8111156145f557600080fd5b61460185828601614303565b9150509250929050565b60006020828403121561461d57600080fd5b600061462b8482850161432d565b91505092915050565b61463d816153b4565b82525050565b61464c816153c6565b82525050565b61465b816153d2565b82525050565b61466a8161543f565b82525050565b600061467b826152a9565b61468581856152b4565b9350614695818560208601615460565b61469e816155f6565b840191505092915050565b60006146b4826152a9565b6146be81856152c5565b93506146ce818560208601615460565b80840191505092915050565b60006146e76020836152b4565b91506146f282615607565b602082019050919050565b600061470a6023836152b4565b915061471582615630565b604082019050919050565b600061472d6014836152b4565b91506147388261567f565b602082019050919050565b60006147506016836152b4565b915061475b826156a8565b602082019050919050565b60006147736022836152b4565b915061477e826156d1565b604082019050919050565b6000614796601d836152b4565b91506147a182615720565b602082019050919050565b60006147b96010836152b4565b91506147c482615749565b602082019050919050565b60006147dc6039836152b4565b91506147e782615772565b604082019050919050565b60006147ff6022836152b4565b915061480a826157c1565b604082019050919050565b6000614822601d836152b4565b915061482d82615810565b602082019050919050565b60006148456026836152b4565b915061485082615839565b604082019050919050565b6000614868601e836152b4565b915061487382615888565b602082019050919050565b600061488b6010836152b4565b9150614896826158b1565b602082019050919050565b60006148ae601f836152b4565b91506148b9826158da565b602082019050919050565b60006148d1602e836152b4565b91506148dc82615903565b604082019050919050565b60006148f46027836152b4565b91506148ff82615952565b604082019050919050565b60006149176011836152b4565b9150614922826159a1565b602082019050919050565b600061493a601c836152b4565b9150614945826159ca565b602082019050919050565b600061495d6036836152b4565b9150614968826159f3565b604082019050919050565b6000614980602a836152b4565b915061498b82615a42565b604082019050919050565b60006149a36021836152b4565b91506149ae82615a91565b604082019050919050565b60006149c66023836152b4565b91506149d182615ae0565b604082019050919050565b60006149e96025836152b4565b91506149f482615b2f565b604082019050919050565b6000614a0c6013836152b4565b9150614a1782615b7e565b602082019050919050565b6000614a2f6019836152b4565b9150614a3a82615ba7565b602082019050919050565b6000614a526024836152b4565b9150614a5d82615bd0565b604082019050919050565b6000614a756037836152b4565b9150614a8082615c1f565b604082019050919050565b6000614a98602b836152b4565b9150614aa382615c6e565b604082019050919050565b6000614abb6017836152c5565b9150614ac682615cbd565b601782019050919050565b6000614ade6009836152b4565b9150614ae982615ce6565b602082019050919050565b6000614b016027836152b4565b9150614b0c82615d0f565b604082019050919050565b6000614b246026836152b4565b9150614b2f82615d5e565b604082019050919050565b6000614b476025836152b4565b9150614b5282615dad565b604082019050919050565b6000614b6a6011836152c5565b9150614b7582615dfc565b601182019050919050565b6000614b8d602f836152b4565b9150614b9882615e25565b604082019050919050565b6000614bb0601f836152b4565b9150614bbb82615e74565b602082019050919050565b6000614bd3602a836152b4565b9150614bde82615e9d565b604082019050919050565b614bf281615428565b82525050565b614c0181615432565b82525050565b6000614c1282614aae565b9150614c1e82856146a9565b9150614c2982614b5d565b9150614c3582846146a9565b91508190509392505050565b6000602082019050614c566000830184614634565b92915050565b600060c082019050614c716000830189614634565b614c7e6020830188614634565b614c8b6040830187614be9565b614c986060830186614be9565b614ca56080830185614643565b614cb260a0830184614be9565b979650505050505050565b600060c082019050614cd26000830189614634565b614cdf6020830188614634565b614cec6040830187614be9565b614cf96060830186614be9565b614d066080830185614be9565b614d1360a0830184614643565b979650505050505050565b6000602082019050614d336000830184614643565b92915050565b6000602082019050614d4e6000830184614652565b92915050565b6000602082019050614d696000830184614661565b92915050565b60006020820190508181036000830152614d898184614670565b905092915050565b60006020820190508181036000830152614daa816146da565b9050919050565b60006020820190508181036000830152614dca816146fd565b9050919050565b60006020820190508181036000830152614dea81614720565b9050919050565b60006020820190508181036000830152614e0a81614743565b9050919050565b60006020820190508181036000830152614e2a81614766565b9050919050565b60006020820190508181036000830152614e4a81614789565b9050919050565b60006020820190508181036000830152614e6a816147ac565b9050919050565b60006020820190508181036000830152614e8a816147cf565b9050919050565b60006020820190508181036000830152614eaa816147f2565b9050919050565b60006020820190508181036000830152614eca81614815565b9050919050565b60006020820190508181036000830152614eea81614838565b9050919050565b60006020820190508181036000830152614f0a8161485b565b9050919050565b60006020820190508181036000830152614f2a8161487e565b9050919050565b60006020820190508181036000830152614f4a816148a1565b9050919050565b60006020820190508181036000830152614f6a816148c4565b9050919050565b60006020820190508181036000830152614f8a816148e7565b9050919050565b60006020820190508181036000830152614faa8161490a565b9050919050565b60006020820190508181036000830152614fca8161492d565b9050919050565b60006020820190508181036000830152614fea81614950565b9050919050565b6000602082019050818103600083015261500a81614973565b9050919050565b6000602082019050818103600083015261502a81614996565b9050919050565b6000602082019050818103600083015261504a816149b9565b9050919050565b6000602082019050818103600083015261506a816149dc565b9050919050565b6000602082019050818103600083015261508a816149ff565b9050919050565b600060208201905081810360008301526150aa81614a22565b9050919050565b600060208201905081810360008301526150ca81614a45565b9050919050565b600060208201905081810360008301526150ea81614a68565b9050919050565b6000602082019050818103600083015261510a81614a8b565b9050919050565b6000602082019050818103600083015261512a81614ad1565b9050919050565b6000602082019050818103600083015261514a81614af4565b9050919050565b6000602082019050818103600083015261516a81614b17565b9050919050565b6000602082019050818103600083015261518a81614b3a565b9050919050565b600060208201905081810360008301526151aa81614b80565b9050919050565b600060208201905081810360008301526151ca81614ba3565b9050919050565b600060208201905081810360008301526151ea81614bc6565b9050919050565b60006020820190506152066000830184614be9565b92915050565b60006020820190506152216000830184614bf8565b92915050565b6000615231615242565b905061523d82826154ef565b919050565b6000604051905090565b600067ffffffffffffffff821115615267576152666155c7565b5b602082029050602081019050919050565b600067ffffffffffffffff821115615293576152926155c7565b5b61529c826155f6565b9050602081019050919050565b600081519050919050565b600082825260208201905092915050565b600081905092915050565b60006152db82615428565b91506152e683615428565b9250827fffffffffffffffffffffffffffffffffffffffffffffffffffffffffffffffff0382111561531b5761531a615569565b5b828201905092915050565b600061533182615428565b915061533c83615428565b9250817fffffffffffffffffffffffffffffffffffffffffffffffffffffffffffffffff048311821515161561537557615374615569565b5b828202905092915050565b600061538b82615428565b915061539683615428565b9250828210156153a9576153a8615569565b5b828203905092915050565b60006153bf82615408565b9050919050565b60008115159050919050565b6000819050919050565b60007fffffffff0000000000000000000000000000000000000000000000000000000082169050919050565b600073ffffffffffffffffffffffffffffffffffffffff82169050919050565b6000819050919050565b600060ff82169050919050565b600061544a82615432565b9050919050565b82818337600083830152505050565b60005b8381101561547e578082015181840152602081019050615463565b8381111561548d576000848401525b50505050565b600061549e82615428565b915060008214156154b2576154b1615569565b5b600182039050919050565b600060028204905060018216806154d557607f821691505b602082108114156154e9576154e8615598565b5b50919050565b6154f8826155f6565b810181811067ffffffffffffffff82111715615517576155166155c7565b5b80604052505050565b600061552b82615428565b91507fffffffffffffffffffffffffffffffffffffffffffffffffffffffffffffffff82141561555e5761555d615569565b5b600182019050919050565b7f4e487b7100000000000000000000000000000000000000000000000000000000600052601160045260246000fd5b7f4e487b7100000000000000000000000000000000000000000000000000000000600052602260045260246000fd5b7f4e487b7100000000000000000000000000000000000000000000000000000000600052604160045260246000fd5b6000601f19601f8301169050919050565b7f537472696e67733a20686578206c656e67746820696e73756666696369656e74600082015250565b7f45524332303a207472616e7366657220746f20746865207a65726f206164647260008201527f6573730000000000000000000000000000000000000000000000000000000000602082015250565b7f5061757361626c653a206e6f7420706175736564000000000000000000000000600082015250565b7f7265717565737420646f6573206e6f7420657869737400000000000000000000600082015250565b7f45524332303a206275726e20616d6f756e7420657863656564732062616c616e60008201527f6365000000000000000000000000000000000000000000000000000000000000602082015250565b7f6d6f7265207468616e2031206f776e6572206973207265717569726564000000600082015250565b7f72657120697320636f6e6669726d656400000000000000000000000000000000600082015250565b7f45524332305072657365744d696e7465725061757365723a206d75737420686160008201527f76652070617573657220726f6c6520746f20756e706175736500000000000000602082015250565b7f45524332303a20617070726f766520746f20746865207a65726f20616464726560008201527f7373000000000000000000000000000000000000000000000000000000000000602082015250565b7f45524332303a20696e73756666696369656e7420616c6c6f77616e6365000000600082015250565b7f45524332303a207472616e7366657220616d6f756e742065786365656473206260008201527f616c616e63650000000000000000000000000000000000000000000000000000602082015250565b7f61646472657373206861732061646d696e6973747261746f7220726f6c650000600082015250565b7f5061757361626c653a2070617573656400000000000000000000000000000000600082015250565b7f696e76616c6964206e756d626572206f6620636f6e6669726d6174696f6e7300600082015250565b7f496e697469616c697a61626c653a20636f6e747261637420697320616c72656160008201527f647920696e697469616c697a6564000000000000000000000000000000000000602082015250565b7f6d696e696d756d206f66206e756d626572206f662061646d696e73206172652060008201527f6e6f74206d657400000000000000000000000000000000000000000000000000602082015250565b7f726571206e6f7420636f6e6669726d6564000000000000000000000000000000600082015250565b7f6f776e65722063616e2774206265207468652030206164647265737300000000600082015250565b7f45524332305072657365744d696e7465725061757365723a206d75737420686160008201527f7665206d696e74657220726f6c6520746f206d696e7400000000000000000000602082015250565b7f636c6561722074686520706f6f6c206265666f7265207375626d697474696e6760008201527f2061206e6577206f6e6500000000000000000000000000000000000000000000602082015250565b7f45524332303a206275726e2066726f6d20746865207a65726f2061646472657360008201527f7300000000000000000000000000000000000000000000000000000000000000602082015250565b7f55736520746865207375626d6974207472616e73616374696f6e2066756e637460008201527f696f6e0000000000000000000000000000000000000000000000000000000000602082015250565b7f45524332303a207472616e736665722066726f6d20746865207a65726f20616460008201527f6472657373000000000000000000000000000000000000000000000000000000602082015250565b7f7265717565737420697320657865637574656400000000000000000000000000600082015250565b7f45524332304361707065643a2063617020657863656564656400000000000000600082015250565b7f45524332303a20617070726f76652066726f6d20746865207a65726f2061646460008201527f7265737300000000000000000000000000000000000000000000000000000000602082015250565b7f45524332305072657365744d696e7465725061757365723a206d75737420686160008201527f76652070617573657220726f6c6520746f207061757365000000000000000000602082015250565b7f496e697469616c697a61626c653a20636f6e7472616374206973206e6f74206960008201527f6e697469616c697a696e67000000000000000000000000000000000000000000602082015250565b7f416363657373436f6e74726f6c3a206163636f756e7420000000000000000000600082015250565b7f6e6f742061646d696e0000000000000000000000000000000000000000000000600082015250565b7f7573652074686520726567756c6172206d696e74206f72207472616e7366657260008201527f206d6574686f6400000000000000000000000000000000000000000000000000602082015250565b7f6c61636b20746865207265717569726564206e756d206f6620636f6e6669726d60008201527f6174696f6e730000000000000000000000000000000000000000000000000000602082015250565b7f45524332303a2064656372656173656420616c6c6f77616e63652062656c6f7760008201527f207a65726f000000000000000000000000000000000000000000000000000000602082015250565b7f206973206d697373696e6720726f6c6520000000000000000000000000000000600082015250565b7f416363657373436f6e74726f6c3a2063616e206f6e6c792072656e6f756e636560008201527f20726f6c657320666f722073656c660000000000000000000000000000000000602082015250565b7f45524332303a206d696e7420746f20746865207a65726f206164647265737300600082015250565b7f45524332305061757361626c653a20746f6b656e207472616e7366657220776860008201527f696c652070617573656400000000000000000000000000000000000000000000602082015250565b615ef5816153b4565b8114615f0057600080fd5b50565b615f0c816153d2565b8114615f1757600080fd5b50565b615f23816153dc565b8114615f2e57600080fd5b50565b615f3a81615428565b8114615f4557600080fd5b5056fea2646970667358221220e98f95ad381871cc05c2319c1ab37d95e34b57563da1f6e4f954c902648398ee64736f6c63430008020033",
  "immutableReferences": {},
  "source": "// SPDX-License-Identifier: MIT\r\npragma solidity ^0.8.2;\r\n\r\nimport \"@openzeppelin/contracts-upgradeable/token/ERC20/presets/ERC20PresetMinterPauserUpgradeable.sol\";\r\nimport \"@openzeppelin/contracts-upgradeable/proxy/utils/Initializable.sol\";\r\n\r\ncontract WanderTokenPolV2 is Initializable, ERC20PresetMinterPauserUpgradeable {\r\n    // Initializing the maximum supply of 1 billion to Wander token\r\n    uint256 private MAXSUPPLY;\r\n    string private _name;\r\n    string private _symbol;\r\n    uint8 private _decimals;\r\n\r\n    Request[] public requests;\r\n    address[] public admins;\r\n    uint public numConfirmationsRequired;\r\n    uint[] public newVariable;\r\n\r\n    // Required variables\r\n    struct Request{\r\n        address from;\r\n        address to;\r\n        uint value;\r\n        uint method;\r\n        bool executed;\r\n        address[] confirmedAddress;\r\n        uint numConfirmations;\r\n    }\r\n\r\n    function _onlyAdmin() private view {\r\n        require(hasRole(DEFAULT_ADMIN_ROLE, msg.sender), \"not admin\");\r\n    }\r\n    \r\n    function _reqExistsAndNotExecuted(uint _reqIndex) private view {\r\n        require(_reqIndex < requests.length, \"request does not exist\");\r\n        require(!requests[_reqIndex].executed, \"request is executed\");\r\n    }\r\n\r\n    function _fullyConfirmed(uint _reqIndex) private view {\r\n        require(requests[_reqIndex].numConfirmations >= numConfirmationsRequired, \"lack the required num of confirmations\");\r\n    }\r\n\r\n    // Required Modifiers and Involving Function Acting as Modifiers\r\n    function callerConfirmed(uint _reqIndex) public view virtual returns(uint){\r\n        _onlyAdmin();\r\n        uint index = 100;   // Error counter, if it returns 100, then the address has not confirmed\r\n        for (uint i; i< requests[_reqIndex].confirmedAddress.length;i++){\r\n          if (requests[_reqIndex].confirmedAddress[i] == msg.sender){\r\n              index = i;\r\n              break;\r\n          }\r\n        }\r\n        return index;   // Return the index of the caller's address in the requests' array of confirm addresses\r\n    }\r\n\r\n    // // Replacement to Constructor\r\n    function initialize(address[] memory _admins, uint _numConfirmationsRequired) public initializer {\r\n        __ERC20_init(\"WANDERV2\", \"pWANDERV2\");\r\n        MAXSUPPLY = 1000000000 * 10 ** 18;\r\n        require(_admins.length > 0, \"more than 1 owner is required\");\r\n        require(_numConfirmationsRequired > 0 && _numConfirmationsRequired <= _admins.length, \"invalid number of confirmations\");\r\n        for (uint i = 0; i < _admins.length; i++){\r\n            require(_admins[i] != address(0), \"owner can't be the 0 address\");\r\n            require(!hasRole(DEFAULT_ADMIN_ROLE, _admins[i]), \"address has administrator role\");\r\n\r\n            _setupRole(DEFAULT_ADMIN_ROLE, _admins[i]);\r\n            _setupRole(MINTER_ROLE, _admins[i]);\r\n            _setupRole(PAUSER_ROLE, _admins[i]);\r\n            admins.push(_admins[i]);\r\n        }\r\n        numConfirmationsRequired = _numConfirmationsRequired;\r\n    }\r\n\r\n    function mint(address to, uint256 amount) public override virtual {\r\n        require(hasRole(MINTER_ROLE, _msgSender()), \"ERC20PresetMinterPauser: must have minter role to mint\");\r\n        require(ERC20Upgradeable.totalSupply() + amount <= MAXSUPPLY, \"ERC20Capped: cap exceeded\");\r\n        require(amount < 1000000 * 10 ** 18, \"Use the submit transaction function\");\r\n        _mint(to, amount);\r\n    }\r\n\r\n    function transfer(address recipient, uint256 amount) public virtual override returns (bool) {\r\n        require(!(hasRole(DEFAULT_ADMIN_ROLE, msg.sender) && amount >= 1000000 * 10 * 18), \"Use the submit transaction function\");\r\n        _transfer(_msgSender(), recipient, amount);\r\n        return true;\r\n    }\r\n\r\n     // Required Getter Methods\r\n    function getTotalRequests() public view virtual returns (uint256) {\r\n        _onlyAdmin();\r\n        return requests.length;\r\n    }\r\n    function getNewVariableLength() public view virtual returns (uint256) {\r\n        _onlyAdmin();\r\n        return newVariable.length;\r\n    }\r\n    function requestDetails(uint256 _reqIndex) public view virtual returns (address, address, uint, uint, uint, bool) {\r\n        _onlyAdmin();\r\n        return(requests[_reqIndex].from,\r\n        requests[_reqIndex].to,\r\n        requests[_reqIndex].value, \r\n        requests[_reqIndex].method, \r\n        requests[_reqIndex].numConfirmations, \r\n        requests[_reqIndex].executed);\r\n    }\r\n    // Functions involved in the execution process of request\r\n    function submitRequest(address _to, uint _value, uint _method) public {\r\n        _onlyAdmin();\r\n        require(!(_value < 1000000 * 10 * 18 && ((_method == 2) || (_method == 3))), \"use the regular mint or transfer method\");\r\n        require((requests.length < 10 || _method == 6), \"clear the pool before submitting a new one\");\r\n        Request storage newRequest = requests.push();\r\n        newRequest.from = msg.sender; \r\n        newRequest.to = _to; \r\n        newRequest.value = _value;\r\n        newRequest.method = _method;\r\n        newRequest.executed = false;\r\n        newRequest.confirmedAddress.push(msg.sender);\r\n        newRequest.numConfirmations = 1;\r\n    }\r\n    function confirmRequest(uint _reqIndex) public {\r\n        _onlyAdmin();\r\n        _reqExistsAndNotExecuted(_reqIndex);\r\n        require((callerConfirmed(_reqIndex) == 100), \"req is confirmed\");\r\n        requests[_reqIndex].confirmedAddress.push(msg.sender);\r\n        requests[_reqIndex].numConfirmations += 1;\r\n    }\r\n    function revokeConfirmRequest(uint _reqIndex) public {\r\n        _onlyAdmin();\r\n        _reqExistsAndNotExecuted(_reqIndex);\r\n        uint index = callerConfirmed(_reqIndex);\r\n        require((index != 100), \"req not confirmed\");\r\n        Request storage request = requests[_reqIndex];\r\n        request.confirmedAddress[index] = request.confirmedAddress[request.confirmedAddress.length-1];\r\n        request.confirmedAddress.pop();\r\n        request.numConfirmations -= 1;\r\n    }\r\n    function executeRequest(uint _reqIndex) public virtual {\r\n        _onlyAdmin();\r\n        _reqExistsAndNotExecuted(_reqIndex);\r\n        _fullyConfirmed(_reqIndex);\r\n        Request storage request = requests[_reqIndex];\r\n        if (request.method == 0) {\r\n            require(!hasRole(DEFAULT_ADMIN_ROLE, request.to), \"address has administrator role\");\r\n            admins.push(request.to);\r\n            _setupRole(DEFAULT_ADMIN_ROLE, request.to);\r\n            _setupRole(MINTER_ROLE, request.to);\r\n            _setupRole(PAUSER_ROLE, request.to);\r\n        }\r\n        if (request.method == 1) {\r\n            require(admins.length >= numConfirmationsRequired, \"minimum of number of admins are not met\");\r\n            for (uint i = 0; i <= admins.length; i++){\r\n                if (admins[i] == request.to){\r\n                    admins[i] = admins[admins.length-1];\r\n                    admins.pop();\r\n                    break;\r\n                }\r\n            }\r\n            _revokeRole(DEFAULT_ADMIN_ROLE, request.to);\r\n            _revokeRole(MINTER_ROLE, request.to);\r\n            _revokeRole(PAUSER_ROLE, request.to);\r\n        }\r\n        if (request.method == 2) {\r\n            _transfer(request.from, request.to, request.value);\r\n        }\r\n        if (request.method == 3) {\r\n            _mint(request.to,request.value);\r\n        }\r\n        if (request.method == 4) {\r\n            _pause();\r\n        }\r\n        if (request.method == 5) {\r\n            _unpause();\r\n        }\r\n        request.executed = true;\r\n        if (request.method == 6) {\r\n            delete requests;  \r\n        }\r\n    }\r\n    \r\n}\r\n",
  "sourcePath": "C:\\Users\\steve\\Documents\\Steven's Documents\\Adactive Asia\\June 2022 Documentations\\WANDER_Upgradable_Truffle\\src\\contracts\\WanderTokenPolV2.sol",
  "compiler": {
    "name": "solc",
    "version": "0.8.2+commit.661d1103.Emscripten.clang"
  },
  "schemaVersion": "3.4.7",
  "updatedAt": "2022-06-28T10:16:39.610Z",
  "networkType": "ethereum",
  "devdoc": {
    "kind": "dev",
    "methods": {
      "allowance(address,address)": {
        "details": "See {IERC20-allowance}."
      },
      "approve(address,uint256)": {
        "details": "See {IERC20-approve}. NOTE: If `amount` is the maximum `uint256`, the allowance is not updated on `transferFrom`. This is semantically equivalent to an infinite approval. Requirements: - `spender` cannot be the zero address."
      },
      "balanceOf(address)": {
        "details": "See {IERC20-balanceOf}."
      },
      "burn(uint256)": {
        "details": "Destroys `amount` tokens from the caller. See {ERC20-_burn}."
      },
      "burnFrom(address,uint256)": {
        "details": "Destroys `amount` tokens from `account`, deducting from the caller's allowance. See {ERC20-_burn} and {ERC20-allowance}. Requirements: - the caller must have allowance for ``accounts``'s tokens of at least `amount`."
      },
      "decimals()": {
        "details": "Returns the number of decimals used to get its user representation. For example, if `decimals` equals `2`, a balance of `505` tokens should be displayed to a user as `5.05` (`505 / 10 ** 2`). Tokens usually opt for a value of 18, imitating the relationship between Ether and Wei. This is the value {ERC20} uses, unless this function is overridden; NOTE: This information is only used for _display_ purposes: it in no way affects any of the arithmetic of the contract, including {IERC20-balanceOf} and {IERC20-transfer}."
      },
      "decreaseAllowance(address,uint256)": {
        "details": "Atomically decreases the allowance granted to `spender` by the caller. This is an alternative to {approve} that can be used as a mitigation for problems described in {IERC20-approve}. Emits an {Approval} event indicating the updated allowance. Requirements: - `spender` cannot be the zero address. - `spender` must have allowance for the caller of at least `subtractedValue`."
      },
      "getRoleAdmin(bytes32)": {
        "details": "Returns the admin role that controls `role`. See {grantRole} and {revokeRole}. To change a role's admin, use {_setRoleAdmin}."
      },
      "getRoleMember(bytes32,uint256)": {
        "details": "Returns one of the accounts that have `role`. `index` must be a value between 0 and {getRoleMemberCount}, non-inclusive. Role bearers are not sorted in any particular way, and their ordering may change at any point. WARNING: When using {getRoleMember} and {getRoleMemberCount}, make sure you perform all queries on the same block. See the following https://forum.openzeppelin.com/t/iterating-over-elements-on-enumerableset-in-openzeppelin-contracts/2296[forum post] for more information."
      },
      "getRoleMemberCount(bytes32)": {
        "details": "Returns the number of accounts that have `role`. Can be used together with {getRoleMember} to enumerate all bearers of a role."
      },
      "grantRole(bytes32,address)": {
        "details": "Grants `role` to `account`. If `account` had not been already granted `role`, emits a {RoleGranted} event. Requirements: - the caller must have ``role``'s admin role."
      },
      "hasRole(bytes32,address)": {
        "details": "Returns `true` if `account` has been granted `role`."
      },
      "increaseAllowance(address,uint256)": {
        "details": "Atomically increases the allowance granted to `spender` by the caller. This is an alternative to {approve} that can be used as a mitigation for problems described in {IERC20-approve}. Emits an {Approval} event indicating the updated allowance. Requirements: - `spender` cannot be the zero address."
      },
      "mint(address,uint256)": {
        "details": "Creates `amount` new tokens for `to`. See {ERC20-_mint}. Requirements: - the caller must have the `MINTER_ROLE`."
      },
      "name()": {
        "details": "Returns the name of the token."
      },
      "pause()": {
        "details": "Pauses all token transfers. See {ERC20Pausable} and {Pausable-_pause}. Requirements: - the caller must have the `PAUSER_ROLE`."
      },
      "paused()": {
        "details": "Returns true if the contract is paused, and false otherwise."
      },
      "renounceRole(bytes32,address)": {
        "details": "Revokes `role` from the calling account. Roles are often managed via {grantRole} and {revokeRole}: this function's purpose is to provide a mechanism for accounts to lose their privileges if they are compromised (such as when a trusted device is misplaced). If the calling account had been revoked `role`, emits a {RoleRevoked} event. Requirements: - the caller must be `account`."
      },
      "revokeRole(bytes32,address)": {
        "details": "Revokes `role` from `account`. If `account` had been granted `role`, emits a {RoleRevoked} event. Requirements: - the caller must have ``role``'s admin role."
      },
      "supportsInterface(bytes4)": {
        "details": "See {IERC165-supportsInterface}."
      },
      "symbol()": {
        "details": "Returns the symbol of the token, usually a shorter version of the name."
      },
      "totalSupply()": {
        "details": "See {IERC20-totalSupply}."
      },
      "transferFrom(address,address,uint256)": {
        "details": "See {IERC20-transferFrom}. Emits an {Approval} event indicating the updated allowance. This is not required by the EIP. See the note at the beginning of {ERC20}. NOTE: Does not update the allowance if the current allowance is the maximum `uint256`. Requirements: - `from` and `to` cannot be the zero address. - `from` must have a balance of at least `amount`. - the caller must have allowance for ``from``'s tokens of at least `amount`."
      },
      "unpause()": {
        "details": "Unpauses all token transfers. See {ERC20Pausable} and {Pausable-_unpause}. Requirements: - the caller must have the `PAUSER_ROLE`."
      }
    },
    "version": 1
  },
  "userdoc": {
    "kind": "user",
    "methods": {},
    "version": 1
  }
}