{
  "contractName": "WanderTokenBsc",
  "abi": [
    {
      "anonymous": false,
      "inputs": [
        {
          "indexed": true,
          "internalType": "address",
          "name": "owner",
          "type": "address"
        },
        {
          "indexed": true,
          "internalType": "address",
          "name": "spender",
          "type": "address"
        },
        {
          "indexed": false,
          "internalType": "uint256",
          "name": "value",
          "type": "uint256"
        }
      ],
      "name": "Approval",
      "type": "event"
    },
    {
      "anonymous": false,
      "inputs": [
        {
          "indexed": false,
          "internalType": "uint8",
          "name": "version",
          "type": "uint8"
        }
      ],
      "name": "Initialized",
      "type": "event"
    },
    {
      "anonymous": false,
      "inputs": [
        {
          "indexed": false,
          "internalType": "address",
          "name": "account",
          "type": "address"
        }
      ],
      "name": "Paused",
      "type": "event"
    },
    {
      "anonymous": false,
      "inputs": [
        {
          "indexed": true,
          "internalType": "bytes32",
          "name": "role",
          "type": "bytes32"
        },
        {
          "indexed": true,
          "internalType": "bytes32",
          "name": "previousAdminRole",
          "type": "bytes32"
        },
        {
          "indexed": true,
          "internalType": "bytes32",
          "name": "newAdminRole",
          "type": "bytes32"
        }
      ],
      "name": "RoleAdminChanged",
      "type": "event"
    },
    {
      "anonymous": false,
      "inputs": [
        {
          "indexed": true,
          "internalType": "bytes32",
          "name": "role",
          "type": "bytes32"
        },
        {
          "indexed": true,
          "internalType": "address",
          "name": "account",
          "type": "address"
        },
        {
          "indexed": true,
          "internalType": "address",
          "name": "sender",
          "type": "address"
        }
      ],
      "name": "RoleGranted",
      "type": "event"
    },
    {
      "anonymous": false,
      "inputs": [
        {
          "indexed": true,
          "internalType": "bytes32",
          "name": "role",
          "type": "bytes32"
        },
        {
          "indexed": true,
          "internalType": "address",
          "name": "account",
          "type": "address"
        },
        {
          "indexed": true,
          "internalType": "address",
          "name": "sender",
          "type": "address"
        }
      ],
      "name": "RoleRevoked",
      "type": "event"
    },
    {
      "anonymous": false,
      "inputs": [
        {
          "indexed": true,
          "internalType": "address",
          "name": "from",
          "type": "address"
        },
        {
          "indexed": true,
          "internalType": "address",
          "name": "to",
          "type": "address"
        },
        {
          "indexed": false,
          "internalType": "uint256",
          "name": "value",
          "type": "uint256"
        }
      ],
      "name": "Transfer",
      "type": "event"
    },
    {
      "anonymous": false,
      "inputs": [
        {
          "indexed": false,
          "internalType": "address",
          "name": "account",
          "type": "address"
        }
      ],
      "name": "Unpaused",
      "type": "event"
    },
    {
      "inputs": [],
      "name": "DEFAULT_ADMIN_ROLE",
      "outputs": [
        {
          "internalType": "bytes32",
          "name": "",
          "type": "bytes32"
        }
      ],
      "stateMutability": "view",
      "type": "function"
    },
    {
      "inputs": [],
      "name": "MINTER_ROLE",
      "outputs": [
        {
          "internalType": "bytes32",
          "name": "",
          "type": "bytes32"
        }
      ],
      "stateMutability": "view",
      "type": "function"
    },
    {
      "inputs": [],
      "name": "PAUSER_ROLE",
      "outputs": [
        {
          "internalType": "bytes32",
          "name": "",
          "type": "bytes32"
        }
      ],
      "stateMutability": "view",
      "type": "function"
    },
    {
      "inputs": [
        {
          "internalType": "uint256",
          "name": "",
          "type": "uint256"
        }
      ],
      "name": "admins",
      "outputs": [
        {
          "internalType": "address",
          "name": "",
          "type": "address"
        }
      ],
      "stateMutability": "view",
      "type": "function"
    },
    {
      "inputs": [
        {
          "internalType": "address",
          "name": "owner",
          "type": "address"
        },
        {
          "internalType": "address",
          "name": "spender",
          "type": "address"
        }
      ],
      "name": "allowance",
      "outputs": [
        {
          "internalType": "uint256",
          "name": "",
          "type": "uint256"
        }
      ],
      "stateMutability": "view",
      "type": "function"
    },
    {
      "inputs": [
        {
          "internalType": "address",
          "name": "spender",
          "type": "address"
        },
        {
          "internalType": "uint256",
          "name": "amount",
          "type": "uint256"
        }
      ],
      "name": "approve",
      "outputs": [
        {
          "internalType": "bool",
          "name": "",
          "type": "bool"
        }
      ],
      "stateMutability": "nonpayable",
      "type": "function"
    },
    {
      "inputs": [
        {
          "internalType": "address",
          "name": "account",
          "type": "address"
        }
      ],
      "name": "balanceOf",
      "outputs": [
        {
          "internalType": "uint256",
          "name": "",
          "type": "uint256"
        }
      ],
      "stateMutability": "view",
      "type": "function"
    },
    {
      "inputs": [
        {
          "internalType": "uint256",
          "name": "amount",
          "type": "uint256"
        }
      ],
      "name": "burn",
      "outputs": [],
      "stateMutability": "nonpayable",
      "type": "function"
    },
    {
      "inputs": [
        {
          "internalType": "address",
          "name": "account",
          "type": "address"
        },
        {
          "internalType": "uint256",
          "name": "amount",
          "type": "uint256"
        }
      ],
      "name": "burnFrom",
      "outputs": [],
      "stateMutability": "nonpayable",
      "type": "function"
    },
    {
      "inputs": [],
      "name": "decimals",
      "outputs": [
        {
          "internalType": "uint8",
          "name": "",
          "type": "uint8"
        }
      ],
      "stateMutability": "view",
      "type": "function"
    },
    {
      "inputs": [
        {
          "internalType": "address",
          "name": "spender",
          "type": "address"
        },
        {
          "internalType": "uint256",
          "name": "subtractedValue",
          "type": "uint256"
        }
      ],
      "name": "decreaseAllowance",
      "outputs": [
        {
          "internalType": "bool",
          "name": "",
          "type": "bool"
        }
      ],
      "stateMutability": "nonpayable",
      "type": "function"
    },
    {
      "inputs": [
        {
          "internalType": "bytes32",
          "name": "role",
          "type": "bytes32"
        }
      ],
      "name": "getRoleAdmin",
      "outputs": [
        {
          "internalType": "bytes32",
          "name": "",
          "type": "bytes32"
        }
      ],
      "stateMutability": "view",
      "type": "function"
    },
    {
      "inputs": [
        {
          "internalType": "bytes32",
          "name": "role",
          "type": "bytes32"
        },
        {
          "internalType": "uint256",
          "name": "index",
          "type": "uint256"
        }
      ],
      "name": "getRoleMember",
      "outputs": [
        {
          "internalType": "address",
          "name": "",
          "type": "address"
        }
      ],
      "stateMutability": "view",
      "type": "function"
    },
    {
      "inputs": [
        {
          "internalType": "bytes32",
          "name": "role",
          "type": "bytes32"
        }
      ],
      "name": "getRoleMemberCount",
      "outputs": [
        {
          "internalType": "uint256",
          "name": "",
          "type": "uint256"
        }
      ],
      "stateMutability": "view",
      "type": "function"
    },
    {
      "inputs": [
        {
          "internalType": "bytes32",
          "name": "role",
          "type": "bytes32"
        },
        {
          "internalType": "address",
          "name": "account",
          "type": "address"
        }
      ],
      "name": "grantRole",
      "outputs": [],
      "stateMutability": "nonpayable",
      "type": "function"
    },
    {
      "inputs": [
        {
          "internalType": "bytes32",
          "name": "role",
          "type": "bytes32"
        },
        {
          "internalType": "address",
          "name": "account",
          "type": "address"
        }
      ],
      "name": "hasRole",
      "outputs": [
        {
          "internalType": "bool",
          "name": "",
          "type": "bool"
        }
      ],
      "stateMutability": "view",
      "type": "function"
    },
    {
      "inputs": [
        {
          "internalType": "address",
          "name": "spender",
          "type": "address"
        },
        {
          "internalType": "uint256",
          "name": "addedValue",
          "type": "uint256"
        }
      ],
      "name": "increaseAllowance",
      "outputs": [
        {
          "internalType": "bool",
          "name": "",
          "type": "bool"
        }
      ],
      "stateMutability": "nonpayable",
      "type": "function"
    },
    {
      "inputs": [
        {
          "internalType": "string",
          "name": "name",
          "type": "string"
        },
        {
          "internalType": "string",
          "name": "symbol",
          "type": "string"
        }
      ],
      "name": "initialize",
      "outputs": [],
      "stateMutability": "nonpayable",
      "type": "function"
    },
    {
      "inputs": [
        {
          "internalType": "address",
          "name": "",
          "type": "address"
        }
      ],
      "name": "isAdmin",
      "outputs": [
        {
          "internalType": "bool",
          "name": "",
          "type": "bool"
        }
      ],
      "stateMutability": "view",
      "type": "function"
    },
    {
      "inputs": [
        {
          "internalType": "address",
          "name": "to",
          "type": "address"
        },
        {
          "internalType": "uint256",
          "name": "amount",
          "type": "uint256"
        }
      ],
      "name": "mint",
      "outputs": [],
      "stateMutability": "nonpayable",
      "type": "function"
    },
    {
      "inputs": [],
      "name": "name",
      "outputs": [
        {
          "internalType": "string",
          "name": "",
          "type": "string"
        }
      ],
      "stateMutability": "view",
      "type": "function"
    },
    {
      "inputs": [],
      "name": "pause",
      "outputs": [],
      "stateMutability": "nonpayable",
      "type": "function"
    },
    {
      "inputs": [],
      "name": "paused",
      "outputs": [
        {
          "internalType": "bool",
          "name": "",
          "type": "bool"
        }
      ],
      "stateMutability": "view",
      "type": "function"
    },
    {
      "inputs": [
        {
          "internalType": "bytes32",
          "name": "role",
          "type": "bytes32"
        },
        {
          "internalType": "address",
          "name": "account",
          "type": "address"
        }
      ],
      "name": "renounceRole",
      "outputs": [],
      "stateMutability": "nonpayable",
      "type": "function"
    },
    {
      "inputs": [
        {
          "internalType": "bytes32",
          "name": "role",
          "type": "bytes32"
        },
        {
          "internalType": "address",
          "name": "account",
          "type": "address"
        }
      ],
      "name": "revokeRole",
      "outputs": [],
      "stateMutability": "nonpayable",
      "type": "function"
    },
    {
      "inputs": [
        {
          "internalType": "bytes4",
          "name": "interfaceId",
          "type": "bytes4"
        }
      ],
      "name": "supportsInterface",
      "outputs": [
        {
          "internalType": "bool",
          "name": "",
          "type": "bool"
        }
      ],
      "stateMutability": "view",
      "type": "function"
    },
    {
      "inputs": [],
      "name": "symbol",
      "outputs": [
        {
          "internalType": "string",
          "name": "",
          "type": "string"
        }
      ],
      "stateMutability": "view",
      "type": "function"
    },
    {
      "inputs": [],
      "name": "totalSupply",
      "outputs": [
        {
          "internalType": "uint256",
          "name": "",
          "type": "uint256"
        }
      ],
      "stateMutability": "view",
      "type": "function"
    },
    {
      "inputs": [
        {
          "internalType": "address",
          "name": "from",
          "type": "address"
        },
        {
          "internalType": "address",
          "name": "to",
          "type": "address"
        },
        {
          "internalType": "uint256",
          "name": "amount",
          "type": "uint256"
        }
      ],
      "name": "transferFrom",
      "outputs": [
        {
          "internalType": "bool",
          "name": "",
          "type": "bool"
        }
      ],
      "stateMutability": "nonpayable",
      "type": "function"
    },
    {
      "inputs": [],
      "name": "unpause",
      "outputs": [],
      "stateMutability": "nonpayable",
      "type": "function"
    },
    {
      "inputs": [
        {
          "internalType": "address",
          "name": "recipient",
          "type": "address"
        },
        {
          "internalType": "uint256",
          "name": "amount",
          "type": "uint256"
        }
      ],
      "name": "transfer",
      "outputs": [
        {
          "internalType": "bool",
          "name": "",
          "type": "bool"
        }
      ],
      "stateMutability": "nonpayable",
      "type": "function"
    },
    {
      "inputs": [
        {
          "internalType": "address",
          "name": "sender",
          "type": "address"
        },
        {
          "internalType": "address",
          "name": "recipient",
          "type": "address"
        },
        {
          "internalType": "uint256",
          "name": "amount",
          "type": "uint256"
        }
      ],
      "name": "transferRequest",
      "outputs": [
        {
          "internalType": "bool",
          "name": "",
          "type": "bool"
        }
      ],
      "stateMutability": "nonpayable",
      "type": "function"
    },
    {
      "inputs": [
        {
          "internalType": "address",
          "name": "_newAdmin",
          "type": "address"
        }
      ],
      "name": "setRole",
      "outputs": [],
      "stateMutability": "nonpayable",
      "type": "function"
    },
    {
      "inputs": [
        {
          "internalType": "address",
          "name": "_oldAdmin",
          "type": "address"
        }
      ],
      "name": "removeRole",
      "outputs": [],
      "stateMutability": "nonpayable",
      "type": "function"
    },
    {
      "inputs": [
        {
          "internalType": "address",
          "name": "_requestSCAddress",
          "type": "address"
        }
      ],
      "name": "setRequestSCAddress",
      "outputs": [],
      "stateMutability": "nonpayable",
      "type": "function"
    },
    {
      "inputs": [],
      "name": "hello",
      "outputs": [
        {
          "internalType": "string",
          "name": "",
          "type": "string"
        }
      ],
      "stateMutability": "view",
      "type": "function"
    }
  ],
  "bytecode": "0x608060405234801561001057600080fd5b506140b3806100206000396000f3fe608060405234801561001057600080fd5b506004361061021c5760003560e01c80634cd88b7611610125578063a217fddf116100ad578063ca15c8731161007c578063ca15c87314610673578063d5391393146106a3578063d547741f146106c1578063dd62ed3e146106dd578063e63ab1e91461070d5761021c565b8063a217fddf146105d9578063a457c2d7146105f7578063a9059cbb14610627578063bdf5a2ce146106575761021c565b806379cc6790116100f457806379cc6790146105355780638456cb59146105515780639010d07c1461055b57806391d148541461058b57806395d89b41146105bb5761021c565b80634cd88b76146104af5780635c975abb146104cb5780635d0efc4d146104e957806370a08231146105055761021c565b80632f2ff15d116101a8578063395093511161017757806339509351146104215780633f4ba83a1461045157806340c10f191461045b57806342966c68146104775780634762155d146104935761021c565b80632f2ff15d1461039b578063313ce567146103b757806334dc58dd146103d557806336568abe146104055761021c565b806318160ddd116101ef57806318160ddd146102cf57806319ff1d21146102ed57806323b872dd1461030b578063248a9ca31461033b57806324d7806c1461036b5761021c565b806301ffc9a71461022157806306fdde0314610251578063095ea7b31461026f57806314bfd6d01461029f575b600080fd5b61023b60048036038101906102369190612d8a565b61072b565b60405161024891906132cc565b60405180910390f35b6102596107a5565b604051610266919061331d565b60405180910390f35b61028960048036038101906102849190612cad565b610837565b60405161029691906132cc565b60405180910390f35b6102b960048036038101906102b49190612e1f565b61085a565b6040516102c691906132b1565b60405180910390f35b6102d761089a565b6040516102e4919061361f565b60405180910390f35b6102f56108a4565b604051610302919061331d565b60405180910390f35b61032560048036038101906103209190612c5e565b6108e1565b60405161033291906132cc565b60405180910390f35b61035560048036038101906103509190612ce9565b610910565b60405161036291906132e7565b60405180910390f35b61038560048036038101906103809190612bf9565b610930565b60405161039291906132cc565b60405180910390f35b6103b560048036038101906103b09190612d12565b610951565b005b6103bf610972565b6040516103cc919061363a565b60405180910390f35b6103ef60048036038101906103ea9190612c5e565b61097b565b6040516103fc91906132cc565b60405180910390f35b61041f600480360381019061041a9190612d12565b6109ef565b005b61043b60048036038101906104369190612cad565b610a72565b60405161044891906132cc565b60405180910390f35b610459610aa9565b005b61047560048036038101906104709190612cad565b610b23565b005b610491600480360381019061048c9190612e1f565b610ba1565b005b6104ad60048036038101906104a89190612bf9565b610bb5565b005b6104c960048036038101906104c49190612db3565b610ca6565b005b6104d3610d3e565b6040516104e091906132cc565b60405180910390f35b61050360048036038101906104fe9190612bf9565b610d56565b005b61051f600480360381019061051a9190612bf9565b610e47565b60405161052c919061361f565b60405180910390f35b61054f600480360381019061054a9190612cad565b610e90565b005b610559610eb0565b005b61057560048036038101906105709190612d4e565b610f2a565b60405161058291906132b1565b60405180910390f35b6105a560048036038101906105a09190612d12565b610f59565b6040516105b291906132cc565b60405180910390f35b6105c3610fc4565b6040516105d0919061331d565b60405180910390f35b6105e1611056565b6040516105ee91906132e7565b60405180910390f35b610611600480360381019061060c9190612cad565b61105d565b60405161061e91906132cc565b60405180910390f35b610641600480360381019061063c9190612cad565b6110d4565b60405161064e91906132cc565b60405180910390f35b610671600480360381019061066c9190612bf9565b61114e565b005b61068d60048036038101906106889190612ce9565b61123f565b60405161069a919061361f565b60405180910390f35b6106ab611263565b6040516106b891906132e7565b60405180910390f35b6106db60048036038101906106d69190612d12565b611287565b005b6106f760048036038101906106f29190612c22565b6112a8565b604051610704919061361f565b60405180910390f35b61071561132f565b60405161072291906132e7565b60405180910390f35b60007f5a05180f000000000000000000000000000000000000000000000000000000007bffffffffffffffffffffffffffffffffffffffffffffffffffffffff1916827bffffffffffffffffffffffffffffffffffffffffffffffffffffffff1916148061079e575061079d82611353565b5b9050919050565b606060cc80546107b4906138bf565b80601f01602080910402602001604051908101604052809291908181526020018280546107e0906138bf565b801561082d5780601f106108025761010080835404028352916020019161082d565b820191906000526020600020905b81548152906001019060200180831161081057829003601f168201915b5050505050905090565b6000806108426113cd565b905061084f8185856113d5565b600191505092915050565b6101c7818154811061086b57600080fd5b906000526020600020016000915054906101000a900473ffffffffffffffffffffffffffffffffffffffff1681565b600060cb54905090565b60606040518060400160405280600581526020017f68656c6c6f000000000000000000000000000000000000000000000000000000815250905090565b6000806108ec6113cd565b90506108f98582856115a0565b61090485858561162c565b60019150509392505050565b600060656000838152602001908152602001600020600101549050919050565b6101c86020528060005260406000206000915054906101000a900460ff1681565b61095a82610910565b610963816118b0565b61096d83836118c4565b505050565b60006012905090565b600061098a6000801b33610f59565b801561099957506101c3548210155b156109d9576040517f08c379a00000000000000000000000000000000000000000000000000000000081526004016109d0906134bf565b60405180910390fd5b6109e484848461162c565b600190509392505050565b6109f76113cd565b73ffffffffffffffffffffffffffffffffffffffff168173ffffffffffffffffffffffffffffffffffffffff1614610a64576040517f08c379a0000000000000000000000000000000000000000000000000000000008152600401610a5b906135bf565b60405180910390fd5b610a6e82826118f8565b5050565b600080610a7d6113cd565b9050610a9e818585610a8f85896112a8565b610a9991906136d2565b6113d5565b600191505092915050565b610ada7f65d7a28e3265b37a6474929f336521b332c1681b933f6cb9f3376673440d862a610ad56113cd565b610f59565b610b19576040517f08c379a0000000000000000000000000000000000000000000000000000000008152600401610b10906133bf565b60405180910390fd5b610b2161192c565b565b610b547f9f2df0fed2c77648de5860a4cc508cd0818c85b8b8a1ab4ceeef8d981c8956a6610b4f6113cd565b610f59565b610b93576040517f08c379a0000000000000000000000000000000000000000000000000000000008152600401610b8a9061347f565b60405180910390fd5b610b9d82826119cf565b5050565b610bb2610bac6113cd565b82611a35565b50565b6101c860003373ffffffffffffffffffffffffffffffffffffffff1673ffffffffffffffffffffffffffffffffffffffff16815260200190815260200160002060009054906101000a900460ff16610c42576040517f08c379a0000000000000000000000000000000000000000000000000000000008152600401610c399061357f565b60405180910390fd5b610c4f6000801b826118f8565b610c797f9f2df0fed2c77648de5860a4cc508cd0818c85b8b8a1ab4ceeef8d981c8956a6826118f8565b610ca37f65d7a28e3265b37a6474929f336521b332c1681b933f6cb9f3376673440d862a826118f8565b50565b6000610cb26001611c0e565b90508015610cd6576001600060016101000a81548160ff0219169083151502179055505b610ce08383611cfe565b8015610d395760008060016101000a81548160ff0219169083151502179055507f7f26b83ff96e1f2b6a682f133852f6798a09c465da95921460cefb38474024986001604051610d309190613302565b60405180910390a15b505050565b600061012d60009054906101000a900460ff16905090565b6101c860003373ffffffffffffffffffffffffffffffffffffffff1673ffffffffffffffffffffffffffffffffffffffff16815260200190815260200160002060009054906101000a900460ff16610de3576040517f08c379a0000000000000000000000000000000000000000000000000000000008152600401610dda9061357f565b60405180910390fd5b610df06000801b82611d6d565b610e1a7f9f2df0fed2c77648de5860a4cc508cd0818c85b8b8a1ab4ceeef8d981c8956a682611d6d565b610e447f65d7a28e3265b37a6474929f336521b332c1681b933f6cb9f3376673440d862a82611d6d565b50565b600060c960008373ffffffffffffffffffffffffffffffffffffffff1673ffffffffffffffffffffffffffffffffffffffff168152602001908152602001600020549050919050565b610ea282610e9c6113cd565b836115a0565b610eac8282611a35565b5050565b610ee17f65d7a28e3265b37a6474929f336521b332c1681b933f6cb9f3376673440d862a610edc6113cd565b610f59565b610f20576040517f08c379a0000000000000000000000000000000000000000000000000000000008152600401610f179061353f565b60405180910390fd5b610f28611d7b565b565b6000610f518260976000868152602001908152602001600020611e1f90919063ffffffff16565b905092915050565b60006065600084815260200190815260200160002060000160008373ffffffffffffffffffffffffffffffffffffffff1673ffffffffffffffffffffffffffffffffffffffff16815260200190815260200160002060009054906101000a900460ff16905092915050565b606060cd8054610fd3906138bf565b80601f0160208091040260200160405190810160405280929190818152602001828054610fff906138bf565b801561104c5780601f106110215761010080835404028352916020019161104c565b820191906000526020600020905b81548152906001019060200180831161102f57829003601f168201915b5050505050905090565b6000801b81565b6000806110686113cd565b9050600061107682866112a8565b9050838110156110bb576040517f08c379a00000000000000000000000000000000000000000000000000000000081526004016110b29061359f565b60405180910390fd5b6110c882868684036113d5565b60019250505092915050565b60006110e36000801b33610f59565b80156110f257506101c3548210155b15611132576040517f08c379a0000000000000000000000000000000000000000000000000000000008152600401611129906134bf565b60405180910390fd5b61114461113d6113cd565b848461162c565b6001905092915050565b6101c860003373ffffffffffffffffffffffffffffffffffffffff1673ffffffffffffffffffffffffffffffffffffffff16815260200190815260200160002060009054906101000a900460ff166111db576040517f08c379a00000000000000000000000000000000000000000000000000000000081526004016111d29061357f565b60405180910390fd5b6111e86000801b82611d6d565b6112127f9f2df0fed2c77648de5860a4cc508cd0818c85b8b8a1ab4ceeef8d981c8956a682611d6d565b61123c7f65d7a28e3265b37a6474929f336521b332c1681b933f6cb9f3376673440d862a82611d6d565b50565b600061125c60976000848152602001908152602001600020611e39565b9050919050565b7f9f2df0fed2c77648de5860a4cc508cd0818c85b8b8a1ab4ceeef8d981c8956a681565b61129082610910565b611299816118b0565b6112a383836118f8565b505050565b600060ca60008473ffffffffffffffffffffffffffffffffffffffff1673ffffffffffffffffffffffffffffffffffffffff16815260200190815260200160002060008373ffffffffffffffffffffffffffffffffffffffff1673ffffffffffffffffffffffffffffffffffffffff16815260200190815260200160002054905092915050565b7f65d7a28e3265b37a6474929f336521b332c1681b933f6cb9f3376673440d862a81565b60007f7965db0b000000000000000000000000000000000000000000000000000000007bffffffffffffffffffffffffffffffffffffffffffffffffffffffff1916827bffffffffffffffffffffffffffffffffffffffffffffffffffffffff191614806113c657506113c582611e4e565b5b9050919050565b600033905090565b600073ffffffffffffffffffffffffffffffffffffffff168373ffffffffffffffffffffffffffffffffffffffff161415611445576040517f08c379a000000000000000000000000000000000000000000000000000000000815260040161143c9061351f565b60405180910390fd5b600073ffffffffffffffffffffffffffffffffffffffff168273ffffffffffffffffffffffffffffffffffffffff1614156114b5576040517f08c379a00000000000000000000000000000000000000000000000000000000081526004016114ac906133df565b60405180910390fd5b8060ca60008573ffffffffffffffffffffffffffffffffffffffff1673ffffffffffffffffffffffffffffffffffffffff16815260200190815260200160002060008473ffffffffffffffffffffffffffffffffffffffff1673ffffffffffffffffffffffffffffffffffffffff168152602001908152602001600020819055508173ffffffffffffffffffffffffffffffffffffffff168373ffffffffffffffffffffffffffffffffffffffff167f8c5be1e5ebec7d5bd14f71427d1e84f3dd0314c0f7b2291e5b200ac8c7c3b92583604051611593919061361f565b60405180910390a3505050565b60006115ac84846112a8565b90507fffffffffffffffffffffffffffffffffffffffffffffffffffffffffffffffff81146116265781811015611618576040517f08c379a000000000000000000000000000000000000000000000000000000000815260040161160f906133ff565b60405180910390fd5b61162584848484036113d5565b5b50505050565b600073ffffffffffffffffffffffffffffffffffffffff168373ffffffffffffffffffffffffffffffffffffffff16141561169c576040517f08c379a0000000000000000000000000000000000000000000000000000000008152600401611693906134df565b60405180910390fd5b600073ffffffffffffffffffffffffffffffffffffffff168273ffffffffffffffffffffffffffffffffffffffff16141561170c576040517f08c379a00000000000000000000000000000000000000000000000000000000081526004016117039061335f565b60405180910390fd5b611717838383611eb8565b600060c960008573ffffffffffffffffffffffffffffffffffffffff1673ffffffffffffffffffffffffffffffffffffffff1681526020019081526020016000205490508181101561179e576040517f08c379a00000000000000000000000000000000000000000000000000000000081526004016117959061341f565b60405180910390fd5b81810360c960008673ffffffffffffffffffffffffffffffffffffffff1673ffffffffffffffffffffffffffffffffffffffff168152602001908152602001600020819055508160c960008573ffffffffffffffffffffffffffffffffffffffff1673ffffffffffffffffffffffffffffffffffffffff168152602001908152602001600020600082825461183391906136d2565b925050819055508273ffffffffffffffffffffffffffffffffffffffff168473ffffffffffffffffffffffffffffffffffffffff167fddf252ad1be2c89b69c2b068fc378daa952ba7f163c4a11628f55a4df523b3ef84604051611897919061361f565b60405180910390a36118aa848484611ec8565b50505050565b6118c1816118bc6113cd565b611ecd565b50565b6118ce8282611f6a565b6118f3816097600085815260200190815260200160002061204b90919063ffffffff16565b505050565b611902828261207b565b611927816097600085815260200190815260200160002061215d90919063ffffffff16565b505050565b611934610d3e565b611973576040517f08c379a000000000000000000000000000000000000000000000000000000000815260040161196a9061337f565b60405180910390fd5b600061012d60006101000a81548160ff0219169083151502179055507f5db9ee0a495bf2e6ff9c91a7834c1ba4fdd244a5e8aa4e537bd38aeae4b073aa6119b86113cd565b6040516119c591906132b1565b60405180910390a1565b6101c354816119dc61089a565b6119e691906136d2565b1115611a27576040517f08c379a0000000000000000000000000000000000000000000000000000000008152600401611a1e906134ff565b60405180910390fd5b611a31828261218d565b5050565b600073ffffffffffffffffffffffffffffffffffffffff168273ffffffffffffffffffffffffffffffffffffffff161415611aa5576040517f08c379a0000000000000000000000000000000000000000000000000000000008152600401611a9c9061349f565b60405180910390fd5b611ab182600083611eb8565b600060c960008473ffffffffffffffffffffffffffffffffffffffff1673ffffffffffffffffffffffffffffffffffffffff16815260200190815260200160002054905081811015611b38576040517f08c379a0000000000000000000000000000000000000000000000000000000008152600401611b2f9061339f565b60405180910390fd5b81810360c960008573ffffffffffffffffffffffffffffffffffffffff1673ffffffffffffffffffffffffffffffffffffffff168152602001908152602001600020819055508160cb6000828254611b909190613782565b92505081905550600073ffffffffffffffffffffffffffffffffffffffff168373ffffffffffffffffffffffffffffffffffffffff167fddf252ad1be2c89b69c2b068fc378daa952ba7f163c4a11628f55a4df523b3ef84604051611bf5919061361f565b60405180910390a3611c0983600084611ec8565b505050565b60008060019054906101000a900460ff1615611c855760018260ff16148015611c3d5750611c3b306122ee565b155b611c7c576040517f08c379a0000000000000000000000000000000000000000000000000000000008152600401611c739061345f565b60405180910390fd5b60009050611cf9565b8160ff1660008054906101000a900460ff1660ff1610611cda576040517f08c379a0000000000000000000000000000000000000000000000000000000008152600401611cd19061345f565b60405180910390fd5b816000806101000a81548160ff021916908360ff160217905550600190505b919050565b600060019054906101000a900460ff16611d4d576040517f08c379a0000000000000000000000000000000000000000000000000000000008152600401611d449061355f565b60405180910390fd5b611d578282612311565b611d5f612392565b611d6982826123ff565b5050565b611d7782826118c4565b5050565b611d83610d3e565b15611dc3576040517f08c379a0000000000000000000000000000000000000000000000000000000008152600401611dba9061343f565b60405180910390fd5b600161012d60006101000a81548160ff0219169083151502179055507f62e78cea01bee320cd4e420270b5ea74000d11b0c9f74754ebdbfc544b05a258611e086113cd565b604051611e1591906132b1565b60405180910390a1565b6000611e2e83600001836124c8565b60001c905092915050565b6000611e4782600001612519565b9050919050565b60007f01ffc9a7000000000000000000000000000000000000000000000000000000007bffffffffffffffffffffffffffffffffffffffffffffffffffffffff1916827bffffffffffffffffffffffffffffffffffffffffffffffffffffffff1916149050919050565b611ec383838361252a565b505050565b505050565b611ed78282610f59565b611f6657611efc8173ffffffffffffffffffffffffffffffffffffffff166014612582565b611f0a8360001c6020612582565b604051602001611f1b929190613277565b6040516020818303038152906040526040517f08c379a0000000000000000000000000000000000000000000000000000000008152600401611f5d919061331d565b60405180910390fd5b5050565b611f748282610f59565b6120475760016065600084815260200190815260200160002060000160008373ffffffffffffffffffffffffffffffffffffffff1673ffffffffffffffffffffffffffffffffffffffff16815260200190815260200160002060006101000a81548160ff021916908315150217905550611fec6113cd565b73ffffffffffffffffffffffffffffffffffffffff168173ffffffffffffffffffffffffffffffffffffffff16837f2f8788117e7eff1d82e926ec794901d17c78024a50270940304540a733656f0d60405160405180910390a45b5050565b6000612073836000018373ffffffffffffffffffffffffffffffffffffffff1660001b61287c565b905092915050565b6120858282610f59565b156121595760006065600084815260200190815260200160002060000160008373ffffffffffffffffffffffffffffffffffffffff1673ffffffffffffffffffffffffffffffffffffffff16815260200190815260200160002060006101000a81548160ff0219169083151502179055506120fe6113cd565b73ffffffffffffffffffffffffffffffffffffffff168173ffffffffffffffffffffffffffffffffffffffff16837ff6391f5c32d9c69d2a47ea670b442974b53935d1edc7fd64eb21e047a839171b60405160405180910390a45b5050565b6000612185836000018373ffffffffffffffffffffffffffffffffffffffff1660001b6128ec565b905092915050565b600073ffffffffffffffffffffffffffffffffffffffff168273ffffffffffffffffffffffffffffffffffffffff1614156121fd576040517f08c379a00000000000000000000000000000000000000000000000000000000081526004016121f4906135df565b60405180910390fd5b61220960008383611eb8565b8060cb600082825461221b91906136d2565b925050819055508060c960008473ffffffffffffffffffffffffffffffffffffffff1673ffffffffffffffffffffffffffffffffffffffff168152602001908152602001600020600082825461227191906136d2565b925050819055508173ffffffffffffffffffffffffffffffffffffffff16600073ffffffffffffffffffffffffffffffffffffffff167fddf252ad1be2c89b69c2b068fc378daa952ba7f163c4a11628f55a4df523b3ef836040516122d6919061361f565b60405180910390a36122ea60008383611ec8565b5050565b6000808273ffffffffffffffffffffffffffffffffffffffff163b119050919050565b600060019054906101000a900460ff16612360576040517f08c379a00000000000000000000000000000000000000000000000000000000081526004016123579061355f565b60405180910390fd5b8160cc9080519060200190612376929190612a9a565b508060cd908051906020019061238d929190612a9a565b505050565b600060019054906101000a900460ff166123e1576040517f08c379a00000000000000000000000000000000000000000000000000000000081526004016123d89061355f565b60405180910390fd5b600061012d60006101000a81548160ff021916908315150217905550565b600060019054906101000a900460ff1661244e576040517f08c379a00000000000000000000000000000000000000000000000000000000081526004016124459061355f565b60405180910390fd5b6124626000801b61245d6113cd565b611d6d565b6124937f9f2df0fed2c77648de5860a4cc508cd0818c85b8b8a1ab4ceeef8d981c8956a661248e6113cd565b611d6d565b6124c47f65d7a28e3265b37a6474929f336521b332c1681b933f6cb9f3376673440d862a6124bf6113cd565b611d6d565b5050565b6000826000018281548110612506577f4e487b7100000000000000000000000000000000000000000000000000000000600052603260045260246000fd5b9060005260206000200154905092915050565b600081600001805490509050919050565b612535838383612a72565b61253d610d3e565b1561257d576040517f08c379a0000000000000000000000000000000000000000000000000000000008152600401612574906135ff565b60405180910390fd5b505050565b6060600060028360026125959190613728565b61259f91906136d2565b67ffffffffffffffff8111156125de577f4e487b7100000000000000000000000000000000000000000000000000000000600052604160045260246000fd5b6040519080825280601f01601f1916602001820160405280156126105781602001600182028036833780820191505090505b5090507f30000000000000000000000000000000000000000000000000000000000000008160008151811061266e577f4e487b7100000000000000000000000000000000000000000000000000000000600052603260045260246000fd5b60200101907effffffffffffffffffffffffffffffffffffffffffffffffffffffffffffff1916908160001a9053507f7800000000000000000000000000000000000000000000000000000000000000816001815181106126f8577f4e487b7100000000000000000000000000000000000000000000000000000000600052603260045260246000fd5b60200101907effffffffffffffffffffffffffffffffffffffffffffffffffffffffffffff1916908160001a905350600060018460026127389190613728565b61274291906136d2565b90505b600181111561282e577f3031323334353637383961626364656600000000000000000000000000000000600f8616601081106127aa577f4e487b7100000000000000000000000000000000000000000000000000000000600052603260045260246000fd5b1a60f81b8282815181106127e7577f4e487b7100000000000000000000000000000000000000000000000000000000600052603260045260246000fd5b60200101907effffffffffffffffffffffffffffffffffffffffffffffffffffffffffffff1916908160001a905350600485901c94508061282790613895565b9050612745565b5060008414612872576040517f08c379a00000000000000000000000000000000000000000000000000000000081526004016128699061333f565b60405180910390fd5b8091505092915050565b60006128888383612a77565b6128e15782600001829080600181540180825580915050600190039060005260206000200160009091909190915055826000018054905083600101600084815260200190815260200160002081905550600190506128e6565b600090505b92915050565b60008083600101600084815260200190815260200160002054905060008114612a6657600060018261291e9190613782565b90506000600186600001805490506129369190613782565b90508181146129f157600086600001828154811061297d577f4e487b7100000000000000000000000000000000000000000000000000000000600052603260045260246000fd5b90600052602060002001549050808760000184815481106129c7577f4e487b7100000000000000000000000000000000000000000000000000000000600052603260045260246000fd5b90600052602060002001819055508387600101600083815260200190815260200160002081905550505b85600001805480612a2b577f4e487b7100000000000000000000000000000000000000000000000000000000600052603160045260246000fd5b600190038181906000526020600020016000905590558560010160008681526020019081526020016000206000905560019350505050612a6c565b60009150505b92915050565b505050565b600080836001016000848152602001908152602001600020541415905092915050565b828054612aa6906138bf565b90600052602060002090601f016020900481019282612ac85760008555612b0f565b82601f10612ae157805160ff1916838001178555612b0f565b82800160010185558215612b0f579182015b82811115612b0e578251825591602001919060010190612af3565b5b509050612b1c9190612b20565b5090565b5b80821115612b39576000816000905550600101612b21565b5090565b6000612b50612b4b8461367a565b613655565b905082815260208101848484011115612b6857600080fd5b612b73848285613853565b509392505050565b600081359050612b8a81614021565b92915050565b600081359050612b9f81614038565b92915050565b600081359050612bb48161404f565b92915050565b600082601f830112612bcb57600080fd5b8135612bdb848260208601612b3d565b91505092915050565b600081359050612bf381614066565b92915050565b600060208284031215612c0b57600080fd5b6000612c1984828501612b7b565b91505092915050565b60008060408385031215612c3557600080fd5b6000612c4385828601612b7b565b9250506020612c5485828601612b7b565b9150509250929050565b600080600060608486031215612c7357600080fd5b6000612c8186828701612b7b565b9350506020612c9286828701612b7b565b9250506040612ca386828701612be4565b9150509250925092565b60008060408385031215612cc057600080fd5b6000612cce85828601612b7b565b9250506020612cdf85828601612be4565b9150509250929050565b600060208284031215612cfb57600080fd5b6000612d0984828501612b90565b91505092915050565b60008060408385031215612d2557600080fd5b6000612d3385828601612b90565b9250506020612d4485828601612b7b565b9150509250929050565b60008060408385031215612d6157600080fd5b6000612d6f85828601612b90565b9250506020612d8085828601612be4565b9150509250929050565b600060208284031215612d9c57600080fd5b6000612daa84828501612ba5565b91505092915050565b60008060408385031215612dc657600080fd5b600083013567ffffffffffffffff811115612de057600080fd5b612dec85828601612bba565b925050602083013567ffffffffffffffff811115612e0957600080fd5b612e1585828601612bba565b9150509250929050565b600060208284031215612e3157600080fd5b6000612e3f84828501612be4565b91505092915050565b612e51816137b6565b82525050565b612e60816137c8565b82525050565b612e6f816137d4565b82525050565b612e7e81613841565b82525050565b6000612e8f826136ab565b612e9981856136b6565b9350612ea9818560208601613862565b612eb2816139af565b840191505092915050565b6000612ec8826136ab565b612ed281856136c7565b9350612ee2818560208601613862565b80840191505092915050565b6000612efb6020836136b6565b9150612f06826139c0565b602082019050919050565b6000612f1e6023836136b6565b9150612f29826139e9565b604082019050919050565b6000612f416014836136b6565b9150612f4c82613a38565b602082019050919050565b6000612f646022836136b6565b9150612f6f82613a61565b604082019050919050565b6000612f876039836136b6565b9150612f9282613ab0565b604082019050919050565b6000612faa6022836136b6565b9150612fb582613aff565b604082019050919050565b6000612fcd601d836136b6565b9150612fd882613b4e565b602082019050919050565b6000612ff06026836136b6565b9150612ffb82613b77565b604082019050919050565b60006130136010836136b6565b915061301e82613bc6565b602082019050919050565b6000613036602e836136b6565b915061304182613bef565b604082019050919050565b60006130596036836136b6565b915061306482613c3e565b604082019050919050565b600061307c6021836136b6565b915061308782613c8d565b604082019050919050565b600061309f6023836136b6565b91506130aa82613cdc565b604082019050919050565b60006130c26025836136b6565b91506130cd82613d2b565b604082019050919050565b60006130e56019836136b6565b91506130f082613d7a565b602082019050919050565b60006131086024836136b6565b915061311382613da3565b604082019050919050565b600061312b6037836136b6565b915061313682613df2565b604082019050919050565b600061314e602b836136b6565b915061315982613e41565b604082019050919050565b60006131716017836136c7565b915061317c82613e90565b601782019050919050565b60006131946009836136b6565b915061319f82613eb9565b602082019050919050565b60006131b76025836136b6565b91506131c282613ee2565b604082019050919050565b60006131da6011836136c7565b91506131e582613f31565b601182019050919050565b60006131fd602f836136b6565b915061320882613f5a565b604082019050919050565b6000613220601f836136b6565b915061322b82613fa9565b602082019050919050565b6000613243602a836136b6565b915061324e82613fd2565b604082019050919050565b6132628161382a565b82525050565b61327181613834565b82525050565b600061328282613164565b915061328e8285612ebd565b9150613299826131cd565b91506132a58284612ebd565b91508190509392505050565b60006020820190506132c66000830184612e48565b92915050565b60006020820190506132e16000830184612e57565b92915050565b60006020820190506132fc6000830184612e66565b92915050565b60006020820190506133176000830184612e75565b92915050565b600060208201905081810360008301526133378184612e84565b905092915050565b6000602082019050818103600083015261335881612eee565b9050919050565b6000602082019050818103600083015261337881612f11565b9050919050565b6000602082019050818103600083015261339881612f34565b9050919050565b600060208201905081810360008301526133b881612f57565b9050919050565b600060208201905081810360008301526133d881612f7a565b9050919050565b600060208201905081810360008301526133f881612f9d565b9050919050565b6000602082019050818103600083015261341881612fc0565b9050919050565b6000602082019050818103600083015261343881612fe3565b9050919050565b6000602082019050818103600083015261345881613006565b9050919050565b6000602082019050818103600083015261347881613029565b9050919050565b600060208201905081810360008301526134988161304c565b9050919050565b600060208201905081810360008301526134b88161306f565b9050919050565b600060208201905081810360008301526134d881613092565b9050919050565b600060208201905081810360008301526134f8816130b5565b9050919050565b60006020820190508181036000830152613518816130d8565b9050919050565b60006020820190508181036000830152613538816130fb565b9050919050565b600060208201905081810360008301526135588161311e565b9050919050565b6000602082019050818103600083015261357881613141565b9050919050565b6000602082019050818103600083015261359881613187565b9050919050565b600060208201905081810360008301526135b8816131aa565b9050919050565b600060208201905081810360008301526135d8816131f0565b9050919050565b600060208201905081810360008301526135f881613213565b9050919050565b6000602082019050818103600083015261361881613236565b9050919050565b60006020820190506136346000830184613259565b92915050565b600060208201905061364f6000830184613268565b92915050565b600061365f613670565b905061366b82826138f1565b919050565b6000604051905090565b600067ffffffffffffffff82111561369557613694613980565b5b61369e826139af565b9050602081019050919050565b600081519050919050565b600082825260208201905092915050565b600081905092915050565b60006136dd8261382a565b91506136e88361382a565b9250827fffffffffffffffffffffffffffffffffffffffffffffffffffffffffffffffff0382111561371d5761371c613922565b5b828201905092915050565b60006137338261382a565b915061373e8361382a565b9250817fffffffffffffffffffffffffffffffffffffffffffffffffffffffffffffffff048311821515161561377757613776613922565b5b828202905092915050565b600061378d8261382a565b91506137988361382a565b9250828210156137ab576137aa613922565b5b828203905092915050565b60006137c18261380a565b9050919050565b60008115159050919050565b6000819050919050565b60007fffffffff0000000000000000000000000000000000000000000000000000000082169050919050565b600073ffffffffffffffffffffffffffffffffffffffff82169050919050565b6000819050919050565b600060ff82169050919050565b600061384c82613834565b9050919050565b82818337600083830152505050565b60005b83811015613880578082015181840152602081019050613865565b8381111561388f576000848401525b50505050565b60006138a08261382a565b915060008214156138b4576138b3613922565b5b600182039050919050565b600060028204905060018216806138d757607f821691505b602082108114156138eb576138ea613951565b5b50919050565b6138fa826139af565b810181811067ffffffffffffffff8211171561391957613918613980565b5b80604052505050565b7f4e487b7100000000000000000000000000000000000000000000000000000000600052601160045260246000fd5b7f4e487b7100000000000000000000000000000000000000000000000000000000600052602260045260246000fd5b7f4e487b7100000000000000000000000000000000000000000000000000000000600052604160045260246000fd5b6000601f19601f8301169050919050565b7f537472696e67733a20686578206c656e67746820696e73756666696369656e74600082015250565b7f45524332303a207472616e7366657220746f20746865207a65726f206164647260008201527f6573730000000000000000000000000000000000000000000000000000000000602082015250565b7f5061757361626c653a206e6f7420706175736564000000000000000000000000600082015250565b7f45524332303a206275726e20616d6f756e7420657863656564732062616c616e60008201527f6365000000000000000000000000000000000000000000000000000000000000602082015250565b7f45524332305072657365744d696e7465725061757365723a206d75737420686160008201527f76652070617573657220726f6c6520746f20756e706175736500000000000000602082015250565b7f45524332303a20617070726f766520746f20746865207a65726f20616464726560008201527f7373000000000000000000000000000000000000000000000000000000000000602082015250565b7f45524332303a20696e73756666696369656e7420616c6c6f77616e6365000000600082015250565b7f45524332303a207472616e7366657220616d6f756e742065786365656473206260008201527f616c616e63650000000000000000000000000000000000000000000000000000602082015250565b7f5061757361626c653a2070617573656400000000000000000000000000000000600082015250565b7f496e697469616c697a61626c653a20636f6e747261637420697320616c72656160008201527f647920696e697469616c697a6564000000000000000000000000000000000000602082015250565b7f45524332305072657365744d696e7465725061757365723a206d75737420686160008201527f7665206d696e74657220726f6c6520746f206d696e7400000000000000000000602082015250565b7f45524332303a206275726e2066726f6d20746865207a65726f2061646472657360008201527f7300000000000000000000000000000000000000000000000000000000000000602082015250565b7f55736520746865207375626d6974207472616e73616374696f6e2066756e637460008201527f696f6e0000000000000000000000000000000000000000000000000000000000602082015250565b7f45524332303a207472616e736665722066726f6d20746865207a65726f20616460008201527f6472657373000000000000000000000000000000000000000000000000000000602082015250565b7f45524332304361707065643a2063617020657863656564656400000000000000600082015250565b7f45524332303a20617070726f76652066726f6d20746865207a65726f2061646460008201527f7265737300000000000000000000000000000000000000000000000000000000602082015250565b7f45524332305072657365744d696e7465725061757365723a206d75737420686160008201527f76652070617573657220726f6c6520746f207061757365000000000000000000602082015250565b7f496e697469616c697a61626c653a20636f6e7472616374206973206e6f74206960008201527f6e697469616c697a696e67000000000000000000000000000000000000000000602082015250565b7f416363657373436f6e74726f6c3a206163636f756e7420000000000000000000600082015250565b7f6e6f742061646d696e0000000000000000000000000000000000000000000000600082015250565b7f45524332303a2064656372656173656420616c6c6f77616e63652062656c6f7760008201527f207a65726f000000000000000000000000000000000000000000000000000000602082015250565b7f206973206d697373696e6720726f6c6520000000000000000000000000000000600082015250565b7f416363657373436f6e74726f6c3a2063616e206f6e6c792072656e6f756e636560008201527f20726f6c657320666f722073656c660000000000000000000000000000000000602082015250565b7f45524332303a206d696e7420746f20746865207a65726f206164647265737300600082015250565b7f45524332305061757361626c653a20746f6b656e207472616e7366657220776860008201527f696c652070617573656400000000000000000000000000000000000000000000602082015250565b61402a816137b6565b811461403557600080fd5b50565b614041816137d4565b811461404c57600080fd5b50565b614058816137de565b811461406357600080fd5b50565b61406f8161382a565b811461407a57600080fd5b5056fea26469706673582212204c75fa660cf2eab0cb9613c10de466c4099c1547ab14ff0b84f67d652895cc5364736f6c63430008020033",
  "immutableReferences": {},
  "source": "// SPDX-License-Identifier: MIT\r\npragma solidity ^0.8.2;\r\n\r\nimport \"@openzeppelin/contracts-upgradeable/token/ERC20/presets/ERC20PresetMinterPauserUpgradeable.sol\";\r\nimport \"@openzeppelin/contracts-upgradeable/token/ERC20/ERC20Upgradeable.sol\";\r\n\r\ncontract WanderTokenBsc is ERC20PresetMinterPauserUpgradeable {\r\n    // Initializing the maximum supply of 1 billion to Wander token \r\n    uint256 private MAXSUPPLY;\r\n    string private _name;\r\n    string private _symbol;\r\n    uint8 private _decimals;\r\n\r\n    address private _requestSCAddress;\r\n\r\n    address[] public admins;\r\n    mapping(address => bool) public isAdmin;\r\n\r\n\r\n    // Required Modifiers and Involving Function Acting as Modifiers\r\n    modifier onlyAdmin(){\r\n        require(isAdmin[msg.sender], \"not admin\");\r\n        _;\r\n    }\r\n\r\n    // // Replacement to Constructor\r\n    // function init(address[] memory _admins, uint _numConfirmationsRequired) public initializer {\r\n    //     __ERC20_init(\"WANDER\", \"pWANDER\");\r\n    //     MAXSUPPLY = 1000000000 * 10 ** 18;\r\n    //     require(_admins.length > 0, \"more than 1 owner is required\");\r\n    //     require(_numConfirmationsRequired > 0 && _numConfirmationsRequired <= _admins.length, \"invalid number of confirmations\");\r\n    //     for (uint i = 0; i < _admins.length; i++){\r\n    //         require(_admins[i] != address(0), \"owner can't be the 0 address\");\r\n    //         require(!isAdmin[_admins[i]], \"owner not unique\");\r\n\r\n    //         isAdmin[_admins[i]] = true;\r\n    //         _setupRole(DEFAULT_ADMIN_ROLE, _admins[i]);\r\n    //         _setupRole(MINTER_ROLE, _admins[i]);\r\n    //         _setupRole(PAUSER_ROLE, _admins[i]);\r\n    //         admins.push(_admins[i]);\r\n    //     }\r\n    // }\r\n\r\n    function _mint(address account, uint256 amount) internal virtual override {\r\n        require(ERC20Upgradeable.totalSupply() + amount <= MAXSUPPLY, \"ERC20Capped: cap exceeded\");\r\n        super._mint(account, amount);\r\n    }\r\n\r\n    function transfer(address recipient, uint256 amount) public virtual override returns (bool) {\r\n        require(!(hasRole(DEFAULT_ADMIN_ROLE, msg.sender) && amount >= MAXSUPPLY), \"Use the submit transaction function\");\r\n        _transfer(_msgSender(), recipient, amount);\r\n        return true;\r\n    }\r\n\r\n    function transferRequest(address sender, address recipient, uint256 amount) public virtual returns (bool) {\r\n        require(!(hasRole(DEFAULT_ADMIN_ROLE, msg.sender) && amount >= MAXSUPPLY), \"Use the submit transaction function\");\r\n        _transfer(sender, recipient, amount);\r\n        return true;\r\n    }\r\n\r\n    function setRole(address _newAdmin) public onlyAdmin virtual {\r\n        _setupRole(DEFAULT_ADMIN_ROLE, _newAdmin);\r\n        _setupRole(MINTER_ROLE, _newAdmin);\r\n        _setupRole(PAUSER_ROLE, _newAdmin);\r\n    }\r\n\r\n    function removeRole(address _oldAdmin) public onlyAdmin virtual {\r\n        _revokeRole(DEFAULT_ADMIN_ROLE, _oldAdmin);\r\n        _revokeRole(MINTER_ROLE, _oldAdmin);\r\n        _revokeRole(PAUSER_ROLE, _oldAdmin);\r\n    }\r\n\r\n    function setRequestSCAddress(address _requestSCAddress) public onlyAdmin virtual {\r\n        _setupRole(DEFAULT_ADMIN_ROLE, _requestSCAddress);\r\n        _setupRole(MINTER_ROLE, _requestSCAddress);\r\n        _setupRole(PAUSER_ROLE, _requestSCAddress);\r\n    }\r\n    \r\n    function hello() public view returns(string memory){\r\n        return \"hello\";\r\n    }\r\n\r\n    // //Functions involved in addition/removal of admin\r\n    // function addAdmin(address _newAdmin, uint _reqIndex) public onlyAdmin reqExistsAndNotExecuted(_reqIndex) virtual {\r\n    //     require(admins.length <= numConfirmationsRequired + 2, \"maximum number of admins are allowed\");\r\n    //     require(requests[_reqIndex].method == 0, \"request method does not match\");\r\n    //     require(!isAdmin[_newAdmin], \"admin not unique\");\r\n    //     uint emptyIndex = 100;\r\n    //     for (uint i = 0; i < admins.length; i++){\r\n    //         if (admins[i] == address(0)){\r\n    //             emptyIndex = i;\r\n    //             break;\r\n    //         }\r\n    //     }\r\n    //     if (emptyIndex != 100){\r\n    //         admins[emptyIndex] = _newAdmin;\r\n    //     }\r\n    //     else {\r\n    //         admins.push(_newAdmin);\r\n    //     }\r\n    //     isAdmin[_newAdmin] = true;\r\n    //     _setupRole(DEFAULT_ADMIN_ROLE, _newAdmin);\r\n    //     _setupRole(MINTER_ROLE, _newAdmin);\r\n    //     _setupRole(PAUSER_ROLE, _newAdmin);\r\n    // }\r\n    // function removeAdmin(address _removedAdmin, uint _reqIndex) public onlyAdmin reqExistsAndNotExecuted(_reqIndex) fullyConfirmed(_reqIndex) virtual {\r\n    //     require(admins.length >= numConfirmationsRequired, \"minimum of number of admins are not met\");\r\n    //     require(requests[_reqIndex].method == 1, \"request method does not match\");\r\n    //     for (uint i = 0; i <= admins.length; i++){\r\n    //         if (admins[i] == _removedAdmin){\r\n    //             admins[i] = address(0);\r\n    //             break;\r\n    //         }\r\n    //     }\r\n    //     isAdmin[_removedAdmin] = false;\r\n    //     _revokeRole(DEFAULT_ADMIN_ROLE, _removedAdmin);\r\n    //     _revokeRole(MINTER_ROLE, _removedAdmin);\r\n    //     _revokeRole(PAUSER_ROLE, _removedAdmin);\r\n    // }\r\n}\r\n",
  "sourcePath": "C:\\Users\\steve\\Documents\\Steven's Documents\\Adactive Asia\\June 2022 Documentations\\WANDER_Upgradable_Truffle\\src\\contracts\\WanderTokenBsc.sol",
  "compiler": {
    "name": "solc",
    "version": "0.8.2+commit.661d1103.Emscripten.clang"
  },
  "schemaVersion": "3.4.7",
  "updatedAt": "2022-06-28T10:15:04.122Z",
  "devdoc": {
    "kind": "dev",
    "methods": {
      "allowance(address,address)": {
        "details": "See {IERC20-allowance}."
      },
      "approve(address,uint256)": {
        "details": "See {IERC20-approve}. NOTE: If `amount` is the maximum `uint256`, the allowance is not updated on `transferFrom`. This is semantically equivalent to an infinite approval. Requirements: - `spender` cannot be the zero address."
      },
      "balanceOf(address)": {
        "details": "See {IERC20-balanceOf}."
      },
      "burn(uint256)": {
        "details": "Destroys `amount` tokens from the caller. See {ERC20-_burn}."
      },
      "burnFrom(address,uint256)": {
        "details": "Destroys `amount` tokens from `account`, deducting from the caller's allowance. See {ERC20-_burn} and {ERC20-allowance}. Requirements: - the caller must have allowance for ``accounts``'s tokens of at least `amount`."
      },
      "decimals()": {
        "details": "Returns the number of decimals used to get its user representation. For example, if `decimals` equals `2`, a balance of `505` tokens should be displayed to a user as `5.05` (`505 / 10 ** 2`). Tokens usually opt for a value of 18, imitating the relationship between Ether and Wei. This is the value {ERC20} uses, unless this function is overridden; NOTE: This information is only used for _display_ purposes: it in no way affects any of the arithmetic of the contract, including {IERC20-balanceOf} and {IERC20-transfer}."
      },
      "decreaseAllowance(address,uint256)": {
        "details": "Atomically decreases the allowance granted to `spender` by the caller. This is an alternative to {approve} that can be used as a mitigation for problems described in {IERC20-approve}. Emits an {Approval} event indicating the updated allowance. Requirements: - `spender` cannot be the zero address. - `spender` must have allowance for the caller of at least `subtractedValue`."
      },
      "getRoleAdmin(bytes32)": {
        "details": "Returns the admin role that controls `role`. See {grantRole} and {revokeRole}. To change a role's admin, use {_setRoleAdmin}."
      },
      "getRoleMember(bytes32,uint256)": {
        "details": "Returns one of the accounts that have `role`. `index` must be a value between 0 and {getRoleMemberCount}, non-inclusive. Role bearers are not sorted in any particular way, and their ordering may change at any point. WARNING: When using {getRoleMember} and {getRoleMemberCount}, make sure you perform all queries on the same block. See the following https://forum.openzeppelin.com/t/iterating-over-elements-on-enumerableset-in-openzeppelin-contracts/2296[forum post] for more information."
      },
      "getRoleMemberCount(bytes32)": {
        "details": "Returns the number of accounts that have `role`. Can be used together with {getRoleMember} to enumerate all bearers of a role."
      },
      "grantRole(bytes32,address)": {
        "details": "Grants `role` to `account`. If `account` had not been already granted `role`, emits a {RoleGranted} event. Requirements: - the caller must have ``role``'s admin role."
      },
      "hasRole(bytes32,address)": {
        "details": "Returns `true` if `account` has been granted `role`."
      },
      "increaseAllowance(address,uint256)": {
        "details": "Atomically increases the allowance granted to `spender` by the caller. This is an alternative to {approve} that can be used as a mitigation for problems described in {IERC20-approve}. Emits an {Approval} event indicating the updated allowance. Requirements: - `spender` cannot be the zero address."
      },
      "mint(address,uint256)": {
        "details": "Creates `amount` new tokens for `to`. See {ERC20-_mint}. Requirements: - the caller must have the `MINTER_ROLE`."
      },
      "name()": {
        "details": "Returns the name of the token."
      },
      "pause()": {
        "details": "Pauses all token transfers. See {ERC20Pausable} and {Pausable-_pause}. Requirements: - the caller must have the `PAUSER_ROLE`."
      },
      "paused()": {
        "details": "Returns true if the contract is paused, and false otherwise."
      },
      "renounceRole(bytes32,address)": {
        "details": "Revokes `role` from the calling account. Roles are often managed via {grantRole} and {revokeRole}: this function's purpose is to provide a mechanism for accounts to lose their privileges if they are compromised (such as when a trusted device is misplaced). If the calling account had been revoked `role`, emits a {RoleRevoked} event. Requirements: - the caller must be `account`."
      },
      "revokeRole(bytes32,address)": {
        "details": "Revokes `role` from `account`. If `account` had been granted `role`, emits a {RoleRevoked} event. Requirements: - the caller must have ``role``'s admin role."
      },
      "supportsInterface(bytes4)": {
        "details": "See {IERC165-supportsInterface}."
      },
      "symbol()": {
        "details": "Returns the symbol of the token, usually a shorter version of the name."
      },
      "totalSupply()": {
        "details": "See {IERC20-totalSupply}."
      },
      "transferFrom(address,address,uint256)": {
        "details": "See {IERC20-transferFrom}. Emits an {Approval} event indicating the updated allowance. This is not required by the EIP. See the note at the beginning of {ERC20}. NOTE: Does not update the allowance if the current allowance is the maximum `uint256`. Requirements: - `from` and `to` cannot be the zero address. - `from` must have a balance of at least `amount`. - the caller must have allowance for ``from``'s tokens of at least `amount`."
      },
      "unpause()": {
        "details": "Unpauses all token transfers. See {ERC20Pausable} and {Pausable-_unpause}. Requirements: - the caller must have the `PAUSER_ROLE`."
      }
    },
    "version": 1
  },
  "userdoc": {
    "kind": "user",
    "methods": {},
    "version": 1
  }
}